{"abi":[{"type":"constructor","inputs":[{"name":"_initialOwner","type":"address","internalType":"address"}],"stateMutability":"nonpayable"},{"type":"function","name":"allowance","inputs":[{"name":"owner","type":"address","internalType":"address"},{"name":"spender","type":"address","internalType":"address"}],"outputs":[{"name":"","type":"uint256","internalType":"uint256"}],"stateMutability":"view"},{"type":"function","name":"approve","inputs":[{"name":"spender","type":"address","internalType":"address"},{"name":"value","type":"uint256","internalType":"uint256"}],"outputs":[{"name":"","type":"bool","internalType":"bool"}],"stateMutability":"nonpayable"},{"type":"function","name":"balanceOf","inputs":[{"name":"account","type":"address","internalType":"address"}],"outputs":[{"name":"","type":"uint256","internalType":"uint256"}],"stateMutability":"view"},{"type":"function","name":"bondingCurve","inputs":[],"outputs":[{"name":"","type":"address","internalType":"address"}],"stateMutability":"view"},{"type":"function","name":"burn","inputs":[{"name":"from","type":"address","internalType":"address"},{"name":"amount","type":"uint256","internalType":"uint256"}],"outputs":[],"stateMutability":"nonpayable"},{"type":"function","name":"decimals","inputs":[],"outputs":[{"name":"","type":"uint8","internalType":"uint8"}],"stateMutability":"view"},{"type":"function","name":"mint","inputs":[{"name":"to","type":"address","internalType":"address"},{"name":"amount","type":"uint256","internalType":"uint256"}],"outputs":[],"stateMutability":"nonpayable"},{"type":"function","name":"name","inputs":[],"outputs":[{"name":"","type":"string","internalType":"string"}],"stateMutability":"view"},{"type":"function","name":"owner","inputs":[],"outputs":[{"name":"","type":"address","internalType":"address"}],"stateMutability":"view"},{"type":"function","name":"renounceOwnership","inputs":[],"outputs":[],"stateMutability":"nonpayable"},{"type":"function","name":"setBondingCurve","inputs":[{"name":"_bondingCurve","type":"address","internalType":"address"}],"outputs":[],"stateMutability":"nonpayable"},{"type":"function","name":"symbol","inputs":[],"outputs":[{"name":"","type":"string","internalType":"string"}],"stateMutability":"view"},{"type":"function","name":"totalSupply","inputs":[],"outputs":[{"name":"","type":"uint256","internalType":"uint256"}],"stateMutability":"view"},{"type":"function","name":"transfer","inputs":[{"name":"to","type":"address","internalType":"address"},{"name":"value","type":"uint256","internalType":"uint256"}],"outputs":[{"name":"","type":"bool","internalType":"bool"}],"stateMutability":"nonpayable"},{"type":"function","name":"transferFrom","inputs":[{"name":"from","type":"address","internalType":"address"},{"name":"to","type":"address","internalType":"address"},{"name":"value","type":"uint256","internalType":"uint256"}],"outputs":[{"name":"","type":"bool","internalType":"bool"}],"stateMutability":"nonpayable"},{"type":"function","name":"transferOwnership","inputs":[{"name":"newOwner","type":"address","internalType":"address"}],"outputs":[],"stateMutability":"nonpayable"},{"type":"event","name":"Approval","inputs":[{"name":"owner","type":"address","indexed":true,"internalType":"address"},{"name":"spender","type":"address","indexed":true,"internalType":"address"},{"name":"value","type":"uint256","indexed":false,"internalType":"uint256"}],"anonymous":false},{"type":"event","name":"BondingCurveSet","inputs":[{"name":"bondingCurve","type":"address","indexed":true,"internalType":"address"}],"anonymous":false},{"type":"event","name":"OwnershipTransferred","inputs":[{"name":"previousOwner","type":"address","indexed":true,"internalType":"address"},{"name":"newOwner","type":"address","indexed":true,"internalType":"address"}],"anonymous":false},{"type":"event","name":"Transfer","inputs":[{"name":"from","type":"address","indexed":true,"internalType":"address"},{"name":"to","type":"address","indexed":true,"internalType":"address"},{"name":"value","type":"uint256","indexed":false,"internalType":"uint256"}],"anonymous":false},{"type":"error","name":"ERC20InsufficientAllowance","inputs":[{"name":"spender","type":"address","internalType":"address"},{"name":"allowance","type":"uint256","internalType":"uint256"},{"name":"needed","type":"uint256","internalType":"uint256"}]},{"type":"error","name":"ERC20InsufficientBalance","inputs":[{"name":"sender","type":"address","internalType":"address"},{"name":"balance","type":"uint256","internalType":"uint256"},{"name":"needed","type":"uint256","internalType":"uint256"}]},{"type":"error","name":"ERC20InvalidApprover","inputs":[{"name":"approver","type":"address","internalType":"address"}]},{"type":"error","name":"ERC20InvalidReceiver","inputs":[{"name":"receiver","type":"address","internalType":"address"}]},{"type":"error","name":"ERC20InvalidSender","inputs":[{"name":"sender","type":"address","internalType":"address"}]},{"type":"error","name":"ERC20InvalidSpender","inputs":[{"name":"spender","type":"address","internalType":"address"}]},{"type":"error","name":"OnlyBondingCurve","inputs":[]},{"type":"error","name":"OwnableInvalidOwner","inputs":[{"name":"owner","type":"address","internalType":"address"}]},{"type":"error","name":"OwnableUnauthorizedAccount","inputs":[{"name":"account","type":"address","internalType":"address"}]}],"bytecode":{"object":"0x60806040523461039c57610d7b6020813803918261001c816103a0565b93849283398101031261039c57516001600160a01b0381169081900361039c5761004660406103a0565b90600a825269476f6c64204772616d7360b01b602083015261006860406103a0565b600481526311d3d31160e21b602082015282519091906001600160401b0381116102a257600354600181811c91168015610392575b602082101461028457601f8111610324575b506020601f82116001146102c157819293945f926102b6575b50508160011b915f199060031b1c1916176003555b81516001600160401b0381116102a257600454600181811c91168015610298575b602082101461028457601f8111610216575b50602092601f82116001146101b557928192935f926101aa575b50508160011b915f199060031b1c1916176004555b801561019757600580546001600160a01b03198116831790915560405191906001600160a01b03167f8be0079c531659141344cd1fd0a4f28419497f9722a3daafe3b4186f6b6457e05f80a36109b590816103c68239f35b631e4fbdf760e01b5f525f60045260245ffd5b015190505f8061012a565b601f1982169360045f52805f20915f5b8681106101fe57508360019596106101e6575b505050811b0160045561013f565b01515f1960f88460031b161c191690555f80806101d8565b919260206001819286850151815501940192016101c5565b818111156101105760045f52601f820160051c7f8a35acfbc15ff81a39ae7d344fd709f28e8600b4aa8c65c6b64bfe7fe36bd19b6020841061027c575b81601f9101920160051c03905f5b82811061026f575050610110565b5f82820155600101610261565b5f9150610253565b634e487b7160e01b5f52602260045260245ffd5b90607f16906100fe565b634e487b7160e01b5f52604160045260245ffd5b015190505f806100c8565b601f1982169060035f52805f20915f5b81811061030c575095836001959697106102f4575b505050811b016003556100dd565b01515f1960f88460031b161c191690555f80806102e6565b9192602060018192868b0151815501940192016102d1565b818111156100af5760035f52601f820160051c7fc2575a0e9e593c00f959f8c92f12db2869c3395a3b0502d05e2516446f71f85b6020841061038a575b81601f9101920160051c03905f5b82811061037d5750506100af565b5f8282015560010161036f565b5f9150610361565b90607f169061009d565b5f80fd5b6040519190601f01601f191682016001600160401b038111838210176102a25760405256fe6080806040526004361015610012575f80fd5b5f3560e01c90816306fdde031461079c57508063095ea7b31461071a57806318160ddd146106fd57806323b872dd1461061e578063313ce5671461060357806340c10f191461054c57806343ff1fb8146104a557806370a082311461046e578063715018a6146104135780638da5cb5b146103eb57806395d89b41146102d05780639dc29fac146101ff578063a9059cbb146101ce578063dd62ed3e1461017e578063eff1d50e146101565763f2fde38b146100cc575f80fd5b34610152576020366003190112610152576100e5610895565b6100ed610958565b6001600160a01b0316801561013f57600580546001600160a01b0319811683179091556001600160a01b03167f8be0079c531659141344cd1fd0a4f28419497f9722a3daafe3b4186f6b6457e05f80a3005b631e4fbdf760e01b5f525f60045260245ffd5b5f80fd5b34610152575f366003190112610152576006546040516001600160a01b039091168152602090f35b3461015257604036600319011261015257610197610895565b61019f6108ab565b6001600160a01b039182165f908152600160209081526040808320949093168252928352819020549051908152f35b34610152576040366003190112610152576101f46101ea610895565b60243590336108c1565b602060405160018152f35b3461015257604036600319011261015257610218610895565b60065460243591906001600160a01b031633036102c1576001600160a01b031680156102ae57805f525f60205260405f2054828110610295576020835f947fddf252ad1be2c89b69c2b068fc378daa952ba7f163c4a11628f55a4df523b3ef938587528684520360408620558060025403600255604051908152a3005b9063391434e360e21b5f5260045260245260445260645ffd5b634b637e8f60e11b5f525f60045260245ffd5b630fb54f0760e21b5f5260045ffd5b34610152575f366003190112610152576040515f6004548060011c906001811680156103e1575b6020831081146103cd578285529081156103b1575060011461035c575b50819003601f01601f191681019067ffffffffffffffff821181831017610348576103448291826040528261086b565b0390f35b634e487b7160e01b5f52604160045260245ffd5b905060045f527f8a35acfbc15ff81a39ae7d344fd709f28e8600b4aa8c65c6b64bfe7fe36bd19b5f905b82821061039b57506020915082010182610314565b6001816020925483858801015201910190610386565b90506020925060ff191682840152151560051b82010182610314565b634e487b7160e01b5f52602260045260245ffd5b91607f16916102f7565b34610152575f366003190112610152576005546040516001600160a01b039091168152602090f35b34610152575f3660031901126101525761042b610958565b600580546001600160a01b031981169091555f906001600160a01b03167f8be0079c531659141344cd1fd0a4f28419497f9722a3daafe3b4186f6b6457e08280a3005b34610152576020366003190112610152576001600160a01b0361048f610895565b165f525f602052602060405f2054604051908152f35b34610152576020366003190112610152576104be610895565b6104c6610958565b600654906001600160a01b038216610519576001600160a01b03166001600160a01b03199190911681176006557f9727cfa482a12f4e6e53820c476bc0cd8214e4ed5784a846ad9832ad035f8a555f80a2005b60405162461bcd60e51b815260206004820152600b60248201526a105b1c9958591e481cd95d60aa1b6044820152606490fd5b3461015257604036600319011261015257610565610895565b60065460243591906001600160a01b031633036102c1576001600160a01b03169081156105f057600254908082018092116105dc5760207fddf252ad1be2c89b69c2b068fc378daa952ba7f163c4a11628f55a4df523b3ef915f9360025584845283825260408420818154019055604051908152a3005b634e487b7160e01b5f52601160045260245ffd5b63ec442f0560e01b5f525f60045260245ffd5b34610152575f36600319011261015257602060405160128152f35b3461015257606036600319011261015257610637610895565b61063f6108ab565b6001600160a01b0382165f818152600160209081526040808320338452909152902054909260443592915f19811061067d575b506101f493506108c1565b8381106106e25784156106cf5733156106bc576101f4945f52600160205260405f2060018060a01b0333165f526020528360405f209103905584610672565b634a1406b160e11b5f525f60045260245ffd5b63e602df0560e01b5f525f60045260245ffd5b8390637dc7a0d960e11b5f523360045260245260445260645ffd5b34610152575f366003190112610152576020600254604051908152f35b3461015257604036600319011261015257610733610895565b6024359033156106cf576001600160a01b03169081156106bc57335f52600160205260405f20825f526020528060405f20556040519081527f8c5be1e5ebec7d5bd14f71427d1e84f3dd0314c0f7b2291e5b200ac8c7c3b92560203392a3602060405160018152f35b34610152575f366003190112610152575f6003548060011c90600181168015610861575b6020831081146103cd578285529081156103b1575060011461080c5750819003601f01601f191681019067ffffffffffffffff821181831017610348576103448291826040528261086b565b905060035f527fc2575a0e9e593c00f959f8c92f12db2869c3395a3b0502d05e2516446f71f85b5f905b82821061084b57506020915082010182610314565b6001816020925483858801015201910190610836565b91607f16916107c0565b602060409281835280519182918282860152018484015e5f828201840152601f01601f1916010190565b600435906001600160a01b038216820361015257565b602435906001600160a01b038216820361015257565b6001600160a01b03169081156102ae576001600160a01b03169182156105f057815f525f60205260405f205481811061093f57817fddf252ad1be2c89b69c2b068fc378daa952ba7f163c4a11628f55a4df523b3ef92602092855f525f84520360405f2055845f525f825260405f20818154019055604051908152a3565b8263391434e360e21b5f5260045260245260445260645ffd5b6005546001600160a01b0316330361096c57565b63118cdaa760e01b5f523360045260245ffdfea26469706673582212200051085ae703f16f8d5430ef0b3653ba5cf669055df9f047f238a27fa053804164736f6c63430008220033","linkReferences":{}},"methodIdentifiers":{"allowance(address,address)":"dd62ed3e","approve(address,uint256)":"095ea7b3","balanceOf(address)":"70a08231","bondingCurve()":"eff1d50e","burn(address,uint256)":"9dc29fac","decimals()":"313ce567","mint(address,uint256)":"40c10f19","name()":"06fdde03","owner()":"8da5cb5b","renounceOwnership()":"715018a6","setBondingCurve(address)":"43ff1fb8","symbol()":"95d89b41","totalSupply()":"18160ddd","transfer(address,uint256)":"a9059cbb","transferFrom(address,address,uint256)":"23b872dd","transferOwnership(address)":"f2fde38b"},"id":3}