{"abi":[{"type":"constructor","inputs":[{"name":"_initialOwner","type":"address","internalType":"address"}],"stateMutability":"nonpayable"},{"type":"function","name":"allowance","inputs":[{"name":"owner","type":"address","internalType":"address"},{"name":"spender","type":"address","internalType":"address"}],"outputs":[{"name":"","type":"uint256","internalType":"uint256"}],"stateMutability":"view"},{"type":"function","name":"approve","inputs":[{"name":"spender","type":"address","internalType":"address"},{"name":"value","type":"uint256","internalType":"uint256"}],"outputs":[{"name":"","type":"bool","internalType":"bool"}],"stateMutability":"nonpayable"},{"type":"function","name":"balanceOf","inputs":[{"name":"account","type":"address","internalType":"address"}],"outputs":[{"name":"","type":"uint256","internalType":"uint256"}],"stateMutability":"view"},{"type":"function","name":"bondingCurve","inputs":[],"outputs":[{"name":"","type":"address","internalType":"address"}],"stateMutability":"view"},{"type":"function","name":"burn","inputs":[{"name":"from","type":"address","internalType":"address"},{"name":"amount","type":"uint256","internalType":"uint256"}],"outputs":[],"stateMutability":"nonpayable"},{"type":"function","name":"decimals","inputs":[],"outputs":[{"name":"","type":"uint8","internalType":"uint8"}],"stateMutability":"view"},{"type":"function","name":"mint","inputs":[{"name":"to","type":"address","internalType":"address"},{"name":"amount","type":"uint256","internalType":"uint256"}],"outputs":[],"stateMutability":"nonpayable"},{"type":"function","name":"name","inputs":[],"outputs":[{"name":"","type":"string","internalType":"string"}],"stateMutability":"view"},{"type":"function","name":"owner","inputs":[],"outputs":[{"name":"","type":"address","internalType":"address"}],"stateMutability":"view"},{"type":"function","name":"renounceOwnership","inputs":[],"outputs":[],"stateMutability":"nonpayable"},{"type":"function","name":"setBondingCurve","inputs":[{"name":"_bondingCurve","type":"address","internalType":"address"}],"outputs":[],"stateMutability":"nonpayable"},{"type":"function","name":"symbol","inputs":[],"outputs":[{"name":"","type":"string","internalType":"string"}],"stateMutability":"view"},{"type":"function","name":"totalSupply","inputs":[],"outputs":[{"name":"","type":"uint256","internalType":"uint256"}],"stateMutability":"view"},{"type":"function","name":"transfer","inputs":[{"name":"to","type":"address","internalType":"address"},{"name":"value","type":"uint256","internalType":"uint256"}],"outputs":[{"name":"","type":"bool","internalType":"bool"}],"stateMutability":"nonpayable"},{"type":"function","name":"transferFrom","inputs":[{"name":"from","type":"address","internalType":"address"},{"name":"to","type":"address","internalType":"address"},{"name":"value","type":"uint256","internalType":"uint256"}],"outputs":[{"name":"","type":"bool","internalType":"bool"}],"stateMutability":"nonpayable"},{"type":"function","name":"transferOwnership","inputs":[{"name":"newOwner","type":"address","internalType":"address"}],"outputs":[],"stateMutability":"nonpayable"},{"type":"event","name":"Approval","inputs":[{"name":"owner","type":"address","indexed":true,"internalType":"address"},{"name":"spender","type":"address","indexed":true,"internalType":"address"},{"name":"value","type":"uint256","indexed":false,"internalType":"uint256"}],"anonymous":false},{"type":"event","name":"BondingCurveSet","inputs":[{"name":"bondingCurve","type":"address","indexed":true,"internalType":"address"}],"anonymous":false},{"type":"event","name":"OwnershipTransferred","inputs":[{"name":"previousOwner","type":"address","indexed":true,"internalType":"address"},{"name":"newOwner","type":"address","indexed":true,"internalType":"address"}],"anonymous":false},{"type":"event","name":"Transfer","inputs":[{"name":"from","type":"address","indexed":true,"internalType":"address"},{"name":"to","type":"address","indexed":true,"internalType":"address"},{"name":"value","type":"uint256","indexed":false,"internalType":"uint256"}],"anonymous":false},{"type":"error","name":"ERC20InsufficientAllowance","inputs":[{"name":"spender","type":"address","internalType":"address"},{"name":"allowance","type":"uint256","internalType":"uint256"},{"name":"needed","type":"uint256","internalType":"uint256"}]},{"type":"error","name":"ERC20InsufficientBalance","inputs":[{"name":"sender","type":"address","internalType":"address"},{"name":"balance","type":"uint256","internalType":"uint256"},{"name":"needed","type":"uint256","internalType":"uint256"}]},{"type":"error","name":"ERC20InvalidApprover","inputs":[{"name":"approver","type":"address","internalType":"address"}]},{"type":"error","name":"ERC20InvalidReceiver","inputs":[{"name":"receiver","type":"address","internalType":"address"}]},{"type":"error","name":"ERC20InvalidSender","inputs":[{"name":"sender","type":"address","internalType":"address"}]},{"type":"error","name":"ERC20InvalidSpender","inputs":[{"name":"spender","type":"address","internalType":"address"}]},{"type":"error","name":"OnlyBondingCurve","inputs":[]},{"type":"error","name":"OwnableInvalidOwner","inputs":[{"name":"owner","type":"address","internalType":"address"}]},{"type":"error","name":"OwnableUnauthorizedAccount","inputs":[{"name":"account","type":"address","internalType":"address"}]}],"bytecode":{"object":"0x60806040523461002f576100196100146100f4565b6101e3565b610021610034565b61133f610632823961133f90f35b61003a565b60405190565b5f80fd5b601f801991011690565b634e487b7160e01b5f52604160045260245ffd5b906100669061003e565b810190811060018060401b0382111761007e57604052565b610048565b9061009661008f610034565b928361005c565b565b5f80fd5b60018060a01b031690565b6100b09061009c565b90565b6100bc816100a7565b036100c357565b5f80fd5b905051906100d4826100b3565b565b906020828203126100ef576100ec915f016100c7565b90565b610098565b6101126119718038038061010781610083565b9283398101906100d6565b90565b60018060401b0381116101315761012d60209161003e565b0190565b610048565b9061014861014383610115565b610083565b918252565b5f7f476f6c64204772616d7300000000000000000000000000000000000000000000910152565b61017e600a610136565b9061018b6020830161014d565b565b610195610174565b90565b5f7f474f4c4400000000000000000000000000000000000000000000000000000000910152565b6101c96004610136565b906101d660208301610198565b565b6101e06101bf565b90565b6101fd906101ef61018d565b6101f76101d8565b9161024f565b565b90565b90565b61021961021461021e926101ff565b610202565b61009c565b90565b61022a90610205565b90565b610236906100a7565b9052565b919061024d905f6020850194019061022d565b565b916102599161050b565b8061027461026e6102695f610221565b6100a7565b916100a7565b1461028457610282906105d0565b565b6102a76102905f610221565b5f918291631e4fbdf760e01b83526004830161023a565b0390fd5b5190565b634e487b7160e01b5f52602260045260245ffd5b90600160028304921680156102e3575b60208310146102de57565b6102af565b91607f16916102d3565b5f5260205f2090565b601f602091010490565b1b90565b9190600861031f9102916103195f1984610300565b92610300565b9181191691161790565b90565b61034061033b61034592610329565b610202565b610329565b90565b90565b919061036161035c6103699361032c565b610348565b908354610304565b9055565b5f90565b6103839161037d61036d565b9161034b565b565b5f5b82811061039357505050565b806103a25f6001938501610371565b01610387565b9190601f81116103b8575b505050565b8181116103c5575b6103b3565b6103da6103d46103f8946102ed565b916102f6565b9160206103e6826102f6565b9110610400575b809101910390610385565b5f80806103c0565b505f6103ed565b1c90565b9061041b905f1990600802610407565b191690565b8161042a9161040b565b906002021790565b9061043c816102ab565b9060018060401b0382116104fa5761045e8261045885546102c3565b856103a8565b602090601f831160011461049257918091610481935f92610486575b5050610420565b90555b565b90915001515f8061047a565b601f198316916104a1856102ed565b925f5b8181106104e2575091600293918560019694106104c8575b50505002019055610484565b6104d8910151601f84169061040b565b90555f80806104bc565b919360206001819287870151815501950192016104a4565b610048565b9061050991610432565b565b9061051a6105219260036104ff565b60046104ff565b565b5f1c90565b60018060a01b031690565b61053f61054491610523565b610528565b90565b6105519054610533565b90565b5f1b90565b9061056a60018060a01b0391610554565b9181191691161790565b61058861058361058d9261009c565b610202565b61009c565b90565b61059990610574565b90565b6105a590610590565b90565b90565b906105c06105bb6105c79261059c565b6105a8565b8254610559565b9055565b5f0190565b6105da6005610547565b6105e58260056105ab565b906106196106137f8be0079c531659141344cd1fd0a4f28419497f9722a3daafe3b4186f6b6457e09361059c565b9161059c565b91610622610034565b8061062c816105cb565b0390a356fe60806040526004361015610013575b6106e4565b61001d5f3561011c565b806306fdde0314610117578063095ea7b31461011257806318160ddd1461010d57806323b872dd14610108578063313ce5671461010357806340c10f19146100fe57806343ff1fb8146100f957806370a08231146100f4578063715018a6146100ef5780638da5cb5b146100ea57806395d89b41146100e55780639dc29fac146100e0578063a9059cbb146100db578063dd62ed3e146100d6578063eff1d50e146100d15763f2fde38b0361000e576106b1565b61067c565b610602565b61059f565b61056b565b610536565b610501565b6104ac565b610477565b610444565b6103f2565b6103b8565b61035a565b6102eb565b610293565b6101aa565b60e01c90565b60405190565b5f80fd5b5f80fd5b5f91031261013a57565b61012c565b5190565b60209181520190565b90825f9392825e0152565b601f801991011690565b61018061018960209361018e936101778161013f565b93848093610143565b9586910161014c565b610157565b0190565b6101a79160208201915f818403910152610161565b90565b346101da576101ba366004610130565b6101d66101c5610841565b6101cd610122565b91829182610192565b0390f35b610128565b60018060a01b031690565b6101f3906101df565b90565b6101ff816101ea565b0361020657565b5f80fd5b90503590610217826101f6565b565b90565b61022581610219565b0361022c57565b5f80fd5b9050359061023d8261021c565b565b9190604083820312610267578061025b610264925f860161020a565b93602001610230565b90565b61012c565b151590565b61027a9061026c565b9052565b9190610291905f60208501940190610271565b565b346102c4576102c06102af6102a936600461023f565b9061085b565b6102b7610122565b9182918261027e565b0390f35b610128565b6102d290610219565b9052565b91906102e9905f602085019401906102c9565b565b3461031b576102fb366004610130565b6103176103066108aa565b61030e610122565b918291826102d6565b0390f35b610128565b90916060828403126103555761035261033b845f850161020a565b93610349816020860161020a565b93604001610230565b90565b61012c565b3461038b57610387610376610370366004610320565b916108c0565b61037e610122565b9182918261027e565b0390f35b610128565b60ff1690565b61039f90610390565b9052565b91906103b6905f60208501940190610396565b565b346103e8576103c8366004610130565b6103e46103d3610915565b6103db610122565b918291826103a3565b0390f35b610128565b5f0190565b346104215761040b61040536600461023f565b9061094c565b610413610122565b8061041d816103ed565b0390f35b610128565b9060208282031261043f5761043c915f0161020a565b90565b61012c565b346104725761045c610457366004610426565b610b46565b610464610122565b8061046e816103ed565b0390f35b610128565b346104a7576104a361049261048d366004610426565b610b67565b61049a610122565b918291826102d6565b0390f35b610128565b346104da576104bc366004610130565b6104c4610baa565b6104cc610122565b806104d6816103ed565b0390f35b610128565b6104e8906101ea565b9052565b91906104ff905f602085019401906104df565b565b3461053157610511366004610130565b61052d61051c610bb8565b610524610122565b918291826104ec565b0390f35b610128565b3461056657610546366004610130565b610562610551610bce565b610559610122565b91829182610192565b0390f35b610128565b3461059a5761058461057e36600461023f565b90610be4565b61058c610122565b80610596816103ed565b0390f35b610128565b346105d0576105cc6105bb6105b536600461023f565b90610c2d565b6105c3610122565b9182918261027e565b0390f35b610128565b91906040838203126105fd57806105f16105fa925f860161020a565b9360200161020a565b90565b61012c565b346106335761062f61061e6106183660046105d5565b90610c65565b610626610122565b918291826102d6565b0390f35b610128565b1c90565b60018060a01b031690565b61065790600861065c9302610638565b61063c565b90565b9061066a9154610647565b90565b61067960065f9061065f565b90565b346106ac5761068c366004610130565b6106a861069761066d565b61069f610122565b918291826104ec565b0390f35b610128565b346106df576106c96106c4366004610426565b610cf2565b6106d1610122565b806106db816103ed565b0390f35b610128565b5f80fd5b606090565b634e487b7160e01b5f52602260045260245ffd5b9060016002830492168015610721575b602083101461071c57565b6106ed565b91607f1691610711565b60209181520190565b5f5260205f2090565b905f929180549061075761075083610701565b809461072b565b916001811690815f146107ae5750600114610772575b505050565b61077f9192939450610734565b915f925b81841061079657505001905f808061076d565b60018160209295939554848601520191019290610783565b92949550505060ff19168252151560200201905f808061076d565b906107d39161073d565b90565b634e487b7160e01b5f52604160045260245ffd5b906107f490610157565b810190811067ffffffffffffffff82111761080e57604052565b6107d6565b9061083361082c92610823610122565b938480926107c9565b03836107ea565b565b61083e90610813565b90565b6108496106e8565b506108546003610835565b90565b5f90565b61087891610867610857565b50610870610cfd565b919091610d0a565b600190565b5f90565b5f1c90565b90565b61089561089a91610881565b610886565b90565b6108a79054610889565b90565b6108b261087d565b506108bd600261089d565b90565b916108ea926108cd610857565b506108e26108d9610cfd565b82908491610d5a565b919091610de6565b600190565b5f90565b90565b90565b61090d610908610912926108f3565b6108f6565b610390565b90565b61091d6108ef565b5061092860126108f9565b90565b61093761093c91610881565b61063c565b90565b610949905461092b565b90565b903361096961096361095e600661093f565b6101ea565b916101ea565b036109795761097791610e83565b565b5f630fb54f0760e21b815280610991600482016103ed565b0390fd5b6109a6906109a1610ee1565b610acc565b565b90565b6109bf6109ba6109c4926109a8565b6108f6565b6101df565b90565b6109d0906109ab565b90565b5f7f416c726561647920736574000000000000000000000000000000000000000000910152565b610a07600b602092610143565b610a10816109d3565b0190565b610a299060208101905f8183039101526109fa565b90565b15610a3357565b610a3b610122565b62461bcd60e51b815280610a5160048201610a14565b0390fd5b5f1b90565b90610a6b60018060a01b0391610a55565b9181191691161790565b610a89610a84610a8e926101df565b6108f6565b6101df565b90565b610a9a90610a75565b90565b610aa690610a91565b90565b90565b90610ac1610abc610ac892610a9d565b610aa9565b8254610a5a565b9055565b610af9610ad9600661093f565b610af3610aed610ae85f6109c7565b6101ea565b916101ea565b14610a2c565b610b04816006610aac565b610b2e7f9727cfa482a12f4e6e53820c476bc0cd8214e4ed5784a846ad9832ad035f8a5591610a9d565b90610b37610122565b80610b41816103ed565b0390a2565b610b4f90610995565b565b90610b5b90610a9d565b5f5260205260405f2090565b610b7d610b8291610b7661087d565b505f610b51565b61089d565b90565b610b8d610ee1565b610b95610b97565b565b610ba8610ba35f6109c7565b610f2f565b565b610bb2610b85565b565b5f90565b610bc0610bb4565b50610bcb600561093f565b90565b610bd66106e8565b50610be16004610835565b90565b9033610c01610bfb610bf6600661093f565b6101ea565b916101ea565b03610c1157610c0f91610f90565b565b5f630fb54f0760e21b815280610c29600482016103ed565b0390fd5b610c4a91610c39610857565b50610c42610cfd565b919091610de6565b600190565b90610c5990610a9d565b5f5260205260405f2090565b610c8a91610c80610c8592610c7861087d565b506001610c4f565b610b51565b61089d565b90565b610c9e90610c99610ee1565b610ca0565b565b80610cbb610cb5610cb05f6109c7565b6101ea565b916101ea565b14610ccb57610cc990610f2f565b565b610cee610cd75f6109c7565b5f918291631e4fbdf760e01b8352600483016104ec565b0390fd5b610cfb90610c8d565b565b610d05610bb4565b503390565b91610d189291600192611044565b565b604090610d43610d4a9496959396610d3960608401985f8501906104df565b60208301906102c9565b01906102c9565b565b90610d579103610219565b90565b929192610d68818390610c65565b9081610d7d610d775f19610219565b91610219565b10610d8a575b5050509050565b81610d9d610d9787610219565b91610219565b10610dc357610dba9394610db2919392610d4c565b905f92611044565b805f8080610d83565b50610de2849291925f938493637dc7a0d960e11b855260048501610d1a565b0390fd5b9182610e02610dfc610df75f6109c7565b6101ea565b916101ea565b14610e5c5781610e22610e1c610e175f6109c7565b6101ea565b916101ea565b14610e3557610e339291909161119a565b565b610e58610e415f6109c7565b5f91829163ec442f0560e01b8352600483016104ec565b0390fd5b610e7f610e685f6109c7565b5f918291634b637e8f60e11b8352600483016104ec565b0390fd5b80610e9e610e98610e935f6109c7565b6101ea565b916101ea565b14610eba57610eb891610eb05f6109c7565b91909161119a565b565b610edd610ec65f6109c7565b5f91829163ec442f0560e01b8352600483016104ec565b0390fd5b610ee9610bb8565b610f02610efc610ef7610cfd565b6101ea565b916101ea565b03610f0957565b610f2b610f14610cfd565b5f91829163118cdaa760e01b8352600483016104ec565b0390fd5b610f39600561093f565b610f44826005610aac565b90610f78610f727f8be0079c531659141344cd1fd0a4f28419497f9722a3daafe3b4186f6b6457e093610a9d565b91610a9d565b91610f81610122565b80610f8b816103ed565b0390a3565b9081610fac610fa6610fa15f6109c7565b6101ea565b916101ea565b14610fc857610fc69190610fbf5f6109c7565b909161119a565b565b610feb610fd45f6109c7565b5f918291634b637e8f60e11b8352600483016104ec565b0390fd5b90610ffb5f1991610a55565b9181191691161790565b61101961101461101e92610219565b6108f6565b610219565b90565b90565b9061103961103461104092611005565b611021565b8254610fef565b9055565b90928161106161105b6110565f6109c7565b6101ea565b916101ea565b1461112c578361108161107b6110765f6109c7565b6101ea565b916101ea565b14611105576110a5836110a061109960018690610c4f565b8790610b51565b611024565b6110af575b505050565b9190916110fa6110e86110e27f8c5be1e5ebec7d5bd14f71427d1e84f3dd0314c0f7b2291e5b200ac8c7c3b92593610a9d565b93610a9d565b936110f1610122565b918291826102d6565b0390a35f80806110aa565b6111286111115f6109c7565b5f918291634a1406b160e11b8352600483016104ec565b0390fd5b61114f6111385f6109c7565b5f91829163e602df0560e01b8352600483016104ec565b0390fd5b634e487b7160e01b5f52601160045260245ffd5b61117661117c91939293610219565b92610219565b820180921161118757565b611153565b906111979101610219565b90565b919091806111b86111b26111ad5f6109c7565b6101ea565b916101ea565b145f14611299576111dc6111d5836111d0600261089d565b611167565b6002611024565b5b826111f86111f26111ed5f6109c7565b6101ea565b916101ea565b145f1461126d5761121c61121583611210600261089d565b610d4c565b6002611024565b5b9190916112686112566112507fddf252ad1be2c89b69c2b068fc378daa952ba7f163c4a11628f55a4df523b3ef93610a9d565b93610a9d565b9361125f610122565b918291826102d6565b0390a3565b6112948261128e61127f5f8790610b51565b916112898361089d565b61118c565b90611024565b61121d565b6112ac6112a75f8390610b51565b61089d565b806112bf6112b985610219565b91610219565b106112e7576112d26112e2918490610d4c565b6112dd5f8490610b51565b611024565b6111dd565b906113059091925f93849363391434e360e21b855260048501610d1a565b0390fdfea26469706673582212203898f6c8bab45d081206752a288b43c6179ebd8953f8cc581c27dae7115df60a64736f6c63430008220033","linkReferences":{}},"methodIdentifiers":{"allowance(address,address)":"dd62ed3e","approve(address,uint256)":"095ea7b3","balanceOf(address)":"70a08231","bondingCurve()":"eff1d50e","burn(address,uint256)":"9dc29fac","decimals()":"313ce567","mint(address,uint256)":"40c10f19","name()":"06fdde03","owner()":"8da5cb5b","renounceOwnership()":"715018a6","setBondingCurve(address)":"43ff1fb8","symbol()":"95d89b41","totalSupply()":"18160ddd","transfer(address,uint256)":"a9059cbb","transferFrom(address,address,uint256)":"23b872dd","transferOwnership(address)":"f2fde38b"},"id":2}