{"abi":[{"type":"constructor","inputs":[{"name":"_name","type":"string","internalType":"string"},{"name":"_symbol","type":"string","internalType":"string"},{"name":"_description","type":"string","internalType":"string"},{"name":"_imageUrl","type":"string","internalType":"string"},{"name":"_creator","type":"address","internalType":"address"}],"stateMutability":"nonpayable"},{"type":"function","name":"allowance","inputs":[{"name":"owner","type":"address","internalType":"address"},{"name":"spender","type":"address","internalType":"address"}],"outputs":[{"name":"","type":"uint256","internalType":"uint256"}],"stateMutability":"view"},{"type":"function","name":"approve","inputs":[{"name":"spender","type":"address","internalType":"address"},{"name":"value","type":"uint256","internalType":"uint256"}],"outputs":[{"name":"","type":"bool","internalType":"bool"}],"stateMutability":"nonpayable"},{"type":"function","name":"balanceOf","inputs":[{"name":"account","type":"address","internalType":"address"}],"outputs":[{"name":"","type":"uint256","internalType":"uint256"}],"stateMutability":"view"},{"type":"function","name":"burn","inputs":[{"name":"from","type":"address","internalType":"address"},{"name":"amount","type":"uint256","internalType":"uint256"}],"outputs":[],"stateMutability":"nonpayable"},{"type":"function","name":"createdAt","inputs":[],"outputs":[{"name":"","type":"uint256","internalType":"uint256"}],"stateMutability":"view"},{"type":"function","name":"curve","inputs":[],"outputs":[{"name":"","type":"address","internalType":"address"}],"stateMutability":"view"},{"type":"function","name":"decimals","inputs":[],"outputs":[{"name":"","type":"uint8","internalType":"uint8"}],"stateMutability":"view"},{"type":"function","name":"description","inputs":[],"outputs":[{"name":"","type":"string","internalType":"string"}],"stateMutability":"view"},{"type":"function","name":"imageUrl","inputs":[],"outputs":[{"name":"","type":"string","internalType":"string"}],"stateMutability":"view"},{"type":"function","name":"mint","inputs":[{"name":"to","type":"address","internalType":"address"},{"name":"amount","type":"uint256","internalType":"uint256"}],"outputs":[],"stateMutability":"nonpayable"},{"type":"function","name":"name","inputs":[],"outputs":[{"name":"","type":"string","internalType":"string"}],"stateMutability":"view"},{"type":"function","name":"owner","inputs":[],"outputs":[{"name":"","type":"address","internalType":"address"}],"stateMutability":"view"},{"type":"function","name":"renounceOwnership","inputs":[],"outputs":[],"stateMutability":"nonpayable"},{"type":"function","name":"setCurve","inputs":[{"name":"_curve","type":"address","internalType":"address"}],"outputs":[],"stateMutability":"nonpayable"},{"type":"function","name":"symbol","inputs":[],"outputs":[{"name":"","type":"string","internalType":"string"}],"stateMutability":"view"},{"type":"function","name":"totalSupply","inputs":[],"outputs":[{"name":"","type":"uint256","internalType":"uint256"}],"stateMutability":"view"},{"type":"function","name":"transfer","inputs":[{"name":"to","type":"address","internalType":"address"},{"name":"value","type":"uint256","internalType":"uint256"}],"outputs":[{"name":"","type":"bool","internalType":"bool"}],"stateMutability":"nonpayable"},{"type":"function","name":"transferFrom","inputs":[{"name":"from","type":"address","internalType":"address"},{"name":"to","type":"address","internalType":"address"},{"name":"value","type":"uint256","internalType":"uint256"}],"outputs":[{"name":"","type":"bool","internalType":"bool"}],"stateMutability":"nonpayable"},{"type":"function","name":"transferOwnership","inputs":[{"name":"newOwner","type":"address","internalType":"address"}],"outputs":[],"stateMutability":"nonpayable"},{"type":"event","name":"Approval","inputs":[{"name":"owner","type":"address","indexed":true,"internalType":"address"},{"name":"spender","type":"address","indexed":true,"internalType":"address"},{"name":"value","type":"uint256","indexed":false,"internalType":"uint256"}],"anonymous":false},{"type":"event","name":"CurveSet","inputs":[{"name":"curve","type":"address","indexed":true,"internalType":"address"}],"anonymous":false},{"type":"event","name":"OwnershipTransferred","inputs":[{"name":"previousOwner","type":"address","indexed":true,"internalType":"address"},{"name":"newOwner","type":"address","indexed":true,"internalType":"address"}],"anonymous":false},{"type":"event","name":"Transfer","inputs":[{"name":"from","type":"address","indexed":true,"internalType":"address"},{"name":"to","type":"address","indexed":true,"internalType":"address"},{"name":"value","type":"uint256","indexed":false,"internalType":"uint256"}],"anonymous":false},{"type":"error","name":"ERC20InsufficientAllowance","inputs":[{"name":"spender","type":"address","internalType":"address"},{"name":"allowance","type":"uint256","internalType":"uint256"},{"name":"needed","type":"uint256","internalType":"uint256"}]},{"type":"error","name":"ERC20InsufficientBalance","inputs":[{"name":"sender","type":"address","internalType":"address"},{"name":"balance","type":"uint256","internalType":"uint256"},{"name":"needed","type":"uint256","internalType":"uint256"}]},{"type":"error","name":"ERC20InvalidApprover","inputs":[{"name":"approver","type":"address","internalType":"address"}]},{"type":"error","name":"ERC20InvalidReceiver","inputs":[{"name":"receiver","type":"address","internalType":"address"}]},{"type":"error","name":"ERC20InvalidSender","inputs":[{"name":"sender","type":"address","internalType":"address"}]},{"type":"error","name":"ERC20InvalidSpender","inputs":[{"name":"spender","type":"address","internalType":"address"}]},{"type":"error","name":"OwnableInvalidOwner","inputs":[{"name":"owner","type":"address","internalType":"address"}]},{"type":"error","name":"OwnableUnauthorizedAccount","inputs":[{"name":"account","type":"address","internalType":"address"}]}],"bytecode":{"object":"0x60806040523461067e576112d78038038061001981610682565b928339810160a08282031261067e5781516001600160401b03811161067e57816100449184016106a7565b60208301519092906001600160401b03811161067e57826100669183016106a7565b60408201519093906001600160401b03811161067e57836100889184016106a7565b60608301519093906001600160401b03811161067e576080916100ac9185016106a7565b9201516001600160a01b038116919082900361067e578051906001600160401b03821161039c5760035490600182811c92168015610674575b602083101461037e5781601f8493116105fe575b50602090601f8311600114610598575f9261058d575b50508160011b915f199060031b1c1916176003555b83516001600160401b03811161039c57600454600181811c91168015610583575b602082101461037e57601f8111610515575b50602094601f82116001146104b2579481929394955f926104a7575b50508160011b915f199060031b1c1916176004555b801561049457600580546001600160a01b0319811683179091556001600160a01b03167f8be0079c531659141344cd1fd0a4f28419497f9722a3daafe3b4186f6b6457e05f80a381516001600160401b03811161039c57600754600181811c9116801561048a575b602082101461037e57601f811161041c575b50602092601f82116001146103bb57928192935f926103b0575b50508160011b915f199060031b1c1916176007555b80516001600160401b03811161039c57600854600181811c91168015610392575b602082101461037e57601f8111610310575b50602091601f82116001146102b0579181925f926102a5575b50508160011b915f199060031b1c1916176008555b42600955604051610bde90816106f98239f35b015190505f8061027d565b601f1982169260085f52805f20915f5b8581106102f8575083600195106102e0575b505050811b01600855610292565b01515f1960f88460031b161c191690555f80806102d2565b919260206001819286850151815501940192016102c0565b818111156102645760085f52601f820160051c7ff3f7a9fe364faab93b216da50a3214154f22a0a2b415b23a84c8169e8b636ee360208410610376575b81601f9101920160051c03905f5b828110610369575050610264565b5f8282015560010161035b565b5f915061034d565b634e487b7160e01b5f52602260045260245ffd5b90607f1690610252565b634e487b7160e01b5f52604160045260245ffd5b015190505f8061021c565b601f1982169360075f52805f20915f5b86811061040457508360019596106103ec575b505050811b01600755610231565b01515f1960f88460031b161c191690555f80806103de565b919260206001819286850151815501940192016103cb565b818111156102025760075f52601f820160051c7fa66cc928b5edb82af9bd49922954155ab7b0942694bea4ce44661d9a8736c68860208410610482575b81601f9101920160051c03905f5b828110610475575050610202565b5f82820155600101610467565b5f9150610459565b90607f16906101f0565b631e4fbdf760e01b5f525f60045260245ffd5b015190505f80610173565b601f1982169560045f52805f20915f5b8881106104fd575083600195969798106104e5575b505050811b01600455610188565b01515f1960f88460031b161c191690555f80806104d7565b919260206001819286850151815501940192016104c2565b818111156101575760045f52601f820160051c7f8a35acfbc15ff81a39ae7d344fd709f28e8600b4aa8c65c6b64bfe7fe36bd19b6020841061057b575b81601f9101920160051c03905f5b82811061056e575050610157565b5f82820155600101610560565b5f9150610552565b90607f1690610145565b015190505f8061010f565b60035f9081528281209350601f198516905b8181106105e657509084600195949392106105ce575b505050811b01600355610124565b01515f1960f88460031b161c191690555f80806105c0565b929360206001819287860151815501950193016105aa565b828111156100f95760035f52909150601f830160051c7fc2575a0e9e593c00f959f8c92f12db2869c3395a3b0502d05e2516446f71f85b6020851061066c575b849392601f0160051c82900391015f5b82811061065c5750506100f9565b5f8183015585945060010161064e565b5f915061063e565b91607f16916100e5565b5f80fd5b6040519190601f01601f191682016001600160401b0381118382101761039c57604052565b81601f8201121561067e578051906001600160401b03821161039c576106d6601f8301601f1916602001610682565b928284526020838301011161067e57815f9260208093018386015e830101529056fe60806040526004361015610011575f80fd5b5f3560e01c806306fdde031461097f578063095ea7b3146108fd57806318160ddd146108e057806323b872dd14610801578063313ce567146107e657806340c10f191461072d57806348dc9d2b1461068057806370a0823114610649578063715018a6146105ee5780637165485d146105c65780637284e416146104f15780638da5cb5b146104c957806395d89b41146103f45780639dc29fac14610330578063a9059cbb146102ff578063aba83150146101e1578063cf09e0d0146101c4578063dd62ed3e146101745763f2fde38b146100ea575f80fd5b3461017057602036600319011261017057610103610a7e565b61010b610b81565b6001600160a01b0316801561015d57600580546001600160a01b0319811683179091556001600160a01b03167f8be0079c531659141344cd1fd0a4f28419497f9722a3daafe3b4186f6b6457e05f80a3005b631e4fbdf760e01b5f525f60045260245ffd5b5f80fd5b346101705760403660031901126101705761018d610a7e565b610195610a94565b6001600160a01b039182165f908152600160209081526040808320949093168252928352819020549051908152f35b34610170575f366003190112610170576020600954604051908152f35b34610170575f366003190112610170576040515f6008548060011c906001811680156102f5575b6020831081146102e1578285529081156102c5575060011461026f575b50819003601f01601f191681019067ffffffffffffffff82118183101761025b57604082905281906102579082610a54565b0390f35b634e487b7160e01b5f52604160045260245ffd5b60085f9081529091507ff3f7a9fe364faab93b216da50a3214154f22a0a2b415b23a84c8169e8b636ee35b8282106102af57506020915082010182610225565b600181602092548385880101520191019061029a565b90506020925060ff191682840152151560051b82010182610225565b634e487b7160e01b5f52602260045260245ffd5b91607f1691610208565b346101705760403660031901126101705761032561031b610a7e565b6024359033610aea565b602060405160018152f35b3461017057604036600319011261017057610349610a7e565b6024359061036260018060a01b03600654163314610aaa565b6001600160a01b031680156103e157805f525f60205260405f20548281106103c8576020835f947fddf252ad1be2c89b69c2b068fc378daa952ba7f163c4a11628f55a4df523b3ef938587528684520360408620558060025403600255604051908152a3005b9063391434e360e21b5f5260045260245260445260645ffd5b634b637e8f60e11b5f525f60045260245ffd5b34610170575f366003190112610170576040515f6004548060011c906001811680156104bf575b6020831081146102e1578285529081156102c557506001146104695750819003601f01601f191681019067ffffffffffffffff82118183101761025b57604082905281906102579082610a54565b60045f9081529091507f8a35acfbc15ff81a39ae7d344fd709f28e8600b4aa8c65c6b64bfe7fe36bd19b5b8282106104a957506020915082010182610225565b6001816020925483858801015201910190610494565b91607f169161041b565b34610170575f366003190112610170576005546040516001600160a01b039091168152602090f35b34610170575f366003190112610170576040515f6007548060011c906001811680156105bc575b6020831081146102e1578285529081156102c557506001146105665750819003601f01601f191681019067ffffffffffffffff82118183101761025b57604082905281906102579082610a54565b60075f9081529091507fa66cc928b5edb82af9bd49922954155ab7b0942694bea4ce44661d9a8736c6885b8282106105a657506020915082010182610225565b6001816020925483858801015201910190610591565b91607f1691610518565b34610170575f366003190112610170576006546040516001600160a01b039091168152602090f35b34610170575f36600319011261017057610606610b81565b600580546001600160a01b031981169091555f906001600160a01b03167f8be0079c531659141344cd1fd0a4f28419497f9722a3daafe3b4186f6b6457e08280a3005b34610170576020366003190112610170576001600160a01b0361066a610a7e565b165f525f602052602060405f2054604051908152f35b3461017057602036600319011261017057610699610a7e565b6106a1610b81565b600654906001600160a01b0382166106f4576001600160a01b03166001600160a01b03199190911681176006557f6636b4acff97ba0537e64d4b936a4e28ed2cd8957674f5b583f8e5c2547ab6425f80a2005b60405162461bcd60e51b815260206004820152601160248201527010dd5c9d9948185b1c9958591e481cd95d607a1b6044820152606490fd5b3461017057604036600319011261017057610746610a7e565b6024359061075f60018060a01b03600654163314610aaa565b6001600160a01b03169081156107d357600254908082018092116107bf5760207fddf252ad1be2c89b69c2b068fc378daa952ba7f163c4a11628f55a4df523b3ef915f9360025584845283825260408420818154019055604051908152a3005b634e487b7160e01b5f52601160045260245ffd5b63ec442f0560e01b5f525f60045260245ffd5b34610170575f36600319011261017057602060405160128152f35b346101705760603660031901126101705761081a610a7e565b610822610a94565b6001600160a01b0382165f818152600160209081526040808320338452909152902054909260443592915f198110610860575b506103259350610aea565b8381106108c55784156108b257331561089f57610325945f52600160205260405f2060018060a01b0333165f526020528360405f209103905584610855565b634a1406b160e11b5f525f60045260245ffd5b63e602df0560e01b5f525f60045260245ffd5b8390637dc7a0d960e11b5f523360045260245260445260645ffd5b34610170575f366003190112610170576020600254604051908152f35b3461017057604036600319011261017057610916610a7e565b6024359033156108b2576001600160a01b031690811561089f57335f52600160205260405f20825f526020528060405f20556040519081527f8c5be1e5ebec7d5bd14f71427d1e84f3dd0314c0f7b2291e5b200ac8c7c3b92560203392a3602060405160018152f35b34610170575f366003190112610170576040515f6003548060011c90600181168015610a4a575b6020831081146102e1578285529081156102c557506001146109f45750819003601f01601f191681019067ffffffffffffffff82118183101761025b57604082905281906102579082610a54565b60035f9081529091507fc2575a0e9e593c00f959f8c92f12db2869c3395a3b0502d05e2516446f71f85b5b828210610a3457506020915082010182610225565b6001816020925483858801015201910190610a1f565b91607f16916109a6565b602060409281835280519182918282860152018484015e5f828201840152601f01601f1916010190565b600435906001600160a01b038216820361017057565b602435906001600160a01b038216820361017057565b15610ab157565b60405162461bcd60e51b81526020600482015260116024820152704f6e6c792070616972656420637572766560781b6044820152606490fd5b6001600160a01b03169081156103e1576001600160a01b03169182156107d357815f525f60205260405f2054818110610b6857817fddf252ad1be2c89b69c2b068fc378daa952ba7f163c4a11628f55a4df523b3ef92602092855f525f84520360405f2055845f525f825260405f20818154019055604051908152a3565b8263391434e360e21b5f5260045260245260445260645ffd5b6005546001600160a01b03163303610b9557565b63118cdaa760e01b5f523360045260245ffdfea2646970667358221220db748719c4828ae482b89b0cd14cd5f05c0a8871d42f0ee342ce298c834b200c64736f6c63430008220033","linkReferences":{}},"methodIdentifiers":{"allowance(address,address)":"dd62ed3e","approve(address,uint256)":"095ea7b3","balanceOf(address)":"70a08231","burn(address,uint256)":"9dc29fac","createdAt()":"cf09e0d0","curve()":"7165485d","decimals()":"313ce567","description()":"7284e416","imageUrl()":"aba83150","mint(address,uint256)":"40c10f19","name()":"06fdde03","owner()":"8da5cb5b","renounceOwnership()":"715018a6","setCurve(address)":"48dc9d2b","symbol()":"95d89b41","totalSupply()":"18160ddd","transfer(address,uint256)":"a9059cbb","transferFrom(address,address,uint256)":"23b872dd","transferOwnership(address)":"f2fde38b"},"id":5}