{"abi":[{"type":"constructor","inputs":[{"name":"_name","type":"string","internalType":"string"},{"name":"_symbol","type":"string","internalType":"string"},{"name":"_description","type":"string","internalType":"string"},{"name":"_imageUrl","type":"string","internalType":"string"},{"name":"_creator","type":"address","internalType":"address"}],"stateMutability":"nonpayable"},{"type":"function","name":"allowance","inputs":[{"name":"owner","type":"address","internalType":"address"},{"name":"spender","type":"address","internalType":"address"}],"outputs":[{"name":"","type":"uint256","internalType":"uint256"}],"stateMutability":"view"},{"type":"function","name":"approve","inputs":[{"name":"spender","type":"address","internalType":"address"},{"name":"value","type":"uint256","internalType":"uint256"}],"outputs":[{"name":"","type":"bool","internalType":"bool"}],"stateMutability":"nonpayable"},{"type":"function","name":"balanceOf","inputs":[{"name":"account","type":"address","internalType":"address"}],"outputs":[{"name":"","type":"uint256","internalType":"uint256"}],"stateMutability":"view"},{"type":"function","name":"burn","inputs":[{"name":"from","type":"address","internalType":"address"},{"name":"amount","type":"uint256","internalType":"uint256"}],"outputs":[],"stateMutability":"nonpayable"},{"type":"function","name":"createdAt","inputs":[],"outputs":[{"name":"","type":"uint256","internalType":"uint256"}],"stateMutability":"view"},{"type":"function","name":"curve","inputs":[],"outputs":[{"name":"","type":"address","internalType":"address"}],"stateMutability":"view"},{"type":"function","name":"decimals","inputs":[],"outputs":[{"name":"","type":"uint8","internalType":"uint8"}],"stateMutability":"view"},{"type":"function","name":"description","inputs":[],"outputs":[{"name":"","type":"string","internalType":"string"}],"stateMutability":"view"},{"type":"function","name":"imageUrl","inputs":[],"outputs":[{"name":"","type":"string","internalType":"string"}],"stateMutability":"view"},{"type":"function","name":"mint","inputs":[{"name":"to","type":"address","internalType":"address"},{"name":"amount","type":"uint256","internalType":"uint256"}],"outputs":[],"stateMutability":"nonpayable"},{"type":"function","name":"name","inputs":[],"outputs":[{"name":"","type":"string","internalType":"string"}],"stateMutability":"view"},{"type":"function","name":"owner","inputs":[],"outputs":[{"name":"","type":"address","internalType":"address"}],"stateMutability":"view"},{"type":"function","name":"renounceOwnership","inputs":[],"outputs":[],"stateMutability":"nonpayable"},{"type":"function","name":"setCurve","inputs":[{"name":"_curve","type":"address","internalType":"address"}],"outputs":[],"stateMutability":"nonpayable"},{"type":"function","name":"symbol","inputs":[],"outputs":[{"name":"","type":"string","internalType":"string"}],"stateMutability":"view"},{"type":"function","name":"totalSupply","inputs":[],"outputs":[{"name":"","type":"uint256","internalType":"uint256"}],"stateMutability":"view"},{"type":"function","name":"transfer","inputs":[{"name":"to","type":"address","internalType":"address"},{"name":"value","type":"uint256","internalType":"uint256"}],"outputs":[{"name":"","type":"bool","internalType":"bool"}],"stateMutability":"nonpayable"},{"type":"function","name":"transferFrom","inputs":[{"name":"from","type":"address","internalType":"address"},{"name":"to","type":"address","internalType":"address"},{"name":"value","type":"uint256","internalType":"uint256"}],"outputs":[{"name":"","type":"bool","internalType":"bool"}],"stateMutability":"nonpayable"},{"type":"function","name":"transferOwnership","inputs":[{"name":"newOwner","type":"address","internalType":"address"}],"outputs":[],"stateMutability":"nonpayable"},{"type":"event","name":"Approval","inputs":[{"name":"owner","type":"address","indexed":true,"internalType":"address"},{"name":"spender","type":"address","indexed":true,"internalType":"address"},{"name":"value","type":"uint256","indexed":false,"internalType":"uint256"}],"anonymous":false},{"type":"event","name":"CurveSet","inputs":[{"name":"curve","type":"address","indexed":true,"internalType":"address"}],"anonymous":false},{"type":"event","name":"OwnershipTransferred","inputs":[{"name":"previousOwner","type":"address","indexed":true,"internalType":"address"},{"name":"newOwner","type":"address","indexed":true,"internalType":"address"}],"anonymous":false},{"type":"event","name":"Transfer","inputs":[{"name":"from","type":"address","indexed":true,"internalType":"address"},{"name":"to","type":"address","indexed":true,"internalType":"address"},{"name":"value","type":"uint256","indexed":false,"internalType":"uint256"}],"anonymous":false},{"type":"error","name":"ERC20InsufficientAllowance","inputs":[{"name":"spender","type":"address","internalType":"address"},{"name":"allowance","type":"uint256","internalType":"uint256"},{"name":"needed","type":"uint256","internalType":"uint256"}]},{"type":"error","name":"ERC20InsufficientBalance","inputs":[{"name":"sender","type":"address","internalType":"address"},{"name":"balance","type":"uint256","internalType":"uint256"},{"name":"needed","type":"uint256","internalType":"uint256"}]},{"type":"error","name":"ERC20InvalidApprover","inputs":[{"name":"approver","type":"address","internalType":"address"}]},{"type":"error","name":"ERC20InvalidReceiver","inputs":[{"name":"receiver","type":"address","internalType":"address"}]},{"type":"error","name":"ERC20InvalidSender","inputs":[{"name":"sender","type":"address","internalType":"address"}]},{"type":"error","name":"ERC20InvalidSpender","inputs":[{"name":"spender","type":"address","internalType":"address"}]},{"type":"error","name":"OwnableInvalidOwner","inputs":[{"name":"owner","type":"address","internalType":"address"}]},{"type":"error","name":"OwnableUnauthorizedAccount","inputs":[{"name":"account","type":"address","internalType":"address"}]}],"bytecode":{"object":"0x6080604052346100335761001d61001461021a565b939290926104dd565b610025610038565b61150e6106d8823961150e90f35b61003e565b60405190565b5f80fd5b601f801991011690565b634e487b7160e01b5f52604160045260245ffd5b9061006a90610042565b810190811060018060401b0382111761008257604052565b61004c565b9061009a610093610038565b9283610060565b565b5f80fd5b5f80fd5b5f80fd5b5f80fd5b60018060401b0381116100c8576100c4602091610042565b0190565b61004c565b90825f9392825e0152565b909291926100ed6100e8826100ac565b610087565b9381855260208501908284011161010957610107926100cd565b565b6100a8565b9080601f8301121561012c57816020610129935191016100d8565b90565b6100a4565b60018060a01b031690565b61014590610131565b90565b6101518161013c565b0361015857565b5f80fd5b9050519061016982610148565b565b919060a083820312610215575f83015160018060401b038111610210578161019491850161010e565b92602081015160018060401b03811161020b57826101b391830161010e565b92604082015160018060401b03811161020657836101d291840161010e565b9260608301519060018060401b038211610201576101f5816101fe93860161010e565b9360800161015c565b90565b6100a0565b6100a0565b6100a0565b6100a0565b61009c565b610238611be68038038061022d81610087565b92833981019061016b565b9091929394565b5190565b634e487b7160e01b5f52602260045260245ffd5b9060016002830492168015610277575b602083101461027257565b610243565b91607f1691610267565b5f5260205f2090565b601f602091010490565b1b90565b919060086102b39102916102ad5f1984610294565b92610294565b9181191691161790565b90565b90565b6102d76102d26102dc926102bd565b6102c0565b6102bd565b90565b90565b91906102f86102f3610300936102c3565b6102df565b908354610298565b9055565b5f90565b61031a91610314610304565b916102e2565b565b5f5b82811061032a57505050565b806103395f6001938501610308565b0161031e565b9190601f811161034f575b505050565b81811161035c575b61034a565b61037161036b61038f94610281565b9161028a565b91602061037d8261028a565b9110610397575b80910191039061031c565b5f8080610357565b505f610384565b1c90565b906103b2905f199060080261039e565b191690565b816103c1916103a2565b906002021790565b906103d38161023f565b9060018060401b038211610491576103f5826103ef8554610257565b8561033f565b602090601f831160011461042957918091610418935f9261041d575b50506103b7565b90555b565b90915001515f80610411565b601f1983169161043885610281565b925f5b8181106104795750916002939185600196941061045f575b5050500201905561041b565b61046f910151601f8416906103a2565b90555f8080610453565b9193602060018192878701518155019501920161043b565b61004c565b906104a0916103c9565b565b5f1b90565b906104b35f19916104a2565b9181191691161790565b906104d26104cd6104d9926102c3565b6102df565b82546104a7565b9055565b6104f2906104f993926105009691909161055a565b6007610496565b6008610496565b61050b4260096104bd565b565b90565b61052461051f6105299261050d565b6102c0565b610131565b90565b61053590610510565b90565b6105419061013c565b9052565b9190610558905f60208501940190610538565b565b91610564916105b6565b8061057f6105796105745f61052c565b61013c565b9161013c565b1461058f5761058d90610676565b565b6105b261059b5f61052c565b5f918291631e4fbdf760e01b835260048301610545565b0390fd5b906105c56105cc926003610496565b6004610496565b565b5f1c90565b60018060a01b031690565b6105ea6105ef916105ce565b6105d3565b90565b6105fc90546105de565b90565b9061061060018060a01b03916104a2565b9181191691161790565b61062e61062961063392610131565b6102c0565b610131565b90565b61063f9061061a565b90565b61064b90610636565b90565b90565b9061066661066161066d92610642565b61064e565b82546105ff565b9055565b5f0190565b61068060056105f2565b61068b826005610651565b906106bf6106b97f8be0079c531659141344cd1fd0a4f28419497f9722a3daafe3b4186f6b6457e093610642565b91610642565b916106c8610038565b806106d281610671565b0390a356fe60806040526004361015610013575b61097c565b61001d5f3561014c565b806306fdde0314610147578063095ea7b31461014257806318160ddd1461013d57806323b872dd14610138578063313ce5671461013357806340c10f191461012e57806348dc9d2b1461012957806370a0823114610124578063715018a61461011f5780637165485d1461011a5780637284e416146101155780638da5cb5b1461011057806395d89b411461010b5780639dc29fac14610106578063a9059cbb14610101578063aba83150146100fc578063cf09e0d0146100f7578063dd62ed3e146100f25763f2fde38b0361000e57610949565b610913565b6108b1565b610844565b6107ff565b6107cb565b610796565b610761565b61072c565b610575565b6104dc565b6104a7565b610474565b610422565b6103e8565b61038a565b61031b565b6102c3565b6101da565b60e01c90565b60405190565b5f80fd5b5f80fd5b5f91031261016a57565b61015c565b5190565b60209181520190565b90825f9392825e0152565b601f801991011690565b6101b06101b96020936101be936101a78161016f565b93848093610173565b9586910161017c565b610187565b0190565b6101d79160208201915f818403910152610191565b90565b3461020a576101ea366004610160565b6102066101f5610991565b6101fd610152565b918291826101c2565b0390f35b610158565b60018060a01b031690565b6102239061020f565b90565b61022f8161021a565b0361023657565b5f80fd5b9050359061024782610226565b565b90565b61025581610249565b0361025c57565b5f80fd5b9050359061026d8261024c565b565b9190604083820312610297578061028b610294925f860161023a565b93602001610260565b90565b61015c565b151590565b6102aa9061029c565b9052565b91906102c1905f602085019401906102a1565b565b346102f4576102f06102df6102d936600461026f565b906109ab565b6102e7610152565b918291826102ae565b0390f35b610158565b61030290610249565b9052565b9190610319905f602085019401906102f9565b565b3461034b5761032b366004610160565b6103476103366109f7565b61033e610152565b91829182610306565b0390f35b610158565b90916060828403126103855761038261036b845f850161023a565b93610379816020860161023a565b93604001610260565b90565b61015c565b346103bb576103b76103a66103a0366004610350565b91610a0d565b6103ae610152565b918291826102ae565b0390f35b610158565b60ff1690565b6103cf906103c0565b9052565b91906103e6905f602085019401906103c6565b565b34610418576103f8366004610160565b610414610403610a62565b61040b610152565b918291826103d3565b0390f35b610158565b5f0190565b346104515761043b61043536600461026f565b90610b58565b610443610152565b8061044d8161041d565b0390f35b610158565b9060208282031261046f5761046c915f0161023a565b90565b61015c565b346104a25761048c610487366004610456565b610d15565b610494610152565b8061049e8161041d565b0390f35b610158565b346104d7576104d36104c26104bd366004610456565b610d36565b6104ca610152565b91829182610306565b0390f35b610158565b3461050a576104ec366004610160565b6104f4610d79565b6104fc610152565b806105068161041d565b0390f35b610158565b1c90565b60018060a01b031690565b61052e906008610533930261050f565b610513565b90565b90610541915461051e565b90565b61055060065f90610536565b90565b61055c9061021a565b9052565b9190610573905f60208501940190610553565b565b346105a557610585366004610160565b6105a1610590610544565b610598610152565b91829182610560565b0390f35b610158565b634e487b7160e01b5f525f60045260245ffd5b634e487b7160e01b5f52602260045260245ffd5b90600160028304921680156105f1575b60208310146105ec57565b6105bd565b91607f16916105e1565b60209181520190565b5f5260205f2090565b905f9291805490610627610620836105d1565b80946105fb565b916001811690815f1461067e5750600114610642575b505050565b61064f9192939450610604565b915f925b81841061066657505001905f808061063d565b60018160209295939554848601520191019290610653565b92949550505060ff19168252151560200201905f808061063d565b906106a39161060d565b90565b634e487b7160e01b5f52604160045260245ffd5b906106c490610187565b810190811067ffffffffffffffff8211176106de57604052565b6106a6565b906107036106fc926106f3610152565b93848092610699565b03836106ba565b565b905f1061071857610715906106e3565b90565b6105aa565b61072960075f90610705565b90565b3461075c5761073c366004610160565b61075861074761071d565b61074f610152565b918291826101c2565b0390f35b610158565b3461079157610771366004610160565b61078d61077c610d87565b610784610152565b91829182610560565b0390f35b610158565b346107c6576107a6366004610160565b6107c26107b1610d9d565b6107b9610152565b918291826101c2565b0390f35b610158565b346107fa576107e46107de36600461026f565b90610df0565b6107ec610152565b806107f68161041d565b0390f35b610158565b346108305761082c61081b61081536600461026f565b90610dfc565b610823610152565b918291826102ae565b0390f35b610158565b61084160085f90610705565b90565b3461087457610854366004610160565b61087061085f610835565b610867610152565b918291826101c2565b0390f35b610158565b90565b61088c906008610891930261050f565b610879565b90565b9061089f915461087c565b90565b6108ae60095f90610894565b90565b346108e1576108c1366004610160565b6108dd6108cc6108a2565b6108d4610152565b91829182610306565b0390f35b610158565b919060408382031261090e578061090261090b925f860161023a565b9360200161023a565b90565b61015c565b346109445761094061092f6109293660046108e6565b90610e34565b610937610152565b91829182610306565b0390f35b610158565b346109775761096161095c366004610456565b610ec1565b610969610152565b806109738161041d565b0390f35b610158565b5f80fd5b606090565b61098e906106e3565b90565b610999610980565b506109a46003610985565b90565b5f90565b6109c8916109b76109a7565b506109c0610ecc565b919091610ed9565b600190565b5f90565b5f1c90565b6109e26109e7916109d1565b610879565b90565b6109f490546109d6565b90565b6109ff6109cd565b50610a0a60026109ea565b90565b91610a3792610a1a6109a7565b50610a2f610a26610ecc565b82908491610f29565b919091610fb5565b600190565b5f90565b90565b90565b610a5a610a55610a5f92610a40565b610a43565b6103c0565b90565b610a6a610a3c565b50610a756012610a46565b90565b610a84610a89916109d1565b610513565b90565b610a969054610a78565b90565b5f7f4f6e6c7920706169726564206375727665000000000000000000000000000000910152565b610acd6011602092610173565b610ad681610a99565b0190565b610aef9060208101905f818303910152610ac0565b90565b15610af957565b610b01610152565b62461bcd60e51b815280610b1760048201610ada565b0390fd5b90610b4a91610b4533610b3f610b39610b346006610a8c565b61021a565b9161021a565b14610af2565b610b4c565b565b90610b5691611052565b565b90610b6291610b1b565b565b610b7590610b706110b0565b610c9b565b565b90565b610b8e610b89610b9392610b77565b610a43565b61020f565b90565b610b9f90610b7a565b90565b5f7f437572766520616c726561647920736574000000000000000000000000000000910152565b610bd66011602092610173565b610bdf81610ba2565b0190565b610bf89060208101905f818303910152610bc9565b90565b15610c0257565b610c0a610152565b62461bcd60e51b815280610c2060048201610be3565b0390fd5b5f1b90565b90610c3a60018060a01b0391610c24565b9181191691161790565b610c58610c53610c5d9261020f565b610a43565b61020f565b90565b610c6990610c44565b90565b610c7590610c60565b90565b90565b90610c90610c8b610c9792610c6c565b610c78565b8254610c29565b9055565b610cc8610ca86006610a8c565b610cc2610cbc610cb75f610b96565b61021a565b9161021a565b14610bfb565b610cd3816006610c7b565b610cfd7f6636b4acff97ba0537e64d4b936a4e28ed2cd8957674f5b583f8e5c2547ab64291610c6c565b90610d06610152565b80610d108161041d565b0390a2565b610d1e90610b64565b565b90610d2a90610c6c565b5f5260205260405f2090565b610d4c610d5191610d456109cd565b505f610d20565b6109ea565b90565b610d5c6110b0565b610d64610d66565b565b610d77610d725f610b96565b6110fe565b565b610d81610d54565b565b5f90565b610d8f610d83565b50610d9a6005610a8c565b90565b610da5610980565b50610db06004610985565b90565b90610de291610ddd33610dd7610dd1610dcc6006610a8c565b61021a565b9161021a565b14610af2565b610de4565b565b90610dee9161115f565b565b90610dfa91610db3565b565b610e1991610e086109a7565b50610e11610ecc565b919091610fb5565b600190565b90610e2890610c6c565b5f5260205260405f2090565b610e5991610e4f610e5492610e476109cd565b506001610e1e565b610d20565b6109ea565b90565b610e6d90610e686110b0565b610e6f565b565b80610e8a610e84610e7f5f610b96565b61021a565b9161021a565b14610e9a57610e98906110fe565b565b610ebd610ea65f610b96565b5f918291631e4fbdf760e01b835260048301610560565b0390fd5b610eca90610e5c565b565b610ed4610d83565b503390565b91610ee79291600192611213565b565b604090610f12610f199496959396610f0860608401985f850190610553565b60208301906102f9565b01906102f9565b565b90610f269103610249565b90565b929192610f37818390610e34565b9081610f4c610f465f19610249565b91610249565b10610f59575b5050509050565b81610f6c610f6687610249565b91610249565b10610f9257610f899394610f81919392610f1b565b905f92611213565b805f8080610f52565b50610fb1849291925f938493637dc7a0d960e11b855260048501610ee9565b0390fd5b9182610fd1610fcb610fc65f610b96565b61021a565b9161021a565b1461102b5781610ff1610feb610fe65f610b96565b61021a565b9161021a565b146110045761100292919091611369565b565b6110276110105f610b96565b5f91829163ec442f0560e01b835260048301610560565b0390fd5b61104e6110375f610b96565b5f918291634b637e8f60e11b835260048301610560565b0390fd5b8061106d6110676110625f610b96565b61021a565b9161021a565b14611089576110879161107f5f610b96565b919091611369565b565b6110ac6110955f610b96565b5f91829163ec442f0560e01b835260048301610560565b0390fd5b6110b8610d87565b6110d16110cb6110c6610ecc565b61021a565b9161021a565b036110d857565b6110fa6110e3610ecc565b5f91829163118cdaa760e01b835260048301610560565b0390fd5b6111086005610a8c565b611113826005610c7b565b906111476111417f8be0079c531659141344cd1fd0a4f28419497f9722a3daafe3b4186f6b6457e093610c6c565b91610c6c565b91611150610152565b8061115a8161041d565b0390a3565b908161117b6111756111705f610b96565b61021a565b9161021a565b1461119757611195919061118e5f610b96565b9091611369565b565b6111ba6111a35f610b96565b5f918291634b637e8f60e11b835260048301610560565b0390fd5b906111ca5f1991610c24565b9181191691161790565b6111e86111e36111ed92610249565b610a43565b610249565b90565b90565b9061120861120361120f926111d4565b6111f0565b82546111be565b9055565b90928161123061122a6112255f610b96565b61021a565b9161021a565b146112fb578361125061124a6112455f610b96565b61021a565b9161021a565b146112d4576112748361126f61126860018690610e1e565b8790610d20565b6111f3565b61127e575b505050565b9190916112c96112b76112b17f8c5be1e5ebec7d5bd14f71427d1e84f3dd0314c0f7b2291e5b200ac8c7c3b92593610c6c565b93610c6c565b936112c0610152565b91829182610306565b0390a35f8080611279565b6112f76112e05f610b96565b5f918291634a1406b160e11b835260048301610560565b0390fd5b61131e6113075f610b96565b5f91829163e602df0560e01b835260048301610560565b0390fd5b634e487b7160e01b5f52601160045260245ffd5b61134561134b91939293610249565b92610249565b820180921161135657565b611322565b906113669101610249565b90565b9190918061138761138161137c5f610b96565b61021a565b9161021a565b145f14611468576113ab6113a48361139f60026109ea565b611336565b60026111f3565b5b826113c76113c16113bc5f610b96565b61021a565b9161021a565b145f1461143c576113eb6113e4836113df60026109ea565b610f1b565b60026111f3565b5b91909161143761142561141f7fddf252ad1be2c89b69c2b068fc378daa952ba7f163c4a11628f55a4df523b3ef93610c6c565b93610c6c565b9361142e610152565b91829182610306565b0390a3565b6114638261145d61144e5f8790610d20565b91611458836109ea565b61135b565b906111f3565b6113ec565b61147b6114765f8390610d20565b6109ea565b8061148e61148885610249565b91610249565b106114b6576114a16114b1918490610f1b565b6114ac5f8490610d20565b6111f3565b6113ac565b906114d49091925f93849363391434e360e21b855260048501610ee9565b0390fdfea2646970667358221220a062fc8a18bd79ff8f6f296f3926e6c71a03fb7b76574e7b560686acea17fba564736f6c63430008220033","linkReferences":{}},"methodIdentifiers":{"allowance(address,address)":"dd62ed3e","approve(address,uint256)":"095ea7b3","balanceOf(address)":"70a08231","burn(address,uint256)":"9dc29fac","createdAt()":"cf09e0d0","curve()":"7165485d","decimals()":"313ce567","description()":"7284e416","imageUrl()":"aba83150","mint(address,uint256)":"40c10f19","name()":"06fdde03","owner()":"8da5cb5b","renounceOwnership()":"715018a6","setCurve(address)":"48dc9d2b","symbol()":"95d89b41","totalSupply()":"18160ddd","transfer(address,uint256)":"a9059cbb","transferFrom(address,address,uint256)":"23b872dd","transferOwnership(address)":"f2fde38b"},"id":4}