{"abi":[{"type":"constructor","inputs":[{"name":"_goldToken","type":"address","internalType":"address"},{"name":"_collateralToken","type":"address","internalType":"address"},{"name":"_feeRecipient","type":"address","internalType":"address"}],"stateMutability":"nonpayable"},{"type":"function","name":"BASIS_POINTS","inputs":[],"outputs":[{"name":"","type":"uint256","internalType":"uint256"}],"stateMutability":"view"},{"type":"function","name":"COLLATERAL_PRECISION","inputs":[],"outputs":[{"name":"","type":"uint256","internalType":"uint256"}],"stateMutability":"view"},{"type":"function","name":"FEE_PERCENT","inputs":[],"outputs":[{"name":"","type":"uint256","internalType":"uint256"}],"stateMutability":"view"},{"type":"function","name":"MAX_TX_AMOUNT","inputs":[],"outputs":[{"name":"","type":"uint256","internalType":"uint256"}],"stateMutability":"view"},{"type":"function","name":"PRECISION","inputs":[],"outputs":[{"name":"","type":"uint256","internalType":"uint256"}],"stateMutability":"view"},{"type":"function","name":"SLOPE","inputs":[],"outputs":[{"name":"","type":"uint256","internalType":"uint256"}],"stateMutability":"view"},{"type":"function","name":"buy","inputs":[{"name":"goldAmount","type":"uint256","internalType":"uint256"},{"name":"maxCollateralIn","type":"uint256","internalType":"uint256"}],"outputs":[],"stateMutability":"nonpayable"},{"type":"function","name":"calculateCost","inputs":[{"name":"supply","type":"uint256","internalType":"uint256"},{"name":"amount","type":"uint256","internalType":"uint256"}],"outputs":[{"name":"","type":"uint256","internalType":"uint256"}],"stateMutability":"view"},{"type":"function","name":"collateralToken","inputs":[],"outputs":[{"name":"","type":"address","internalType":"contract IERC20"}],"stateMutability":"view"},{"type":"function","name":"feeRecipient","inputs":[],"outputs":[{"name":"","type":"address","internalType":"address"}],"stateMutability":"view"},{"type":"function","name":"getCurrentPrice","inputs":[],"outputs":[{"name":"","type":"uint256","internalType":"uint256"}],"stateMutability":"view"},{"type":"function","name":"getGoldOut","inputs":[{"name":"collateralAmount","type":"uint256","internalType":"uint256"}],"outputs":[{"name":"","type":"uint256","internalType":"uint256"}],"stateMutability":"view"},{"type":"function","name":"getSellProceeds","inputs":[{"name":"goldAmount","type":"uint256","internalType":"uint256"}],"outputs":[{"name":"","type":"uint256","internalType":"uint256"}],"stateMutability":"view"},{"type":"function","name":"goldToken","inputs":[],"outputs":[{"name":"","type":"address","internalType":"contract GoldToken"}],"stateMutability":"view"},{"type":"function","name":"hasHeld","inputs":[{"name":"","type":"address","internalType":"address"}],"outputs":[{"name":"","type":"bool","internalType":"bool"}],"stateMutability":"view"},{"type":"function","name":"holdersCount","inputs":[],"outputs":[{"name":"","type":"uint256","internalType":"uint256"}],"stateMutability":"view"},{"type":"function","name":"owner","inputs":[],"outputs":[{"name":"","type":"address","internalType":"address"}],"stateMutability":"view"},{"type":"function","name":"renounceOwnership","inputs":[],"outputs":[],"stateMutability":"nonpayable"},{"type":"function","name":"rescueToken","inputs":[{"name":"_token","type":"address","internalType":"address"},{"name":"_amount","type":"uint256","internalType":"uint256"}],"outputs":[],"stateMutability":"nonpayable"},{"type":"function","name":"sell","inputs":[{"name":"goldAmount","type":"uint256","internalType":"uint256"},{"name":"minCollateralOut","type":"uint256","internalType":"uint256"}],"outputs":[],"stateMutability":"nonpayable"},{"type":"function","name":"totalVolume","inputs":[],"outputs":[{"name":"","type":"uint256","internalType":"uint256"}],"stateMutability":"view"},{"type":"function","name":"transferOwnership","inputs":[{"name":"newOwner","type":"address","internalType":"address"}],"outputs":[],"stateMutability":"nonpayable"},{"type":"function","name":"virtualBasePrice","inputs":[],"outputs":[{"name":"","type":"uint256","internalType":"uint256"}],"stateMutability":"view"},{"type":"event","name":"Bought","inputs":[{"name":"user","type":"address","indexed":true,"internalType":"address"},{"name":"collateralIn","type":"uint256","indexed":false,"internalType":"uint256"},{"name":"goldOut","type":"uint256","indexed":false,"internalType":"uint256"},{"name":"fee","type":"uint256","indexed":false,"internalType":"uint256"}],"anonymous":false},{"type":"event","name":"FloorBoosted","inputs":[{"name":"newBasePrice","type":"uint256","indexed":false,"internalType":"uint256"}],"anonymous":false},{"type":"event","name":"OwnershipTransferred","inputs":[{"name":"previousOwner","type":"address","indexed":true,"internalType":"address"},{"name":"newOwner","type":"address","indexed":true,"internalType":"address"}],"anonymous":false},{"type":"event","name":"Sold","inputs":[{"name":"user","type":"address","indexed":true,"internalType":"address"},{"name":"goldIn","type":"uint256","indexed":false,"internalType":"uint256"},{"name":"collateralOut","type":"uint256","indexed":false,"internalType":"uint256"},{"name":"fee","type":"uint256","indexed":false,"internalType":"uint256"}],"anonymous":false},{"type":"error","name":"OwnableInvalidOwner","inputs":[{"name":"owner","type":"address","internalType":"address"}]},{"type":"error","name":"OwnableUnauthorizedAccount","inputs":[{"name":"account","type":"address","internalType":"address"}]},{"type":"error","name":"ReentrancyGuardReentrantCall","inputs":[]},{"type":"error","name":"SafeERC20FailedOperation","inputs":[{"name":"token","type":"address","internalType":"address"}]}],"bytecode":{"object":"0x60803461013757601f61128338819003918201601f19168301916001600160401b0383118484101761013b57808492606094604052833981010312610137576100478161014f565b9061006060406100596020840161014f565b920161014f565b903315610124575f8054336001600160a01b0319821681178355604051959290916001600160a01b0316907f8be0079c531659141344cd1fd0a4f28419497f9722a3daafe3b4186f6b6457e09080a360017f9b779b17422d0df92223018b32b4d1fa46e071723d6817e2486d003becc55f008190556298968060035580546001600160a01b03199081166001600160a01b03938416179091556002805482169383169390931790925560048054909216921691909117905561111f90816101648239f35b631e4fbdf760e01b5f525f60045260245ffd5b5f80fd5b634e487b7160e01b5f52604160045260245ffd5b51906001600160a01b03821682036101375756fe60806040526004361015610011575f80fd5b5f5f3560e01c80630c8a77ee14610cbb5780632944310f14610c9d578063328f7c4814610c8057806333f3d62814610be95780634690484014610bc15780635f81a57c14610ba45780636b4ed21b14610b87578063715018a614610b305780638ae2702f14610b0c5780638b7cc62914610af05780638da5cb5b14610ac957806394002b5714610aa1578063aaf5eb6814610a7f578063b2016bd414610a57578063c274578d14610a1a578063ce39469614610a01578063d6febde814610662578063d79875eb146102c3578063e1f1c4a7146102a6578063eaf98d231461028a578063eb91d37e146101bd578063f2fde38b146101375763f7a96ad214610117575f80fd5b346101345780600319360112610134576020600354604051908152f35b80fd5b503461013457602036600319011261013457610151610cd9565b610159610fe4565b6001600160a01b031680156101a95781546001600160a01b03198116821783556001600160a01b03167f8be0079c531659141344cd1fd0a4f28419497f9722a3daafe3b4186f6b6457e08380a380f35b631e4fbdf760e01b82526004829052602482fd5b50346101345780600319360112610134576001546040516318160ddd60e01b815290602090829060049082906001600160a01b03165afa90811561027f578291610249575b50600354918161129a029161129a83040361023557602061022d670de0b6b3a7640000840485610e21565b604051908152f35b634e487b7160e01b81526011600452602490fd5b90506020813d602011610277575b8161026460209383610d05565b8101031261027357515f610202565b5f80fd5b3d9150610257565b6040513d84823e3d90fd5b5034610134578060031936011261013457602060405160648152f35b503461013457806003193601126101345760206040516127108152f35b5034610134576102d236610cef565b6102da61108b565b8115158061064e575b6102ec90610fa7565b6001546040516318160ddd60e01b81526001600160a01b039091169190602081600481865afa908115610643578591610611575b508381106105db57836103368161033b93610d3b565b610f40565b60648102818104606414821517156105c75761271090049261035d8483610d3b565b92831061058e578086913b1561058a57604051632770a7eb60e21b8152336004820152602481018790529082908290604490829084905af1801561027f57610571575b50506103ae90600554610e21565b6005558160011c6004602060018060a01b0360015416604051928380926318160ddd60e01b82525afa908115610566578691610534575b508061048d575b509061044e7fe029f26dbcf8c42dd2f352c10214a7fc26773dc62482c6241334a0402ac09a809392610429833360018060a01b036002541661100a565b6002546004546001600160a01b03918216929116906104489086610d3b565b9161100a565b6040805194855260208501919091528301523391606090a260017f9b779b17422d0df92223018b32b4d1fa46e071723d6817e2486d003becc55f005580f35b670de0b6b3a76400008202828104670de0b6b3a7640000148315171561052057917f3f7818d3fc49cb04edfd4caac004e3fc366eb231a0085314db710920d714ff7c602061050c61050461044e957fe029f26dbcf8c42dd2f352c10214a7fc26773dc62482c6241334a0402ac09a80999897610d5b565b600354610e21565b80600355604051908152a1919293506103ec565b634e487b7160e01b87526011600452602487fd5b90506020813d60201161055e575b8161054f60209383610d05565b8101031261027357515f6103e5565b3d9150610542565b6040513d88823e3d90fd5b8161057b91610d05565b61058657845f6103a0565b8480fd5b5080fd5b60405162461bcd60e51b81526020600482015260116024820152700a6d8d2e0e0c2ceca40e8dede40d0d2ced607b1b6044820152606490fd5b634e487b7160e01b86526011600452602486fd5b60405162461bcd60e51b815260206004820152600e60248201526d496e76616c696420737570706c7960901b6044820152606490fd5b90506020813d60201161063b575b8161062c60209383610d05565b8101031261027357515f610320565b3d915061061f565b6040513d87823e3d90fd5b50690a968163f0a57b4000008211156102e3565b50346102735761067136610cef565b9061067a61108b565b801515806109ed575b61068c90610fa7565b6001546040516318160ddd60e01b815290602090829060049082906001600160a01b03165afa80156109305782905f906109b7575b6106cb9250610f40565b906064820282810460641483151715610968576127109004916106ee8382610e21565b93841161097c57335f52600760205260ff60405f2054161561093b575b6001546001600160a01b0316803b15610273576040516340c10f1960e01b815233600482015260248101849052905f908290604490829084905af1801561093057610919575b5061075e90600554610e21565b6005556002546040516323b872dd60e01b865233600452306024526044859052906001600160a01b031660208660648180855af160018751148116156108fa575b8260405286606052156108e857508260011c9060208160048160018060a01b03600154166318160ddd60e01b82525afa9081156105665786916108b6575b508061082b575b506002546004547fedba86fd2b22962d534e70ad9b0ff8730de46f636146f2bab6a72cbb1ebbcc5394939261044e926001600160a01b039081169216906104489086610d3b565b670de0b6b3a76400008202828104670de0b6b3a7640000148315171561052057917f3f7818d3fc49cb04edfd4caac004e3fc366eb231a0085314db710920d714ff7c60206108a261050461044e957fedba86fd2b22962d534e70ad9b0ff8730de46f636146f2bab6a72cbb1ebbcc53999897610d5b565b80600355604051908152a1919293506107e4565b90506020813d6020116108e0575b816108d160209383610d05565b8101031261027357515f6107dd565b3d91506108c4565b635274afe760e01b8652600452602485fd5b600181151661091057813b15153d15161661079f565b823d88823e3d90fd5b6109269195505f90610d05565b5f9361075e610751565b6040513d5f823e3d90fd5b335f52600760205260405f20600160ff198254161790556006545f1981146109685760010160065561070b565b634e487b7160e01b5f52601160045260245ffd5b60405162461bcd60e51b8152602060048201526013602482015272141c9a58d948195e18d959591cc81b1a5b5a5d606a1b6044820152606490fd5b50506020813d6020116109e5575b816109d260209383610d05565b8101031261027357816106cb91516106c1565b3d91506109c5565b50690a968163f0a57b400000811115610683565b3461027357602061022d610a1436610cef565b90610f40565b34610273576020366003190112610273576001600160a01b03610a3b610cd9565b165f526007602052602060ff60405f2054166040519015158152f35b34610273575f366003190112610273576002546040516001600160a01b039091168152602090f35b34610273575f366003190112610273576020604051670de0b6b3a76400008152f35b34610273575f366003190112610273576001546040516001600160a01b039091168152602090f35b34610273575f366003190112610273575f546040516001600160a01b039091168152602090f35b34610273575f36600319011261027357602060405161129a8152f35b34610273575f366003190112610273576020604051690a968163f0a57b4000008152f35b34610273575f36600319011261027357610b48610fe4565b5f80546001600160a01b0319811682556001600160a01b03167f8be0079c531659141344cd1fd0a4f28419497f9722a3daafe3b4186f6b6457e08280a3005b34610273575f366003190112610273576020600654604051908152f35b34610273575f366003190112610273576020600554604051908152f35b34610273575f366003190112610273576004546040516001600160a01b039091168152602090f35b3461027357604036600319011261027357610c02610cd9565b610c0a610fe4565b6002546001600160a01b0391821691168114610c3b575f54610c3991602435916001600160a01b03169061100a565b005b60405162461bcd60e51b815260206004820152601860248201527f43616e6e6f742072657363756520636f6c6c61746572616c00000000000000006044820152606490fd5b34610273575f366003190112610273576020604051620f42408152f35b3461027357602036600319011261027357602061022d600435610e2e565b3461027357602036600319011261027357602061022d600435610d79565b600435906001600160a01b038216820361027357565b6040906003190112610273576004359060243590565b90601f8019910116810190811067ffffffffffffffff821117610d2757604052565b634e487b7160e01b5f52604160045260245ffd5b9190820391821161096857565b8181029291811591840414171561096857565b8115610d65570490565b634e487b7160e01b5f52601260045260245ffd5b6001546040516318160ddd60e01b81529190602090839060049082906001600160a01b03165afa918215610930575f92610ded575b50808210610de75761033681610dc393610d3b565b60648102908082046064148115171561096857612710610de4920490610d3b565b90565b50505f90565b9091506020813d602011610e19575b81610e0960209383610d05565b810103126102735751905f610dae565b3d9150610dfc565b9190820180921161096857565b60648102908082046064148115171561096857612710610e4f920490610d3b565b8015610f3b576001546040516318160ddd60e01b81529190602090839060049082906001600160a01b03165afa918215610930575f92610f07575b50905f91690a968163f0a57b4000005f925b60408410610eac575b5050505090565b90919293610eba8382610e21565b600181018091116109685760011c9084610ed48385610f40565b11610ef35750935b828514610eee57600101929190610e9c565b610ea5565b9492505f1981019081116109685791610edc565b9091506020813d602011610f33575b81610f2360209383610d05565b810103126102735751905f610e8a565b3d9150610f16565b505f90565b610f8290670de0b6b3a7640000610f7b81610f7381610f6b610f628988610e21565b98600354610d48565b049680610d48565b049280610d48565b0490610d3b565b908161129a029161129a83040361096857671bc16d674ec80000610de4920490610e21565b15610fae57565b60405162461bcd60e51b815260206004820152600e60248201526d125b9d985b1a5908185b5bdd5b9d60921b6044820152606490fd5b5f546001600160a01b03163303610ff757565b63118cdaa760e01b5f523360045260245ffd5b916040519163a9059cbb60e01b5f5260018060a01b031660045260245260205f60448180865af19060015f511482161561106a575b6040521561104a5750565b635274afe760e01b5f9081526001600160a01b0391909116600452602490fd5b90600181151661108257823b15153d1516169061103f565b503d5f823e3d90fd5b60027f9b779b17422d0df92223018b32b4d1fa46e071723d6817e2486d003becc55f0054146110da5760027f9b779b17422d0df92223018b32b4d1fa46e071723d6817e2486d003becc55f0055565b633ee5aeb560e01b5f5260045ffdfea2646970667358221220425528454dc02dfe28c8bde6da2896cf568768e87ce36c861d6a7fc2ba09496864736f6c63430008220033","linkReferences":{}},"methodIdentifiers":{"BASIS_POINTS()":"e1f1c4a7","COLLATERAL_PRECISION()":"328f7c48","FEE_PERCENT()":"eaf98d23","MAX_TX_AMOUNT()":"8ae2702f","PRECISION()":"aaf5eb68","SLOPE()":"8b7cc629","buy(uint256,uint256)":"d6febde8","calculateCost(uint256,uint256)":"ce394696","collateralToken()":"b2016bd4","feeRecipient()":"46904840","getCurrentPrice()":"eb91d37e","getGoldOut(uint256)":"2944310f","getSellProceeds(uint256)":"0c8a77ee","goldToken()":"94002b57","hasHeld(address)":"c274578d","holdersCount()":"6b4ed21b","owner()":"8da5cb5b","renounceOwnership()":"715018a6","rescueToken(address,uint256)":"33f3d628","sell(uint256,uint256)":"d79875eb","totalVolume()":"5f81a57c","transferOwnership(address)":"f2fde38b","virtualBasePrice()":"f7a96ad2"},"id":0}