{"abi":[{"type":"constructor","inputs":[{"name":"_goldToken","type":"address","internalType":"address"},{"name":"_collateralToken","type":"address","internalType":"address"},{"name":"_feeRecipient","type":"address","internalType":"address"}],"stateMutability":"nonpayable"},{"type":"function","name":"BASIS_POINTS","inputs":[],"outputs":[{"name":"","type":"uint256","internalType":"uint256"}],"stateMutability":"view"},{"type":"function","name":"FEE_PERCENT","inputs":[],"outputs":[{"name":"","type":"uint256","internalType":"uint256"}],"stateMutability":"view"},{"type":"function","name":"MAX_TX_AMOUNT","inputs":[],"outputs":[{"name":"","type":"uint256","internalType":"uint256"}],"stateMutability":"view"},{"type":"function","name":"MAX_WALLET_LIMIT","inputs":[],"outputs":[{"name":"","type":"uint256","internalType":"uint256"}],"stateMutability":"view"},{"type":"function","name":"PRECISION","inputs":[],"outputs":[{"name":"","type":"uint256","internalType":"uint256"}],"stateMutability":"view"},{"type":"function","name":"SLOPE","inputs":[],"outputs":[{"name":"","type":"uint256","internalType":"uint256"}],"stateMutability":"view"},{"type":"function","name":"buy","inputs":[{"name":"goldAmount","type":"uint256","internalType":"uint256"},{"name":"maxCollateralIn","type":"uint256","internalType":"uint256"}],"outputs":[],"stateMutability":"nonpayable"},{"type":"function","name":"calculateCost","inputs":[{"name":"supply","type":"uint256","internalType":"uint256"},{"name":"amount","type":"uint256","internalType":"uint256"}],"outputs":[{"name":"","type":"uint256","internalType":"uint256"}],"stateMutability":"view"},{"type":"function","name":"claimMiningReward","inputs":[],"outputs":[],"stateMutability":"nonpayable"},{"type":"function","name":"collateralToken","inputs":[],"outputs":[{"name":"","type":"address","internalType":"contract IERC20"}],"stateMutability":"view"},{"type":"function","name":"feeRecipient","inputs":[],"outputs":[{"name":"","type":"address","internalType":"address"}],"stateMutability":"view"},{"type":"function","name":"getCurrentPrice","inputs":[],"outputs":[{"name":"","type":"uint256","internalType":"uint256"}],"stateMutability":"view"},{"type":"function","name":"getGoldOut","inputs":[{"name":"collateralAmount","type":"uint256","internalType":"uint256"}],"outputs":[{"name":"","type":"uint256","internalType":"uint256"}],"stateMutability":"view"},{"type":"function","name":"getHoldersCount","inputs":[],"outputs":[{"name":"","type":"uint256","internalType":"uint256"}],"stateMutability":"view"},{"type":"function","name":"getSellProceeds","inputs":[{"name":"goldAmount","type":"uint256","internalType":"uint256"}],"outputs":[{"name":"","type":"uint256","internalType":"uint256"}],"stateMutability":"view"},{"type":"function","name":"goldToken","inputs":[],"outputs":[{"name":"","type":"address","internalType":"contract GoldToken"}],"stateMutability":"view"},{"type":"function","name":"hasHeld","inputs":[{"name":"","type":"address","internalType":"address"}],"outputs":[{"name":"","type":"bool","internalType":"bool"}],"stateMutability":"view"},{"type":"function","name":"holdersCount","inputs":[],"outputs":[{"name":"","type":"uint256","internalType":"uint256"}],"stateMutability":"view"},{"type":"function","name":"lastClaimed","inputs":[{"name":"","type":"address","internalType":"address"}],"outputs":[{"name":"","type":"uint256","internalType":"uint256"}],"stateMutability":"view"},{"type":"function","name":"miningPool","inputs":[],"outputs":[{"name":"","type":"uint256","internalType":"uint256"}],"stateMutability":"view"},{"type":"function","name":"owner","inputs":[],"outputs":[{"name":"","type":"address","internalType":"address"}],"stateMutability":"view"},{"type":"function","name":"renounceOwnership","inputs":[],"outputs":[],"stateMutability":"nonpayable"},{"type":"function","name":"rescueToken","inputs":[{"name":"_token","type":"address","internalType":"address"},{"name":"_amount","type":"uint256","internalType":"uint256"}],"outputs":[],"stateMutability":"nonpayable"},{"type":"function","name":"sell","inputs":[{"name":"goldAmount","type":"uint256","internalType":"uint256"},{"name":"minCollateralOut","type":"uint256","internalType":"uint256"}],"outputs":[],"stateMutability":"nonpayable"},{"type":"function","name":"totalVolume","inputs":[],"outputs":[{"name":"","type":"uint256","internalType":"uint256"}],"stateMutability":"view"},{"type":"function","name":"transferOwnership","inputs":[{"name":"newOwner","type":"address","internalType":"address"}],"outputs":[],"stateMutability":"nonpayable"},{"type":"function","name":"updateFeeRecipient","inputs":[{"name":"_newRecipient","type":"address","internalType":"address"}],"outputs":[],"stateMutability":"nonpayable"},{"type":"function","name":"virtualBasePrice","inputs":[],"outputs":[{"name":"","type":"uint256","internalType":"uint256"}],"stateMutability":"view"},{"type":"event","name":"Bought","inputs":[{"name":"user","type":"address","indexed":true,"internalType":"address"},{"name":"collateralIn","type":"uint256","indexed":false,"internalType":"uint256"},{"name":"goldOut","type":"uint256","indexed":false,"internalType":"uint256"},{"name":"fee","type":"uint256","indexed":false,"internalType":"uint256"}],"anonymous":false},{"type":"event","name":"FeeRecipientUpdated","inputs":[{"name":"newRecipient","type":"address","indexed":true,"internalType":"address"}],"anonymous":false},{"type":"event","name":"FloorBoosted","inputs":[{"name":"newBasePrice","type":"uint256","indexed":false,"internalType":"uint256"}],"anonymous":false},{"type":"event","name":"OwnershipTransferred","inputs":[{"name":"previousOwner","type":"address","indexed":true,"internalType":"address"},{"name":"newOwner","type":"address","indexed":true,"internalType":"address"}],"anonymous":false},{"type":"event","name":"RewardClaimed","inputs":[{"name":"user","type":"address","indexed":true,"internalType":"address"},{"name":"amount","type":"uint256","indexed":false,"internalType":"uint256"}],"anonymous":false},{"type":"event","name":"Sold","inputs":[{"name":"user","type":"address","indexed":true,"internalType":"address"},{"name":"goldIn","type":"uint256","indexed":false,"internalType":"uint256"},{"name":"collateralOut","type":"uint256","indexed":false,"internalType":"uint256"},{"name":"fee","type":"uint256","indexed":false,"internalType":"uint256"}],"anonymous":false},{"type":"error","name":"OwnableInvalidOwner","inputs":[{"name":"owner","type":"address","internalType":"address"}]},{"type":"error","name":"OwnableUnauthorizedAccount","inputs":[{"name":"account","type":"address","internalType":"address"}]},{"type":"error","name":"ReentrancyGuardReentrantCall","inputs":[]},{"type":"error","name":"SafeERC20FailedOperation","inputs":[{"name":"token","type":"address","internalType":"address"}]}],"bytecode":{"object":"0x6080604052346100305761001a610014610111565b91610297565b610022610035565b612d816105148239612d8190f35b61003b565b60405190565b5f80fd5b601f801991011690565b634e487b7160e01b5f52604160045260245ffd5b906100679061003f565b810190811060018060401b0382111761007f57604052565b610049565b90610097610090610035565b928361005d565b565b5f80fd5b60018060a01b031690565b6100b19061009d565b90565b6100bd816100a8565b036100c457565b5f80fd5b905051906100d5826100b4565b565b909160608284031261010c576101096100f2845f85016100c8565b9361010081602086016100c8565b936040016100c8565b90565b610099565b61012f6132958038038061012481610084565b9283398101906100d7565b909192565b5f1b90565b906101455f1991610134565b9181191691161790565b90565b90565b90565b61016c6101676101719261014f565b610155565b610152565b90565b90565b9061018c61018761019392610158565b610174565b8254610139565b9055565b6101ab6101a66101b09261009d565b610155565b61009d565b90565b6101bc90610197565b90565b6101c8906101b3565b90565b906101dc60018060a01b0391610134565b9181191691161790565b6101ef906101b3565b90565b90565b9061020a610205610211926101e6565b6101f2565b82546101cb565b9055565b61021e90610197565b90565b61022a90610215565b90565b61023690610215565b90565b90565b9061025161024c6102589261022d565b610239565b82546101cb565b9055565b61026590610197565b90565b6102719061025c565b90565b90565b9061028c61028761029392610268565b610274565b82546101cb565b9055565b6102d16102df93926102cc6102c56102d8946102b233610349565b6102c0629896806003610177565b6101bf565b60016101f5565b610221565b600261023c565b6004610277565b565b90565b6102f86102f36102fd926102e1565b610155565b610152565b90565b61030a60016102e4565b90565b61032161031c61032692610152565b610155565b610152565b90565b9061033e6103396103459261030d565b610174565b8254610139565b9055565b610352906103c3565b61037461035d610300565b5f61036e610369610467565b61047b565b01610329565b565b90565b61038d61038861039292610376565b610155565b61009d565b90565b61039e90610379565b90565b6103aa906100a8565b9052565b91906103c1905f602085019401906103a1565b565b806103de6103d86103d35f610395565b6100a8565b916100a8565b146103ee576103ec906104b4565b565b6104116103fa5f610395565b5f918291631e4fbdf760e01b8352600483016103ae565b0390fd5b5f90565b90565b90565b61043361042e61043892610419565b610134565b61041c565b90565b6104647f9b779b17422d0df92223018b32b4d1fa46e071723d6817e2486d003becc55f0061041f565b90565b61046f610415565b5061047861043b565b90565b90565b5f1c90565b60018060a01b031690565b61049a61049f9161047e565b610483565b90565b6104ac905461048e565b90565b5f0190565b6104bd5f6104a2565b6104c7825f610277565b906104fb6104f57f8be0079c531659141344cd1fd0a4f28419497f9722a3daafe3b4186f6b6457e093610268565b91610268565b91610504610035565b8061050e816104af565b0390a356fe60806040526004361015610013575b610cd2565b61001d5f356101dc565b8063013eba92146101d75780630c8a77ee146101d25780632944310f146101cd57806333f3d628146101c857806346904840146101c35780635f81a57c146101be5780636b4ed21b146101b9578063715018a6146101b457806373397597146101af57806373889f4a146101aa5780638ae2702f146101a55780638b7cc629146101a05780638da5cb5b1461019b57806394002b5714610196578063aaf5eb6814610191578063b2016bd41461018c578063c274578d14610187578063c6cfdc5b14610182578063ce3946961461017d578063d588acc414610178578063d6febde814610173578063d79875eb1461016e578063e1f1c4a714610169578063eaf98d2314610164578063eb91d37e1461015f578063f160d3691461015a578063f2fde38b146101555763f7a96ad20361000e57610c9d565b610c5b565b610c28565b610bf3565b610bbe565b610b52565b610ae6565b610ab2565b610a7f565b610a49565b6109e7565b610972565b6108bb565b610818565b6107a5565b610702565b6106cd565b610660565b6105eb565b6105b6565b610574565b61053f565b6104fb565b6104b7565b610412565b6103ab565b610376565b610300565b60e01c90565b60405190565b5f80fd5b5f80fd5b60018060a01b031690565b610204906101f0565b90565b610210816101fb565b0361021757565b5f80fd5b9050359061022882610207565b565b9060208282031261024357610240915f0161021b565b90565b6101ec565b90565b61025f61025a610264926101f0565b610248565b6101f0565b90565b6102709061024b565b90565b61027c90610267565b90565b9061028990610273565b5f5260205260405f2090565b1c90565b90565b6102ac9060086102b19302610295565b610299565b90565b906102bf915461029c565b90565b6102d8906102d36008915f9261027f565b6102b4565b90565b90565b6102e7906102db565b9052565b91906102fe905f602085019401906102de565b565b346103305761032c61031b61031636600461022a565b6102c2565b6103236101e2565b918291826102eb565b0390f35b6101e8565b61033e816102db565b0361034557565b5f80fd5b9050359061035682610335565b565b906020828203126103715761036e915f01610349565b90565b6101ec565b346103a6576103a261039161038c366004610358565b610e51565b6103996101e2565b918291826102eb565b0390f35b6101e8565b346103db576103d76103c66103c1366004610358565b610ff8565b6103ce6101e2565b918291826102eb565b0390f35b6101e8565b919060408382031261040857806103fc610405925f860161021b565b93602001610349565b90565b6101ec565b5f0190565b346104415761042b6104253660046103e0565b90611336565b6104336101e2565b8061043d8161040d565b0390f35b6101e8565b5f91031261045057565b6101ec565b60018060a01b031690565b6104709060086104759302610295565b610455565b90565b906104839154610460565b90565b61049260045f90610478565b90565b61049e906101fb565b9052565b91906104b5905f60208501940190610495565b565b346104e7576104c7366004610446565b6104e36104d2610486565b6104da6101e2565b918291826104a2565b0390f35b6101e8565b6104f860055f906102b4565b90565b3461052b5761050b366004610446565b6105276105166104ec565b61051e6101e2565b918291826102eb565b0390f35b6101e8565b61053c60075f906102b4565b90565b3461056f5761054f366004610446565b61056b61055a610530565b6105626101e2565b918291826102eb565b0390f35b6101e8565b346105a257610584366004610446565b61058c61138f565b6105946101e2565b8061059e8161040d565b0390f35b6101e8565b6105b360065f906102b4565b90565b346105e6576105c6366004610446565b6105e26105d16105a7565b6105d96101e2565b918291826102eb565b0390f35b6101e8565b3461061b576105fb366004610446565b610617610606611399565b61060e6101e2565b918291826102eb565b0390f35b6101e8565b90565b61063761063261063c92610620565b610248565b6102db565b90565b610652690a968163f0a57b400000610623565b90565b61065d61063f565b90565b3461069057610670366004610446565b61068c61067b610655565b6106836101e2565b918291826102eb565b0390f35b6101e8565b90565b6106ac6106a76106b192610695565b610248565b6102db565b90565b6106bf61129a610698565b90565b6106ca6106b4565b90565b346106fd576106dd366004610446565b6106f96106e86106c2565b6106f06101e2565b918291826102eb565b0390f35b6101e8565b3461073257610712366004610446565b61072e61071d6113d4565b6107256101e2565b918291826104a2565b0390f35b6101e8565b60018060a01b031690565b6107529060086107579302610295565b610737565b90565b906107659154610742565b90565b61077460015f9061075a565b90565b61078090610267565b90565b61078c90610777565b9052565b91906107a3905f60208501940190610783565b565b346107d5576107b5366004610446565b6107d16107c0610768565b6107c86101e2565b91829182610790565b0390f35b6101e8565b90565b6107f16107ec6107f6926107da565b610248565b6102db565b90565b61080a670de0b6b3a76400006107dd565b90565b6108156107f9565b90565b3461084857610828366004610446565b61084461083361080d565b61083b6101e2565b918291826102eb565b0390f35b6101e8565b60018060a01b031690565b61086890600861086d9302610295565b61084d565b90565b9061087b9154610858565b90565b61088a60025f90610870565b90565b61089690610267565b90565b6108a29061088d565b9052565b91906108b9905f60208501940190610899565b565b346108eb576108cb366004610446565b6108e76108d661087e565b6108de6101e2565b918291826108a6565b0390f35b6101e8565b906108fa90610273565b5f5260205260405f2090565b60ff1690565b61091c9060086109219302610295565b610906565b90565b9061092f915461090c565b90565b610948906109436009915f926108f0565b610924565b90565b151590565b6109599061094b565b9052565b9190610970905f60208501940190610950565b565b346109a25761099e61098d61098836600461022a565b610932565b6109956101e2565b9182918261095d565b0390f35b6101e8565b90565b6109be6109b96109c3926109a7565b610248565b6102db565b90565b6109d9692a5a058fc295ed0000006109aa565b90565b6109e46109c6565b90565b34610a17576109f7366004610446565b610a13610a026109dc565b610a0a6101e2565b918291826102eb565b0390f35b6101e8565b9190604083820312610a445780610a38610a41925f8601610349565b93602001610349565b90565b6101ec565b34610a7a57610a76610a65610a5f366004610a1c565b906113e9565b610a6d6101e2565b918291826102eb565b0390f35b6101e8565b34610aad57610a8f366004610446565b610a976118f3565b610a9f6101e2565b80610aa98161040d565b0390f35b6101e8565b34610ae157610acb610ac5366004610a1c565b90612380565b610ad36101e2565b80610add8161040d565b0390f35b6101e8565b34610b1557610aff610af9366004610a1c565b9061274b565b610b076101e2565b80610b118161040d565b0390f35b6101e8565b90565b610b31610b2c610b3692610b1a565b610248565b6102db565b90565b610b44612710610b1d565b90565b610b4f610b39565b90565b34610b8257610b62366004610446565b610b7e610b6d610b47565b610b756101e2565b918291826102eb565b0390f35b6101e8565b90565b610b9e610b99610ba392610b87565b610248565b6102db565b90565b610bb06064610b8a565b90565b610bbb610ba6565b90565b34610bee57610bce366004610446565b610bea610bd9610bb3565b610be16101e2565b918291826102eb565b0390f35b6101e8565b34610c2357610c03366004610446565b610c1f610c0e612757565b610c166101e2565b918291826102eb565b0390f35b6101e8565b34610c5657610c40610c3b36600461022a565b612960565b610c486101e2565b80610c528161040d565b0390f35b6101e8565b34610c8957610c73610c6e36600461022a565b6129d0565b610c7b6101e2565b80610c858161040d565b0390f35b6101e8565b610c9a60035f906102b4565b90565b34610ccd57610cad366004610446565b610cc9610cb8610c8e565b610cc06101e2565b918291826102eb565b0390f35b6101e8565b5f80fd5b5f90565b5f1c90565b610ceb610cf091610cda565b610737565b90565b610cfd9054610cdf565b90565b5f80fd5b601f801991011690565b634e487b7160e01b5f52604160045260245ffd5b90610d2c90610d04565b810190811067ffffffffffffffff821117610d4657604052565b610d0e565b60e01b90565b90505190610d5e82610335565b565b90602082820312610d7957610d76915f01610d51565b90565b6101ec565b610d866101e2565b3d5f823e3d90fd5b90565b610da5610da0610daa92610d8e565b610248565b6102db565b90565b634e487b7160e01b5f52601160045260245ffd5b610dd0610dd6919392936102db565b926102db565b8203918211610de157565b610dad565b610df5610dfb919392936102db565b926102db565b91610e078382026102db565b928184041490151715610e1657565b610dad565b634e487b7160e01b5f52601260045260245ffd5b610e3b610e41916102db565b916102db565b908115610e4c570490565b610e1b565b610e59610cd6565b50610e876020610e71610e6c6001610cf3565b610777565b6318160ddd90610e7f6101e2565b938492610d4b565b82528180610e976004820161040d565b03915afa908115610f41575f91610f13575b5080610ebd610eb7846102db565b916102db565b10610f0557610f0291610ed4610ed9928290610dc1565b6113e9565b610efc610eee82610ee8610ba6565b90610de6565b610ef6610b39565b90610e2f565b90610dc1565b90565b5050610f105f610d91565b90565b610f34915060203d8111610f3a575b610f2c8183610d22565b810190610d60565b5f610ea9565b503d610f22565b610d7e565b610f52610f5791610cda565b610299565b90565b610f649054610f46565b90565b6001610f7391016102db565b90565b90565b610f8d610f88610f9292610f76565b610248565b6102db565b90565b610fa4610faa919392936102db565b926102db565b8201809211610fb557565b610dad565b90565b610fd1610fcc610fd692610fba565b610248565b6102db565b90565b90565b610ff0610feb610ff592610fd9565b610248565b6102db565b90565b61102e90611004610cd6565b5061102861101a82611014610ba6565b90610de6565b611022610b39565b90610e2f565b90610dc1565b8061104161103b5f610d91565b916102db565b1461120457611073602061105d6110586001610cf3565b610777565b6318160ddd9061106b6101e2565b938492610d4b565b825281806110836004820161040d565b03915afa9081156111ff575f916111d1575b5061109f5f610d91565b906110c56110b5846110af6107f9565b90610de6565b6110bf6003610f5a565b90610e2f565b916110cf5f610d91565b905b816110e56110df6040610f79565b916102db565b10156111c75761111c61110c6110fc838790610f95565b6111066001610fbd565b90610f95565b6111166002610fdc565b90610e2f565b908161113761113161112c61063f565b6102db565b916102db565b116111b2576111478483906113e9565b611159611153886102db565b916102db565b11155f146111955750905b81611177611171866102db565b916102db565b1461118c57611186905b610f67565b906110d1565b50925050505b90565b9193506111ac906111a66001610fbd565b90610dc1565b92611164565b919350506111866111c161063f565b93611181565b9350505050611192565b6111f2915060203d81116111f8575b6111ea8183610d22565b810190610d60565b5f611095565b503d6111e0565b610d7e565b5061120e5f610d91565b90565b906112239161121e6129db565b6112e9565b565b61123161123691610cda565b61084d565b90565b6112439054611225565b90565b60209181520190565b5f7f43616e6e6f742072657363756520636f6c6c61746572616c0000000000000000910152565b6112836018602092611246565b61128c8161124f565b0190565b6112a59060208101905f818303910152611276565b90565b156112af57565b6112b76101e2565b62461bcd60e51b8152806112cd60048201611290565b0390fd5b6112da9061024b565b90565b6112e6906112d1565b90565b906113246113349261131f8161131861131261130d6113086002611239565b61088d565b6101fb565b916101fb565b14156112a8565b6112dd565b9061132d6113d4565b9091612a29565b565b9061134091611211565b565b61134a6129db565b61135261137c565b565b61136861136361136d92610d8e565b610248565b6101f0565b90565b61137990611354565b90565b61138d6113885f611370565b612a70565b565b611397611342565b565b6113a1610cd6565b506113ac6007610f5a565b90565b5f90565b6113bf6113c491610cda565b610455565b90565b6113d190546113b3565b90565b6113dc6113af565b506113e65f6113c7565b90565b9061148861145661144961148e946113ff610cd6565b5061144361143c611435611427611417858a90610f95565b986114226003610f5a565b610de6565b61142f6107f9565b90610e2f565b9680610de6565b9180610de6565b90610dc1565b6114516106b4565b610de6565b611482611474600261146f6114696107f9565b91610fdc565b610de6565b61147c6107f9565b90610de6565b90610e2f565b90610f95565b90565b611499612adc565b6114a16116a9565b6114a9612b15565b565b90565b6114c26114bd6114c7926114ab565b610248565b6102db565b90565b5f7f436f6f6c646f776e206163746976650000000000000000000000000000000000910152565b6114fe600f602092611246565b611507816114ca565b0190565b6115209060208101905f8183039101526114f1565b90565b1561152a57565b6115326101e2565b62461bcd60e51b8152806115486004820161150b565b0390fd5b5f7f416e74692d537962696c3a204d75737420686f6c64206d696e203120474f4c44910152565b61157f60208092611246565b6115888161154c565b0190565b6115a19060208101905f818303910152611573565b90565b156115ab57565b6115b36101e2565b62461bcd60e51b8152806115c96004820161158c565b0390fd5b5f7f52657761726420746f6f20736d616c6c00000000000000000000000000000000910152565b6116016010602092611246565b61160a816115cd565b0190565b6116239060208101905f8183039101526115f4565b90565b1561162d57565b6116356101e2565b62461bcd60e51b81528061164b6004820161160e565b0390fd5b5f1b90565b906116605f199161164f565b9181191691161790565b61167e611679611683926102db565b610248565b6102db565b90565b90565b9061169e6116996116a59261166a565b611686565b8254611654565b9055565b6116ed426116e66116e06116db6116ca6116c56008339061027f565b610f5a565b6116d5610e106114ae565b90610f95565b6102db565b916102db565b1015611523565b61172e60206117046116ff6001610cf3565b610777565b6370a082319061172333926117176101e2565b95869485938493610d4b565b8352600483016104a2565b03915afa80156118ee5761176e915f916118c0575b5060206117586117536001610cf3565b610777565b6318160ddd906117666101e2565b948592610d4b565b8252818061177e6004820161040d565b03915afa9182156118bb576117e5926117e0915f9161188d575b50916117d1816117ca6117c46117bf60016117ba6117b46107f9565b91610fbd565b610de6565b6102db565b916102db565b10156115a4565b6117db6006610f5a565b610de6565b610e2f565b611801816117fb6117f55f610d91565b916102db565b11611626565b61181e611817826118126006610f5a565b610dc1565b6006611689565b6118334261182e6008339061027f565b611689565b6118486118406002611239565b338391612a29565b336118886118767f106f923f993c2149d49b4255ff723acafa1f2d94393f561d3eda32ae348f724192610273565b9261187f6101e2565b918291826102eb565b0390a2565b6118ae915060203d81116118b4575b6118a68183610d22565b810190610d60565b5f611798565b503d61189c565b610d7e565b6118e1915060203d81116118e7575b6118d98183610d22565b810190610d60565b5f611743565b503d6118cf565b610d7e565b6118fb611491565b565b9061190f9161190a612adc565b611dcb565b611917612b15565b565b5f7f416d6f756e74206d757374206265203e20300000000000000000000000000000910152565b61194d6012602092611246565b61195681611919565b0190565b61196f9060208101905f818303910152611940565b90565b1561197957565b6119816101e2565b62461bcd60e51b8152806119976004820161195a565b0390fd5b5f7f45786365656473204d6178205472616e73616374696f6e204c696d6974000000910152565b6119cf601d602092611246565b6119d88161199b565b0190565b6119f19060208101905f8183039101526119c2565b90565b156119fb57565b611a036101e2565b62461bcd60e51b815280611a19600482016119dc565b0390fd5b90505190611a2a82610207565b565b90602082820312611a4557611a42915f01611a1d565b90565b6101ec565b611a5390610267565b90565b60207f696e740000000000000000000000000000000000000000000000000000000000917f426f6e64696e674375727665206e6f7420617574686f72697a656420746f206d5f8201520152565b611ab06023604092611246565b611ab981611a56565b0190565b611ad29060208101905f818303910152611aa3565b90565b15611adc57565b611ae46101e2565b62461bcd60e51b815280611afa60048201611abd565b0390fd5b5f7f50726963652065786365656473206c696d697400000000000000000000000000910152565b611b326013602092611246565b611b3b81611afe565b0190565b611b549060208101905f818303910152611b25565b90565b15611b5e57565b611b666101e2565b62461bcd60e51b815280611b7c60048201611b3f565b0390fd5b5f7f496e73756666696369656e7420555344542062616c616e636500000000000000910152565b611bb46019602092611246565b611bbd81611b80565b0190565b611bd69060208101905f818303910152611ba7565b90565b15611be057565b611be86101e2565b62461bcd60e51b815280611bfe60048201611bc1565b0390fd5b916020611c23929493611c1c60408201965f830190610495565b0190610495565b565b5f7f496e73756666696369656e74205553445420616c6c6f77616e63650000000000910152565b611c59601b602092611246565b611c6281611c25565b0190565b611c7b9060208101905f818303910152611c4c565b90565b15611c8557565b611c8d6101e2565b62461bcd60e51b815280611ca360048201611c66565b0390fd5b611cb3611cb891610cda565b610906565b90565b611cc59054611ca7565b90565b90611cd460ff9161164f565b9181191691161790565b611ce79061094b565b90565b90565b90611d02611cfd611d0992611cde565b611cea565b8254611cc8565b9055565b611d16906102db565b5f198114611d245760010190565b610dad565b5f910312611d3357565b6101ec565b916020611d59929493611d5260408201965f830190610495565b01906102de565b565b90565b611d72611d6d611d7792611d5b565b610248565b6102db565b90565b90565b611d91611d8c611d9692611d7a565b610248565b6102db565b90565b604090611dc2611dc99496959396611db860608401985f8501906102de565b60208301906102de565b01906102de565b565b90611de882611de2611ddc5f610d91565b916102db565b11611972565b611e0c82611e05611dff611dfa61063f565b6102db565b916102db565b11156119f4565b611e396020611e23611e1e6001610cf3565b610777565b630754617290611e316101e2565b938492610d4b565b82528180611e496004820161040d565b03915afa801561237b57611e7f915f9161234d575b50611e79611e73611e6e30611a4a565b6101fb565b916101fb565b14611ad5565b611eac6020611e96611e916001610cf3565b610777565b6318160ddd90611ea46101e2565b938492610d4b565b82528180611ebc6004820161040d565b03915afa908115612348575f9161231a575b50611eda8184906113e9565b611efd611eef82611ee9610ba6565b90610de6565b611ef7610b39565b90610e2f565b91611f27611f0c838590610f95565b94611f20611f1a87926102db565b916102db565b1115611b57565b611f686020611f3e611f396002611239565b61088d565b6370a0823190611f5d3392611f516101e2565b95869485938493610d4b565b8352600483016104a2565b03915afa801561231557611f97915f916122e7575b50611f90611f8a876102db565b916102db565b1015611bd9565b611fa9611fa46002611239565b61088d565b602063dd62ed3e913390611fd7611fbf30611a4a565b94611fe2611fcb6101e2565b96879586948594610d4b565b845260048401611c02565b03915afa80156122e257612011915f916122b4575b5061200a612004876102db565b916102db565b1015611c7e565b61202e612028612023600933906108f0565b611cbb565b1561094b565b61227d575b6120456120406001610cf3565b610777565b6340c10f19338792803b15612278576120715f809461207c6120656101e2565b97889687958694610d4b565b845260048401611d38565b03925af180156122735761217e936120ae926120a792612247575b506120a26005610f5a565b610f95565b6005611689565b6120cd6120bb6002611239565b336120c530611a4a565b908792612b39565b6120f36120e5846120df6103e8611d5e565b90610de6565b6120ed610b39565b90610e2f565b90806121076121015f610d91565b916102db565b116121c7575b5061213461212684612120610bb8611d7d565b90610de6565b61212e610b39565b90610e2f565b61215161214a826121456006610f5a565b610f95565b6006611689565b61217861215e6002611239565b9261217361216c60046113c7565b9387610dc1565b610dc1565b91612a29565b33919290926121c26121b07fedba86fd2b22962d534e70ad9b0ff8730de46f636146f2bab6a72cbb1ebbcc5394610273565b946121b96101e2565b93849384611d99565b0390a2565b6121f76121e86121fe926121e3856121dd6107f9565b90610de6565b610e2f565b6121f26003610f5a565b610f95565b6003611689565b6122086003610f5a565b61223e7f3f7818d3fc49cb04edfd4caac004e3fc366eb231a0085314db710920d714ff7c916122356101e2565b918291826102eb565b0390a15f61210d565b612266905f3d811161226c575b61225e8183610d22565b810190611d29565b5f612097565b503d612254565b610d7e565b610d00565b612293600161228e600933906108f0565b611ced565b6122af6122a86122a36007610f5a565b611d0d565b6007611689565b612033565b6122d5915060203d81116122db575b6122cd8183610d22565b810190610d60565b5f611ff7565b503d6122c3565b610d7e565b612308915060203d811161230e575b6123008183610d22565b810190610d60565b5f611f7d565b503d6122f6565b610d7e565b61233b915060203d8111612341575b6123338183610d22565b810190610d60565b5f611ece565b503d612329565b610d7e565b61236e915060203d8111612374575b6123668183610d22565b810190611a2c565b5f611e5e565b503d61235c565b610d7e565b9061238a916118fd565b565b9061239e91612399612adc565b6124ac565b6123a6612b15565b565b5f7f496e76616c696420737570706c79000000000000000000000000000000000000910152565b6123dc600e602092611246565b6123e5816123a8565b0190565b6123fe9060208101905f8183039101526123cf565b90565b1561240857565b6124106101e2565b62461bcd60e51b815280612426600482016123e9565b0390fd5b5f7f536c69707061676520746f6f2068696768000000000000000000000000000000910152565b61245e6011602092611246565b6124678161242a565b0190565b6124809060208101905f818303910152612451565b90565b1561248a57565b6124926101e2565b62461bcd60e51b8152806124a86004820161246b565b0390fd5b6124d0816124c96124c36124be61063f565b6102db565b916102db565b11156119f4565b6124fd60206124e76124e26001610cf3565b610777565b6318160ddd906124f56101e2565b938492610d4b565b8252818061250d6004820161040d565b03915afa908115612746576125539161254c915f91612718575b506125458161253e612538876102db565b916102db565b1015612401565b8390610dc1565b82906113e9565b61257661256882612562610ba6565b90610de6565b612570610b39565b90610e2f565b906125a0612585828490610dc1565b9461259961259387926102db565b916102db565b1015612483565b6125b26125ad6001610cf3565b610777565b90639dc29fac338593803b15612713576125df5f80946125ea6125d36101e2565b98899687958694610d4b565b845260048401611d38565b03925af190811561270e5761261992612612926126e2575b5061260d6005610f5a565b610f95565b6005611689565b6126996126426126348361262e610bb8611d7d565b90610de6565b61263c610b39565b90610e2f565b61265f612658826126536006610f5a565b610f95565b6006611689565b61267461266c6002611239565b338791612a29565b61267e6002611239565b9061269361268c60046113c7565b9185610dc1565b91612a29565b33919290926126dd6126cb7fe029f26dbcf8c42dd2f352c10214a7fc26773dc62482c6241334a0402ac09a8094610273565b946126d46101e2565b93849384611d99565b0390a2565b612701905f3d8111612707575b6126f98183610d22565b810190611d29565b5f612602565b503d6126ef565b610d7e565b610d00565b612739915060203d811161273f575b6127318183610d22565b810190610d60565b5f612527565b503d612727565b610d7e565b906127559161238c565b565b61275f610cd6565b5061278d60206127776127726001610cf3565b610777565b6318160ddd906127856101e2565b938492610d4b565b8252818061279d6004820161040d565b03915afa8015612816576127e5915f916127e8575b506127df6127d16127c36003610f5a565b926127cc6106b4565b610de6565b6127d96107f9565b90610e2f565b90610f95565b90565b612809915060203d811161280f575b6128018183610d22565b810190610d60565b5f6127b2565b503d6127f7565b610d7e565b61282c906128276129db565b6128ee565b565b5f7f5a65726f20616464726573730000000000000000000000000000000000000000910152565b612862600c602092611246565b61286b8161282e565b0190565b6128849060208101905f818303910152612855565b90565b1561288e57565b6128966101e2565b62461bcd60e51b8152806128ac6004820161286f565b0390fd5b906128c160018060a01b039161164f565b9181191691161790565b90565b906128e36128de6128ea92610273565b6128cb565b82546128b0565b9055565b6129138161290c6129066129015f611370565b6101fb565b916101fb565b1415612887565b61291e8160046128ce565b6129487f7a7b5a0a132f9e0581eb8527f66eae9ee89c2a3e79d4ac7e41a1f1f4d48a7fc291610273565b906129516101e2565b8061295b8161040d565b0390a2565b6129699061281b565b565b61297c906129776129db565b61297e565b565b8061299961299361298e5f611370565b6101fb565b916101fb565b146129a9576129a790612a70565b565b6129cc6129b55f611370565b5f918291631e4fbdf760e01b8352600483016104a2565b0390fd5b6129d99061296b565b565b6129e36113d4565b6129fc6129f66129f1612b84565b6101fb565b916101fb565b03612a0357565b612a25612a0e612b84565b5f91829163118cdaa760e01b8352600483016104a2565b0390fd5b91612a4291612a3c918491600192612b95565b1561094b565b612a495750565b612a55612a6c9161088d565b5f918291635274afe760e01b8352600483016104a2565b0390fd5b612a795f6113c7565b612a83825f6128ce565b90612ab7612ab17f8be0079c531659141344cd1fd0a4f28419497f9722a3daafe3b4186f6b6457e093610273565b91610273565b91612ac06101e2565b80612aca8161040d565b0390a3565b612ad96002610fdc565b90565b612ae4612bff565b612b06612aef612acf565b5f612b00612afb612c7b565b612c8f565b01611689565b565b612b126001610fbd565b90565b612b37612b20612b08565b5f612b31612b2c612c7b565b612c8f565b01611689565b565b9290612b5692612b50928592919091600193612c92565b1561094b565b612b5d5750565b612b69612b809161088d565b5f918291635274afe760e01b8352600483016104a2565b0390fd5b612b8c6113af565b503390565b5f90565b9091939293612ba2612b91565b5063a9059cbb60e01b92604051935f525f1960601c1660045260245260205f60448180855af19360015f5114851615612bdd575b5050604052565b8492941516612bf6575f903b113d151616915f80612bd6565b833d5f823e3d90fd5b612c07612d0b565b612c0d57565b5f633ee5aeb560e01b815280612c256004820161040d565b0390fd5b5f90565b90565b90565b612c47612c42612c4c92612c2d565b61164f565b612c30565b90565b612c787f9b779b17422d0df92223018b32b4d1fa46e071723d6817e2486d003becc55f00612c33565b90565b612c83612c29565b50612c8c612c4f565b90565b90565b91949394929092612ca1612b91565b506323b872dd60e01b93604051945f525f1960601c166004525f1960601c1660245260445260205f60648180855af19360015f5114851615612ce9575b50506040525f606052565b8492941516612d02575f903b113d151616915f80612cde565b833d5f823e3d90fd5b612d13612b91565b50612d2e5f612d28612d23612c7b565b612c8f565b01610f5a565b612d47612d41612d3c612acf565b6102db565b916102db565b149056fea264697066735822122066089aee8574e4bccac80c4ef5c578ca21793e724ed0b68e1d23dc56b3e1803364736f6c63430008220033","linkReferences":{}},"methodIdentifiers":{"BASIS_POINTS()":"e1f1c4a7","FEE_PERCENT()":"eaf98d23","MAX_TX_AMOUNT()":"8ae2702f","MAX_WALLET_LIMIT()":"c6cfdc5b","PRECISION()":"aaf5eb68","SLOPE()":"8b7cc629","buy(uint256,uint256)":"d6febde8","calculateCost(uint256,uint256)":"ce394696","claimMiningReward()":"d588acc4","collateralToken()":"b2016bd4","feeRecipient()":"46904840","getCurrentPrice()":"eb91d37e","getGoldOut(uint256)":"2944310f","getHoldersCount()":"73889f4a","getSellProceeds(uint256)":"0c8a77ee","goldToken()":"94002b57","hasHeld(address)":"c274578d","holdersCount()":"6b4ed21b","lastClaimed(address)":"013eba92","miningPool()":"73397597","owner()":"8da5cb5b","renounceOwnership()":"715018a6","rescueToken(address,uint256)":"33f3d628","sell(uint256,uint256)":"d79875eb","totalVolume()":"5f81a57c","transferOwnership(address)":"f2fde38b","updateFeeRecipient(address)":"f160d369","virtualBasePrice()":"f7a96ad2"},"id":0}