{"abi":[{"type":"constructor","inputs":[],"stateMutability":"nonpayable"},{"type":"function","name":"MAX_WALLET_LIMIT","inputs":[],"outputs":[{"name":"","type":"uint256","internalType":"uint256"}],"stateMutability":"view"},{"type":"function","name":"allowance","inputs":[{"name":"owner","type":"address","internalType":"address"},{"name":"spender","type":"address","internalType":"address"}],"outputs":[{"name":"","type":"uint256","internalType":"uint256"}],"stateMutability":"view"},{"type":"function","name":"approve","inputs":[{"name":"spender","type":"address","internalType":"address"},{"name":"value","type":"uint256","internalType":"uint256"}],"outputs":[{"name":"","type":"bool","internalType":"bool"}],"stateMutability":"nonpayable"},{"type":"function","name":"balanceOf","inputs":[{"name":"account","type":"address","internalType":"address"}],"outputs":[{"name":"","type":"uint256","internalType":"uint256"}],"stateMutability":"view"},{"type":"function","name":"burn","inputs":[{"name":"from","type":"address","internalType":"address"},{"name":"amount","type":"uint256","internalType":"uint256"}],"outputs":[],"stateMutability":"nonpayable"},{"type":"function","name":"decimals","inputs":[],"outputs":[{"name":"","type":"uint8","internalType":"uint8"}],"stateMutability":"view"},{"type":"function","name":"mint","inputs":[{"name":"to","type":"address","internalType":"address"},{"name":"amount","type":"uint256","internalType":"uint256"}],"outputs":[],"stateMutability":"nonpayable"},{"type":"function","name":"minter","inputs":[],"outputs":[{"name":"","type":"address","internalType":"address"}],"stateMutability":"view"},{"type":"function","name":"name","inputs":[],"outputs":[{"name":"","type":"string","internalType":"string"}],"stateMutability":"view"},{"type":"function","name":"owner","inputs":[],"outputs":[{"name":"","type":"address","internalType":"address"}],"stateMutability":"view"},{"type":"function","name":"renounceOwnership","inputs":[],"outputs":[],"stateMutability":"nonpayable"},{"type":"function","name":"setMinter","inputs":[{"name":"_minter","type":"address","internalType":"address"}],"outputs":[],"stateMutability":"nonpayable"},{"type":"function","name":"symbol","inputs":[],"outputs":[{"name":"","type":"string","internalType":"string"}],"stateMutability":"view"},{"type":"function","name":"totalSupply","inputs":[],"outputs":[{"name":"","type":"uint256","internalType":"uint256"}],"stateMutability":"view"},{"type":"function","name":"transfer","inputs":[{"name":"to","type":"address","internalType":"address"},{"name":"value","type":"uint256","internalType":"uint256"}],"outputs":[{"name":"","type":"bool","internalType":"bool"}],"stateMutability":"nonpayable"},{"type":"function","name":"transferFrom","inputs":[{"name":"from","type":"address","internalType":"address"},{"name":"to","type":"address","internalType":"address"},{"name":"value","type":"uint256","internalType":"uint256"}],"outputs":[{"name":"","type":"bool","internalType":"bool"}],"stateMutability":"nonpayable"},{"type":"function","name":"transferOwnership","inputs":[{"name":"newOwner","type":"address","internalType":"address"}],"outputs":[],"stateMutability":"nonpayable"},{"type":"event","name":"Approval","inputs":[{"name":"owner","type":"address","indexed":true,"internalType":"address"},{"name":"spender","type":"address","indexed":true,"internalType":"address"},{"name":"value","type":"uint256","indexed":false,"internalType":"uint256"}],"anonymous":false},{"type":"event","name":"OwnershipTransferred","inputs":[{"name":"previousOwner","type":"address","indexed":true,"internalType":"address"},{"name":"newOwner","type":"address","indexed":true,"internalType":"address"}],"anonymous":false},{"type":"event","name":"Transfer","inputs":[{"name":"from","type":"address","indexed":true,"internalType":"address"},{"name":"to","type":"address","indexed":true,"internalType":"address"},{"name":"value","type":"uint256","indexed":false,"internalType":"uint256"}],"anonymous":false},{"type":"error","name":"ERC20InsufficientAllowance","inputs":[{"name":"spender","type":"address","internalType":"address"},{"name":"allowance","type":"uint256","internalType":"uint256"},{"name":"needed","type":"uint256","internalType":"uint256"}]},{"type":"error","name":"ERC20InsufficientBalance","inputs":[{"name":"sender","type":"address","internalType":"address"},{"name":"balance","type":"uint256","internalType":"uint256"},{"name":"needed","type":"uint256","internalType":"uint256"}]},{"type":"error","name":"ERC20InvalidApprover","inputs":[{"name":"approver","type":"address","internalType":"address"}]},{"type":"error","name":"ERC20InvalidReceiver","inputs":[{"name":"receiver","type":"address","internalType":"address"}]},{"type":"error","name":"ERC20InvalidSender","inputs":[{"name":"sender","type":"address","internalType":"address"}]},{"type":"error","name":"ERC20InvalidSpender","inputs":[{"name":"spender","type":"address","internalType":"address"}]},{"type":"error","name":"OwnableInvalidOwner","inputs":[{"name":"owner","type":"address","internalType":"address"}]},{"type":"error","name":"OwnableUnauthorizedAccount","inputs":[{"name":"account","type":"address","internalType":"address"}]}],"bytecode":{"object":"0x60806040523461038757604080519081016001600160401b0381118282101761028f576040908152600a82526923b7b6321021b430b4b760b11b602083015280519081016001600160401b0381118282101761028f57604052600481526311d3d31160e21b602082015281516001600160401b03811161028f57600354600181811c9116801561037d575b602082101461027157601f811161030f575b50602092601f82116001146102ae57928192935f926102a3575b50508160011b915f199060031b1c1916176003555b80516001600160401b03811161028f57600454600181811c91168015610285575b602082101461027157601f8111610203575b50602091601f82116001146101a3579181925f92610198575b50508160011b915f199060031b1c1916176004555b33156101855760058054336001600160a01b03198216811790925560405191906001600160a01b03167f8be0079c531659141344cd1fd0a4f28419497f9722a3daafe3b4186f6b6457e05f80a3610ad9908161038c8239f35b631e4fbdf760e01b5f525f60045260245ffd5b015190505f80610117565b601f1982169260045f52805f20915f5b8581106101eb575083600195106101d3575b505050811b0160045561012c565b01515f1960f88460031b161c191690555f80806101c5565b919260206001819286850151815501940192016101b3565b818111156100fe5760045f52601f820160051c7f8a35acfbc15ff81a39ae7d344fd709f28e8600b4aa8c65c6b64bfe7fe36bd19b60208410610269575b81601f9101920160051c03905f5b82811061025c5750506100fe565b5f8282015560010161024e565b5f9150610240565b634e487b7160e01b5f52602260045260245ffd5b90607f16906100ec565b634e487b7160e01b5f52604160045260245ffd5b015190505f806100b6565b601f1982169360035f52805f20915f5b8681106102f757508360019596106102df575b505050811b016003556100cb565b01515f1960f88460031b161c191690555f80806102d1565b919260206001819286850151815501940192016102be565b8181111561009c5760035f52601f820160051c7fc2575a0e9e593c00f959f8c92f12db2869c3395a3b0502d05e2516446f71f85b60208410610375575b81601f9101920160051c03905f5b82811061036857505061009c565b5f8282015560010161035a565b5f915061034c565b90607f169061008a565b5f80fdfe6080806040526004361015610012575f80fd5b5f3560e01c90816306fdde031461087257508063075461721461084a578063095ea7b3146107c857806318160ddd146107ab57806323b872dd146106cc578063313ce567146106b157806340c10f191461052557806370a08231146104ee578063715018a6146104935780638da5cb5b1461046b57806395d89b41146103505780639dc29fac14610249578063a9059cbb14610218578063c6cfdc5b146101f4578063dd62ed3e146101a4578063f2fde38b1461011e5763fca3b5aa146100d7575f80fd5b3461011a57602036600319011261011a576100f061096b565b6100f8610a7c565b600680546001600160a01b0319166001600160a01b0392909216919091179055005b5f80fd5b3461011a57602036600319011261011a5761013761096b565b61013f610a7c565b6001600160a01b0316801561019157600580546001600160a01b0319811683179091556001600160a01b03167f8be0079c531659141344cd1fd0a4f28419497f9722a3daafe3b4186f6b6457e05f80a3005b631e4fbdf760e01b5f525f60045260245ffd5b3461011a57604036600319011261011a576101bd61096b565b6101c5610981565b6001600160a01b039182165f908152600160209081526040808320949093168252928352819020549051908152f35b3461011a575f36600319011261011a576020604051692a5a058fc295ed0000008152f35b3461011a57604036600319011261011a5761023e61023461096b565b6024359033610997565b602060405160018152f35b3461011a57604036600319011261011a5761026261096b565b60065460243591906001600160a01b0316330361030b576001600160a01b031680156102f857805f525f60205260405f20548281106102df576020835f947fddf252ad1be2c89b69c2b068fc378daa952ba7f163c4a11628f55a4df523b3ef938587528684520360408620558060025403600255604051908152a3005b9063391434e360e21b5f5260045260245260445260645ffd5b634b637e8f60e11b5f525f60045260245ffd5b60405162461bcd60e51b815260206004820152601f60248201527f4f6e6c7920617574686f72697a6564206d696e7465722063616e206275726e006044820152606490fd5b3461011a575f36600319011261011a576040515f6004548060011c90600181168015610461575b60208310811461044d5782855290811561043157506001146103dc575b50819003601f01601f191681019067ffffffffffffffff8211818310176103c8576103c482918260405282610941565b0390f35b634e487b7160e01b5f52604160045260245ffd5b905060045f527f8a35acfbc15ff81a39ae7d344fd709f28e8600b4aa8c65c6b64bfe7fe36bd19b5f905b82821061041b57506020915082010182610394565b6001816020925483858801015201910190610406565b90506020925060ff191682840152151560051b82010182610394565b634e487b7160e01b5f52602260045260245ffd5b91607f1691610377565b3461011a575f36600319011261011a576005546040516001600160a01b039091168152602090f35b3461011a575f36600319011261011a576104ab610a7c565b600580546001600160a01b031981169091555f906001600160a01b03167f8be0079c531659141344cd1fd0a4f28419497f9722a3daafe3b4186f6b6457e08280a3005b3461011a57602036600319011261011a576001600160a01b0361050f61096b565b165f525f602052602060405f2054604051908152f35b3461011a57604036600319011261011a5761053e61096b565b60065460243591906001600160a01b0316330361066c576001600160a01b031690811561065957600254818101809111610645577fddf252ad1be2c89b69c2b068fc378daa952ba7f163c4a11628f55a4df523b3ef602084935f9360025584845283825260408420818154019055604051908152a36005546001600160a01b031681141580610630575b6105ce57005b5f525f602052692a5a058fc295ed00000060405f2054116105eb57005b60405162461bcd60e51b815260206004820152601860248201527f45786365656473204d61782057616c6c6574204c696d697400000000000000006044820152606490fd5b506006546001600160a01b03168114156105c8565b634e487b7160e01b5f52601160045260245ffd5b63ec442f0560e01b5f525f60045260245ffd5b60405162461bcd60e51b815260206004820152601f60248201527f4f6e6c7920617574686f72697a6564206d696e7465722063616e206d696e74006044820152606490fd5b3461011a575f36600319011261011a57602060405160128152f35b3461011a57606036600319011261011a576106e561096b565b6106ed610981565b6001600160a01b0382165f818152600160209081526040808320338452909152902054909260443592915f19811061072b575b5061023e9350610997565b83811061079057841561077d57331561076a5761023e945f52600160205260405f2060018060a01b0333165f526020528360405f209103905584610720565b634a1406b160e11b5f525f60045260245ffd5b63e602df0560e01b5f525f60045260245ffd5b8390637dc7a0d960e11b5f523360045260245260445260645ffd5b3461011a575f36600319011261011a576020600254604051908152f35b3461011a57604036600319011261011a576107e161096b565b60243590331561077d576001600160a01b031690811561076a57335f52600160205260405f20825f526020528060405f20556040519081527f8c5be1e5ebec7d5bd14f71427d1e84f3dd0314c0f7b2291e5b200ac8c7c3b92560203392a3602060405160018152f35b3461011a575f36600319011261011a576006546040516001600160a01b039091168152602090f35b3461011a575f36600319011261011a575f6003548060011c90600181168015610937575b60208310811461044d5782855290811561043157506001146108e25750819003601f01601f191681019067ffffffffffffffff8211818310176103c8576103c482918260405282610941565b905060035f527fc2575a0e9e593c00f959f8c92f12db2869c3395a3b0502d05e2516446f71f85b5f905b82821061092157506020915082010182610394565b600181602092548385880101520191019061090c565b91607f1691610896565b602060409281835280519182918282860152018484015e5f828201840152601f01601f1916010190565b600435906001600160a01b038216820361011a57565b602435906001600160a01b038216820361011a57565b6001600160a01b03169081156102f8576001600160a01b031691821561065957815f525f60205260405f2054818110610a635760208284937fddf252ad1be2c89b69c2b068fc378daa952ba7f163c4a11628f55a4df523b3ef9387965f525f84520360405f2055845f525f825260405f20818154019055604051908152a36005546001600160a01b031681141580610a4e575b610a315750565b5f525f602052692a5a058fc295ed00000060405f2054116105eb57565b506006546001600160a01b0316811415610a2a565b8263391434e360e21b5f5260045260245260445260645ffd5b6005546001600160a01b03163303610a9057565b63118cdaa760e01b5f523360045260245ffdfea264697066735822122008784233986581e2394219e163c3d98c888883d5e697bf78a9bcb214258a1e2664736f6c63430008220033","linkReferences":{}},"methodIdentifiers":{"MAX_WALLET_LIMIT()":"c6cfdc5b","allowance(address,address)":"dd62ed3e","approve(address,uint256)":"095ea7b3","balanceOf(address)":"70a08231","burn(address,uint256)":"9dc29fac","decimals()":"313ce567","mint(address,uint256)":"40c10f19","minter()":"07546172","name()":"06fdde03","owner()":"8da5cb5b","renounceOwnership()":"715018a6","setMinter(address)":"fca3b5aa","symbol()":"95d89b41","totalSupply()":"18160ddd","transfer(address,uint256)":"a9059cbb","transferFrom(address,address,uint256)":"23b872dd","transferOwnership(address)":"f2fde38b"},"id":0}