{"abi":[{"type":"constructor","inputs":[{"name":"_initialOwner","type":"address","internalType":"address"}],"stateMutability":"nonpayable"},{"type":"function","name":"MAX_SUPPLY","inputs":[],"outputs":[{"name":"","type":"uint256","internalType":"uint256"}],"stateMutability":"view"},{"type":"function","name":"allowance","inputs":[{"name":"owner","type":"address","internalType":"address"},{"name":"spender","type":"address","internalType":"address"}],"outputs":[{"name":"","type":"uint256","internalType":"uint256"}],"stateMutability":"view"},{"type":"function","name":"approve","inputs":[{"name":"spender","type":"address","internalType":"address"},{"name":"value","type":"uint256","internalType":"uint256"}],"outputs":[{"name":"","type":"bool","internalType":"bool"}],"stateMutability":"nonpayable"},{"type":"function","name":"balanceOf","inputs":[{"name":"account","type":"address","internalType":"address"}],"outputs":[{"name":"","type":"uint256","internalType":"uint256"}],"stateMutability":"view"},{"type":"function","name":"bondingCurve","inputs":[],"outputs":[{"name":"","type":"address","internalType":"address"}],"stateMutability":"view"},{"type":"function","name":"burn","inputs":[{"name":"from","type":"address","internalType":"address"},{"name":"amount","type":"uint256","internalType":"uint256"}],"outputs":[],"stateMutability":"nonpayable"},{"type":"function","name":"decimals","inputs":[],"outputs":[{"name":"","type":"uint8","internalType":"uint8"}],"stateMutability":"view"},{"type":"function","name":"mint","inputs":[{"name":"to","type":"address","internalType":"address"},{"name":"amount","type":"uint256","internalType":"uint256"}],"outputs":[],"stateMutability":"nonpayable"},{"type":"function","name":"name","inputs":[],"outputs":[{"name":"","type":"string","internalType":"string"}],"stateMutability":"view"},{"type":"function","name":"owner","inputs":[],"outputs":[{"name":"","type":"address","internalType":"address"}],"stateMutability":"view"},{"type":"function","name":"renounceOwnership","inputs":[],"outputs":[],"stateMutability":"nonpayable"},{"type":"function","name":"setBondingCurve","inputs":[{"name":"_bondingCurve","type":"address","internalType":"address"}],"outputs":[],"stateMutability":"nonpayable"},{"type":"function","name":"symbol","inputs":[],"outputs":[{"name":"","type":"string","internalType":"string"}],"stateMutability":"view"},{"type":"function","name":"totalSupply","inputs":[],"outputs":[{"name":"","type":"uint256","internalType":"uint256"}],"stateMutability":"view"},{"type":"function","name":"transfer","inputs":[{"name":"to","type":"address","internalType":"address"},{"name":"value","type":"uint256","internalType":"uint256"}],"outputs":[{"name":"","type":"bool","internalType":"bool"}],"stateMutability":"nonpayable"},{"type":"function","name":"transferFrom","inputs":[{"name":"from","type":"address","internalType":"address"},{"name":"to","type":"address","internalType":"address"},{"name":"value","type":"uint256","internalType":"uint256"}],"outputs":[{"name":"","type":"bool","internalType":"bool"}],"stateMutability":"nonpayable"},{"type":"function","name":"transferOwnership","inputs":[{"name":"newOwner","type":"address","internalType":"address"}],"outputs":[],"stateMutability":"nonpayable"},{"type":"event","name":"Approval","inputs":[{"name":"owner","type":"address","indexed":true,"internalType":"address"},{"name":"spender","type":"address","indexed":true,"internalType":"address"},{"name":"value","type":"uint256","indexed":false,"internalType":"uint256"}],"anonymous":false},{"type":"event","name":"BondingCurveSet","inputs":[{"name":"bondingCurve","type":"address","indexed":true,"internalType":"address"}],"anonymous":false},{"type":"event","name":"OwnershipTransferred","inputs":[{"name":"previousOwner","type":"address","indexed":true,"internalType":"address"},{"name":"newOwner","type":"address","indexed":true,"internalType":"address"}],"anonymous":false},{"type":"event","name":"Transfer","inputs":[{"name":"from","type":"address","indexed":true,"internalType":"address"},{"name":"to","type":"address","indexed":true,"internalType":"address"},{"name":"value","type":"uint256","indexed":false,"internalType":"uint256"}],"anonymous":false},{"type":"error","name":"ERC20InsufficientAllowance","inputs":[{"name":"spender","type":"address","internalType":"address"},{"name":"allowance","type":"uint256","internalType":"uint256"},{"name":"needed","type":"uint256","internalType":"uint256"}]},{"type":"error","name":"ERC20InsufficientBalance","inputs":[{"name":"sender","type":"address","internalType":"address"},{"name":"balance","type":"uint256","internalType":"uint256"},{"name":"needed","type":"uint256","internalType":"uint256"}]},{"type":"error","name":"ERC20InvalidApprover","inputs":[{"name":"approver","type":"address","internalType":"address"}]},{"type":"error","name":"ERC20InvalidReceiver","inputs":[{"name":"receiver","type":"address","internalType":"address"}]},{"type":"error","name":"ERC20InvalidSender","inputs":[{"name":"sender","type":"address","internalType":"address"}]},{"type":"error","name":"ERC20InvalidSpender","inputs":[{"name":"spender","type":"address","internalType":"address"}]},{"type":"error","name":"MaxSupplyReached","inputs":[]},{"type":"error","name":"OnlyBondingCurve","inputs":[]},{"type":"error","name":"OwnableInvalidOwner","inputs":[{"name":"owner","type":"address","internalType":"address"}]},{"type":"error","name":"OwnableUnauthorizedAccount","inputs":[{"name":"account","type":"address","internalType":"address"}]}],"bytecode":{"object":"0x60806040523461039c57610de16020813803918261001c816103a0565b93849283398101031261039c57516001600160a01b0381169081900361039c5761004660406103a0565b90600a825269476f6c64204772616d7360b01b602083015261006860406103a0565b600481526311d3d31160e21b602082015282519091906001600160401b0381116102a257600354600181811c91168015610392575b602082101461028457601f8111610324575b506020601f82116001146102c157819293945f926102b6575b50508160011b915f199060031b1c1916176003555b81516001600160401b0381116102a257600454600181811c91168015610298575b602082101461028457601f8111610216575b50602092601f82116001146101b557928192935f926101aa575b50508160011b915f199060031b1c1916176004555b801561019757600580546001600160a01b03198116831790915560405191906001600160a01b03167f8be0079c531659141344cd1fd0a4f28419497f9722a3daafe3b4186f6b6457e05f80a3610a1b90816103c68239f35b631e4fbdf760e01b5f525f60045260245ffd5b015190505f8061012a565b601f1982169360045f52805f20915f5b8681106101fe57508360019596106101e6575b505050811b0160045561013f565b01515f1960f88460031b161c191690555f80806101d8565b919260206001819286850151815501940192016101c5565b818111156101105760045f52601f820160051c7f8a35acfbc15ff81a39ae7d344fd709f28e8600b4aa8c65c6b64bfe7fe36bd19b6020841061027c575b81601f9101920160051c03905f5b82811061026f575050610110565b5f82820155600101610261565b5f9150610253565b634e487b7160e01b5f52602260045260245ffd5b90607f16906100fe565b634e487b7160e01b5f52604160045260245ffd5b015190505f806100c8565b601f1982169060035f52805f20915f5b81811061030c575095836001959697106102f4575b505050811b016003556100dd565b01515f1960f88460031b161c191690555f80806102e6565b9192602060018192868b0151815501940192016102d1565b818111156100af5760035f52601f820160051c7fc2575a0e9e593c00f959f8c92f12db2869c3395a3b0502d05e2516446f71f85b6020841061038a575b81601f9101920160051c03905f5b82811061037d5750506100af565b5f8282015560010161036f565b5f9150610361565b90607f169061009d565b5f80fd5b6040519190601f01601f191682016001600160401b038111838210176102a25760405256fe6080806040526004361015610012575f80fd5b5f3560e01c90816306fdde03146107e157508063095ea7b31461075f57806318160ddd1461074257806323b872dd14610663578063313ce5671461064857806332cb6b0c1461062357806340c10f191461055757806343ff1fb8146104b057806370a0823114610479578063715018a61461041e5780638da5cb5b146103f657806395d89b41146102db5780639dc29fac1461020a578063a9059cbb146101d9578063dd62ed3e14610189578063eff1d50e146101615763f2fde38b146100d7575f80fd5b3461015d57602036600319011261015d576100f06108da565b6100f86109be565b6001600160a01b0316801561014a57600580546001600160a01b0319811683179091556001600160a01b03167f8be0079c531659141344cd1fd0a4f28419497f9722a3daafe3b4186f6b6457e05f80a3005b631e4fbdf760e01b5f525f60045260245ffd5b5f80fd5b3461015d575f36600319011261015d576006546040516001600160a01b039091168152602090f35b3461015d57604036600319011261015d576101a26108da565b6101aa6108f0565b6001600160a01b039182165f908152600160209081526040808320949093168252928352819020549051908152f35b3461015d57604036600319011261015d576101ff6101f56108da565b6024359033610927565b602060405160018152f35b3461015d57604036600319011261015d576102236108da565b60065460243591906001600160a01b031633036102cc576001600160a01b031680156102b957805f525f60205260405f20548281106102a0576020835f947fddf252ad1be2c89b69c2b068fc378daa952ba7f163c4a11628f55a4df523b3ef938587528684520360408620558060025403600255604051908152a3005b9063391434e360e21b5f5260045260245260445260645ffd5b634b637e8f60e11b5f525f60045260245ffd5b630fb54f0760e21b5f5260045ffd5b3461015d575f36600319011261015d576040515f6004548060011c906001811680156103ec575b6020831081146103d8578285529081156103bc5750600114610367575b50819003601f01601f191681019067ffffffffffffffff8211818310176103535761034f829182604052826108b0565b0390f35b634e487b7160e01b5f52604160045260245ffd5b905060045f527f8a35acfbc15ff81a39ae7d344fd709f28e8600b4aa8c65c6b64bfe7fe36bd19b5f905b8282106103a65750602091508201018261031f565b6001816020925483858801015201910190610391565b90506020925060ff191682840152151560051b8201018261031f565b634e487b7160e01b5f52602260045260245ffd5b91607f1691610302565b3461015d575f36600319011261015d576005546040516001600160a01b039091168152602090f35b3461015d575f36600319011261015d576104366109be565b600580546001600160a01b031981169091555f906001600160a01b03167f8be0079c531659141344cd1fd0a4f28419497f9722a3daafe3b4186f6b6457e08280a3005b3461015d57602036600319011261015d576001600160a01b0361049a6108da565b165f525f602052602060405f2054604051908152f35b3461015d57602036600319011261015d576104c96108da565b6104d16109be565b600654906001600160a01b038216610524576001600160a01b03166001600160a01b03199190911681176006557f9727cfa482a12f4e6e53820c476bc0cd8214e4ed5784a846ad9832ad035f8a555f80a2005b60405162461bcd60e51b815260206004820152600b60248201526a105b1c9958591e481cd95d60aa1b6044820152606490fd5b3461015d57604036600319011261015d576105706108da565b60065460243591906001600160a01b031633036102cc576a115eec47f6cf7e3500000061059f83600254610906565b11610614576001600160a01b0316908115610601577fddf252ad1be2c89b69c2b068fc378daa952ba7f163c4a11628f55a4df523b3ef6020826105e55f94600254610906565b60025584845283825260408420818154019055604051908152a3005b63ec442f0560e01b5f525f60045260245ffd5b63d05cb60960e01b5f5260045ffd5b3461015d575f36600319011261015d5760206040516a115eec47f6cf7e350000008152f35b3461015d575f36600319011261015d57602060405160128152f35b3461015d57606036600319011261015d5761067c6108da565b6106846108f0565b6001600160a01b0382165f818152600160209081526040808320338452909152902054909260443592915f1981106106c2575b506101ff9350610927565b838110610727578415610714573315610701576101ff945f52600160205260405f2060018060a01b0333165f526020528360405f2091039055846106b7565b634a1406b160e11b5f525f60045260245ffd5b63e602df0560e01b5f525f60045260245ffd5b8390637dc7a0d960e11b5f523360045260245260445260645ffd5b3461015d575f36600319011261015d576020600254604051908152f35b3461015d57604036600319011261015d576107786108da565b602435903315610714576001600160a01b031690811561070157335f52600160205260405f20825f526020528060405f20556040519081527f8c5be1e5ebec7d5bd14f71427d1e84f3dd0314c0f7b2291e5b200ac8c7c3b92560203392a3602060405160018152f35b3461015d575f36600319011261015d575f6003548060011c906001811680156108a6575b6020831081146103d8578285529081156103bc57506001146108515750819003601f01601f191681019067ffffffffffffffff8211818310176103535761034f829182604052826108b0565b905060035f527fc2575a0e9e593c00f959f8c92f12db2869c3395a3b0502d05e2516446f71f85b5f905b8282106108905750602091508201018261031f565b600181602092548385880101520191019061087b565b91607f1691610805565b602060409281835280519182918282860152018484015e5f828201840152601f01601f1916010190565b600435906001600160a01b038216820361015d57565b602435906001600160a01b038216820361015d57565b9190820180921161091357565b634e487b7160e01b5f52601160045260245ffd5b6001600160a01b03169081156102b9576001600160a01b031691821561060157815f525f60205260405f20548181106109a557817fddf252ad1be2c89b69c2b068fc378daa952ba7f163c4a11628f55a4df523b3ef92602092855f525f84520360405f2055845f525f825260405f20818154019055604051908152a3565b8263391434e360e21b5f5260045260245260445260645ffd5b6005546001600160a01b031633036109d257565b63118cdaa760e01b5f523360045260245ffdfea264697066735822122030fdee86cf3eb1ce0ed27f5c04fe105965adfe64543b7582cd20b14b2cf6a47164736f6c63430008220033","linkReferences":{}},"methodIdentifiers":{"MAX_SUPPLY()":"32cb6b0c","allowance(address,address)":"dd62ed3e","approve(address,uint256)":"095ea7b3","balanceOf(address)":"70a08231","bondingCurve()":"eff1d50e","burn(address,uint256)":"9dc29fac","decimals()":"313ce567","mint(address,uint256)":"40c10f19","name()":"06fdde03","owner()":"8da5cb5b","renounceOwnership()":"715018a6","setBondingCurve(address)":"43ff1fb8","symbol()":"95d89b41","totalSupply()":"18160ddd","transfer(address,uint256)":"a9059cbb","transferFrom(address,address,uint256)":"23b872dd","transferOwnership(address)":"f2fde38b"},"id":0}