{"abi":[{"type":"constructor","inputs":[{"name":"_goldToken","type":"address","internalType":"address"},{"name":"_collateralToken","type":"address","internalType":"address"},{"name":"_feeRecipient","type":"address","internalType":"address"}],"stateMutability":"nonpayable"},{"type":"function","name":"BASIS_POINTS","inputs":[],"outputs":[{"name":"","type":"uint256","internalType":"uint256"}],"stateMutability":"view"},{"type":"function","name":"FEE_PERCENT","inputs":[],"outputs":[{"name":"","type":"uint256","internalType":"uint256"}],"stateMutability":"view"},{"type":"function","name":"MAX_TX_AMOUNT","inputs":[],"outputs":[{"name":"","type":"uint256","internalType":"uint256"}],"stateMutability":"view"},{"type":"function","name":"PRECISION","inputs":[],"outputs":[{"name":"","type":"uint256","internalType":"uint256"}],"stateMutability":"view"},{"type":"function","name":"SLOPE","inputs":[],"outputs":[{"name":"","type":"uint256","internalType":"uint256"}],"stateMutability":"view"},{"type":"function","name":"buy","inputs":[{"name":"goldAmount","type":"uint256","internalType":"uint256"},{"name":"maxCollateralIn","type":"uint256","internalType":"uint256"}],"outputs":[],"stateMutability":"nonpayable"},{"type":"function","name":"calculateCost","inputs":[{"name":"supply","type":"uint256","internalType":"uint256"},{"name":"amount","type":"uint256","internalType":"uint256"}],"outputs":[{"name":"","type":"uint256","internalType":"uint256"}],"stateMutability":"view"},{"type":"function","name":"collateralToken","inputs":[],"outputs":[{"name":"","type":"address","internalType":"contract IERC20"}],"stateMutability":"view"},{"type":"function","name":"feeRecipient","inputs":[],"outputs":[{"name":"","type":"address","internalType":"address"}],"stateMutability":"view"},{"type":"function","name":"getCurrentPrice","inputs":[],"outputs":[{"name":"","type":"uint256","internalType":"uint256"}],"stateMutability":"view"},{"type":"function","name":"getGoldOut","inputs":[{"name":"collateralAmount","type":"uint256","internalType":"uint256"}],"outputs":[{"name":"","type":"uint256","internalType":"uint256"}],"stateMutability":"view"},{"type":"function","name":"getSellProceeds","inputs":[{"name":"goldAmount","type":"uint256","internalType":"uint256"}],"outputs":[{"name":"","type":"uint256","internalType":"uint256"}],"stateMutability":"view"},{"type":"function","name":"goldToken","inputs":[],"outputs":[{"name":"","type":"address","internalType":"contract GoldToken"}],"stateMutability":"view"},{"type":"function","name":"hasHeld","inputs":[{"name":"","type":"address","internalType":"address"}],"outputs":[{"name":"","type":"bool","internalType":"bool"}],"stateMutability":"view"},{"type":"function","name":"holdersCount","inputs":[],"outputs":[{"name":"","type":"uint256","internalType":"uint256"}],"stateMutability":"view"},{"type":"function","name":"owner","inputs":[],"outputs":[{"name":"","type":"address","internalType":"address"}],"stateMutability":"view"},{"type":"function","name":"renounceOwnership","inputs":[],"outputs":[],"stateMutability":"nonpayable"},{"type":"function","name":"rescueToken","inputs":[{"name":"_token","type":"address","internalType":"address"},{"name":"_amount","type":"uint256","internalType":"uint256"}],"outputs":[],"stateMutability":"nonpayable"},{"type":"function","name":"sell","inputs":[{"name":"goldAmount","type":"uint256","internalType":"uint256"},{"name":"minCollateralOut","type":"uint256","internalType":"uint256"}],"outputs":[],"stateMutability":"nonpayable"},{"type":"function","name":"totalVolume","inputs":[],"outputs":[{"name":"","type":"uint256","internalType":"uint256"}],"stateMutability":"view"},{"type":"function","name":"transferOwnership","inputs":[{"name":"newOwner","type":"address","internalType":"address"}],"outputs":[],"stateMutability":"nonpayable"},{"type":"function","name":"virtualBasePrice","inputs":[],"outputs":[{"name":"","type":"uint256","internalType":"uint256"}],"stateMutability":"view"},{"type":"event","name":"Bought","inputs":[{"name":"user","type":"address","indexed":true,"internalType":"address"},{"name":"collateralIn","type":"uint256","indexed":false,"internalType":"uint256"},{"name":"goldOut","type":"uint256","indexed":false,"internalType":"uint256"},{"name":"fee","type":"uint256","indexed":false,"internalType":"uint256"}],"anonymous":false},{"type":"event","name":"FloorBoosted","inputs":[{"name":"newBasePrice","type":"uint256","indexed":false,"internalType":"uint256"}],"anonymous":false},{"type":"event","name":"OwnershipTransferred","inputs":[{"name":"previousOwner","type":"address","indexed":true,"internalType":"address"},{"name":"newOwner","type":"address","indexed":true,"internalType":"address"}],"anonymous":false},{"type":"event","name":"Sold","inputs":[{"name":"user","type":"address","indexed":true,"internalType":"address"},{"name":"goldIn","type":"uint256","indexed":false,"internalType":"uint256"},{"name":"collateralOut","type":"uint256","indexed":false,"internalType":"uint256"},{"name":"fee","type":"uint256","indexed":false,"internalType":"uint256"}],"anonymous":false},{"type":"error","name":"OwnableInvalidOwner","inputs":[{"name":"owner","type":"address","internalType":"address"}]},{"type":"error","name":"OwnableUnauthorizedAccount","inputs":[{"name":"account","type":"address","internalType":"address"}]},{"type":"error","name":"ReentrancyGuardReentrantCall","inputs":[]},{"type":"error","name":"SafeERC20FailedOperation","inputs":[{"name":"token","type":"address","internalType":"address"}]}],"bytecode":{"object":"0x60803461013757601f61121638819003918201601f19168301916001600160401b0383118484101761013b57808492606094604052833981010312610137576100478161014f565b9061006060406100596020840161014f565b920161014f565b903315610124575f8054336001600160a01b0319821681178355604051959290916001600160a01b0316907f8be0079c531659141344cd1fd0a4f28419497f9722a3daafe3b4186f6b6457e09080a360017f9b779b17422d0df92223018b32b4d1fa46e071723d6817e2486d003becc55f008190556298968060035580546001600160a01b03199081166001600160a01b0393841617909155600280548216938316939093179092556004805490921692169190911790556110b290816101648239f35b631e4fbdf760e01b5f525f60045260245ffd5b5f80fd5b634e487b7160e01b5f52604160045260245ffd5b51906001600160a01b03821682036101375756fe60806040526004361015610011575f80fd5b5f5f3560e01c80630c8a77ee14610bf25780632944310f14610bd457806333f3d62814610b3d5780634690484014610b155780635f81a57c14610af85780636b4ed21b14610adb578063715018a614610a845780638ae2702f14610a605780638b7cc62914610a445780638da5cb5b14610a1d57806394002b57146109f5578063aaf5eb68146109d3578063b2016bd4146109ab578063c274578d1461096e578063ce39469614610955578063d6febde8146105d3578063d79875eb146102b8578063e1f1c4a71461029b578063eaf98d231461027f578063eb91d37e146101b2578063f2fde38b1461012c5763f7a96ad21461010c575f80fd5b346101295780600319360112610129576020600354604051908152f35b80fd5b503461012957602036600319011261012957610146610c10565b61014e610f77565b6001600160a01b0316801561019e5781546001600160a01b03198116821783556001600160a01b03167f8be0079c531659141344cd1fd0a4f28419497f9722a3daafe3b4186f6b6457e08380a380f35b631e4fbdf760e01b82526004829052602482fd5b50346101295780600319360112610129576001546040516318160ddd60e01b815290602090829060049082906001600160a01b03165afa90811561027457829161023e575b50600354918161129a029161129a83040361022a576020610222670de0b6b3a7640000840485610d58565b604051908152f35b634e487b7160e01b81526011600452602490fd5b90506020813d60201161026c575b8161025960209383610c3c565b8101031261026857515f6101f7565b5f80fd5b3d915061024c565b6040513d84823e3d90fd5b5034610129578060031936011261012957602060405160648152f35b503461012957806003193601126101295760206040516127108152f35b5034610129576102c736610c26565b6102cf61101e565b6102e5690a968163f0a57b400000831115610f2b565b6001546040516318160ddd60e01b81526001600160a01b039091169190602081600481865afa9081156105c8578591610596575b50838110610560576103348461032f8184610c72565b610ec0565b60648102818104606414821517156104f6576127109004936103568583610c72565b938410610527578087913b1561052357604051632770a7eb60e21b8152336004820152602481018890529082908290604490829084905af180156102745761050a575b50506103a790600554610d58565b6005558260011c90848111610458575b50906104197fe029f26dbcf8c42dd2f352c10214a7fc26773dc62482c6241334a0402ac09a8093926103f4833360018060a01b0360025416610f9d565b6002546004546001600160a01b03918216929116906104139086610c72565b91610f9d565b6040805194855260208501919091528301523391606090a260017f9b779b17422d0df92223018b32b4d1fa46e071723d6817e2486d003becc55f005580f35b670de0b6b3a7640000820290828204670de0b6b3a764000014831517156104f657917f3f7818d3fc49cb04edfd4caac004e3fc366eb231a0085314db710920d714ff7c60206104e26104da610419956104d48b7fe029f26dbcf8c42dd2f352c10214a7fc26773dc62482c6241334a0402ac09a809b9a99610c72565b90610c92565b600354610d58565b80600355604051908152a1919293506103b7565b634e487b7160e01b87526011600452602487fd5b8161051491610c3c565b61051f57855f610399565b8580fd5b5080fd5b60405162461bcd60e51b81526020600482015260116024820152700a6d8d2e0e0c2ceca40e8dede40d0d2ced607b1b6044820152606490fd5b60405162461bcd60e51b815260206004820152600e60248201526d496e76616c696420737570706c7960901b6044820152606490fd5b90506020813d6020116105c0575b816105b160209383610c3c565b8101031261026857515f610319565b3d91506105a4565b6040513d87823e3d90fd5b5034610268576105e236610c26565b906105eb61101e565b801561091b578061060a690a968163f0a57b4000006004931115610f2b565b6001546040516318160ddd60e01b81529260209184919082906001600160a01b03165afa918215610860575f926108e7575b506106478183610ec0565b9160648302838104606414841517156108985761271090049261066a8482610d58565b9485116108ac57335f52600760205260ff60405f2054161561086b575b6001546001600160a01b0316803b15610268576040516340c10f1960e01b815233600482015260248101859052905f908290604490829084905af1801561086057610849575b506106da90600554610d58565b6005556002546040516323b872dd60e01b8752336004523060245260448690526001600160a01b039091169060208760648180865af1906001885114821615610828575b604052866060521561081657508260011c9061073a8382610d58565b610786575b506002546004547fedba86fd2b22962d534e70ad9b0ff8730de46f636146f2bab6a72cbb1ebbcc53949392610419926001600160a01b039081169216906104139086610c72565b670de0b6b3a7640000820290828204670de0b6b3a764000014831517156104f657917f3f7818d3fc49cb04edfd4caac004e3fc366eb231a0085314db710920d714ff7c60206108026104da610419956104d4897fedba86fd2b22962d534e70ad9b0ff8730de46f636146f2bab6a72cbb1ebbcc539b9a99610d58565b80600355604051908152a19192935061073f565b635274afe760e01b8652600452602485fd5b90600181151661084057823b15153d1516169061071e565b503d87823e3d90fd5b6108569196505f90610c3c565b5f946106da6106cd565b6040513d5f823e3d90fd5b335f52600760205260405f20600160ff198254161790556006545f19811461089857600101600655610687565b634e487b7160e01b5f52601160045260245ffd5b60405162461bcd60e51b8152602060048201526013602482015272141c9a58d948195e18d959591cc81b1a5b5a5d606a1b6044820152606490fd5b9091506020813d602011610913575b8161090360209383610c3c565b810103126102685751905f61063c565b3d91506108f6565b60405162461bcd60e51b81526020600482015260126024820152710416d6f756e74206d757374206265203e20360741b6044820152606490fd5b3461026857602061022261096836610c26565b90610ec0565b34610268576020366003190112610268576001600160a01b0361098f610c10565b165f526007602052602060ff60405f2054166040519015158152f35b34610268575f366003190112610268576002546040516001600160a01b039091168152602090f35b34610268575f366003190112610268576020604051670de0b6b3a76400008152f35b34610268575f366003190112610268576001546040516001600160a01b039091168152602090f35b34610268575f366003190112610268575f546040516001600160a01b039091168152602090f35b34610268575f36600319011261026857602060405161129a8152f35b34610268575f366003190112610268576020604051690a968163f0a57b4000008152f35b34610268575f36600319011261026857610a9c610f77565b5f80546001600160a01b0319811682556001600160a01b03167f8be0079c531659141344cd1fd0a4f28419497f9722a3daafe3b4186f6b6457e08280a3005b34610268575f366003190112610268576020600654604051908152f35b34610268575f366003190112610268576020600554604051908152f35b34610268575f366003190112610268576004546040516001600160a01b039091168152602090f35b3461026857604036600319011261026857610b56610c10565b610b5e610f77565b6002546001600160a01b0391821691168114610b8f575f54610b8d91602435916001600160a01b031690610f9d565b005b60405162461bcd60e51b815260206004820152601860248201527f43616e6e6f742072657363756520636f6c6c61746572616c00000000000000006044820152606490fd5b34610268576020366003190112610268576020610222600435610d65565b34610268576020366003190112610268576020610222600435610cb0565b600435906001600160a01b038216820361026857565b6040906003190112610268576004359060243590565b90601f8019910116810190811067ffffffffffffffff821117610c5e57604052565b634e487b7160e01b5f52604160045260245ffd5b9190820391821161089857565b8181029291811591840414171561089857565b8115610c9c570490565b634e487b7160e01b5f52601260045260245ffd5b6001546040516318160ddd60e01b81529190602090839060049082906001600160a01b03165afa918215610860575f92610d24575b50808210610d1e5761032f81610cfa93610c72565b60648102908082046064148115171561089857612710610d1b920490610c72565b90565b50505f90565b9091506020813d602011610d50575b81610d4060209383610c3c565b810103126102685751905f610ce5565b3d9150610d33565b9190820180921161089857565b60648102908082046064148115171561089857612710610d86920490610c72565b8015610ebb576001546040516318160ddd60e01b81529190602090839060049082906001600160a01b03165afa918215610860575f92610e87575b505f91670de0b6b3a76400008202828104670de0b6b3a76400000361089857600354919291610def91610c92565b5f925b60408410610e02575b5050505090565b90919293610e108382610d58565b600181018091116108985760011c90690a968163f0a57b4000008211610e705784610e3b8385610ec0565b11610e5c5750935b828514610e57576001905b01929190610df2565b610dfb565b9492505f1981019081116108985791610e43565b949250506001690a968163f0a57b40000092610e4e565b9091506020813d602011610eb3575b81610ea360209383610c3c565b810103126102685751905f610dc1565b3d9150610e96565b505f90565b610efe90610ef8610ef1670de0b6b3a7640000610ee9610ee08786610d58565b96600354610c7f565b049480610c7f565b9180610c7f565b90610c72565b908161129a029161129a830403610898576f01812f9cf7920e2b66973e2000000000610d1b920490610d58565b15610f3257565b60405162461bcd60e51b815260206004820152601d60248201527f45786365656473204d6178205472616e73616374696f6e204c696d69740000006044820152606490fd5b5f546001600160a01b03163303610f8a57565b63118cdaa760e01b5f523360045260245ffd5b916040519163a9059cbb60e01b5f5260018060a01b031660045260245260205f60448180865af19060015f5114821615610ffd575b60405215610fdd5750565b635274afe760e01b5f9081526001600160a01b0391909116600452602490fd5b90600181151661101557823b15153d15161690610fd2565b503d5f823e3d90fd5b60027f9b779b17422d0df92223018b32b4d1fa46e071723d6817e2486d003becc55f00541461106d5760027f9b779b17422d0df92223018b32b4d1fa46e071723d6817e2486d003becc55f0055565b633ee5aeb560e01b5f5260045ffdfea264697066735822122030d79cdc7eba65d63c92c0619e33acf15a9a77262ba58be507bb56f1cd28b28864736f6c63430008220033","linkReferences":{}},"methodIdentifiers":{"BASIS_POINTS()":"e1f1c4a7","FEE_PERCENT()":"eaf98d23","MAX_TX_AMOUNT()":"8ae2702f","PRECISION()":"aaf5eb68","SLOPE()":"8b7cc629","buy(uint256,uint256)":"d6febde8","calculateCost(uint256,uint256)":"ce394696","collateralToken()":"b2016bd4","feeRecipient()":"46904840","getCurrentPrice()":"eb91d37e","getGoldOut(uint256)":"2944310f","getSellProceeds(uint256)":"0c8a77ee","goldToken()":"94002b57","hasHeld(address)":"c274578d","holdersCount()":"6b4ed21b","owner()":"8da5cb5b","renounceOwnership()":"715018a6","rescueToken(address,uint256)":"33f3d628","sell(uint256,uint256)":"d79875eb","totalVolume()":"5f81a57c","transferOwnership(address)":"f2fde38b","virtualBasePrice()":"f7a96ad2"},"id":1}