{"abi":[{"type":"constructor","inputs":[],"stateMutability":"nonpayable"},{"type":"function","name":"MAX_WALLET_LIMIT","inputs":[],"outputs":[{"name":"","type":"uint256","internalType":"uint256"}],"stateMutability":"view"},{"type":"function","name":"allowance","inputs":[{"name":"owner","type":"address","internalType":"address"},{"name":"spender","type":"address","internalType":"address"}],"outputs":[{"name":"","type":"uint256","internalType":"uint256"}],"stateMutability":"view"},{"type":"function","name":"approve","inputs":[{"name":"spender","type":"address","internalType":"address"},{"name":"value","type":"uint256","internalType":"uint256"}],"outputs":[{"name":"","type":"bool","internalType":"bool"}],"stateMutability":"nonpayable"},{"type":"function","name":"balanceOf","inputs":[{"name":"account","type":"address","internalType":"address"}],"outputs":[{"name":"","type":"uint256","internalType":"uint256"}],"stateMutability":"view"},{"type":"function","name":"burn","inputs":[{"name":"from","type":"address","internalType":"address"},{"name":"amount","type":"uint256","internalType":"uint256"}],"outputs":[],"stateMutability":"nonpayable"},{"type":"function","name":"decimals","inputs":[],"outputs":[{"name":"","type":"uint8","internalType":"uint8"}],"stateMutability":"view"},{"type":"function","name":"mint","inputs":[{"name":"to","type":"address","internalType":"address"},{"name":"amount","type":"uint256","internalType":"uint256"}],"outputs":[],"stateMutability":"nonpayable"},{"type":"function","name":"minter","inputs":[],"outputs":[{"name":"","type":"address","internalType":"address"}],"stateMutability":"view"},{"type":"function","name":"name","inputs":[],"outputs":[{"name":"","type":"string","internalType":"string"}],"stateMutability":"view"},{"type":"function","name":"owner","inputs":[],"outputs":[{"name":"","type":"address","internalType":"address"}],"stateMutability":"view"},{"type":"function","name":"renounceOwnership","inputs":[],"outputs":[],"stateMutability":"nonpayable"},{"type":"function","name":"setMinter","inputs":[{"name":"_minter","type":"address","internalType":"address"}],"outputs":[],"stateMutability":"nonpayable"},{"type":"function","name":"symbol","inputs":[],"outputs":[{"name":"","type":"string","internalType":"string"}],"stateMutability":"view"},{"type":"function","name":"totalSupply","inputs":[],"outputs":[{"name":"","type":"uint256","internalType":"uint256"}],"stateMutability":"view"},{"type":"function","name":"transfer","inputs":[{"name":"to","type":"address","internalType":"address"},{"name":"value","type":"uint256","internalType":"uint256"}],"outputs":[{"name":"","type":"bool","internalType":"bool"}],"stateMutability":"nonpayable"},{"type":"function","name":"transferFrom","inputs":[{"name":"from","type":"address","internalType":"address"},{"name":"to","type":"address","internalType":"address"},{"name":"value","type":"uint256","internalType":"uint256"}],"outputs":[{"name":"","type":"bool","internalType":"bool"}],"stateMutability":"nonpayable"},{"type":"function","name":"transferOwnership","inputs":[{"name":"newOwner","type":"address","internalType":"address"}],"outputs":[],"stateMutability":"nonpayable"},{"type":"event","name":"Approval","inputs":[{"name":"owner","type":"address","indexed":true,"internalType":"address"},{"name":"spender","type":"address","indexed":true,"internalType":"address"},{"name":"value","type":"uint256","indexed":false,"internalType":"uint256"}],"anonymous":false},{"type":"event","name":"OwnershipTransferred","inputs":[{"name":"previousOwner","type":"address","indexed":true,"internalType":"address"},{"name":"newOwner","type":"address","indexed":true,"internalType":"address"}],"anonymous":false},{"type":"event","name":"Transfer","inputs":[{"name":"from","type":"address","indexed":true,"internalType":"address"},{"name":"to","type":"address","indexed":true,"internalType":"address"},{"name":"value","type":"uint256","indexed":false,"internalType":"uint256"}],"anonymous":false},{"type":"error","name":"ERC20InsufficientAllowance","inputs":[{"name":"spender","type":"address","internalType":"address"},{"name":"allowance","type":"uint256","internalType":"uint256"},{"name":"needed","type":"uint256","internalType":"uint256"}]},{"type":"error","name":"ERC20InsufficientBalance","inputs":[{"name":"sender","type":"address","internalType":"address"},{"name":"balance","type":"uint256","internalType":"uint256"},{"name":"needed","type":"uint256","internalType":"uint256"}]},{"type":"error","name":"ERC20InvalidApprover","inputs":[{"name":"approver","type":"address","internalType":"address"}]},{"type":"error","name":"ERC20InvalidReceiver","inputs":[{"name":"receiver","type":"address","internalType":"address"}]},{"type":"error","name":"ERC20InvalidSender","inputs":[{"name":"sender","type":"address","internalType":"address"}]},{"type":"error","name":"ERC20InvalidSpender","inputs":[{"name":"spender","type":"address","internalType":"address"}]},{"type":"error","name":"OwnableInvalidOwner","inputs":[{"name":"owner","type":"address","internalType":"address"}]},{"type":"error","name":"OwnableUnauthorizedAccount","inputs":[{"name":"account","type":"address","internalType":"address"}]}],"bytecode":{"object":"0x6080604052346100275761001161015e565b61001961002c565b6115c16105c482396115c190f35b610032565b60405190565b5f80fd5b601f801991011690565b634e487b7160e01b5f52604160045260245ffd5b9061005e90610036565b810190811060018060401b0382111761007657604052565b610040565b9061008e61008761002c565b9283610054565b565b60018060401b0381116100ac576100a8602091610036565b0190565b610040565b906100c36100be83610090565b61007b565b918252565b5f7f476f6c6420436861696e00000000000000000000000000000000000000000000910152565b6100f9600a6100b1565b90610106602083016100c8565b565b6101106100ef565b90565b5f7f474f4c4400000000000000000000000000000000000000000000000000000000910152565b61014460046100b1565b9061015160208301610113565b565b61015b61013a565b90565b6101783361016a610108565b610172610153565b916101e1565b565b90565b60018060a01b031690565b90565b61019f61019a6101a49261017a565b610188565b61017d565b90565b6101b09061018b565b90565b6101bc9061017d565b90565b6101c8906101b3565b9052565b91906101df905f602085019401906101bf565b565b916101eb9161049d565b806102066102006101fb5f6101a7565b6101b3565b916101b3565b146102165761021490610562565b565b6102396102225f6101a7565b5f918291631e4fbdf760e01b8352600483016101cc565b0390fd5b5190565b634e487b7160e01b5f52602260045260245ffd5b9060016002830492168015610275575b602083101461027057565b610241565b91607f1691610265565b5f5260205f2090565b601f602091010490565b1b90565b919060086102b19102916102ab5f1984610292565b92610292565b9181191691161790565b90565b6102d26102cd6102d7926102bb565b610188565b6102bb565b90565b90565b91906102f36102ee6102fb936102be565b6102da565b908354610296565b9055565b5f90565b6103159161030f6102ff565b916102dd565b565b5f5b82811061032557505050565b806103345f6001938501610303565b01610319565b9190601f811161034a575b505050565b818111610357575b610345565b61036c61036661038a9461027f565b91610288565b91602061037882610288565b9110610392575b809101910390610317565b5f8080610352565b505f61037f565b1c90565b906103ad905f1990600802610399565b191690565b816103bc9161039d565b906002021790565b906103ce8161023d565b9060018060401b03821161048c576103f0826103ea8554610255565b8561033a565b602090601f831160011461042457918091610413935f92610418575b50506103b2565b90555b565b90915001515f8061040c565b601f198316916104338561027f565b925f5b8181106104745750916002939185600196941061045a575b50505002019055610416565b61046a910151601f84169061039d565b90555f808061044e565b91936020600181928787015181550195019201610436565b610040565b9061049b916103c4565b565b906104ac6104b3926003610491565b6004610491565b565b5f1c90565b60018060a01b031690565b6104d16104d6916104b5565b6104ba565b90565b6104e390546104c5565b90565b5f1b90565b906104fc60018060a01b03916104e6565b9181191691161790565b61051a61051561051f9261017d565b610188565b61017d565b90565b61052b90610506565b90565b61053790610522565b90565b90565b9061055261054d6105599261052e565b61053a565b82546104eb565b9055565b5f0190565b61056c60056104d9565b61057782600561053d565b906105ab6105a57f8be0079c531659141344cd1fd0a4f28419497f9722a3daafe3b4186f6b6457e09361052e565b9161052e565b916105b461002c565b806105be8161055d565b0390a356fe60806040526004361015610013575b61076c565b61001d5f3561012c565b806306fdde03146101275780630754617214610122578063095ea7b31461011d57806318160ddd1461011857806323b872dd14610113578063313ce5671461010e57806340c10f191461010957806370a0823114610104578063715018a6146100ff5780638da5cb5b146100fa57806395d89b41146100f55780639dc29fac146100f0578063a9059cbb146100eb578063c6cfdc5b146100e6578063dd62ed3e146100e1578063f2fde38b146100dc5763fca3b5aa0361000e57610739565b610706565b6106d0565b61066e565b6105f5565b6105c1565b61058c565b610557565b610524565b6104ef565b61049d565b610463565b610405565b610396565b61033e565b61026c565b6101ba565b60e01c90565b60405190565b5f80fd5b5f80fd5b5f91031261014a57565b61013c565b5190565b60209181520190565b90825f9392825e0152565b601f801991011690565b61019061019960209361019e936101878161014f565b93848093610153565b9586910161015c565b610167565b0190565b6101b79160208201915f818403910152610171565b90565b346101ea576101ca366004610140565b6101e66101d56108c9565b6101dd610132565b918291826101a2565b0390f35b610138565b1c90565b60018060a01b031690565b61020e90600861021393026101ef565b6101f3565b90565b9061022191546101fe565b90565b61023060065f90610216565b90565b60018060a01b031690565b61024790610233565b90565b6102539061023e565b9052565b919061026a905f6020850194019061024a565b565b3461029c5761027c366004610140565b610298610287610224565b61028f610132565b91829182610257565b0390f35b610138565b6102aa8161023e565b036102b157565b5f80fd5b905035906102c2826102a1565b565b90565b6102d0816102c4565b036102d757565b5f80fd5b905035906102e8826102c7565b565b9190604083820312610312578061030661030f925f86016102b5565b936020016102db565b90565b61013c565b151590565b61032590610317565b9052565b919061033c905f6020850194019061031c565b565b3461036f5761036b61035a6103543660046102ea565b906108e3565b610362610132565b91829182610329565b0390f35b610138565b61037d906102c4565b9052565b9190610394905f60208501940190610374565b565b346103c6576103a6366004610140565b6103c26103b1610932565b6103b9610132565b91829182610381565b0390f35b610138565b9091606082840312610400576103fd6103e6845f85016102b5565b936103f481602086016102b5565b936040016102db565b90565b61013c565b346104365761043261042161041b3660046103cb565b91610948565b610429610132565b91829182610329565b0390f35b610138565b60ff1690565b61044a9061043b565b9052565b9190610461905f60208501940190610441565b565b3461049357610473366004610140565b61048f61047e61099a565b610486610132565b9182918261044e565b0390f35b610138565b5f0190565b346104cc576104b66104b03660046102ea565b90610b00565b6104be610132565b806104c881610498565b0390f35b610138565b906020828203126104ea576104e7915f016102b5565b90565b61013c565b3461051f5761051b61050a6105053660046104d1565b610ba9565b610512610132565b91829182610381565b0390f35b610138565b3461055257610534366004610140565b61053c610bec565b610544610132565b8061054e81610498565b0390f35b610138565b3461058757610567366004610140565b610583610572610bfa565b61057a610132565b91829182610257565b0390f35b610138565b346105bc5761059c366004610140565b6105b86105a7610c10565b6105af610132565b918291826101a2565b0390f35b610138565b346105f0576105da6105d43660046102ea565b90610ca8565b6105e2610132565b806105ec81610498565b0390f35b610138565b346106265761062261061161060b3660046102ea565b90610d07565b610619610132565b91829182610329565b0390f35b610138565b90565b90565b61064561064061064a9261062b565b61062e565b6102c4565b90565b610660692a5a058fc295ed000000610631565b90565b61066b61064d565b90565b3461069e5761067e366004610140565b61069a610689610663565b610691610132565b91829182610381565b0390f35b610138565b91906040838203126106cb57806106bf6106c8925f86016102b5565b936020016102b5565b90565b61013c565b34610701576106fd6106ec6106e63660046106a3565b90610d3f565b6106f4610132565b91829182610381565b0390f35b610138565b346107345761071e6107193660046104d1565b610dcc565b610726610132565b8061073081610498565b0390f35b610138565b346107675761075161074c3660046104d1565b610e3a565b610759610132565b8061076381610498565b0390f35b610138565b5f80fd5b606090565b634e487b7160e01b5f52602260045260245ffd5b90600160028304921680156107a9575b60208310146107a457565b610775565b91607f1691610799565b60209181520190565b5f5260205f2090565b905f92918054906107df6107d883610789565b80946107b3565b916001811690815f1461083657506001146107fa575b505050565b61080791929394506107bc565b915f925b81841061081e57505001905f80806107f5565b6001816020929593955484860152019101929061080b565b92949550505060ff19168252151560200201905f80806107f5565b9061085b916107c5565b90565b634e487b7160e01b5f52604160045260245ffd5b9061087c90610167565b810190811067ffffffffffffffff82111761089657604052565b61085e565b906108bb6108b4926108ab610132565b93848092610851565b0383610872565b565b6108c69061089b565b90565b6108d1610770565b506108dc60036108bd565b90565b5f90565b610900916108ef6108df565b506108f8610e45565b919091610e52565b600190565b5f90565b5f1c90565b90565b61091d61092291610909565b61090e565b90565b61092f9054610911565b90565b61093a610905565b506109456002610925565b90565b91610972926109556108df565b5061096a610961610e45565b82908491610ea2565b919091610f2e565b600190565b5f90565b90565b61099261098d6109979261097b565b61062e565b61043b565b90565b6109a2610977565b506109ad601261097e565b90565b6109bc6109c191610909565b6101f3565b90565b6109ce90546109b0565b90565b90565b6109e86109e36109ed926109d1565b61062e565b610233565b90565b6109f9906109d4565b90565b5f7f4d696e746572206e6f742073657420696e20476f6c64546f6b656e0000000000910152565b610a30601b602092610153565b610a39816109fc565b0190565b610a529060208101905f818303910152610a23565b90565b15610a5c57565b610a64610132565b62461bcd60e51b815280610a7a60048201610a3d565b0390fd5b5f7f4f6e6c7920617574686f72697a6564206d696e7465722063616e206d696e7400910152565b610ab2601f602092610153565b610abb81610a7e565b0190565b610ad49060208101905f818303910152610aa5565b90565b15610ade57565b610ae6610132565b62461bcd60e51b815280610afc60048201610abf565b0390fd5b90610b5d91610b33610b1260066109c4565b610b2c610b26610b215f6109f0565b61023e565b9161023e565b1415610a55565b610b5833610b52610b4c610b4760066109c4565b61023e565b9161023e565b14610ad7565b610fcb565b565b610b73610b6e610b7892610233565b61062e565b610233565b90565b610b8490610b5f565b90565b610b9090610b7b565b90565b90610b9d90610b87565b5f5260205260405f2090565b610bbf610bc491610bb8610905565b505f610b93565b610925565b90565b610bcf611029565b610bd7610bd9565b565b610bea610be55f6109f0565b611077565b565b610bf4610bc7565b565b5f90565b610c02610bf6565b50610c0d60056109c4565b90565b610c18610770565b50610c2360046108bd565b90565b5f7f4f6e6c7920617574686f72697a6564206d696e7465722063616e206275726e00910152565b610c5a601f602092610153565b610c6381610c26565b0190565b610c7c9060208101905f818303910152610c4d565b90565b15610c8657565b610c8e610132565b62461bcd60e51b815280610ca460048201610c67565b0390fd5b90610d0591610cdb610cba60066109c4565b610cd4610cce610cc95f6109f0565b61023e565b9161023e565b1415610a55565b610d0033610cfa610cf4610cef60066109c4565b61023e565b9161023e565b14610c7f565b6110d8565b565b610d2491610d136108df565b50610d1c610e45565b919091610f2e565b600190565b90610d3390610b87565b5f5260205260405f2090565b610d6491610d5a610d5f92610d52610905565b506001610d29565b610b93565b610925565b90565b610d7890610d73611029565b610d7a565b565b80610d95610d8f610d8a5f6109f0565b61023e565b9161023e565b14610da557610da390611077565b565b610dc8610db15f6109f0565b5f918291631e4fbdf760e01b835260048301610257565b0390fd5b610dd590610d67565b565b610de890610de3611029565b610e2d565b565b5f1b90565b90610e0060018060a01b0391610dea565b9181191691161790565b90565b90610e22610e1d610e2992610b87565b610e0a565b8254610def565b9055565b610e38906006610e0d565b565b610e4390610dd7565b565b610e4d610bf6565b503390565b91610e60929160019261118c565b565b604090610e8b610e929496959396610e8160608401985f85019061024a565b6020830190610374565b0190610374565b565b90610e9f91036102c4565b90565b929192610eb0818390610d3f565b9081610ec5610ebf5f196102c4565b916102c4565b10610ed2575b5050509050565b81610ee5610edf876102c4565b916102c4565b10610f0b57610f029394610efa919392610e94565b905f9261118c565b805f8080610ecb565b50610f2a849291925f938493637dc7a0d960e11b855260048501610e62565b0390fd5b9182610f4a610f44610f3f5f6109f0565b61023e565b9161023e565b14610fa45781610f6a610f64610f5f5f6109f0565b61023e565b9161023e565b14610f7d57610f7b9291909161131d565b565b610fa0610f895f6109f0565b5f91829163ec442f0560e01b835260048301610257565b0390fd5b610fc7610fb05f6109f0565b5f918291634b637e8f60e11b835260048301610257565b0390fd5b80610fe6610fe0610fdb5f6109f0565b61023e565b9161023e565b146110025761100091610ff85f6109f0565b91909161131d565b565b61102561100e5f6109f0565b5f91829163ec442f0560e01b835260048301610257565b0390fd5b611031610bfa565b61104a61104461103f610e45565b61023e565b9161023e565b0361105157565b61107361105c610e45565b5f91829163118cdaa760e01b835260048301610257565b0390fd5b61108160056109c4565b61108c826005610e0d565b906110c06110ba7f8be0079c531659141344cd1fd0a4f28419497f9722a3daafe3b4186f6b6457e093610b87565b91610b87565b916110c9610132565b806110d381610498565b0390a3565b90816110f46110ee6110e95f6109f0565b61023e565b9161023e565b146111105761110e91906111075f6109f0565b909161131d565b565b61113361111c5f6109f0565b5f918291634b637e8f60e11b835260048301610257565b0390fd5b906111435f1991610dea565b9181191691161790565b61116161115c611166926102c4565b61062e565b6102c4565b90565b90565b9061118161117c6111889261114d565b611169565b8254611137565b9055565b9092816111a96111a361119e5f6109f0565b61023e565b9161023e565b1461127457836111c96111c36111be5f6109f0565b61023e565b9161023e565b1461124d576111ed836111e86111e160018690610d29565b8790610b93565b61116c565b6111f7575b505050565b91909161124261123061122a7f8c5be1e5ebec7d5bd14f71427d1e84f3dd0314c0f7b2291e5b200ac8c7c3b92593610b87565b93610b87565b93611239610132565b91829182610381565b0390a35f80806111f2565b6112706112595f6109f0565b5f918291634a1406b160e11b835260048301610257565b0390fd5b6112976112805f6109f0565b5f91829163e602df0560e01b835260048301610257565b0390fd5b5f7f45786365656473204d61782057616c6c6574204c696d69740000000000000000910152565b6112cf6018602092610153565b6112d88161129b565b0190565b6112f19060208101905f8183039101526112c2565b90565b156112fb57565b611303610132565b62461bcd60e51b815280611319600482016112dc565b0390fd5b9161132c91929083909161141c565b8061134761134161133c5f6109f0565b61023e565b9161023e565b1415806113b3575b8061138f575b61135d575b50565b61136961138991610ba9565b61138261137c61137761064d565b6102c4565b916102c4565b11156112f4565b5f61135a565b50806113ac6113a66113a160066109c4565b61023e565b9161023e565b1415611355565b50806113ce6113c86113c3610bfa565b61023e565b9161023e565b141561134f565b634e487b7160e01b5f52601160045260245ffd5b6113f86113fe919392936102c4565b926102c4565b820180921161140957565b6113d5565b9061141991016102c4565b90565b9190918061143a61143461142f5f6109f0565b61023e565b9161023e565b145f1461151b5761145e611457836114526002610925565b6113e9565b600261116c565b5b8261147a61147461146f5f6109f0565b61023e565b9161023e565b145f146114ef5761149e611497836114926002610925565b610e94565b600261116c565b5b9190916114ea6114d86114d27fddf252ad1be2c89b69c2b068fc378daa952ba7f163c4a11628f55a4df523b3ef93610b87565b93610b87565b936114e1610132565b91829182610381565b0390a3565b611516826115106115015f8790610b93565b9161150b83610925565b61140e565b9061116c565b61149f565b61152e6115295f8390610b93565b610925565b8061154161153b856102c4565b916102c4565b1061156957611554611564918490610e94565b61155f5f8490610b93565b61116c565b61145f565b906115879091925f93849363391434e360e21b855260048501610e62565b0390fdfea26469706673582212209017b6891fc753f591783ace3068e864fef8fe6dee179af18dee74ab0c628f1764736f6c63430008220033","linkReferences":{}},"methodIdentifiers":{"MAX_WALLET_LIMIT()":"c6cfdc5b","allowance(address,address)":"dd62ed3e","approve(address,uint256)":"095ea7b3","balanceOf(address)":"70a08231","burn(address,uint256)":"9dc29fac","decimals()":"313ce567","mint(address,uint256)":"40c10f19","minter()":"07546172","name()":"06fdde03","owner()":"8da5cb5b","renounceOwnership()":"715018a6","setMinter(address)":"fca3b5aa","symbol()":"95d89b41","totalSupply()":"18160ddd","transfer(address,uint256)":"a9059cbb","transferFrom(address,address,uint256)":"23b872dd","transferOwnership(address)":"f2fde38b"},"id":0}