{"abi":[{"type":"constructor","inputs":[{"name":"_token","type":"address","internalType":"address"},{"name":"_collateral","type":"address","internalType":"address"},{"name":"_feeRecipient","type":"address","internalType":"address"},{"name":"_factory","type":"address","internalType":"address"}],"stateMutability":"nonpayable"},{"type":"function","name":"BASIS_POINTS","inputs":[],"outputs":[{"name":"","type":"uint256","internalType":"uint256"}],"stateMutability":"view"},{"type":"function","name":"FEE_BPS","inputs":[],"outputs":[{"name":"","type":"uint256","internalType":"uint256"}],"stateMutability":"view"},{"type":"function","name":"GRADUATION_TARGET","inputs":[],"outputs":[{"name":"","type":"uint256","internalType":"uint256"}],"stateMutability":"view"},{"type":"function","name":"INITIAL_PRICE","inputs":[],"outputs":[{"name":"","type":"uint256","internalType":"uint256"}],"stateMutability":"view"},{"type":"function","name":"PRECISION","inputs":[],"outputs":[{"name":"","type":"uint256","internalType":"uint256"}],"stateMutability":"view"},{"type":"function","name":"PRICE_INCREMENT","inputs":[],"outputs":[{"name":"","type":"uint256","internalType":"uint256"}],"stateMutability":"view"},{"type":"function","name":"bondingProgress","inputs":[],"outputs":[{"name":"","type":"uint256","internalType":"uint256"}],"stateMutability":"view"},{"type":"function","name":"buy","inputs":[{"name":"collateralAmount","type":"uint256","internalType":"uint256"},{"name":"minTokensOut","type":"uint256","internalType":"uint256"}],"outputs":[],"stateMutability":"nonpayable"},{"type":"function","name":"collateral","inputs":[],"outputs":[{"name":"","type":"address","internalType":"contract IERC20"}],"stateMutability":"view"},{"type":"function","name":"factory","inputs":[],"outputs":[{"name":"","type":"address","internalType":"address"}],"stateMutability":"view"},{"type":"function","name":"feeRecipient","inputs":[],"outputs":[{"name":"","type":"address","internalType":"address"}],"stateMutability":"view"},{"type":"function","name":"getCurrentPrice","inputs":[],"outputs":[{"name":"","type":"uint256","internalType":"uint256"}],"stateMutability":"view"},{"type":"function","name":"getSellProceeds","inputs":[{"name":"tokenAmount","type":"uint256","internalType":"uint256"}],"outputs":[{"name":"","type":"uint256","internalType":"uint256"}],"stateMutability":"view"},{"type":"function","name":"getTokensOut","inputs":[{"name":"collateralAmount","type":"uint256","internalType":"uint256"}],"outputs":[{"name":"","type":"uint256","internalType":"uint256"}],"stateMutability":"view"},{"type":"function","name":"graduated","inputs":[],"outputs":[{"name":"","type":"bool","internalType":"bool"}],"stateMutability":"view"},{"type":"function","name":"sell","inputs":[{"name":"tokenAmount","type":"uint256","internalType":"uint256"},{"name":"minCollateralOut","type":"uint256","internalType":"uint256"}],"outputs":[],"stateMutability":"nonpayable"},{"type":"function","name":"token","inputs":[],"outputs":[{"name":"","type":"address","internalType":"contract LaunchpadToken"}],"stateMutability":"view"},{"type":"function","name":"totalRaised","inputs":[],"outputs":[{"name":"","type":"uint256","internalType":"uint256"}],"stateMutability":"view"},{"type":"function","name":"totalVolume","inputs":[],"outputs":[{"name":"","type":"uint256","internalType":"uint256"}],"stateMutability":"view"},{"type":"function","name":"tradeCount","inputs":[],"outputs":[{"name":"","type":"uint256","internalType":"uint256"}],"stateMutability":"view"},{"type":"function","name":"withdrawGraduated","inputs":[{"name":"to","type":"address","internalType":"address"}],"outputs":[],"stateMutability":"nonpayable"},{"type":"event","name":"Bought","inputs":[{"name":"user","type":"address","indexed":true,"internalType":"address"},{"name":"collateralIn","type":"uint256","indexed":false,"internalType":"uint256"},{"name":"tokensOut","type":"uint256","indexed":false,"internalType":"uint256"},{"name":"fee","type":"uint256","indexed":false,"internalType":"uint256"}],"anonymous":false},{"type":"event","name":"Graduated","inputs":[{"name":"totalRaised","type":"uint256","indexed":false,"internalType":"uint256"},{"name":"timestamp","type":"uint256","indexed":false,"internalType":"uint256"}],"anonymous":false},{"type":"event","name":"Sold","inputs":[{"name":"user","type":"address","indexed":true,"internalType":"address"},{"name":"tokensIn","type":"uint256","indexed":false,"internalType":"uint256"},{"name":"collateralOut","type":"uint256","indexed":false,"internalType":"uint256"},{"name":"fee","type":"uint256","indexed":false,"internalType":"uint256"}],"anonymous":false},{"type":"error","name":"ReentrancyGuardReentrantCall","inputs":[]}],"bytecode":{"object":"0x60c03461011457601f61101b38819003918201601f19168301916001600160401b0383118484101761011857808492608094604052833981010312610114576100478161012c565b906100546020820161012c565b61006c60606100656040850161012c565b930161012c565b60017f9b779b17422d0df92223018b32b4d1fa46e071723d6817e2486d003becc55f008190556001600160a01b0394851660805291841660a0525f80549385166001600160a01b03199485161790558154931692909116919091179055604051610eda908161014182396080518181816101160152818161026e015281816105ff0152610db8015260a0518181816101c1015281816102f60152818161055d015261093d0152f35b5f80fd5b634e487b7160e01b5f52604160045260245ffd5b51906001600160a01b03821682036101145756fe60806040526004361015610011575f80fd5b5f5f3560e01c80630c8a77ee14610b2f578063281a320f14610ac457806339690792146108e757806346904840146108c05780635f81a57c146108a35780636d25d802146108885780637c5e27951461086c578063aaf5eb681461084a578063bccc912e14610830578063bd55022a14610813578063bf333f2c146107f8578063c1a844f0146107d9578063c45a0155146107b1578063c5c4744c14610794578063d6febde8146104a2578063d79875eb146101f0578063d8dfeb45146101ab578063e1f1c4a71461018e578063e7c2b7721461016b578063eb91d37e146101485763fc0c546a14610101575f80fd5b346101455780600319360112610145576040517f00000000000000000000000000000000000000000000000000000000000000006001600160a01b03168152602090f35b80fd5b50346101455780600319360112610145576020610163610da3565b604051908152f35b5034610145578060031936011261014557602060ff600354166040519015158152f35b503461014557806003193601126101455760206040516127108152f35b50346101455780600319360112610145576040517f00000000000000000000000000000000000000000000000000000000000000006001600160a01b03168152602090f35b5034610145576101ff36610b80565b610207610e4c565b61021660ff6003541615610c52565b610221821515610c9e565b670de0b6b3a764000061023b610235610da3565b84610b96565b0490601e8202828104601e14831517156104045761271090049161026b6102628483610bc7565b92831015610cdf565b847f00000000000000000000000000000000000000000000000000000000000000006001600160a01b0316803b1561049e57604051632770a7eb60e21b8152336004820152602481018790529082908290604490829084905af180156104935761047a575b505060405163a9059cbb60e01b8152336004820152602481018390526001600160a01b037f00000000000000000000000000000000000000000000000000000000000000001691906020816044818a875af1801561046f5761037a9361034187926020948b91610452575b50610d1f565b885460405163a9059cbb60e01b81526001600160a01b0390911660048201526024810192909252909384919082908a9082906044820190565b03925af1918215610447576103a29261039a918891610418575b50610d5d565b600454610d96565b600455600554600181018091116104045760055560408051938452602084019190915282015233907fe029f26dbcf8c42dd2f352c10214a7fc26773dc62482c6241334a0402ac09a8090606090a260015f516020610e855f395f51905f525580f35b634e487b7160e01b85526011600452602485fd5b61043a915060203d602011610440575b6104328183610bd4565b810190610c0a565b5f610394565b503d610428565b6040513d88823e3d90fd5b6104699150853d8711610440576104328183610bd4565b5f61033b565b6040513d89823e3d90fd5b8161048491610bd4565b61048f57845f6102d0565b8480fd5b6040513d84823e3d90fd5b5080fd5b503461077c576104b136610b80565b906104ba610e4c565b6104c960ff6003541615610c52565b80156104d58115610c9e565b601e820290828204601e1417156107805761271090046104f58183610bc7565b6104fd610da3565b670de0b6b3a76400008202828104670de0b6b3a76400001483151715610780576105339161052a91610ba9565b94851015610cdf565b6040516323b872dd60e01b8152336004820152306024820152604481018290526001600160a01b037f000000000000000000000000000000000000000000000000000000000000000016906020816064815f865af18015610771576105e3926105a686926020945f916104525750610d1f565b5f80546040516323b872dd60e01b81523360048201526001600160a01b039091166024820152604481019390935291938492839182906064820190565b03925af18015610771576105fd915f916104185750610d5d565b7f00000000000000000000000000000000000000000000000000000000000000006001600160a01b0316803b1561077c576040516340c10f1960e01b815233600482015260248101869052905f908290604490829084905af180156107715761075a575b5061066e90600254610d96565b928360025561067f83600454610d96565b600455600554600181018091116107465760055560408051938452602084019190915282015233907fedba86fd2b22962d534e70ad9b0ff8730de46f636146f2bab6a72cbb1ebbcc5390606090a26402540be40081101580610739575b6106f6575b5060015f516020610e855f395f51905f525580f35b60407facfdce92da76539f5af2efc3aa76d42a7a92af4d723a23d144f58fdf1472921e91600160ff1960035416176003558151908152426020820152a15f6106e1565b5060ff60035416156106dc565b634e487b7160e01b86526011600452602486fd5b6107679195505f90610bd4565b5f9361066e610661565b6040513d5f823e3d90fd5b5f80fd5b634e487b7160e01b5f52601160045260245ffd5b3461077c575f36600319011261077c576020600254604051908152f35b3461077c575f36600319011261077c576001546040516001600160a01b039091168152602090f35b3461077c575f36600319011261077c5760206040516402540be4008152f35b3461077c575f36600319011261077c576020604051601e8152f35b3461077c575f36600319011261077c576020600554604051908152f35b3461077c575f36600319011261077c576020610163610c22565b3461077c575f36600319011261077c576020604051670de0b6b3a76400008152f35b3461077c575f36600319011261077c5760206040516103e88152f35b3461077c575f36600319011261077c576020604051600a8152f35b3461077c575f36600319011261077c576020600454604051908152f35b3461077c575f36600319011261077c575f546040516001600160a01b039091168152602090f35b3461077c57602036600319011261077c576004356001600160a01b038116810361077c576001546001600160a01b03163303610a905760ff6003541615610a57576040516370a0823160e01b81523060048201527f00000000000000000000000000000000000000000000000000000000000000006001600160a01b031691602082602481865afa918215610771575f92610a21575b5060405163a9059cbb60e01b81526001600160a01b0390911660048201526024810191909152906020908290815f81604481015b03925af1908115610771575f91610a02575b50156109cb57005b60405162461bcd60e51b815260206004820152600f60248201526e15da5d1a191c985dc819985a5b1959608a1b6044820152606490fd5b610a1b915060203d602011610440576104328183610bd4565b816109c3565b91506020823d602011610a4f575b81610a3c60209383610bd4565b8101031261077c579051906109b161097d565b3d9150610a2f565b60405162461bcd60e51b8152602060048201526011602482015270139bdd0819dc98591d585d1959081e595d607a1b6044820152606490fd5b60405162461bcd60e51b815260206004820152600c60248201526b4f6e6c7920666163746f727960a01b6044820152606490fd5b3461077c57602036600319011261077c57600435601e810290808204601e148115171561078057612710610af9920490610bc7565b610b01610da3565b90670de0b6b3a7640000810290808204670de0b6b3a764000014901517156107805760209161016391610ba9565b3461077c57602036600319011261077c57670de0b6b3a7640000610b5c610b54610da3565b600435610b96565b04601e8102818104601e148215171561078057602091612710610163920490610bc7565b604090600319011261077c576004359060243590565b8181029291811591840414171561078057565b8115610bb3570490565b634e487b7160e01b5f52601260045260245ffd5b9190820391821161078057565b90601f8019910116810190811067ffffffffffffffff821117610bf657604052565b634e487b7160e01b5f52604160045260245ffd5b9081602091031261077c5751801515810361077c5790565b60ff60035416610c4d57600254606481029080820460641490151715610780576402540be400900490565b606490565b15610c5957565b60405162461bcd60e51b815260206004820152601e60248201527f546f6b656e20677261647561746564202d207472616465206f6e2044455800006044820152606490fd5b15610ca557565b60405162461bcd60e51b81526020600482015260126024820152710416d6f756e74206d757374206265203e20360741b6044820152606490fd5b15610ce657565b60405162461bcd60e51b81526020600482015260116024820152700a6d8d2e0e0c2ceca40e8dede40d0d2ced607b1b6044820152606490fd5b15610d2657565b60405162461bcd60e51b815260206004820152600f60248201526e151c985b9cd9995c8819985a5b1959608a1b6044820152606490fd5b15610d6457565b60405162461bcd60e51b815260206004820152600a6024820152691199594819985a5b195960b21b6044820152606490fd5b9190820180921161078057565b6040516318160ddd60e01b81526020816004817f00000000000000000000000000000000000000000000000000000000000000006001600160a01b03165afa908115610771575f91610e1a575b5080600a0290600a82040361078057670de0b6b3a764000090046103e801806103e8116107805790565b90506020813d602011610e44575b81610e3560209383610bd4565b8101031261077c57515f610df0565b3d9150610e28565b60025f516020610e855f395f51905f525414610e755760025f516020610e855f395f51905f5255565b633ee5aeb560e01b5f5260045ffdfe9b779b17422d0df92223018b32b4d1fa46e071723d6817e2486d003becc55f00a2646970667358221220f9a71b8e8ef24e3d4f2b888640a1c02b685369b4af8466130de77dd592219d3a64736f6c63430008220033","linkReferences":{}},"methodIdentifiers":{"BASIS_POINTS()":"e1f1c4a7","FEE_BPS()":"bf333f2c","GRADUATION_TARGET()":"c1a844f0","INITIAL_PRICE()":"7c5e2795","PRECISION()":"aaf5eb68","PRICE_INCREMENT()":"6d25d802","bondingProgress()":"bccc912e","buy(uint256,uint256)":"d6febde8","collateral()":"d8dfeb45","factory()":"c45a0155","feeRecipient()":"46904840","getCurrentPrice()":"eb91d37e","getSellProceeds(uint256)":"0c8a77ee","getTokensOut(uint256)":"281a320f","graduated()":"e7c2b772","sell(uint256,uint256)":"d79875eb","token()":"fc0c546a","totalRaised()":"c5c4744c","totalVolume()":"5f81a57c","tradeCount()":"bd55022a","withdrawGraduated(address)":"39690792"},"id":4}