{"abi":[{"type":"constructor","inputs":[{"name":"_token","type":"address","internalType":"address"},{"name":"_collateral","type":"address","internalType":"address"},{"name":"_feeRecipient","type":"address","internalType":"address"},{"name":"_factory","type":"address","internalType":"address"}],"stateMutability":"nonpayable"},{"type":"function","name":"BASIS_POINTS","inputs":[],"outputs":[{"name":"","type":"uint256","internalType":"uint256"}],"stateMutability":"view"},{"type":"function","name":"FEE_BPS","inputs":[],"outputs":[{"name":"","type":"uint256","internalType":"uint256"}],"stateMutability":"view"},{"type":"function","name":"GRADUATION_TARGET","inputs":[],"outputs":[{"name":"","type":"uint256","internalType":"uint256"}],"stateMutability":"view"},{"type":"function","name":"INITIAL_PRICE","inputs":[],"outputs":[{"name":"","type":"uint256","internalType":"uint256"}],"stateMutability":"view"},{"type":"function","name":"PRECISION","inputs":[],"outputs":[{"name":"","type":"uint256","internalType":"uint256"}],"stateMutability":"view"},{"type":"function","name":"PRICE_INCREMENT","inputs":[],"outputs":[{"name":"","type":"uint256","internalType":"uint256"}],"stateMutability":"view"},{"type":"function","name":"bondingProgress","inputs":[],"outputs":[{"name":"","type":"uint256","internalType":"uint256"}],"stateMutability":"view"},{"type":"function","name":"buy","inputs":[{"name":"collateralAmount","type":"uint256","internalType":"uint256"},{"name":"minTokensOut","type":"uint256","internalType":"uint256"}],"outputs":[],"stateMutability":"nonpayable"},{"type":"function","name":"collateral","inputs":[],"outputs":[{"name":"","type":"address","internalType":"contract IERC20"}],"stateMutability":"view"},{"type":"function","name":"factory","inputs":[],"outputs":[{"name":"","type":"address","internalType":"address"}],"stateMutability":"view"},{"type":"function","name":"feeRecipient","inputs":[],"outputs":[{"name":"","type":"address","internalType":"address"}],"stateMutability":"view"},{"type":"function","name":"getCurrentPrice","inputs":[],"outputs":[{"name":"","type":"uint256","internalType":"uint256"}],"stateMutability":"view"},{"type":"function","name":"getSellProceeds","inputs":[{"name":"tokenAmount","type":"uint256","internalType":"uint256"}],"outputs":[{"name":"","type":"uint256","internalType":"uint256"}],"stateMutability":"view"},{"type":"function","name":"getTokensOut","inputs":[{"name":"collateralAmount","type":"uint256","internalType":"uint256"}],"outputs":[{"name":"","type":"uint256","internalType":"uint256"}],"stateMutability":"view"},{"type":"function","name":"graduated","inputs":[],"outputs":[{"name":"","type":"bool","internalType":"bool"}],"stateMutability":"view"},{"type":"function","name":"sell","inputs":[{"name":"tokenAmount","type":"uint256","internalType":"uint256"},{"name":"minCollateralOut","type":"uint256","internalType":"uint256"}],"outputs":[],"stateMutability":"nonpayable"},{"type":"function","name":"token","inputs":[],"outputs":[{"name":"","type":"address","internalType":"contract LaunchpadToken"}],"stateMutability":"view"},{"type":"function","name":"totalRaised","inputs":[],"outputs":[{"name":"","type":"uint256","internalType":"uint256"}],"stateMutability":"view"},{"type":"function","name":"totalVolume","inputs":[],"outputs":[{"name":"","type":"uint256","internalType":"uint256"}],"stateMutability":"view"},{"type":"function","name":"tradeCount","inputs":[],"outputs":[{"name":"","type":"uint256","internalType":"uint256"}],"stateMutability":"view"},{"type":"function","name":"withdrawGraduated","inputs":[{"name":"to","type":"address","internalType":"address"}],"outputs":[],"stateMutability":"nonpayable"},{"type":"event","name":"Bought","inputs":[{"name":"user","type":"address","indexed":true,"internalType":"address"},{"name":"collateralIn","type":"uint256","indexed":false,"internalType":"uint256"},{"name":"tokensOut","type":"uint256","indexed":false,"internalType":"uint256"},{"name":"fee","type":"uint256","indexed":false,"internalType":"uint256"}],"anonymous":false},{"type":"event","name":"Graduated","inputs":[{"name":"totalRaised","type":"uint256","indexed":false,"internalType":"uint256"},{"name":"timestamp","type":"uint256","indexed":false,"internalType":"uint256"}],"anonymous":false},{"type":"event","name":"Sold","inputs":[{"name":"user","type":"address","indexed":true,"internalType":"address"},{"name":"tokensIn","type":"uint256","indexed":false,"internalType":"uint256"},{"name":"collateralOut","type":"uint256","indexed":false,"internalType":"uint256"},{"name":"fee","type":"uint256","indexed":false,"internalType":"uint256"}],"anonymous":false},{"type":"error","name":"ReentrancyGuardReentrantCall","inputs":[]}],"bytecode":{"object":"0x60c0604052346100845761001d610014610171565b9291909161023f565b610025610089565b611e9061038882396080518181816109a1015281816116680152818161198c0152611c34015260a0518181816107b901528181610e9d01528181610f0d0152818161156a015281816115e9015281816119fc0152611a720152611e9090f35b61008f565b60405190565b5f80fd5b601f801991011690565b634e487b7160e01b5f52604160045260245ffd5b906100bb90610093565b810190811060018060401b038211176100d357604052565b61009d565b906100eb6100e4610089565b92836100b1565b565b5f80fd5b60018060a01b031690565b610105906100f1565b90565b610111816100fc565b0361011857565b5f80fd5b9050519061012982610108565b565b60808183031261016c57610141825f830161011c565b92610169610152846020850161011c565b93610160816040860161011c565b9360600161011c565b90565b6100ed565b61018f61221880380380610184816100d8565b92833981019061012b565b90919293565b90565b6101ac6101a76101b1926100f1565b610195565b6100f1565b90565b6101bd90610198565b90565b6101c9906101b4565b90565b6101d590610198565b90565b6101e1906101cc565b90565b5f1b90565b906101fa60018060a01b03916101e4565b9181191691161790565b61020d90610198565b90565b61021990610204565b90565b90565b9061023461022f61023b92610210565b61021c565b82546101e9565b9055565b9161026461026d9261025c61027496956102576102fa565b6101c0565b6080526101d8565b60a0525f61021f565b600161021f565b565b90565b90565b61029061028b61029592610276565b610195565b610279565b90565b6102a2600161027c565b90565b906102b15f19916101e4565b9181191691161790565b6102cf6102ca6102d492610279565b610195565b610279565b90565b90565b906102ef6102ea6102f6926102bb565b6102d7565b82546102a5565b9055565b61031c610305610298565b5f610316610311610370565b610384565b016102da565b565b5f90565b90565b90565b61033c61033761034192610322565b6101e4565b610325565b90565b61036d7f9b779b17422d0df92223018b32b4d1fa46e071723d6817e2486d003becc55f00610328565b90565b61037861031e565b50610381610344565b90565b9056fe60806040526004361015610013575b610a26565b61001d5f3561016c565b80630c8a77ee14610167578063281a320f14610162578063396907921461015d57806346904840146101585780635f81a57c146101535780636d25d8021461014e5780637c5e279514610149578063aaf5eb6814610144578063bccc912e1461013f578063bd55022a1461013a578063bf333f2c14610135578063c1a844f014610130578063c45a01551461012b578063c5c4744c14610126578063d6febde814610121578063d79875eb1461011c578063d8dfeb4514610117578063e1f1c4a714610112578063e7c2b7721461010d578063eb91d37e146101085763fc0c546a0361000e576109f1565b61096a565b610935565b61089e565b610831565b610783565b61074f565b6106ed565b6106a9565b610665565b6105f5565b610589565b610545565b610510565b61049d565b610430565b6103c1565b610354565b6102ad565b61021b565b6101e6565b60e01c90565b60405190565b5f80fd5b5f80fd5b90565b61018c81610180565b0361019357565b5f80fd5b905035906101a482610183565b565b906020828203126101bf576101bc915f01610197565b90565b61017c565b6101cd90610180565b9052565b91906101e4905f602085019401906101c4565b565b34610216576102126102016101fc3660046101a6565b610ad2565b610209610172565b918291826101d1565b0390f35b610178565b3461024b576102476102366102313660046101a6565b610b2d565b61023e610172565b918291826101d1565b0390f35b610178565b60018060a01b031690565b61026490610250565b90565b6102708161025b565b0361027757565b5f80fd5b9050359061028882610267565b565b906020828203126102a3576102a0915f0161027b565b90565b61017c565b5f0190565b346102db576102c56102c036600461028a565b610e5c565b6102cd610172565b806102d7816102a8565b0390f35b610178565b5f9103126102ea57565b61017c565b1c90565b60018060a01b031690565b61030e90600861031393026102ef565b6102f3565b90565b9061032191546102fe565b90565b61032f5f5f90610316565b90565b61033b9061025b565b9052565b9190610352905f60208501940190610332565b565b34610384576103643660046102e0565b61038061036f610324565b610377610172565b9182918261033f565b0390f35b610178565b90565b61039c9060086103a193026102ef565b610389565b90565b906103af915461038c565b90565b6103be60045f906103a4565b90565b346103f1576103d13660046102e0565b6103ed6103dc6103b2565b6103e4610172565b918291826101d1565b0390f35b610178565b90565b90565b61041061040b610415926103f6565b6103f9565b610180565b90565b610422600a6103fc565b90565b61042d610418565b90565b34610460576104403660046102e0565b61045c61044b610425565b610453610172565b918291826101d1565b0390f35b610178565b90565b61047c61047761048192610465565b6103f9565b610180565b90565b61048f6103e8610468565b90565b61049a610484565b90565b346104cd576104ad3660046102e0565b6104c96104b8610492565b6104c0610172565b918291826101d1565b0390f35b610178565b90565b6104e96104e46104ee926104d2565b6103f9565b610180565b90565b610502670de0b6b3a76400006104d5565b90565b61050d6104f1565b90565b34610540576105203660046102e0565b61053c61052b610505565b610533610172565b918291826101d1565b0390f35b610178565b34610575576105553660046102e0565b610571610560611021565b610568610172565b918291826101d1565b0390f35b610178565b61058660055f906103a4565b90565b346105b9576105993660046102e0565b6105b56105a461057a565b6105ac610172565b918291826101d1565b0390f35b610178565b90565b6105d56105d06105da926105be565b6103f9565b610180565b90565b6105e7601e6105c1565b90565b6105f26105dd565b90565b34610625576106053660046102e0565b6106216106106105ea565b610618610172565b918291826101d1565b0390f35b610178565b90565b61064161063c6106469261062a565b6103f9565b610180565b90565b6106576402540be40061062d565b90565b610662610649565b90565b34610695576106753660046102e0565b61069161068061065a565b610688610172565b918291826101d1565b0390f35b610178565b6106a660015f90610316565b90565b346106d9576106b93660046102e0565b6106d56106c461069a565b6106cc610172565b9182918261033f565b0390f35b610178565b6106ea60025f906103a4565b90565b3461071d576106fd3660046102e0565b6107196107086106de565b610710610172565b918291826101d1565b0390f35b610178565b919060408382031261074a578061073e610747925f8601610197565b93602001610197565b90565b61017c565b3461077e57610768610762366004610722565b906118b9565b610770610172565b8061077a816102a8565b0390f35b610178565b346107b25761079c610796366004610722565b90611c15565b6107a4610172565b806107ae816102a8565b0390f35b610178565b7f000000000000000000000000000000000000000000000000000000000000000090565b6107ef6107ea6107f492610250565b6103f9565b610250565b90565b610800906107db565b90565b61080c906107f7565b90565b61081890610803565b9052565b919061082f905f6020850194019061080f565b565b34610861576108413660046102e0565b61085d61084c6107b7565b610854610172565b9182918261081c565b0390f35b610178565b90565b61087d61087861088292610866565b6103f9565b610180565b90565b610890612710610869565b90565b61089b610885565b90565b346108ce576108ae3660046102e0565b6108ca6108b9610893565b6108c1610172565b918291826101d1565b0390f35b610178565b60ff1690565b6108e99060086108ee93026102ef565b6108d3565b90565b906108fc91546108d9565b90565b61090b60035f906108f1565b90565b151590565b61091c9061090e565b9052565b9190610933905f60208501940190610913565b565b34610965576109453660046102e0565b6109616109506108ff565b610958610172565b91829182610920565b0390f35b610178565b3461099a5761097a3660046102e0565b610996610985611c21565b61098d610172565b918291826101d1565b0390f35b610178565b7f000000000000000000000000000000000000000000000000000000000000000090565b6109cc906107f7565b90565b6109d8906109c3565b9052565b91906109ef905f602085019401906109cf565b565b34610a2157610a013660046102e0565b610a1d610a0c61099f565b610a14610172565b918291826109dc565b0390f35b610178565b5f80fd5b5f90565b634e487b7160e01b5f52601160045260245ffd5b610a51610a5791939293610180565b92610180565b91610a63838202610180565b928184041490151715610a7257565b610a2e565b634e487b7160e01b5f52601260045260245ffd5b610a97610a9d91610180565b91610180565b908115610aa8570490565b610a77565b610abc610ac291939293610180565b92610180565b8203918211610acd57565b610a2e565b610b01610af3610b2a92610ae4610a2a565b50610aed611c21565b90610a42565b610afb6104f1565b90610a8b565b610b24610b1682610b106105dd565b90610a42565b610b1e610885565b90610a8b565b90610aad565b90565b610b66610b8591610b3c610a2a565b50610b60610b5282610b4c6105dd565b90610a42565b610b5a610885565b90610a8b565b90610aad565b610b80610b71611c21565b91610b7a6104f1565b90610a42565b610a8b565b90565b5f1c90565b610b99610b9e91610b88565b6102f3565b90565b610bab9054610b8d565b90565b60209181520190565b5f7f4f6e6c7920666163746f72790000000000000000000000000000000000000000910152565b610beb600c602092610bae565b610bf481610bb7565b0190565b610c0d9060208101905f818303910152610bde565b90565b15610c1757565b610c1f610172565b62461bcd60e51b815280610c3560048201610bf8565b0390fd5b610c45610c4a91610b88565b6108d3565b90565b610c579054610c39565b90565b5f7f4e6f742067726164756174656420796574000000000000000000000000000000910152565b610c8e6011602092610bae565b610c9781610c5a565b0190565b610cb09060208101905f818303910152610c81565b90565b15610cba57565b610cc2610172565b62461bcd60e51b815280610cd860048201610c9b565b0390fd5b610ce5906107f7565b90565b5f80fd5b601f801991011690565b634e487b7160e01b5f52604160045260245ffd5b90610d1490610cec565b810190811067ffffffffffffffff821117610d2e57604052565b610cf6565b60e01b90565b90505190610d4682610183565b565b90602082820312610d6157610d5e915f01610d39565b90565b61017c565b610d6e610172565b3d5f823e3d90fd5b610d7f8161090e565b03610d8657565b5f80fd5b90505190610d9782610d76565b565b90602082820312610db257610daf915f01610d8a565b90565b61017c565b916020610dd8929493610dd160408201965f830190610332565b01906101c4565b565b5f7f5769746864726177206661696c65640000000000000000000000000000000000910152565b610e0e600f602092610bae565b610e1781610dda565b0190565b610e309060208101905f818303910152610e01565b90565b15610e3a57565b610e42610172565b62461bcd60e51b815280610e5860048201610e1b565b0390fd5b610e8133610e7b610e75610e706001610ba1565b61025b565b9161025b565b14610c10565b610e93610e8e6003610c4d565b610cb3565b610ef36020610ec17f0000000000000000000000000000000000000000000000000000000000000000610803565b6370a0823190610ee8610ed330610cdc565b92610edc610172565b95869485938493610d33565b83526004830161033f565b03915afa8015610fdc576020915f91610faf575b50610f317f0000000000000000000000000000000000000000000000000000000000000000610803565b610f545f63a9059cbb959395610f5f610f48610172565b97889687958694610d33565b845260048401610db7565b03925af18015610faa57610f7a915f91610f7c575b50610e33565b565b610f9d915060203d8111610fa3575b610f958183610d0a565b810190610d99565b5f610f74565b503d610f8b565b610d66565b610fcf9150823d8111610fd5575b610fc78183610d0a565b810190610d48565b5f610f07565b503d610fbd565b610d66565b90565b610ff8610ff3610ffd92610fe1565b6103f9565b610180565b90565b61100c61101191610b88565b610389565b90565b61101e9054611000565b90565b611029610a2a565b506110346003610c4d565b611069576110666110586110486002611014565b6110526064610fe4565b90610a42565b611060610649565b90610a8b565b90565b6110736064610fe4565b90565b9061108891611083611d26565b6114c0565b611090611d5f565b565b5f7f546f6b656e20677261647561746564202d207472616465206f6e204445580000910152565b6110c6601e602092610bae565b6110cf81611092565b0190565b6110e89060208101905f8183039101526110b9565b90565b156110f257565b6110fa610172565b62461bcd60e51b815280611110600482016110d3565b0390fd5b90565b61112b61112661113092611114565b6103f9565b610180565b90565b5f7f416d6f756e74206d757374206265203e20300000000000000000000000000000910152565b6111676012602092610bae565b61117081611133565b0190565b6111899060208101905f81830391015261115a565b90565b1561119357565b61119b610172565b62461bcd60e51b8152806111b160048201611174565b0390fd5b5f7f536c69707061676520746f6f2068696768000000000000000000000000000000910152565b6111e96011602092610bae565b6111f2816111b5565b0190565b61120b9060208101905f8183039101526111dc565b90565b1561121557565b61121d610172565b62461bcd60e51b815280611233600482016111f6565b0390fd5b604090611260611267949695939661125660608401985f850190610332565b6020830190610332565b01906101c4565b565b5f7f5472616e73666572206661696c65640000000000000000000000000000000000910152565b61129d600f602092610bae565b6112a681611269565b0190565b6112bf9060208101905f818303910152611290565b90565b156112c957565b6112d1610172565b62461bcd60e51b8152806112e7600482016112aa565b0390fd5b5f7f466565206661696c656400000000000000000000000000000000000000000000910152565b61131f600a602092610bae565b611328816112eb565b0190565b6113419060208101905f818303910152611312565b90565b1561134b57565b611353610172565b62461bcd60e51b8152806113696004820161132c565b0390fd5b5f91031261137757565b61017c565b61138b61139191939293610180565b92610180565b820180921161139c57565b610a2e565b5f1b90565b906113b25f19916113a1565b9181191691161790565b6113d06113cb6113d592610180565b6103f9565b610180565b90565b90565b906113f06113eb6113f7926113bc565b6113d8565b82546113a6565b9055565b90565b61141261140d611417926113fb565b6103f9565b610180565b90565b611423906107f7565b90565b60409061144f611456949695939661144560608401985f8501906101c4565b60208301906101c4565b01906101c4565b565b9061146460ff916113a1565b9181191691161790565b6114779061090e565b90565b90565b9061149261148d6114999261146e565b61147a565b8254611458565b9055565b9160206114be9294936114b760408201965f8301906101c4565b01906101c4565b565b6114db6114d66114d06003610c4d565b1561090e565b6110eb565b6114f7816114f16114eb5f611117565b91610180565b1161118c565b61151a61150c826115066105dd565b90610a42565b611514610885565b90610a8b565b611525828290610aad565b61156561154a611533611c21565b6115458461153f6104f1565b90610a42565b610a8b565b9461155e6115588792610180565b91610180565b101561120e565b61158e7f0000000000000000000000000000000000000000000000000000000000000000610803565b60206323b872dd9133906115be5f6115a530610cdc565b956115c9886115b2610172565b98899788968795610d33565b855260048501611237565b03925af180156118b4576115e4915f91611886575b506112c2565b61160d7f0000000000000000000000000000000000000000000000000000000000000000610803565b60206323b872dd91339061163d5f61162481610ba1565b9561164889611631610172565b98899788968795610d33565b855260048501611237565b03925af1801561188157611663915f91611853575b50611344565b61168c7f00000000000000000000000000000000000000000000000000000000000000006109c3565b906340c10f19338693803b1561184e576116b95f80946116c46116ad610172565b98899687958694610d33565b845260048401610db7565b03925af1908115611849576116f3926116ec9261181d575b506116e76002611014565b61137c565b60026113db565b611710611709836117046004611014565b61137c565b60046113db565b61173661172f61172060016113fe565b61172a6005611014565b61137c565b60056113db565b339192909261177a6117687fedba86fd2b22962d534e70ad9b0ff8730de46f636146f2bab6a72cbb1ebbcc539461141a565b94611771610172565b93849384611426565b0390a26117876002611014565b6117a061179a611795610649565b610180565b91610180565b101580611804575b6117af575b565b6117bb6001600361147d565b6117c56002611014565b427facfdce92da76539f5af2efc3aa76d42a7a92af4d723a23d144f58fdf1472921e916117fc6117f3610172565b9283928361149d565b0390a16117ad565b506118186118126003610c4d565b1561090e565b6117a8565b61183c905f3d8111611842575b6118348183610d0a565b81019061136d565b5f6116dc565b503d61182a565b610d66565b610ce8565b611874915060203d811161187a575b61186c8183610d0a565b810190610d99565b5f61165d565b503d611862565b610d66565b6118a7915060203d81116118ad575b61189f8183610d0a565b810190610d99565b5f6115de565b503d611895565b610d66565b906118c391611076565b565b906118d7916118d2611d26565b6118e1565b6118df611d5f565b565b6118fc6118f76118f16003610c4d565b1561090e565b6110eb565b6119188161191261190c5f611117565b91610180565b1161118c565b61193a61192c611926611c21565b83610a42565b6119346104f1565b90610a8b565b61195d61194f826119496105dd565b90610a42565b611957610885565b90610a8b565b9061198761196c828490610aad565b9461198061197a8792610180565b91610180565b101561120e565b6119b07f00000000000000000000000000000000000000000000000000000000000000006109c3565b639dc29fac338592803b15611c10576119dc5f80946119e76119d0610172565b97889687958694610d33565b845260048401610db7565b03925af18015611c0b57611bdf575b50611a207f0000000000000000000000000000000000000000000000000000000000000000610803565b602063a9059cbb913390611a475f8995611a52611a3b610172565b97889687958694610d33565b845260048401610db7565b03925af18015611bda57611a6d915f91611bac575b506112c2565b611a967f0000000000000000000000000000000000000000000000000000000000000000610803565b90602063a9059cbb92611aa85f610ba1565b90611ac65f8796611ad1611aba610172565b98899687958694610d33565b845260048401610db7565b03925af1908115611ba757611af4611b0392611b0a945f91611b79575b50611344565b611afe6004611014565b61137c565b60046113db565b611b30611b29611b1a60016113fe565b611b246005611014565b61137c565b60056113db565b3391929092611b74611b627fe029f26dbcf8c42dd2f352c10214a7fc26773dc62482c6241334a0402ac09a809461141a565b94611b6b610172565b93849384611426565b0390a2565b611b9a915060203d8111611ba0575b611b928183610d0a565b810190610d99565b5f611aee565b503d611b88565b610d66565b611bcd915060203d8111611bd3575b611bc58183610d0a565b810190610d99565b5f611a67565b503d611bbb565b610d66565b611bfe905f3d8111611c04575b611bf68183610d0a565b81019061136d565b5f6119f6565b503d611bec565b610d66565b610ce8565b90611c1f916118c5565b565b611c29610a2a565b50611c6e6020611c587f00000000000000000000000000000000000000000000000000000000000000006109c3565b6318160ddd90611c66610172565b938492610d33565b82528180611c7e600482016102a8565b03915afa8015611cf557611cc4915f91611cc7575b50611cbe611cb0611ca2610484565b92611cab610418565b610a42565b611cb86104f1565b90610a8b565b9061137c565b90565b611ce8915060203d8111611cee575b611ce08183610d0a565b810190610d48565b5f611c93565b503d611cd6565b610d66565b90565b611d11611d0c611d1692611cfa565b6103f9565b610180565b90565b611d236002611cfd565b90565b611d2e611d83565b611d50611d39611d19565b5f611d4a611d45611dff565b611e13565b016113db565b565b611d5c60016113fe565b90565b611d81611d6a611d52565b5f611d7b611d76611dff565b611e13565b016113db565b565b611d8b611e1a565b611d9157565b5f633ee5aeb560e01b815280611da9600482016102a8565b0390fd5b5f90565b90565b90565b611dcb611dc6611dd092611db1565b6113a1565b611db4565b90565b611dfc7f9b779b17422d0df92223018b32b4d1fa46e071723d6817e2486d003becc55f00611db7565b90565b611e07611dad565b50611e10611dd3565b90565b90565b5f90565b611e22611e16565b50611e3d5f611e37611e32611dff565b611e13565b01611014565b611e56611e50611e4b611d19565b610180565b91610180565b149056fea26469706673582212201bd7aa856b203b0e06085a2446dbbc9447e74d17b7173e536102051f9aaf05b564736f6c63430008220033","linkReferences":{}},"methodIdentifiers":{"BASIS_POINTS()":"e1f1c4a7","FEE_BPS()":"bf333f2c","GRADUATION_TARGET()":"c1a844f0","INITIAL_PRICE()":"7c5e2795","PRECISION()":"aaf5eb68","PRICE_INCREMENT()":"6d25d802","bondingProgress()":"bccc912e","buy(uint256,uint256)":"d6febde8","collateral()":"d8dfeb45","factory()":"c45a0155","feeRecipient()":"46904840","getCurrentPrice()":"eb91d37e","getSellProceeds(uint256)":"0c8a77ee","getTokensOut(uint256)":"281a320f","graduated()":"e7c2b772","sell(uint256,uint256)":"d79875eb","token()":"fc0c546a","totalRaised()":"c5c4744c","totalVolume()":"5f81a57c","tradeCount()":"bd55022a","withdrawGraduated(address)":"39690792"},"id":4}