{"abi":[{"type":"constructor","inputs":[{"name":"_goldToken","type":"address","internalType":"address"},{"name":"_collateralToken","type":"address","internalType":"address"},{"name":"_feeRecipient","type":"address","internalType":"address"}],"stateMutability":"nonpayable"},{"type":"function","name":"BASIS_POINTS","inputs":[],"outputs":[{"name":"","type":"uint256","internalType":"uint256"}],"stateMutability":"view"},{"type":"function","name":"FEE_PERCENT","inputs":[],"outputs":[{"name":"","type":"uint256","internalType":"uint256"}],"stateMutability":"view"},{"type":"function","name":"INITIAL_PRICE","inputs":[],"outputs":[{"name":"","type":"uint256","internalType":"uint256"}],"stateMutability":"view"},{"type":"function","name":"PRECISION","inputs":[],"outputs":[{"name":"","type":"uint256","internalType":"uint256"}],"stateMutability":"view"},{"type":"function","name":"SLOPE","inputs":[],"outputs":[{"name":"","type":"uint256","internalType":"uint256"}],"stateMutability":"view"},{"type":"function","name":"buy","inputs":[{"name":"collateralLimit","type":"uint256","internalType":"uint256"},{"name":"goldAmount","type":"uint256","internalType":"uint256"},{"name":"referrer","type":"address","internalType":"address"}],"outputs":[],"stateMutability":"nonpayable"},{"type":"function","name":"calculateCost","inputs":[{"name":"supply","type":"uint256","internalType":"uint256"},{"name":"amount","type":"uint256","internalType":"uint256"}],"outputs":[{"name":"","type":"uint256","internalType":"uint256"}],"stateMutability":"pure"},{"type":"function","name":"collateralToken","inputs":[],"outputs":[{"name":"","type":"address","internalType":"contract IERC20"}],"stateMutability":"view"},{"type":"function","name":"feeRecipient","inputs":[],"outputs":[{"name":"","type":"address","internalType":"address"}],"stateMutability":"view"},{"type":"function","name":"getCurrentPrice","inputs":[],"outputs":[{"name":"","type":"uint256","internalType":"uint256"}],"stateMutability":"view"},{"type":"function","name":"getGoldOut","inputs":[{"name":"collateralAmount","type":"uint256","internalType":"uint256"}],"outputs":[{"name":"","type":"uint256","internalType":"uint256"}],"stateMutability":"view"},{"type":"function","name":"getSellProceeds","inputs":[{"name":"goldAmount","type":"uint256","internalType":"uint256"}],"outputs":[{"name":"","type":"uint256","internalType":"uint256"}],"stateMutability":"view"},{"type":"function","name":"goldToken","inputs":[],"outputs":[{"name":"","type":"address","internalType":"contract GoldToken"}],"stateMutability":"view"},{"type":"function","name":"owner","inputs":[],"outputs":[{"name":"","type":"address","internalType":"address"}],"stateMutability":"view"},{"type":"function","name":"renounceOwnership","inputs":[],"outputs":[],"stateMutability":"nonpayable"},{"type":"function","name":"rescueToken","inputs":[{"name":"_token","type":"address","internalType":"address"},{"name":"_amount","type":"uint256","internalType":"uint256"}],"outputs":[],"stateMutability":"nonpayable"},{"type":"function","name":"sell","inputs":[{"name":"goldAmount","type":"uint256","internalType":"uint256"},{"name":"minCollateralOut","type":"uint256","internalType":"uint256"}],"outputs":[],"stateMutability":"nonpayable"},{"type":"function","name":"setFeeRecipient","inputs":[{"name":"_feeRecipient","type":"address","internalType":"address"}],"outputs":[],"stateMutability":"nonpayable"},{"type":"function","name":"transferOwnership","inputs":[{"name":"newOwner","type":"address","internalType":"address"}],"outputs":[],"stateMutability":"nonpayable"},{"type":"event","name":"Bought","inputs":[{"name":"user","type":"address","indexed":true,"internalType":"address"},{"name":"collateralAmount","type":"uint256","indexed":false,"internalType":"uint256"},{"name":"goldAmount","type":"uint256","indexed":false,"internalType":"uint256"},{"name":"fee","type":"uint256","indexed":false,"internalType":"uint256"},{"name":"referrer","type":"address","indexed":true,"internalType":"address"}],"anonymous":false},{"type":"event","name":"OwnershipTransferred","inputs":[{"name":"previousOwner","type":"address","indexed":true,"internalType":"address"},{"name":"newOwner","type":"address","indexed":true,"internalType":"address"}],"anonymous":false},{"type":"event","name":"Sold","inputs":[{"name":"user","type":"address","indexed":true,"internalType":"address"},{"name":"goldAmount","type":"uint256","indexed":false,"internalType":"uint256"},{"name":"collateralAmount","type":"uint256","indexed":false,"internalType":"uint256"},{"name":"fee","type":"uint256","indexed":false,"internalType":"uint256"}],"anonymous":false},{"type":"event","name":"TokensRescued","inputs":[{"name":"token","type":"address","indexed":true,"internalType":"address"},{"name":"amount","type":"uint256","indexed":false,"internalType":"uint256"}],"anonymous":false},{"type":"error","name":"OwnableInvalidOwner","inputs":[{"name":"owner","type":"address","internalType":"address"}]},{"type":"error","name":"OwnableUnauthorizedAccount","inputs":[{"name":"account","type":"address","internalType":"address"}]},{"type":"error","name":"ReentrancyGuardReentrantCall","inputs":[]},{"type":"error","name":"SafeERC20FailedOperation","inputs":[{"name":"token","type":"address","internalType":"address"}]}],"bytecode":{"object":"0x60c06040523461008f5761001a610014610170565b9161023d565b610022610094565b611b926104ba823960805181818161052f01528181610a4c01528181610e7701528181610f2f0152818161132d0152818161140e0152611619015260a05181818161065101528181610c7201528181610f9f01528181610fd50152818161147e01526114aa0152611b9290f35b61009a565b60405190565b5f80fd5b601f801991011690565b634e487b7160e01b5f52604160045260245ffd5b906100c69061009e565b810190811060018060401b038211176100de57604052565b6100a8565b906100f66100ef610094565b92836100bc565b565b5f80fd5b60018060a01b031690565b610110906100fc565b90565b61011c81610107565b0361012357565b5f80fd5b9050519061013482610113565b565b909160608284031261016b57610168610151845f8501610127565b9361015f8160208601610127565b93604001610127565b90565b6100f8565b61018e61204c80380380610183816100e3565b928339810190610136565b909192565b90565b6101aa6101a56101af926100fc565b610193565b6100fc565b90565b6101bb90610196565b90565b6101c7906101b2565b90565b6101d390610196565b90565b6101df906101ca565b90565b5f1b90565b906101f860018060a01b03916101e2565b9181191691161790565b61020b90610196565b90565b61021790610202565b90565b90565b9061023261022d6102399261020e565b61021a565b82546101e7565b9055565b610269929161025761025f92610252336102ef565b6101be565b6080526101d6565b60a052600161021d565b565b90565b90565b61028561028061028a9261026b565b610193565b61026e565b90565b6102976001610271565b90565b906102a65f19916101e2565b9181191691161790565b6102c46102bf6102c99261026e565b610193565b61026e565b90565b90565b906102e46102df6102eb926102b0565b6102cc565b825461029a565b9055565b6102f890610369565b61031a61030361028d565b5f61031461030f61040d565b610421565b016102cf565b565b90565b61033361032e6103389261031c565b610193565b6100fc565b90565b6103449061031f565b90565b61035090610107565b9052565b9190610367905f60208501940190610347565b565b8061038461037e6103795f61033b565b610107565b91610107565b14610394576103929061045a565b565b6103b76103a05f61033b565b5f918291631e4fbdf760e01b835260048301610354565b0390fd5b5f90565b90565b90565b6103d96103d46103de926103bf565b6101e2565b6103c2565b90565b61040a7f9b779b17422d0df92223018b32b4d1fa46e071723d6817e2486d003becc55f006103c5565b90565b6104156103bb565b5061041e6103e1565b90565b90565b5f1c90565b60018060a01b031690565b61044061044591610424565b610429565b90565b6104529054610434565b90565b5f0190565b6104635f610448565b61046d825f61021d565b906104a161049b7f8be0079c531659141344cd1fd0a4f28419497f9722a3daafe3b4186f6b6457e09361020e565b9161020e565b916104aa610094565b806104b481610455565b0390a356fe60806040526004361015610013575b6108e0565b61001d5f3561014c565b80630c8a77ee146101475780632944310f1461014257806333f3d6281461013d578063469048401461013857806359a87bc114610133578063715018a61461012e5780637c5e2795146101295780638b7cc629146101245780638da5cb5b1461011f57806394002b571461011a578063aaf5eb6814610115578063b2016bd414610110578063ce3946961461010b578063d79875eb14610106578063e1f1c4a714610101578063e74b981b146100fc578063eaf98d23146100f7578063eb91d37e146100f25763f2fde38b0361000e576108ad565b610878565b610843565b6107f8565b6107a5565b610739565b610703565b6106a1565b61061a565b6105a7565b6104f8565b6104c3565b610457565b6103e8565b6103b4565b610345565b61029c565b6101fb565b6101c6565b60e01c90565b60405190565b5f80fd5b5f80fd5b90565b61016c81610160565b0361017357565b5f80fd5b9050359061018482610163565b565b9060208282031261019f5761019c915f01610177565b90565b61015c565b6101ad90610160565b9052565b91906101c4905f602085019401906101a4565b565b346101f6576101f26101e16101dc366004610186565b610a39565b6101e9610152565b918291826101b1565b0390f35b610158565b3461022b57610227610216610211366004610186565b610b45565b61021e610152565b918291826101b1565b0390f35b610158565b60018060a01b031690565b61024490610230565b90565b6102508161023b565b0361025757565b5f80fd5b9050359061026882610247565b565b9190604083820312610292578061028661028f925f860161025b565b93602001610177565b90565b61015c565b5f0190565b346102cb576102b56102af36600461026a565b90610d07565b6102bd610152565b806102c781610297565b0390f35b610158565b5f9103126102da57565b61015c565b1c90565b60018060a01b031690565b6102fe90600861030393026102df565b6102e3565b90565b9061031191546102ee565b90565b61032060015f90610306565b90565b61032c9061023b565b9052565b9190610343905f60208501940190610323565b565b34610375576103553660046102d0565b610371610360610314565b610368610152565b91829182610330565b0390f35b610158565b90916060828403126103af576103ac610395845f8501610177565b936103a38160208601610177565b9360400161025b565b90565b61015c565b346103e3576103cd6103c736600461037a565b916110c1565b6103d5610152565b806103df81610297565b0390f35b610158565b34610416576103f83660046102d0565b61040061111b565b610408610152565b8061041281610297565b0390f35b610158565b90565b90565b61043561043061043a9261041b565b61041e565b610160565b90565b61044962989680610421565b90565b61045461043d565b90565b34610487576104673660046102d0565b61048361047261044c565b61047a610152565b918291826101b1565b0390f35b610158565b90565b6104a361049e6104a89261048c565b61041e565b610160565b90565b6104b5606461048f565b90565b6104c06104ab565b90565b346104f3576104d33660046102d0565b6104ef6104de6104b8565b6104e6610152565b918291826101b1565b0390f35b610158565b34610528576105083660046102d0565b610524610513611129565b61051b610152565b91829182610330565b0390f35b610158565b7f000000000000000000000000000000000000000000000000000000000000000090565b61056561056061056a92610230565b61041e565b610230565b90565b61057690610551565b90565b6105829061056d565b90565b61058e90610579565b9052565b91906105a5905f60208501940190610585565b565b346105d7576105b73660046102d0565b6105d36105c261052d565b6105ca610152565b91829182610592565b0390f35b610158565b90565b6105f36105ee6105f8926105dc565b61041e565b610160565b90565b61060c670de0b6b3a76400006105df565b90565b6106176105fb565b90565b3461064a5761062a3660046102d0565b61064661063561060f565b61063d610152565b918291826101b1565b0390f35b610158565b7f000000000000000000000000000000000000000000000000000000000000000090565b61067c9061056d565b90565b61068890610673565b9052565b919061069f905f6020850194019061067f565b565b346106d1576106b13660046102d0565b6106cd6106bc61064f565b6106c4610152565b9182918261068c565b0390f35b610158565b91906040838203126106fe57806106f26106fb925f8601610177565b93602001610177565b90565b61015c565b346107345761073061071f6107193660046106d6565b9061115d565b610727610152565b918291826101b1565b0390f35b610158565b346107685761075261074c3660046106d6565b9061158c565b61075a610152565b8061076481610297565b0390f35b610158565b90565b61078461077f6107899261076d565b61041e565b610160565b90565b610797612710610770565b90565b6107a261078c565b90565b346107d5576107b53660046102d0565b6107d16107c061079a565b6107c8610152565b918291826101b1565b0390f35b610158565b906020828203126107f3576107f0915f0161025b565b90565b61015c565b346108265761081061080b3660046107da565b6115fb565b610818610152565b8061082281610297565b0390f35b610158565b610835606461048f565b90565b61084061082b565b90565b34610873576108533660046102d0565b61086f61085e610838565b610866610152565b918291826101b1565b0390f35b610158565b346108a8576108883660046102d0565b6108a4610893611606565b61089b610152565b918291826101b1565b0390f35b610158565b346108db576108c56108c03660046107da565b611744565b6108cd610152565b806108d781610297565b0390f35b610158565b5f80fd5b5f90565b5f80fd5b601f801991011690565b634e487b7160e01b5f52604160045260245ffd5b90610914906108ec565b810190811067ffffffffffffffff82111761092e57604052565b6108f6565b60e01b90565b9050519061094682610163565b565b906020828203126109615761095e915f01610939565b90565b61015c565b61096e610152565b3d5f823e3d90fd5b90565b61098d61098861099292610976565b61041e565b610160565b90565b634e487b7160e01b5f52601160045260245ffd5b6109b86109be91939293610160565b92610160565b82039182116109c957565b610995565b6109dd6109e391939293610160565b92610160565b916109ef838202610160565b9281840414901517156109fe57565b610995565b634e487b7160e01b5f52601260045260245ffd5b610a23610a2991610160565b91610160565b908115610a34570490565b610a03565b610a416108e4565b50610a866020610a707f0000000000000000000000000000000000000000000000000000000000000000610579565b6318160ddd90610a7e610152565b938492610933565b82528180610a9660048201610297565b03915afa908115610b40575f91610b12575b5080610abc610ab684610160565b91610160565b10610b0457610b0191610ad3610ad89282906109a9565b61115d565b610afb610aed82610ae761082b565b906109ce565b610af561078c565b90610a17565b906109a9565b90565b5050610b0f5f610979565b90565b610b33915060203d8111610b39575b610b2b818361090a565b810190610948565b5f610aa8565b503d610b21565b610966565b610b8f610b81610b9d92610b576108e4565b50610b7b610b6d82610b6761082b565b906109ce565b610b7561078c565b90610a17565b906109a9565b610b896105fb565b906109ce565b610b97611606565b90610a17565b90565b90610bb291610bad61174f565b610c63565b565b60209181520190565b5f7f43616e6e6f742072657363756520636f6c6c61746572616c0000000000000000910152565b610bf16018602092610bb4565b610bfa81610bbd565b0190565b610c139060208101905f818303910152610be4565b90565b15610c1d57565b610c25610152565b62461bcd60e51b815280610c3b60048201610bfe565b0390fd5b610c4890610551565b90565b610c5490610c3f565b90565b610c609061056d565b90565b610ca881610ca1610c9b610c967f0000000000000000000000000000000000000000000000000000000000000000610673565b61023b565b9161023b565b1415610c16565b610cc3610cb482610c4b565b610cbc611129565b84916117a2565b610d02610cf07f68f67de89e96b13a3ea058af5fd44cc125efceb528482d539c7b43db2faa066e92610c57565b92610cf9610152565b918291826101b1565b0390a2565b90610d1191610ba0565b565b90610d269291610d2161184b565b610e6d565b610d2e6118a3565b565b610d3f610d4591939293610160565b92610160565b8201809211610d5057565b610995565b5f7f50726963652065786365656473206c696d697400000000000000000000000000910152565b610d896013602092610bb4565b610d9281610d55565b0190565b610dab9060208101905f818303910152610d7c565b90565b15610db557565b610dbd610152565b62461bcd60e51b815280610dd360048201610d96565b0390fd5b5f910312610de157565b61015c565b916020610e07929493610e0060408201965f830190610323565b01906101a4565b565b610e129061056d565b90565b5f1c90565b610e26610e2b91610e15565b6102e3565b90565b610e389054610e1a565b90565b604090610e64610e6b9496959396610e5a60608401985f8501906101a4565b60208301906101a4565b01906101a4565b565b610eb16020610e9b7f0000000000000000000000000000000000000000000000000000000000000000610579565b6318160ddd90610ea9610152565b938492610933565b82528180610ec160048201610297565b03915afa80156110bc57610ede915f9161108e575b50839061115d565b610f2a610f0f610f07610ef984610ef361082b565b906109ce565b610f0161078c565b90610a17565b928390610d30565b92610f23610f1d8592610160565b91610160565b1115610dae565b610f537f0000000000000000000000000000000000000000000000000000000000000000610579565b6340c10f19338592803b1561108957610f7f5f8094610f8a610f73610152565b97889687958694610933565b845260048401610de6565b03925af1801561108457611058575b50610fd07f000000000000000000000000000000000000000000000000000000000000000033610fc830610e09565b9085926118c7565b6110057f0000000000000000000000000000000000000000000000000000000000000000610ffe6001610e2e565b83916117a2565b33919290939261105361104161103b7fbcc395a539bacb40cf13c16c1ee6a92724b3eb339fbc6389aa785280a292577295610c57565b95610c57565b9561104a610152565b93849384610e3b565b0390a3565b611077905f3d811161107d575b61106f818361090a565b810190610dd7565b5f610f99565b503d611065565b610966565b6108e8565b6110af915060203d81116110b5575b6110a7818361090a565b810190610948565b5f610ed6565b503d61109d565b610966565b906110cc9291610d13565b565b6110d661174f565b6110de611108565b565b6110f46110ef6110f992610976565b61041e565b610230565b90565b611105906110e0565b90565b6111196111145f6110fc565b611912565b565b6111236110ce565b565b5f90565b611131611125565b5061113b5f610e2e565b90565b90565b61115561115061115a9261113e565b61041e565b610160565b90565b906111fa6111c86111bb611200946111736108e4565b506111b56111ae6111a761119961118b858a90610d30565b9861119461043d565b6109ce565b6111a16105fb565b90610a17565b96806109ce565b91806109ce565b906109a9565b6111c36104ab565b6109ce565b6111f46111e660026111e16111db6105fb565b91611141565b6109ce565b6111ee6105fb565b906109ce565b90610a17565b90610d30565b90565b906112159161121061184b565b611323565b61121d6118a3565b565b5f7f496e76616c696420737570706c79000000000000000000000000000000000000910152565b611253600e602092610bb4565b61125c8161121f565b0190565b6112759060208101905f818303910152611246565b90565b1561127f57565b611287610152565b62461bcd60e51b81528061129d60048201611260565b0390fd5b5f7f536c69707061676520746f6f2068696768000000000000000000000000000000910152565b6112d56011602092610bb4565b6112de816112a1565b0190565b6112f79060208101905f8183039101526112c8565b90565b1561130157565b611309610152565b62461bcd60e51b81528061131f600482016112e2565b0390fd5b61136760206113517f0000000000000000000000000000000000000000000000000000000000000000610579565b6318160ddd9061135f610152565b938492610933565b8252818061137760048201610297565b03915afa908115611587576113bd916113b6915f91611559575b506113af816113a86113a287610160565b91610160565b1015611278565b83906109a9565b829061115d565b6114096113ee6113e66113d8846113d261082b565b906109ce565b6113e061078c565b90610a17565b9283906109a9565b936114026113fc8692610160565b91610160565b10156112fa565b6114327f0000000000000000000000000000000000000000000000000000000000000000610579565b639dc29fac338492803b156115545761145e5f8094611469611452610152565b97889687958694610933565b845260048401610de6565b03925af1801561154f57611523575b506114a57f00000000000000000000000000000000000000000000000000000000000000003385916117a2565b6114da7f00000000000000000000000000000000000000000000000000000000000000006114d36001610e2e565b83916117a2565b339192909261151e61150c7fe029f26dbcf8c42dd2f352c10214a7fc26773dc62482c6241334a0402ac09a8094610c57565b94611515610152565b93849384610e3b565b0390a2565b611542905f3d8111611548575b61153a818361090a565b810190610dd7565b5f611478565b503d611530565b610966565b6108e8565b61157a915060203d8111611580575b611572818361090a565b810190610948565b5f611391565b503d611568565b610966565b9061159691611203565b565b6115a9906115a461174f565b6115ee565b565b5f1b90565b906115c160018060a01b03916115ab565b9181191691161790565b90565b906115e36115de6115ea92610c57565b6115cb565b82546115b0565b9055565b6115f99060016115ce565b565b61160490611598565b565b61160e6108e4565b50611653602061163d7f0000000000000000000000000000000000000000000000000000000000000000610579565b6318160ddd9061164b610152565b938492610933565b8252818061166360048201610297565b03915afa80156116da576116a9915f916116ac575b506116a361169561168761043d565b926116906104ab565b6109ce565b61169d6105fb565b90610a17565b90610d30565b90565b6116cd915060203d81116116d3575b6116c5818361090a565b810190610948565b5f611678565b503d6116bb565b610966565b6116f0906116eb61174f565b6116f2565b565b8061170d6117076117025f6110fc565b61023b565b9161023b565b1461171d5761171b90611912565b565b6117406117295f6110fc565b5f918291631e4fbdf760e01b835260048301610330565b0390fd5b61174d906116df565b565b611757611129565b61177061176a611765611971565b61023b565b9161023b565b0361177757565b611799611782611971565b5f91829163118cdaa760e01b835260048301610330565b0390fd5b151590565b916117bb916117b5918491600192611982565b1561179d565b6117c25750565b6117ce6117e591610673565b5f918291635274afe760e01b835260048301610330565b0390fd5b6117f36002611141565b90565b906118025f19916115ab565b9181191691161790565b61182061181b61182592610160565b61041e565b610160565b90565b90565b9061184061183b6118479261180c565b611828565b82546117f6565b9055565b6118536119ec565b61187561185e6117e9565b5f61186f61186a611a68565b611a7c565b0161182b565b565b90565b61188e61188961189392611877565b61041e565b610160565b90565b6118a0600161187a565b90565b6118c56118ae611896565b5f6118bf6118ba611a68565b611a7c565b0161182b565b565b92906118e4926118de928592919091600193611a7f565b1561179d565b6118eb5750565b6118f761190e91610673565b5f918291635274afe760e01b835260048301610330565b0390fd5b61191b5f610e2e565b611925825f6115ce565b906119596119537f8be0079c531659141344cd1fd0a4f28419497f9722a3daafe3b4186f6b6457e093610c57565b91610c57565b91611962610152565b8061196c81610297565b0390a3565b611979611125565b503390565b5f90565b909193929361198f61197e565b5063a9059cbb60e01b92604051935f525f1960601c1660045260245260205f60448180855af19360015f51148516156119ca575b5050604052565b84929415166119e3575f903b113d151616915f806119c3565b833d5f823e3d90fd5b6119f4611b1c565b6119fa57565b5f633ee5aeb560e01b815280611a1260048201610297565b0390fd5b5f90565b90565b90565b611a34611a2f611a3992611a1a565b6115ab565b611a1d565b90565b611a657f9b779b17422d0df92223018b32b4d1fa46e071723d6817e2486d003becc55f00611a20565b90565b611a70611a16565b50611a79611a3c565b90565b90565b91949394929092611a8e61197e565b506323b872dd60e01b93604051945f525f1960601c166004525f1960601c1660245260445260205f60648180855af19360015f5114851615611ad6575b50506040525f606052565b8492941516611aef575f903b113d151616915f80611acb565b833d5f823e3d90fd5b90565b611b07611b0c91610e15565b611af8565b90565b611b199054611afb565b90565b611b2461197e565b50611b3f5f611b39611b34611a68565b611a7c565b01611b0f565b611b58611b52611b4d6117e9565b610160565b91610160565b149056fea26469706673582212206038f1fdd4ed4c699fbfe92b2e25546dfcecaac54e57613b05ae8b6c2b3265d064736f6c63430008220033","linkReferences":{}},"methodIdentifiers":{"BASIS_POINTS()":"e1f1c4a7","FEE_PERCENT()":"eaf98d23","INITIAL_PRICE()":"7c5e2795","PRECISION()":"aaf5eb68","SLOPE()":"8b7cc629","buy(uint256,uint256,address)":"59a87bc1","calculateCost(uint256,uint256)":"ce394696","collateralToken()":"b2016bd4","feeRecipient()":"46904840","getCurrentPrice()":"eb91d37e","getGoldOut(uint256)":"2944310f","getSellProceeds(uint256)":"0c8a77ee","goldToken()":"94002b57","owner()":"8da5cb5b","renounceOwnership()":"715018a6","rescueToken(address,uint256)":"33f3d628","sell(uint256,uint256)":"d79875eb","setFeeRecipient(address)":"e74b981b","transferOwnership(address)":"f2fde38b"},"id":0}