{"abi":[{"type":"constructor","inputs":[{"name":"_goldToken","type":"address","internalType":"address"},{"name":"_collateralToken","type":"address","internalType":"address"},{"name":"_feeRecipient","type":"address","internalType":"address"}],"stateMutability":"nonpayable"},{"type":"function","name":"BASIS_POINTS","inputs":[],"outputs":[{"name":"","type":"uint256","internalType":"uint256"}],"stateMutability":"view"},{"type":"function","name":"FEE_PERCENT","inputs":[],"outputs":[{"name":"","type":"uint256","internalType":"uint256"}],"stateMutability":"view"},{"type":"function","name":"INITIAL_PRICE","inputs":[],"outputs":[{"name":"","type":"uint256","internalType":"uint256"}],"stateMutability":"view"},{"type":"function","name":"PRECISION","inputs":[],"outputs":[{"name":"","type":"uint256","internalType":"uint256"}],"stateMutability":"view"},{"type":"function","name":"SLOPE","inputs":[],"outputs":[{"name":"","type":"uint256","internalType":"uint256"}],"stateMutability":"view"},{"type":"function","name":"buy","inputs":[{"name":"collateralLimit","type":"uint256","internalType":"uint256"},{"name":"goldAmount","type":"uint256","internalType":"uint256"},{"name":"referrer","type":"address","internalType":"address"}],"outputs":[],"stateMutability":"nonpayable"},{"type":"function","name":"calculateCost","inputs":[{"name":"supply","type":"uint256","internalType":"uint256"},{"name":"amount","type":"uint256","internalType":"uint256"}],"outputs":[{"name":"","type":"uint256","internalType":"uint256"}],"stateMutability":"pure"},{"type":"function","name":"collateralToken","inputs":[],"outputs":[{"name":"","type":"address","internalType":"contract IERC20"}],"stateMutability":"view"},{"type":"function","name":"feeRecipient","inputs":[],"outputs":[{"name":"","type":"address","internalType":"address"}],"stateMutability":"view"},{"type":"function","name":"getCurrentPrice","inputs":[],"outputs":[{"name":"","type":"uint256","internalType":"uint256"}],"stateMutability":"view"},{"type":"function","name":"getGoldOut","inputs":[{"name":"collateralAmount","type":"uint256","internalType":"uint256"}],"outputs":[{"name":"","type":"uint256","internalType":"uint256"}],"stateMutability":"view"},{"type":"function","name":"getHoldersCount","inputs":[],"outputs":[{"name":"","type":"uint256","internalType":"uint256"}],"stateMutability":"view"},{"type":"function","name":"getSellProceeds","inputs":[{"name":"goldAmount","type":"uint256","internalType":"uint256"}],"outputs":[{"name":"","type":"uint256","internalType":"uint256"}],"stateMutability":"view"},{"type":"function","name":"goldToken","inputs":[],"outputs":[{"name":"","type":"address","internalType":"contract GoldToken"}],"stateMutability":"view"},{"type":"function","name":"owner","inputs":[],"outputs":[{"name":"","type":"address","internalType":"address"}],"stateMutability":"view"},{"type":"function","name":"renounceOwnership","inputs":[],"outputs":[],"stateMutability":"nonpayable"},{"type":"function","name":"rescueToken","inputs":[{"name":"_token","type":"address","internalType":"address"},{"name":"_amount","type":"uint256","internalType":"uint256"}],"outputs":[],"stateMutability":"nonpayable"},{"type":"function","name":"sell","inputs":[{"name":"goldAmount","type":"uint256","internalType":"uint256"},{"name":"minCollateralOut","type":"uint256","internalType":"uint256"}],"outputs":[],"stateMutability":"nonpayable"},{"type":"function","name":"setFeeRecipient","inputs":[{"name":"_feeRecipient","type":"address","internalType":"address"}],"outputs":[],"stateMutability":"nonpayable"},{"type":"function","name":"totalVolume","inputs":[],"outputs":[{"name":"","type":"uint256","internalType":"uint256"}],"stateMutability":"view"},{"type":"function","name":"transferOwnership","inputs":[{"name":"newOwner","type":"address","internalType":"address"}],"outputs":[],"stateMutability":"nonpayable"},{"type":"event","name":"Bought","inputs":[{"name":"user","type":"address","indexed":true,"internalType":"address"},{"name":"collateralAmount","type":"uint256","indexed":false,"internalType":"uint256"},{"name":"goldAmount","type":"uint256","indexed":false,"internalType":"uint256"},{"name":"fee","type":"uint256","indexed":false,"internalType":"uint256"},{"name":"referrer","type":"address","indexed":true,"internalType":"address"}],"anonymous":false},{"type":"event","name":"OwnershipTransferred","inputs":[{"name":"previousOwner","type":"address","indexed":true,"internalType":"address"},{"name":"newOwner","type":"address","indexed":true,"internalType":"address"}],"anonymous":false},{"type":"event","name":"Sold","inputs":[{"name":"user","type":"address","indexed":true,"internalType":"address"},{"name":"goldAmount","type":"uint256","indexed":false,"internalType":"uint256"},{"name":"collateralAmount","type":"uint256","indexed":false,"internalType":"uint256"},{"name":"fee","type":"uint256","indexed":false,"internalType":"uint256"}],"anonymous":false},{"type":"event","name":"TokensRescued","inputs":[{"name":"token","type":"address","indexed":true,"internalType":"address"},{"name":"amount","type":"uint256","indexed":false,"internalType":"uint256"}],"anonymous":false},{"type":"error","name":"OwnableInvalidOwner","inputs":[{"name":"owner","type":"address","internalType":"address"}]},{"type":"error","name":"OwnableUnauthorizedAccount","inputs":[{"name":"account","type":"address","internalType":"address"}]},{"type":"error","name":"ReentrancyGuardReentrantCall","inputs":[]},{"type":"error","name":"SafeERC20FailedOperation","inputs":[{"name":"token","type":"address","internalType":"address"}]}],"bytecode":{"object":"0x60c03461016657601f61105338819003918201601f19168301916001600160401b0383118484101761016a57808492606094604052833981010312610166576100478161017e565b9061006060406100596020840161017e565b920161017e565b903315610153575f8054336001600160a01b0319821681178355604051959290916001600160a01b0316907f8be0079c531659141344cd1fd0a4f28419497f9722a3daafe3b4186f6b6457e09080a360017f9b779b17422d0df92223018b32b4d1fa46e071723d6817e2486d003becc55f008190556001600160a01b0391821660805291811660a05281546001600160a01b0319169216919091179055610ec0908161019382396080518181816102390152818161051e0152818161066701528181610b2b01528181610bf80152610cf5015260a051818181610327015281816104b60152818161071c01526109260152f35b631e4fbdf760e01b5f525f60045260245ffd5b5f80fd5b634e487b7160e01b5f52604160045260245ffd5b51906001600160a01b03821682036101665756fe60806040526004361015610011575f80fd5b5f5f3560e01c80630c8a77ee14610a5a5780632944310f146109d657806333f3d628146108f257806346904840146108ca57806359a87bc1146106255780635f81a57c14610607578063715018a6146105ad57806373889f4a146105925780637c5e2795146105745780638b7cc629146101ac5780638da5cb5b1461054d57806394002b5714610508578063aaf5eb68146104e5578063b2016bd4146104a0578063ce39469614610486578063d79875eb14610213578063e1f1c4a7146101f6578063e74b981b146101b1578063eaf98d23146101ac578063eb91d37e146101895763f2fde38b14610101575f80fd5b346101865760203660031901126101865761011a610a78565b610122610d8b565b6001600160a01b031680156101725781546001600160a01b03198116821783556001600160a01b03167f8be0079c531659141344cd1fd0a4f28419497f9722a3daafe3b4186f6b6457e08380a380f35b631e4fbdf760e01b82526004829052602482fd5b80fd5b503461018657806003193601126101865760206101a4610ce0565b604051908152f35b610a8e565b5034610186576020366003190112610186576101cb610a78565b6101d3610d8b565b60018060a01b03166bffffffffffffffffffffffff60a01b600154161760015580f35b503461018657806003193601126101865760206040516127108152f35b50346101865761022236610aa9565b61022a610e32565b6040516318160ddd60e01b81527f00000000000000000000000000000000000000000000000000000000000000006001600160a01b031690602081600481855afa90811561047b578591610445575b5083811061040f578361028f8161029493610af5565b610c71565b9160648302838104606414841517156103fb576127109004916102b78385610af5565b9182106103c2578086913b156103be57604051632770a7eb60e21b8152336004820152602481018790529082908290604490829084905af180156103b35761039a575b505061036b7fe029f26dbcf8c42dd2f352c10214a7fc26773dc62482c6241334a0402ac09a8093610363847f0000000000000000000000000000000000000000000000000000000000000000610351863383610db1565b6001546001600160a01b031690610db1565b600254610bd6565b6002556040805194855260208501919091528301523391606090a260015f516020610e6b5f395f51905f525580f35b816103a491610abf565b6103af57845f6102fa565b8480fd5b6040513d84823e3d90fd5b5080fd5b60405162461bcd60e51b81526020600482015260116024820152700a6d8d2e0e0c2ceca40e8dede40d0d2ced607b1b6044820152606490fd5b634e487b7160e01b86526011600452602486fd5b60405162461bcd60e51b815260206004820152600e60248201526d496e76616c696420737570706c7960901b6044820152606490fd5b90506020813d602011610473575b8161046060209383610abf565b8101031261046f57515f610279565b5f80fd5b3d9150610453565b6040513d87823e3d90fd5b50346101865760206101a461049a36610aa9565b90610c71565b50346101865780600319360112610186576040517f00000000000000000000000000000000000000000000000000000000000000006001600160a01b03168152602090f35b50346101865780600319360112610186576020604051670de0b6b3a76400008152f35b50346101865780600319360112610186576040517f00000000000000000000000000000000000000000000000000000000000000006001600160a01b03168152602090f35b5034610186578060031936011261018657546040516001600160a01b039091168152602090f35b50346101865780600319360112610186576020604051629896808152f35b503461018657806003193601126101865760206101a4610be3565b50346101865780600319360112610186576105c6610d8b565b80546001600160a01b03198116825581906001600160a01b03167f8be0079c531659141344cd1fd0a4f28419497f9722a3daafe3b4186f6b6457e08280a380f35b50346101865780600319360112610186576020600254604051908152f35b503461046f57606036600319011261046f57602435906044356001600160a01b0381169081900361046f57610658610e32565b6040516318160ddd60e01b81527f00000000000000000000000000000000000000000000000000000000000000006001600160a01b031690602081600481855afa801561083a5785905f90610894575b6106b29250610c71565b936064850285810460641486151715610880576127109004906106d58287610bd6565b92600435841161084557803b1561046f576040516340c10f1960e01b815233600482015260248101839052905f908290604490829084905af1801561083a57610825575b507f0000000000000000000000000000000000000000000000000000000000000000956040516323b872dd60e01b8752336004523060245284604452602087606481808c5af1906001885114821615610804575b60405286606052156107e8576001547fbcc395a539bacb40cf13c16c1ee6a92724b3eb339fbc6389aa785280a29257729392916107b9916103639085906001600160a01b03168b610db1565b6002556040805194855260208501919091528301523391606090a360015f516020610e6b5f395f51905f525580f35b635274afe760e01b86526001600160a01b038716600452602486fd5b90600181151661081c57883b15153d1516169061076d565b503d87823e3d90fd5b6108329195505f90610abf565b5f935f610719565b6040513d5f823e3d90fd5b60405162461bcd60e51b8152602060048201526013602482015272141c9a58d948195e18d959591cc81b1a5b5a5d606a1b6044820152606490fd5b634e487b7160e01b5f52601160045260245ffd5b50506020813d6020116108c2575b816108af60209383610abf565b8101031261046f57846106b291516106a8565b3d91506108a2565b3461046f575f36600319011261046f576001546040516001600160a01b039091168152602090f35b3461046f57604036600319011261046f5761090b610a78565b60243590610917610d8b565b6001600160a01b0390811691907f0000000000000000000000000000000000000000000000000000000000000000168214610991575f547f68f67de89e96b13a3ea058af5fd44cc125efceb528482d539c7b43db2faa066e916020916109889082906001600160a01b031686610db1565b604051908152a2005b60405162461bcd60e51b815260206004820152601860248201527f43616e6e6f742072657363756520636f6c6c61746572616c00000000000000006044820152606490fd5b3461046f57602036600319011261046f5760043560648102908082046064148115171561088057612710610a0b920490610af5565b670de0b6b3a7640000810290808204670de0b6b3a7640000149015171561088057610a34610ce0565b8015610a465760209104604051908152f35b634e487b7160e01b5f52601260045260245ffd5b3461046f57602036600319011261046f5760206101a4600435610b15565b600435906001600160a01b038216820361046f57565b3461046f575f36600319011261046f57602060405160648152f35b604090600319011261046f576004359060243590565b90601f8019910116810190811067ffffffffffffffff821117610ae157604052565b634e487b7160e01b5f52604160045260245ffd5b9190820391821161088057565b8181029291811591840414171561088057565b6040516318160ddd60e01b8152906020826004817f00000000000000000000000000000000000000000000000000000000000000006001600160a01b03165afa91821561083a575f92610ba2575b50808210610b9c5761028f81610b7893610af5565b60648102908082046064148115171561088057612710610b99920490610af5565b90565b50505f90565b9091506020813d602011610bce575b81610bbe60209383610abf565b8101031261046f5751905f610b63565b3d9150610bb1565b9190820180921161088057565b6040516318160ddd60e01b81526020816004817f00000000000000000000000000000000000000000000000000000000000000006001600160a01b03165afa90811561083a575f91610c3f575b5015610c3b57600190565b5f90565b90506020813d602011610c69575b81610c5a60209383610abf565b8101031261046f57515f610c30565b3d9150610c4d565b610c7b8282610bd6565b90826298968002926298968084040361088057610ca5610c9e83610cab94610b02565b9180610b02565b90610af5565b908160640291606483040361088057670de0b6b3a76400006f01812f9cf7920e2b66973e2000000000610b9993049104610bd6565b6040516318160ddd60e01b81526020816004817f00000000000000000000000000000000000000000000000000000000000000006001600160a01b03165afa90811561083a575f91610d59575b508060640290606482040361088057670de0b6b3a7640000900462989680018062989680116108805790565b90506020813d602011610d83575b81610d7460209383610abf565b8101031261046f57515f610d2d565b3d9150610d67565b5f546001600160a01b03163303610d9e57565b63118cdaa760e01b5f523360045260245ffd5b916040519163a9059cbb60e01b5f5260018060a01b031660045260245260205f60448180865af19060015f5114821615610e11575b60405215610df15750565b635274afe760e01b5f9081526001600160a01b0391909116600452602490fd5b906001811516610e2957823b15153d15161690610de6565b503d5f823e3d90fd5b60025f516020610e6b5f395f51905f525414610e5b5760025f516020610e6b5f395f51905f5255565b633ee5aeb560e01b5f5260045ffdfe9b779b17422d0df92223018b32b4d1fa46e071723d6817e2486d003becc55f00a26469706673582212208166fc135fa87b751a84f0268c9ea07007f9d4dc27355a984f442efc8b738e8664736f6c63430008220033","linkReferences":{}},"methodIdentifiers":{"BASIS_POINTS()":"e1f1c4a7","FEE_PERCENT()":"eaf98d23","INITIAL_PRICE()":"7c5e2795","PRECISION()":"aaf5eb68","SLOPE()":"8b7cc629","buy(uint256,uint256,address)":"59a87bc1","calculateCost(uint256,uint256)":"ce394696","collateralToken()":"b2016bd4","feeRecipient()":"46904840","getCurrentPrice()":"eb91d37e","getGoldOut(uint256)":"2944310f","getHoldersCount()":"73889f4a","getSellProceeds(uint256)":"0c8a77ee","goldToken()":"94002b57","owner()":"8da5cb5b","renounceOwnership()":"715018a6","rescueToken(address,uint256)":"33f3d628","sell(uint256,uint256)":"d79875eb","setFeeRecipient(address)":"e74b981b","totalVolume()":"5f81a57c","transferOwnership(address)":"f2fde38b"},"id":0}