{"abi":[{"type":"constructor","inputs":[{"name":"_goldToken","type":"address","internalType":"address"},{"name":"_collateralToken","type":"address","internalType":"address"},{"name":"_feeRecipient","type":"address","internalType":"address"}],"stateMutability":"nonpayable"},{"type":"function","name":"BASIS_POINTS","inputs":[],"outputs":[{"name":"","type":"uint256","internalType":"uint256"}],"stateMutability":"view"},{"type":"function","name":"FEE_PERCENT","inputs":[],"outputs":[{"name":"","type":"uint256","internalType":"uint256"}],"stateMutability":"view"},{"type":"function","name":"INITIAL_PRICE","inputs":[],"outputs":[{"name":"","type":"uint256","internalType":"uint256"}],"stateMutability":"view"},{"type":"function","name":"PRECISION","inputs":[],"outputs":[{"name":"","type":"uint256","internalType":"uint256"}],"stateMutability":"view"},{"type":"function","name":"SLOPE","inputs":[],"outputs":[{"name":"","type":"uint256","internalType":"uint256"}],"stateMutability":"view"},{"type":"function","name":"buy","inputs":[{"name":"collateralLimit","type":"uint256","internalType":"uint256"},{"name":"goldAmount","type":"uint256","internalType":"uint256"}],"outputs":[],"stateMutability":"nonpayable"},{"type":"function","name":"calculateCost","inputs":[{"name":"supply","type":"uint256","internalType":"uint256"},{"name":"amount","type":"uint256","internalType":"uint256"}],"outputs":[{"name":"","type":"uint256","internalType":"uint256"}],"stateMutability":"pure"},{"type":"function","name":"collateralToken","inputs":[],"outputs":[{"name":"","type":"address","internalType":"contract IERC20"}],"stateMutability":"view"},{"type":"function","name":"feeRecipient","inputs":[],"outputs":[{"name":"","type":"address","internalType":"address"}],"stateMutability":"view"},{"type":"function","name":"getCurrentPrice","inputs":[],"outputs":[{"name":"","type":"uint256","internalType":"uint256"}],"stateMutability":"view"},{"type":"function","name":"goldToken","inputs":[],"outputs":[{"name":"","type":"address","internalType":"contract GoldToken"}],"stateMutability":"view"},{"type":"function","name":"owner","inputs":[],"outputs":[{"name":"","type":"address","internalType":"address"}],"stateMutability":"view"},{"type":"function","name":"renounceOwnership","inputs":[],"outputs":[],"stateMutability":"nonpayable"},{"type":"function","name":"rescueToken","inputs":[{"name":"_token","type":"address","internalType":"address"},{"name":"_amount","type":"uint256","internalType":"uint256"}],"outputs":[],"stateMutability":"nonpayable"},{"type":"function","name":"sell","inputs":[{"name":"goldAmount","type":"uint256","internalType":"uint256"},{"name":"minCollateralOut","type":"uint256","internalType":"uint256"}],"outputs":[],"stateMutability":"nonpayable"},{"type":"function","name":"setFeeRecipient","inputs":[{"name":"_feeRecipient","type":"address","internalType":"address"}],"outputs":[],"stateMutability":"nonpayable"},{"type":"function","name":"transferOwnership","inputs":[{"name":"newOwner","type":"address","internalType":"address"}],"outputs":[],"stateMutability":"nonpayable"},{"type":"event","name":"Bought","inputs":[{"name":"user","type":"address","indexed":true,"internalType":"address"},{"name":"collateralAmount","type":"uint256","indexed":false,"internalType":"uint256"},{"name":"goldAmount","type":"uint256","indexed":false,"internalType":"uint256"},{"name":"fee","type":"uint256","indexed":false,"internalType":"uint256"}],"anonymous":false},{"type":"event","name":"OwnershipTransferred","inputs":[{"name":"previousOwner","type":"address","indexed":true,"internalType":"address"},{"name":"newOwner","type":"address","indexed":true,"internalType":"address"}],"anonymous":false},{"type":"event","name":"Sold","inputs":[{"name":"user","type":"address","indexed":true,"internalType":"address"},{"name":"goldAmount","type":"uint256","indexed":false,"internalType":"uint256"},{"name":"collateralAmount","type":"uint256","indexed":false,"internalType":"uint256"},{"name":"fee","type":"uint256","indexed":false,"internalType":"uint256"}],"anonymous":false},{"type":"event","name":"TokensRescued","inputs":[{"name":"token","type":"address","indexed":true,"internalType":"address"},{"name":"amount","type":"uint256","indexed":false,"internalType":"uint256"}],"anonymous":false},{"type":"error","name":"OwnableInvalidOwner","inputs":[{"name":"owner","type":"address","internalType":"address"}]},{"type":"error","name":"OwnableUnauthorizedAccount","inputs":[{"name":"account","type":"address","internalType":"address"}]},{"type":"error","name":"ReentrancyGuardReentrantCall","inputs":[]},{"type":"error","name":"SafeERC20FailedOperation","inputs":[{"name":"token","type":"address","internalType":"address"}]}],"bytecode":{"object":"0x60c0604052346100885761001a610014610169565b91610236565b61002261008d565b6119216104b3823960805181818161041901528181610d4601528181610dfe015281816110bc0152818161119d01526113a8015260a05181818161053b015281816108d401528181610e6e01528181610ea40152818161120d0152611239015261192190f35b610093565b60405190565b5f80fd5b601f801991011690565b634e487b7160e01b5f52604160045260245ffd5b906100bf90610097565b810190811060018060401b038211176100d757604052565b6100a1565b906100ef6100e861008d565b92836100b5565b565b5f80fd5b60018060a01b031690565b610109906100f5565b90565b61011581610100565b0361011c57565b5f80fd5b9050519061012d8261010c565b565b90916060828403126101645761016161014a845f8501610120565b936101588160208601610120565b93604001610120565b90565b6100f1565b610187611dd48038038061017c816100dc565b92833981019061012f565b909192565b90565b6101a361019e6101a8926100f5565b61018c565b6100f5565b90565b6101b49061018f565b90565b6101c0906101ab565b90565b6101cc9061018f565b90565b6101d8906101c3565b90565b5f1b90565b906101f160018060a01b03916101db565b9181191691161790565b6102049061018f565b90565b610210906101fb565b90565b90565b9061022b61022661023292610207565b610213565b82546101e0565b9055565b61026292916102506102589261024b336102e8565b6101b7565b6080526101cf565b60a0526001610216565b565b90565b90565b61027e61027961028392610264565b61018c565b610267565b90565b610290600161026a565b90565b9061029f5f19916101db565b9181191691161790565b6102bd6102b86102c292610267565b61018c565b610267565b90565b90565b906102dd6102d86102e4926102a9565b6102c5565b8254610293565b9055565b6102f190610362565b6103136102fc610286565b5f61030d610308610406565b61041a565b016102c8565b565b90565b61032c61032761033192610315565b61018c565b6100f5565b90565b61033d90610318565b90565b61034990610100565b9052565b9190610360905f60208501940190610340565b565b8061037d6103776103725f610334565b610100565b91610100565b1461038d5761038b90610453565b565b6103b06103995f610334565b5f918291631e4fbdf760e01b83526004830161034d565b0390fd5b5f90565b90565b90565b6103d26103cd6103d7926103b8565b6101db565b6103bb565b90565b6104037f9b779b17422d0df92223018b32b4d1fa46e071723d6817e2486d003becc55f006103be565b90565b61040e6103b4565b506104176103da565b90565b90565b5f1c90565b60018060a01b031690565b61043961043e9161041d565b610422565b90565b61044b905461042d565b90565b5f0190565b61045c5f610441565b610466825f610216565b9061049a6104947f8be0079c531659141344cd1fd0a4f28419497f9722a3daafe3b4186f6b6457e093610207565b91610207565b916104a361008d565b806104ad8161044e565b0390a356fe60806040526004361015610013575b6107fe565b61001d5f3561012c565b806333f3d628146101275780634690484014610122578063715018a61461011d5780637c5e2795146101185780638b7cc629146101135780638da5cb5b1461010e57806394002b5714610109578063aaf5eb6814610104578063b2016bd4146100ff578063ce394696146100fa578063d6febde8146100f5578063d79875eb146100f0578063e1f1c4a7146100eb578063e74b981b146100e6578063eaf98d23146100e1578063eb91d37e146100dc5763f2fde38b0361000e576107cb565b610796565b610761565b610716565b6106c3565b610657565b610623565b6105ed565b61058b565b610504565b610491565b6103e2565b6103ad565b610341565b6102b0565b61027b565b6101d2565b60e01c90565b60405190565b5f80fd5b5f80fd5b60018060a01b031690565b61015490610140565b90565b6101608161014b565b0361016757565b5f80fd5b9050359061017882610157565b565b90565b6101868161017a565b0361018d57565b5f80fd5b9050359061019e8261017d565b565b91906040838203126101c857806101bc6101c5925f860161016b565b93602001610191565b90565b61013c565b5f0190565b34610201576101eb6101e53660046101a0565b90610969565b6101f3610132565b806101fd816101cd565b0390f35b610138565b5f91031261021057565b61013c565b1c90565b60018060a01b031690565b6102349060086102399302610215565b610219565b90565b906102479154610224565b90565b61025660015f9061023c565b90565b6102629061014b565b9052565b9190610279905f60208501940190610259565b565b346102ab5761028b366004610206565b6102a761029661024a565b61029e610132565b91829182610266565b0390f35b610138565b346102de576102c0366004610206565b6102c86109c5565b6102d0610132565b806102da816101cd565b0390f35b610138565b90565b90565b6102fd6102f8610302926102e3565b6102e6565b61017a565b90565b610311629896806102e9565b90565b61031c610305565b90565b6103289061017a565b9052565b919061033f905f6020850194019061031f565b565b3461037157610351366004610206565b61036d61035c610314565b610364610132565b9182918261032c565b0390f35b610138565b90565b61038d61038861039292610376565b6102e6565b61017a565b90565b61039f6064610379565b90565b6103aa610395565b90565b346103dd576103bd366004610206565b6103d96103c86103a2565b6103d0610132565b9182918261032c565b0390f35b610138565b34610412576103f2366004610206565b61040e6103fd6109f9565b610405610132565b91829182610266565b0390f35b610138565b7f000000000000000000000000000000000000000000000000000000000000000090565b61044f61044a61045492610140565b6102e6565b610140565b90565b6104609061043b565b90565b61046c90610457565b90565b61047890610463565b9052565b919061048f905f6020850194019061046f565b565b346104c1576104a1366004610206565b6104bd6104ac610417565b6104b4610132565b9182918261047c565b0390f35b610138565b90565b6104dd6104d86104e2926104c6565b6102e6565b61017a565b90565b6104f6670de0b6b3a76400006104c9565b90565b6105016104e5565b90565b3461053457610514366004610206565b61053061051f6104f9565b610527610132565b9182918261032c565b0390f35b610138565b7f000000000000000000000000000000000000000000000000000000000000000090565b61056690610457565b90565b6105729061055d565b9052565b9190610589905f60208501940190610569565b565b346105bb5761059b366004610206565b6105b76105a6610539565b6105ae610132565b91829182610576565b0390f35b610138565b91906040838203126105e857806105dc6105e5925f8601610191565b93602001610191565b90565b61013c565b3461061e5761061a6106096106033660046105c0565b90610afa565b610611610132565b9182918261032c565b0390f35b610138565b346106525761063c6106363660046105c0565b90610f86565b610644610132565b8061064e816101cd565b0390f35b610138565b346106865761067061066a3660046105c0565b9061131b565b610678610132565b80610682816101cd565b0390f35b610138565b90565b6106a261069d6106a79261068b565b6102e6565b61017a565b90565b6106b561271061068e565b90565b6106c06106aa565b90565b346106f3576106d3366004610206565b6106ef6106de6106b8565b6106e6610132565b9182918261032c565b0390f35b610138565b906020828203126107115761070e915f0161016b565b90565b61013c565b346107445761072e6107293660046106f8565b61138a565b610736610132565b80610740816101cd565b0390f35b610138565b6107536064610379565b90565b61075e610749565b90565b3461079157610771366004610206565b61078d61077c610756565b610784610132565b9182918261032c565b0390f35b610138565b346107c6576107a6366004610206565b6107c26107b1611395565b6107b9610132565b9182918261032c565b0390f35b610138565b346107f9576107e36107de3660046106f8565b6114d3565b6107eb610132565b806107f5816101cd565b0390f35b610138565b5f80fd5b906108149161080f6114de565b6108c5565b565b60209181520190565b5f7f43616e6e6f742072657363756520636f6c6c61746572616c0000000000000000910152565b6108536018602092610816565b61085c8161081f565b0190565b6108759060208101905f818303910152610846565b90565b1561087f57565b610887610132565b62461bcd60e51b81528061089d60048201610860565b0390fd5b6108aa9061043b565b90565b6108b6906108a1565b90565b6108c290610457565b90565b61090a816109036108fd6108f87f000000000000000000000000000000000000000000000000000000000000000061055d565b61014b565b9161014b565b1415610878565b610925610916826108ad565b61091e6109f9565b8491611531565b6109646109527f68f67de89e96b13a3ea058af5fd44cc125efceb528482d539c7b43db2faa066e926108b9565b9261095b610132565b9182918261032c565b0390a2565b9061097391610802565b565b61097d6114de565b6109856109b2565b565b90565b61099e6109996109a392610987565b6102e6565b610140565b90565b6109af9061098a565b90565b6109c36109be5f6109a6565b611578565b565b6109cd610975565b565b5f90565b5f1c90565b6109e46109e9916109d3565b610219565b90565b6109f690546109d8565b90565b610a016109cf565b50610a0b5f6109ec565b90565b5f90565b634e487b7160e01b5f52601160045260245ffd5b610a35610a3b9193929361017a565b9261017a565b8201809211610a4657565b610a12565b610a5a610a609193929361017a565b9261017a565b91610a6c83820261017a565b928184041490151715610a7b57565b610a12565b634e487b7160e01b5f52601260045260245ffd5b610aa0610aa69161017a565b9161017a565b908115610ab1570490565b610a80565b610ac5610acb9193929361017a565b9261017a565b8203918211610ad657565b610a12565b90565b610af2610aed610af792610adb565b6102e6565b61017a565b90565b90610b97610b65610b58610b9d94610b10610a0e565b50610b52610b4b610b44610b36610b28858a90610a26565b98610b31610305565b610a4b565b610b3e6104e5565b90610a94565b9680610a4b565b9180610a4b565b90610ab6565b610b60610395565b610a4b565b610b91610b836002610b7e610b786104e5565b91610ade565b610a4b565b610b8b6104e5565b90610a4b565b90610a94565b90610a26565b90565b90610bb291610bad611639565b610d3c565b610bba611691565b565b5f80fd5b601f801991011690565b634e487b7160e01b5f52604160045260245ffd5b90610be890610bc0565b810190811067ffffffffffffffff821117610c0257604052565b610bca565b60e01b90565b90505190610c1a8261017d565b565b90602082820312610c3557610c32915f01610c0d565b90565b61013c565b610c42610132565b3d5f823e3d90fd5b5f7f50726963652065786365656473206c696d697400000000000000000000000000910152565b610c7e6013602092610816565b610c8781610c4a565b0190565b610ca09060208101905f818303910152610c71565b90565b15610caa57565b610cb2610132565b62461bcd60e51b815280610cc860048201610c8b565b0390fd5b5f910312610cd657565b61013c565b916020610cfc929493610cf560408201965f830190610259565b019061031f565b565b610d0790610457565b90565b604090610d33610d3a9496959396610d2960608401985f85019061031f565b602083019061031f565b019061031f565b565b610d806020610d6a7f0000000000000000000000000000000000000000000000000000000000000000610463565b6318160ddd90610d78610132565b938492610c07565b82528180610d90600482016101cd565b03915afa8015610f8157610dad915f91610f53575b508390610afa565b610df9610dde610dd6610dc884610dc2610749565b90610a4b565b610dd06106aa565b90610a94565b928390610a26565b92610df2610dec859261017a565b9161017a565b1115610ca3565b610e227f0000000000000000000000000000000000000000000000000000000000000000610463565b6340c10f19338592803b15610f4e57610e4e5f8094610e59610e42610132565b97889687958694610c07565b845260048401610cdb565b03925af18015610f4957610f1d575b50610e9f7f000000000000000000000000000000000000000000000000000000000000000033610e9730610cfe565b9085926116b5565b610ed47f0000000000000000000000000000000000000000000000000000000000000000610ecd60016109ec565b8391611531565b3391929092610f18610f067fedba86fd2b22962d534e70ad9b0ff8730de46f636146f2bab6a72cbb1ebbcc53946108b9565b94610f0f610132565b93849384610d0a565b0390a2565b610f3c905f3d8111610f42575b610f348183610bde565b810190610ccc565b5f610e68565b503d610f2a565b610c3a565b610bbc565b610f74915060203d8111610f7a575b610f6c8183610bde565b810190610c1c565b5f610da5565b503d610f62565b610c3a565b90610f9091610ba0565b565b90610fa491610f9f611639565b6110b2565b610fac611691565b565b5f7f496e76616c696420737570706c79000000000000000000000000000000000000910152565b610fe2600e602092610816565b610feb81610fae565b0190565b6110049060208101905f818303910152610fd5565b90565b1561100e57565b611016610132565b62461bcd60e51b81528061102c60048201610fef565b0390fd5b5f7f536c69707061676520746f6f2068696768000000000000000000000000000000910152565b6110646011602092610816565b61106d81611030565b0190565b6110869060208101905f818303910152611057565b90565b1561109057565b611098610132565b62461bcd60e51b8152806110ae60048201611071565b0390fd5b6110f660206110e07f0000000000000000000000000000000000000000000000000000000000000000610463565b6318160ddd906110ee610132565b938492610c07565b82528180611106600482016101cd565b03915afa9081156113165761114c91611145915f916112e8575b5061113e816111376111318761017a565b9161017a565b1015611007565b8390610ab6565b8290610afa565b61119861117d61117561116784611161610749565b90610a4b565b61116f6106aa565b90610a94565b928390610ab6565b9361119161118b869261017a565b9161017a565b1015611089565b6111c17f0000000000000000000000000000000000000000000000000000000000000000610463565b639dc29fac338492803b156112e3576111ed5f80946111f86111e1610132565b97889687958694610c07565b845260048401610cdb565b03925af180156112de576112b2575b506112347f0000000000000000000000000000000000000000000000000000000000000000338591611531565b6112697f000000000000000000000000000000000000000000000000000000000000000061126260016109ec565b8391611531565b33919290926112ad61129b7fe029f26dbcf8c42dd2f352c10214a7fc26773dc62482c6241334a0402ac09a80946108b9565b946112a4610132565b93849384610d0a565b0390a2565b6112d1905f3d81116112d7575b6112c98183610bde565b810190610ccc565b5f611207565b503d6112bf565b610c3a565b610bbc565b611309915060203d811161130f575b6113018183610bde565b810190610c1c565b5f611120565b503d6112f7565b610c3a565b9061132591610f92565b565b611338906113336114de565b61137d565b565b5f1b90565b9061135060018060a01b039161133a565b9181191691161790565b90565b9061137261136d611379926108b9565b61135a565b825461133f565b9055565b61138890600161135d565b565b61139390611327565b565b61139d610a0e565b506113e260206113cc7f0000000000000000000000000000000000000000000000000000000000000000610463565b6318160ddd906113da610132565b938492610c07565b825281806113f2600482016101cd565b03915afa801561146957611438915f9161143b575b50611432611424611416610305565b9261141f610395565b610a4b565b61142c6104e5565b90610a94565b90610a26565b90565b61145c915060203d8111611462575b6114548183610bde565b810190610c1c565b5f611407565b503d61144a565b610c3a565b61147f9061147a6114de565b611481565b565b8061149c6114966114915f6109a6565b61014b565b9161014b565b146114ac576114aa90611578565b565b6114cf6114b85f6109a6565b5f918291631e4fbdf760e01b835260048301610266565b0390fd5b6114dc9061146e565b565b6114e66109f9565b6114ff6114f96114f4611700565b61014b565b9161014b565b0361150657565b611528611511611700565b5f91829163118cdaa760e01b835260048301610266565b0390fd5b151590565b9161154a91611544918491600192611711565b1561152c565b6115515750565b61155d6115749161055d565b5f918291635274afe760e01b835260048301610266565b0390fd5b6115815f6109ec565b61158b825f61135d565b906115bf6115b97f8be0079c531659141344cd1fd0a4f28419497f9722a3daafe3b4186f6b6457e0936108b9565b916108b9565b916115c8610132565b806115d2816101cd565b0390a3565b6115e16002610ade565b90565b906115f05f199161133a565b9181191691161790565b61160e6116096116139261017a565b6102e6565b61017a565b90565b90565b9061162e611629611635926115fa565b611616565b82546115e4565b9055565b61164161177b565b61166361164c6115d7565b5f61165d6116586117f7565b61180b565b01611619565b565b90565b61167c61167761168192611665565b6102e6565b61017a565b90565b61168e6001611668565b90565b6116b361169c611684565b5f6116ad6116a86117f7565b61180b565b01611619565b565b92906116d2926116cc92859291909160019361180e565b1561152c565b6116d95750565b6116e56116fc9161055d565b5f918291635274afe760e01b835260048301610266565b0390fd5b6117086109cf565b503390565b5f90565b909193929361171e61170d565b5063a9059cbb60e01b92604051935f525f1960601c1660045260245260205f60448180855af19360015f5114851615611759575b5050604052565b8492941516611772575f903b113d151616915f80611752565b833d5f823e3d90fd5b6117836118ab565b61178957565b5f633ee5aeb560e01b8152806117a1600482016101cd565b0390fd5b5f90565b90565b90565b6117c36117be6117c8926117a9565b61133a565b6117ac565b90565b6117f47f9b779b17422d0df92223018b32b4d1fa46e071723d6817e2486d003becc55f006117af565b90565b6117ff6117a5565b506118086117cb565b90565b90565b9194939492909261181d61170d565b506323b872dd60e01b93604051945f525f1960601c166004525f1960601c1660245260445260205f60648180855af19360015f5114851615611865575b50506040525f606052565b849294151661187e575f903b113d151616915f8061185a565b833d5f823e3d90fd5b90565b61189661189b916109d3565b611887565b90565b6118a8905461188a565b90565b6118b361170d565b506118ce5f6118c86118c36117f7565b61180b565b0161189e565b6118e76118e16118dc6115d7565b61017a565b9161017a565b149056fea2646970667358221220201e56333c63ac8c8565c97bf4bc2bb44c35cb88bb1eb90a0806199183d8ca2664736f6c63430008220033","linkReferences":{}},"methodIdentifiers":{"BASIS_POINTS()":"e1f1c4a7","FEE_PERCENT()":"eaf98d23","INITIAL_PRICE()":"7c5e2795","PRECISION()":"aaf5eb68","SLOPE()":"8b7cc629","buy(uint256,uint256)":"d6febde8","calculateCost(uint256,uint256)":"ce394696","collateralToken()":"b2016bd4","feeRecipient()":"46904840","getCurrentPrice()":"eb91d37e","goldToken()":"94002b57","owner()":"8da5cb5b","renounceOwnership()":"715018a6","rescueToken(address,uint256)":"33f3d628","sell(uint256,uint256)":"d79875eb","setFeeRecipient(address)":"e74b981b","transferOwnership(address)":"f2fde38b"},"id":0}