{"abi":[{"type":"constructor","inputs":[{"name":"_goldToken","type":"address","internalType":"address"},{"name":"_collateralToken","type":"address","internalType":"address"},{"name":"_feeRecipient","type":"address","internalType":"address"}],"stateMutability":"nonpayable"},{"type":"function","name":"BASIS_POINTS","inputs":[],"outputs":[{"name":"","type":"uint256","internalType":"uint256"}],"stateMutability":"view"},{"type":"function","name":"FEE_PERCENT","inputs":[],"outputs":[{"name":"","type":"uint256","internalType":"uint256"}],"stateMutability":"view"},{"type":"function","name":"INITIAL_PRICE","inputs":[],"outputs":[{"name":"","type":"uint256","internalType":"uint256"}],"stateMutability":"view"},{"type":"function","name":"PRECISION","inputs":[],"outputs":[{"name":"","type":"uint256","internalType":"uint256"}],"stateMutability":"view"},{"type":"function","name":"PRICE_INCREMENT","inputs":[],"outputs":[{"name":"","type":"uint256","internalType":"uint256"}],"stateMutability":"view"},{"type":"function","name":"buy","inputs":[{"name":"collateralAmount","type":"uint256","internalType":"uint256"},{"name":"minGoldOut","type":"uint256","internalType":"uint256"},{"name":"referrer","type":"address","internalType":"address"}],"outputs":[],"stateMutability":"nonpayable"},{"type":"function","name":"collateralToken","inputs":[],"outputs":[{"name":"","type":"address","internalType":"contract IERC20"}],"stateMutability":"view"},{"type":"function","name":"feeRecipient","inputs":[],"outputs":[{"name":"","type":"address","internalType":"address"}],"stateMutability":"view"},{"type":"function","name":"getCurrentPrice","inputs":[],"outputs":[{"name":"","type":"uint256","internalType":"uint256"}],"stateMutability":"view"},{"type":"function","name":"getGoldOut","inputs":[{"name":"collateralAmount","type":"uint256","internalType":"uint256"}],"outputs":[{"name":"","type":"uint256","internalType":"uint256"}],"stateMutability":"view"},{"type":"function","name":"getSellProceeds","inputs":[{"name":"goldAmount","type":"uint256","internalType":"uint256"}],"outputs":[{"name":"","type":"uint256","internalType":"uint256"}],"stateMutability":"view"},{"type":"function","name":"goldToken","inputs":[],"outputs":[{"name":"","type":"address","internalType":"contract GoldToken"}],"stateMutability":"view"},{"type":"function","name":"owner","inputs":[],"outputs":[{"name":"","type":"address","internalType":"address"}],"stateMutability":"view"},{"type":"function","name":"renounceOwnership","inputs":[],"outputs":[],"stateMutability":"nonpayable"},{"type":"function","name":"sell","inputs":[{"name":"goldAmount","type":"uint256","internalType":"uint256"},{"name":"minCollateralOut","type":"uint256","internalType":"uint256"}],"outputs":[],"stateMutability":"nonpayable"},{"type":"function","name":"setFeeRecipient","inputs":[{"name":"_feeRecipient","type":"address","internalType":"address"}],"outputs":[],"stateMutability":"nonpayable"},{"type":"function","name":"systemBuyAndBurn","inputs":[{"name":"collateralAmount","type":"uint256","internalType":"uint256"}],"outputs":[],"stateMutability":"nonpayable"},{"type":"function","name":"transferOwnership","inputs":[{"name":"newOwner","type":"address","internalType":"address"}],"outputs":[],"stateMutability":"nonpayable"},{"type":"event","name":"Bought","inputs":[{"name":"user","type":"address","indexed":true,"internalType":"address"},{"name":"collateralAmount","type":"uint256","indexed":false,"internalType":"uint256"},{"name":"goldAmount","type":"uint256","indexed":false,"internalType":"uint256"},{"name":"fee","type":"uint256","indexed":false,"internalType":"uint256"},{"name":"referrer","type":"address","indexed":true,"internalType":"address"}],"anonymous":false},{"type":"event","name":"OwnershipTransferred","inputs":[{"name":"previousOwner","type":"address","indexed":true,"internalType":"address"},{"name":"newOwner","type":"address","indexed":true,"internalType":"address"}],"anonymous":false},{"type":"event","name":"Sold","inputs":[{"name":"user","type":"address","indexed":true,"internalType":"address"},{"name":"goldAmount","type":"uint256","indexed":false,"internalType":"uint256"},{"name":"collateralAmount","type":"uint256","indexed":false,"internalType":"uint256"},{"name":"fee","type":"uint256","indexed":false,"internalType":"uint256"}],"anonymous":false},{"type":"error","name":"OwnableInvalidOwner","inputs":[{"name":"owner","type":"address","internalType":"address"}]},{"type":"error","name":"OwnableUnauthorizedAccount","inputs":[{"name":"account","type":"address","internalType":"address"}]}],"bytecode":{"object":"0x60c0604052346100885761001a610014610169565b91610236565b61002261008d565b61176b61039982396080518181816104f101528181610cdf01528181611036015281816112470152611545015260a05181818161061301528181610bf901528181610c6a01528181610f5001528181610fc1015281816112b70152611322015261176b90f35b610093565b60405190565b5f80fd5b601f801991011690565b634e487b7160e01b5f52604160045260245ffd5b906100bf90610097565b810190811060018060401b038211176100d757604052565b6100a1565b906100ef6100e861008d565b92836100b5565b565b5f80fd5b60018060a01b031690565b610109906100f5565b90565b61011581610100565b0361011c57565b5f80fd5b9050519061012d8261010c565b565b90916060828403126101645761016161014a845f8501610120565b936101588160208601610120565b93604001610120565b90565b6100f1565b610187611b048038038061017c816100dc565b92833981019061012f565b909192565b90565b6101a361019e6101a8926100f5565b61018c565b6100f5565b90565b6101b49061018f565b90565b6101c0906101ab565b90565b6101cc9061018f565b90565b6101d8906101c3565b90565b5f1b90565b906101f160018060a01b03916101db565b9181191691161790565b6102049061018f565b90565b610210906101fb565b90565b90565b9061022b61022661023292610207565b610213565b82546101e0565b9055565b61026292916102506102589261024b336102b1565b6101b7565b6080526101cf565b60a0526001610216565b565b90565b61027b61027661028092610264565b61018c565b6100f5565b90565b61028c90610267565b90565b61029890610100565b9052565b91906102af905f6020850194019061028f565b565b806102cc6102c66102c15f610283565b610100565b91610100565b146102dc576102da90610339565b565b6102ff6102e85f610283565b5f918291631e4fbdf760e01b83526004830161029c565b0390fd5b5f1c90565b60018060a01b031690565b61031f61032491610303565b610308565b90565b6103319054610313565b90565b5f0190565b6103425f610327565b61034c825f610216565b9061038061037a7f8be0079c531659141344cd1fd0a4f28419497f9722a3daafe3b4186f6b6457e093610207565b91610207565b9161038961008d565b8061039381610334565b0390a356fe60806040526004361015610013575b61086c565b61001d5f3561013c565b80630c8a77ee146101375780632944310f14610132578063323bbcd51461012d578063469048401461012857806359a87bc1146101235780636d25d8021461011e578063715018a6146101195780637c5e2795146101145780638da5cb5b1461010f57806394002b571461010a578063aaf5eb6814610105578063b2016bd414610100578063d79875eb146100fb578063e1f1c4a7146100f6578063e74b981b146100f1578063eaf98d23146100ec578063eb91d37e146100e75763f2fde38b0361000e57610839565b610804565b6107cf565b610784565b610731565b6106c5565b610663565b6105dc565b610569565b6104ba565b610485565b610419565b6103e4565b610376565b6102e4565b610225565b6101eb565b6101b6565b60e01c90565b60405190565b5f80fd5b5f80fd5b90565b61015c81610150565b0361016357565b5f80fd5b9050359061017482610153565b565b9060208282031261018f5761018c915f01610167565b90565b61014c565b61019d90610150565b9052565b91906101b4905f60208501940190610194565b565b346101e6576101e26101d16101cc366004610176565b610918565b6101d9610142565b918291826101a1565b0390f35b610148565b3461021b57610217610206610201366004610176565b610973565b61020e610142565b918291826101a1565b0390f35b610148565b5f0190565b346102535761023d610238366004610176565b610b9f565b610245610142565b8061024f81610220565b0390f35b610148565b5f91031261026257565b61014c565b1c90565b60018060a01b031690565b61028690600861028b9302610267565b61026b565b90565b906102999154610276565b90565b6102a860015f9061028e565b90565b60018060a01b031690565b6102bf906102ab565b90565b6102cb906102b6565b9052565b91906102e2905f602085019401906102c2565b565b34610314576102f4366004610258565b6103106102ff61029c565b610307610142565b918291826102cf565b0390f35b610148565b610322816102b6565b0361032957565b5f80fd5b9050359061033a82610319565b565b90916060828403126103715761036e610357845f8501610167565b936103658160208601610167565b9360400161032d565b90565b61014c565b346103a55761038f61038936600461033c565b91610edb565b610397610142565b806103a181610220565b0390f35b610148565b90565b90565b6103c46103bf6103c9926103aa565b6103ad565b610150565b90565b6103d660646103b0565b90565b6103e16103cc565b90565b34610414576103f4366004610258565b6104106103ff6103d9565b610407610142565b918291826101a1565b0390f35b610148565b3461044757610429366004610258565b6104316111b1565b610439610142565b8061044381610220565b0390f35b610148565b90565b61046361045e6104689261044c565b6103ad565b610150565b90565b6104776298968061044f565b90565b61048261046b565b90565b346104b557610495366004610258565b6104b16104a061047a565b6104a8610142565b918291826101a1565b0390f35b610148565b346104ea576104ca366004610258565b6104e66104d56111bf565b6104dd610142565b918291826102cf565b0390f35b610148565b7f000000000000000000000000000000000000000000000000000000000000000090565b61052761052261052c926102ab565b6103ad565b6102ab565b90565b61053890610513565b90565b6105449061052f565b90565b6105509061053b565b9052565b9190610567905f60208501940190610547565b565b3461059957610579366004610258565b6105956105846104ef565b61058c610142565b91829182610554565b0390f35b610148565b90565b6105b56105b06105ba9261059e565b6103ad565b610150565b90565b6105ce670de0b6b3a76400006105a1565b90565b6105d96105bd565b90565b3461060c576105ec366004610258565b6106086105f76105d1565b6105ff610142565b918291826101a1565b0390f35b610148565b7f000000000000000000000000000000000000000000000000000000000000000090565b61063e9061052f565b90565b61064a90610635565b9052565b9190610661905f60208501940190610641565b565b3461069357610673366004610258565b61068f61067e610611565b610686610142565b9182918261064e565b0390f35b610148565b91906040838203126106c057806106b46106bd925f8601610167565b93602001610167565b90565b61014c565b346106f4576106de6106d8366004610698565b906111d4565b6106e6610142565b806106f081610220565b0390f35b610148565b90565b61071061070b610715926106f9565b6103ad565b610150565b90565b6107236127106106fc565b90565b61072e610718565b90565b3461076157610741366004610258565b61075d61074c610726565b610754610142565b918291826101a1565b0390f35b610148565b9060208282031261077f5761077c915f0161032d565b90565b61014c565b346107b25761079c610797366004610766565b6114d5565b6107a4610142565b806107ae81610220565b0390f35b610148565b6107c160646103b0565b90565b6107cc6107b7565b90565b346107ff576107df366004610258565b6107fb6107ea6107c4565b6107f2610142565b918291826101a1565b0390f35b610148565b3461083457610814366004610258565b61083061081f611532565b610827610142565b918291826101a1565b0390f35b610148565b346108675761085161084c366004610766565b611670565b610859610142565b8061086381610220565b0390f35b610148565b5f80fd5b5f90565b634e487b7160e01b5f52601160045260245ffd5b61089761089d91939293610150565b92610150565b916108a9838202610150565b9281840414901517156108b857565b610874565b634e487b7160e01b5f52601260045260245ffd5b6108dd6108e391610150565b91610150565b9081156108ee570490565b6108bd565b61090261090891939293610150565b92610150565b820391821161091357565b610874565b6109476109396109709261092a610870565b50610933611532565b90610888565b6109416105bd565b906108d1565b61096a61095c826109566107b7565b90610888565b610964610718565b906108d1565b906108f3565b90565b6109ac6109cb91610982610870565b506109a6610998826109926107b7565b90610888565b6109a0610718565b906108d1565b906108f3565b6109c66109b7611532565b916109c06105bd565b90610888565b6108d1565b90565b6109d79061052f565b90565b5f80fd5b601f801991011690565b634e487b7160e01b5f52604160045260245ffd5b90610a06906109de565b810190811067ffffffffffffffff821117610a2057604052565b6109e8565b60e01b90565b151590565b610a3981610a2b565b03610a4057565b5f80fd5b90505190610a5182610a30565b565b90602082820312610a6c57610a69915f01610a44565b90565b61014c565b604090610a9a610aa19496959396610a9060608401985f8501906102c2565b60208301906102c2565b0190610194565b565b610aab610142565b3d5f823e3d90fd5b5f1c90565b610ac4610ac991610ab3565b61026b565b90565b610ad69054610ab8565b90565b90565b610af0610aeb610af592610ad9565b6103ad565b6102ab565b90565b610b0190610adc565b90565b5f910312610b0e57565b61014c565b916020610b34929493610b2d60408201965f8301906102c2565b0190610194565b565b90565b610b4d610b48610b5292610b36565b6103ad565b6102ab565b90565b610b5e90610b39565b90565b610b6a9061052f565b90565b604090610b96610b9d9496959396610b8c60608401985f850190610194565b6020830190610194565b0190610194565b565b610bc2610bb482610bae6107b7565b90610888565b610bbc610718565b906108d1565b90610bce8183906108f3565b90610bf1610bda611532565b610bec84610be66105bd565b90610888565b6108d1565b916020610c1d7f0000000000000000000000000000000000000000000000000000000000000000610635565b6323b872dd90610c4a5f3393610c55610c35306109ce565b97610c3e610142565b98899788968795610a25565b855260048501610a71565b03925af18015610e4b57610e1f575b50610c8e7f0000000000000000000000000000000000000000000000000000000000000000610635565b60206323b872dd913390610cbf5f610ca66001610acc565b95610cca8a610cb3610142565b98899788968795610a25565b855260048501610a71565b03925af18015610e1a57610dee575b50610d037f000000000000000000000000000000000000000000000000000000000000000061053b565b6340c10f19610d1361dead610af8565b8492803b15610de957610d395f8094610d44610d2d610142565b97889687958694610a25565b845260048401610b13565b03925af18015610de457610db8575b50610d5f61dead610af8565b9091610d6a5f610b55565b92610db3610da1610d9b7fbcc395a539bacb40cf13c16c1ee6a92724b3eb339fbc6389aa785280a292577295610b61565b95610b61565b95610daa610142565b93849384610b6d565b0390a3565b610dd7905f3d8111610ddd575b610dcf81836109fc565b810190610b04565b5f610d53565b503d610dc5565b610aa3565b6109da565b610e0e9060203d8111610e13575b610e0681836109fc565b810190610a53565b610cd9565b503d610dfc565b610aa3565b610e3f9060203d8111610e44575b610e3781836109fc565b810190610a53565b610c64565b503d610e2d565b610aa3565b60209181520190565b5f7f536c69707061676520746f6f2068696768000000000000000000000000000000910152565b610e8d6011602092610e50565b610e9681610e59565b0190565b610eaf9060208101905f818303910152610e80565b90565b15610eb957565b610ec1610142565b62461bcd60e51b815280610ed760048201610e9a565b0390fd5b610efe610ef082610eea6107b7565b90610888565b610ef8610718565b906108d1565b610f098282906108f3565b610f49610f2e610f17611532565b610f2984610f236105bd565b90610888565b6108d1565b94610f42610f3c8792610150565b91610150565b1015610eb2565b6020610f747f0000000000000000000000000000000000000000000000000000000000000000610635565b6323b872dd90610fa15f3393610fac610f8c306109ce565b97610f95610142565b98899788968795610a25565b855260048501610a71565b03925af180156111875761115b575b50610fe57f0000000000000000000000000000000000000000000000000000000000000000610635565b60206323b872dd9133906110165f610ffd6001610acc565b956110218861100a610142565b98899788968795610a25565b855260048501610a71565b03925af180156111565761112a575b5061105a7f000000000000000000000000000000000000000000000000000000000000000061053b565b6340c10f19338592803b15611125576110865f809461109161107a610142565b97889687958694610a25565b845260048401610b13565b03925af18015611120576110f4575b503391929093926110ef6110dd6110d77fbcc395a539bacb40cf13c16c1ee6a92724b3eb339fbc6389aa785280a292577295610b61565b95610b61565b956110e6610142565b93849384610b6d565b0390a3565b611113905f3d8111611119575b61110b81836109fc565b810190610b04565b5f6110a0565b503d611101565b610aa3565b6109da565b61114a9060203d811161114f575b61114281836109fc565b810190610a53565b611030565b503d611138565b610aa3565b61117b9060203d8111611180575b61117381836109fc565b810190610a53565b610fbb565b503d611169565b610aa3565b61119461167b565b61119c61119e565b565b6111af6111aa5f610b55565b6116c9565b565b6111b961118c565b565b5f90565b6111c76111bb565b506111d15f610acc565b90565b6111f66111e86111e2611532565b83610888565b6111f06105bd565b906108d1565b61124261122761121f6112118461120b6107b7565b90610888565b611219610718565b906108d1565b9283906108f3565b9361123b6112358692610150565b91610150565b1015610eb2565b61126b7f000000000000000000000000000000000000000000000000000000000000000061053b565b639dc29fac338492803b1561146d576112975f80946112a261128b610142565b97889687958694610a25565b845260048401610b13565b03925af180156114685761143c575b506112db7f0000000000000000000000000000000000000000000000000000000000000000610635565b602063a9059cbb9133906113025f889561130d6112f6610142565b97889687958694610a25565b845260048401610b13565b03925af180156114375761140b575b506113467f0000000000000000000000000000000000000000000000000000000000000000610635565b602063a9059cbb916113586001610acc565b906113765f869561138161136a610142565b97889687958694610a25565b845260048401610b13565b03925af18015611406576113da575b5033919290926113d56113c37fe029f26dbcf8c42dd2f352c10214a7fc26773dc62482c6241334a0402ac09a8094610b61565b946113cc610142565b93849384610b6d565b0390a2565b6113fa9060203d81116113ff575b6113f281836109fc565b810190610a53565b611390565b503d6113e8565b610aa3565b61142b9060203d8111611430575b61142381836109fc565b810190610a53565b61131c565b503d611419565b610aa3565b61145b905f3d8111611461575b61145381836109fc565b810190610b04565b5f6112b1565b503d611449565b610aa3565b6109da565b6114839061147e61167b565b6114c8565b565b5f1b90565b9061149b60018060a01b0391611485565b9181191691161790565b90565b906114bd6114b86114c492610b61565b6114a5565b825461148a565b9055565b6114d39060016114a8565b565b6114de90611472565b565b905051906114ed82610153565b565b9060208282031261150857611505915f016114e0565b90565b61014c565b61151c61152291939293610150565b92610150565b820180921161152d57565b610874565b61153a610870565b5061157f60206115697f000000000000000000000000000000000000000000000000000000000000000061053b565b6318160ddd90611577610142565b938492610a25565b8252818061158f60048201610220565b03915afa8015611606576115d5915f916115d8575b506115cf6115c16115b361046b565b926115bc6103cc565b610888565b6115c96105bd565b906108d1565b9061150d565b90565b6115f9915060203d81116115ff575b6115f181836109fc565b8101906114ef565b5f6115a4565b503d6115e7565b610aa3565b61161c9061161761167b565b61161e565b565b8061163961163361162e5f610b55565b6102b6565b916102b6565b1461164957611647906116c9565b565b61166c6116555f610b55565b5f918291631e4fbdf760e01b8352600483016102cf565b0390fd5b6116799061160b565b565b6116836111bf565b61169c611696611691611728565b6102b6565b916102b6565b036116a357565b6116c56116ae611728565b5f91829163118cdaa760e01b8352600483016102cf565b0390fd5b6116d25f610acc565b6116dc825f6114a8565b9061171061170a7f8be0079c531659141344cd1fd0a4f28419497f9722a3daafe3b4186f6b6457e093610b61565b91610b61565b91611719610142565b8061172381610220565b0390a3565b6117306111bb565b50339056fea264697066735822122092a4dffe2e85559e19ae828354e1072baa00da1835a9612d7d9f739fcc983dfb64736f6c63430008220033","linkReferences":{}},"methodIdentifiers":{"BASIS_POINTS()":"e1f1c4a7","FEE_PERCENT()":"eaf98d23","INITIAL_PRICE()":"7c5e2795","PRECISION()":"aaf5eb68","PRICE_INCREMENT()":"6d25d802","buy(uint256,uint256,address)":"59a87bc1","collateralToken()":"b2016bd4","feeRecipient()":"46904840","getCurrentPrice()":"eb91d37e","getGoldOut(uint256)":"2944310f","getSellProceeds(uint256)":"0c8a77ee","goldToken()":"94002b57","owner()":"8da5cb5b","renounceOwnership()":"715018a6","sell(uint256,uint256)":"d79875eb","setFeeRecipient(address)":"e74b981b","systemBuyAndBurn(uint256)":"323bbcd5","transferOwnership(address)":"f2fde38b"},"id":0}