{"abi":[{"type":"constructor","inputs":[{"name":"_goldToken","type":"address","internalType":"address"},{"name":"_collateralToken","type":"address","internalType":"address"},{"name":"_feeRecipient","type":"address","internalType":"address"}],"stateMutability":"nonpayable"},{"type":"function","name":"BASIS_POINTS","inputs":[],"outputs":[{"name":"","type":"uint256","internalType":"uint256"}],"stateMutability":"view"},{"type":"function","name":"FEE_PERCENT","inputs":[],"outputs":[{"name":"","type":"uint256","internalType":"uint256"}],"stateMutability":"view"},{"type":"function","name":"INITIAL_PRICE","inputs":[],"outputs":[{"name":"","type":"uint256","internalType":"uint256"}],"stateMutability":"view"},{"type":"function","name":"PRECISION","inputs":[],"outputs":[{"name":"","type":"uint256","internalType":"uint256"}],"stateMutability":"view"},{"type":"function","name":"SLOPE","inputs":[],"outputs":[{"name":"","type":"uint256","internalType":"uint256"}],"stateMutability":"view"},{"type":"function","name":"buy","inputs":[{"name":"collateralLimit","type":"uint256","internalType":"uint256"},{"name":"goldAmount","type":"uint256","internalType":"uint256"},{"name":"referrer","type":"address","internalType":"address"}],"outputs":[],"stateMutability":"nonpayable"},{"type":"function","name":"calculateCost","inputs":[{"name":"supply","type":"uint256","internalType":"uint256"},{"name":"amount","type":"uint256","internalType":"uint256"}],"outputs":[{"name":"","type":"uint256","internalType":"uint256"}],"stateMutability":"pure"},{"type":"function","name":"collateralToken","inputs":[],"outputs":[{"name":"","type":"address","internalType":"contract IERC20"}],"stateMutability":"view"},{"type":"function","name":"feeRecipient","inputs":[],"outputs":[{"name":"","type":"address","internalType":"address"}],"stateMutability":"view"},{"type":"function","name":"getCurrentPrice","inputs":[],"outputs":[{"name":"","type":"uint256","internalType":"uint256"}],"stateMutability":"view"},{"type":"function","name":"getGoldOut","inputs":[{"name":"collateralAmount","type":"uint256","internalType":"uint256"}],"outputs":[{"name":"","type":"uint256","internalType":"uint256"}],"stateMutability":"view"},{"type":"function","name":"getHoldersCount","inputs":[],"outputs":[{"name":"","type":"uint256","internalType":"uint256"}],"stateMutability":"view"},{"type":"function","name":"getSellProceeds","inputs":[{"name":"goldAmount","type":"uint256","internalType":"uint256"}],"outputs":[{"name":"","type":"uint256","internalType":"uint256"}],"stateMutability":"view"},{"type":"function","name":"goldToken","inputs":[],"outputs":[{"name":"","type":"address","internalType":"contract GoldToken"}],"stateMutability":"view"},{"type":"function","name":"owner","inputs":[],"outputs":[{"name":"","type":"address","internalType":"address"}],"stateMutability":"view"},{"type":"function","name":"renounceOwnership","inputs":[],"outputs":[],"stateMutability":"nonpayable"},{"type":"function","name":"rescueToken","inputs":[{"name":"_token","type":"address","internalType":"address"},{"name":"_amount","type":"uint256","internalType":"uint256"}],"outputs":[],"stateMutability":"nonpayable"},{"type":"function","name":"sell","inputs":[{"name":"goldAmount","type":"uint256","internalType":"uint256"},{"name":"minCollateralOut","type":"uint256","internalType":"uint256"}],"outputs":[],"stateMutability":"nonpayable"},{"type":"function","name":"setFeeRecipient","inputs":[{"name":"_feeRecipient","type":"address","internalType":"address"}],"outputs":[],"stateMutability":"nonpayable"},{"type":"function","name":"totalVolume","inputs":[],"outputs":[{"name":"","type":"uint256","internalType":"uint256"}],"stateMutability":"view"},{"type":"function","name":"transferOwnership","inputs":[{"name":"newOwner","type":"address","internalType":"address"}],"outputs":[],"stateMutability":"nonpayable"},{"type":"event","name":"Bought","inputs":[{"name":"user","type":"address","indexed":true,"internalType":"address"},{"name":"collateralAmount","type":"uint256","indexed":false,"internalType":"uint256"},{"name":"goldAmount","type":"uint256","indexed":false,"internalType":"uint256"},{"name":"fee","type":"uint256","indexed":false,"internalType":"uint256"},{"name":"referrer","type":"address","indexed":true,"internalType":"address"}],"anonymous":false},{"type":"event","name":"OwnershipTransferred","inputs":[{"name":"previousOwner","type":"address","indexed":true,"internalType":"address"},{"name":"newOwner","type":"address","indexed":true,"internalType":"address"}],"anonymous":false},{"type":"event","name":"Sold","inputs":[{"name":"user","type":"address","indexed":true,"internalType":"address"},{"name":"goldAmount","type":"uint256","indexed":false,"internalType":"uint256"},{"name":"collateralAmount","type":"uint256","indexed":false,"internalType":"uint256"},{"name":"fee","type":"uint256","indexed":false,"internalType":"uint256"}],"anonymous":false},{"type":"event","name":"TokensRescued","inputs":[{"name":"token","type":"address","indexed":true,"internalType":"address"},{"name":"amount","type":"uint256","indexed":false,"internalType":"uint256"}],"anonymous":false},{"type":"error","name":"OwnableInvalidOwner","inputs":[{"name":"owner","type":"address","internalType":"address"}]},{"type":"error","name":"OwnableUnauthorizedAccount","inputs":[{"name":"account","type":"address","internalType":"address"}]},{"type":"error","name":"ReentrancyGuardReentrantCall","inputs":[]},{"type":"error","name":"SafeERC20FailedOperation","inputs":[{"name":"token","type":"address","internalType":"address"}]}],"bytecode":{"object":"0x60c0604052346100965761001a610014610177565b91610244565b61002261009b565b611d666104c182396080518181816105f101528181610b0e01528181610fb40152818161106d015281816112b50152818161157d0152818161165f0152611885015260a05181818161071301528181610d34015281816110e70152818161111d015281816116d901526117050152611d6690f35b6100a1565b60405190565b5f80fd5b601f801991011690565b634e487b7160e01b5f52604160045260245ffd5b906100cd906100a5565b810190811060018060401b038211176100e557604052565b6100af565b906100fd6100f661009b565b92836100c3565b565b5f80fd5b60018060a01b031690565b61011790610103565b90565b6101238161010e565b0361012a57565b5f80fd5b9050519061013b8261011a565b565b90916060828403126101725761016f610158845f850161012e565b93610166816020860161012e565b9360400161012e565b90565b6100ff565b6101956122278038038061018a816100ea565b92833981019061013d565b909192565b90565b6101b16101ac6101b692610103565b61019a565b610103565b90565b6101c29061019d565b90565b6101ce906101b9565b90565b6101da9061019d565b90565b6101e6906101d1565b90565b5f1b90565b906101ff60018060a01b03916101e9565b9181191691161790565b6102129061019d565b90565b61021e90610209565b90565b90565b9061023961023461024092610215565b610221565b82546101ee565b9055565b610270929161025e61026692610259336102f6565b6101c5565b6080526101dd565b60a0526001610224565b565b90565b90565b61028c61028761029192610272565b61019a565b610275565b90565b61029e6001610278565b90565b906102ad5f19916101e9565b9181191691161790565b6102cb6102c66102d092610275565b61019a565b610275565b90565b90565b906102eb6102e66102f2926102b7565b6102d3565b82546102a1565b9055565b6102ff90610370565b61032161030a610294565b5f61031b610316610414565b610428565b016102d6565b565b90565b61033a61033561033f92610323565b61019a565b610103565b90565b61034b90610326565b90565b6103579061010e565b9052565b919061036e905f6020850194019061034e565b565b8061038b6103856103805f610342565b61010e565b9161010e565b1461039b5761039990610461565b565b6103be6103a75f610342565b5f918291631e4fbdf760e01b83526004830161035b565b0390fd5b5f90565b90565b90565b6103e06103db6103e5926103c6565b6101e9565b6103c9565b90565b6104117f9b779b17422d0df92223018b32b4d1fa46e071723d6817e2486d003becc55f006103cc565b90565b61041c6103c2565b506104256103e8565b90565b90565b5f1c90565b60018060a01b031690565b61044761044c9161042b565b610430565b90565b610459905461043b565b90565b5f0190565b61046a5f61044f565b610474825f610224565b906104a86104a27f8be0079c531659141344cd1fd0a4f28419497f9722a3daafe3b4186f6b6457e093610215565b91610215565b916104b161009b565b806104bb8161045c565b0390a356fe60806040526004361015610013575b6109a2565b61001d5f3561016c565b80630c8a77ee146101675780632944310f1461016257806333f3d6281461015d578063469048401461015857806359a87bc1146101535780635f81a57c1461014e578063715018a61461014957806373889f4a146101445780637c5e27951461013f5780638b7cc6291461013a5780638da5cb5b1461013557806394002b5714610130578063aaf5eb681461012b578063b2016bd414610126578063ce39469614610121578063d79875eb1461011c578063e1f1c4a714610117578063e74b981b14610112578063eaf98d231461010d578063eb91d37e146101085763f2fde38b0361000e5761096f565b61093a565b610905565b6108ba565b610867565b6107fb565b6107c5565b610763565b6106dc565b610669565b6105ba565b610585565b610519565b6104a8565b610475565b610440565b6103d4565b610365565b6102bc565b61021b565b6101e6565b60e01c90565b60405190565b5f80fd5b5f80fd5b90565b61018c81610180565b0361019357565b5f80fd5b905035906101a482610183565b565b906020828203126101bf576101bc915f01610197565b90565b61017c565b6101cd90610180565b9052565b91906101e4905f602085019401906101c4565b565b34610216576102126102016101fc3660046101a6565b610afb565b610209610172565b918291826101d1565b0390f35b610178565b3461024b576102476102366102313660046101a6565b610c07565b61023e610172565b918291826101d1565b0390f35b610178565b60018060a01b031690565b61026490610250565b90565b6102708161025b565b0361027757565b5f80fd5b9050359061028882610267565b565b91906040838203126102b257806102a66102af925f860161027b565b93602001610197565b90565b61017c565b5f0190565b346102eb576102d56102cf36600461028a565b90610dc9565b6102dd610172565b806102e7816102b7565b0390f35b610178565b5f9103126102fa57565b61017c565b1c90565b60018060a01b031690565b61031e90600861032393026102ff565b610303565b90565b90610331915461030e565b90565b61034060015f90610326565b90565b61034c9061025b565b9052565b9190610363905f60208501940190610343565b565b34610395576103753660046102f0565b610391610380610334565b610388610172565b91829182610350565b0390f35b610178565b90916060828403126103cf576103cc6103b5845f8501610197565b936103c38160208601610197565b9360400161027b565b90565b61017c565b34610403576103ed6103e736600461039a565b9161121f565b6103f5610172565b806103ff816102b7565b0390f35b610178565b90565b61041b90600861042093026102ff565b610408565b90565b9061042e915461040b565b90565b61043d60025f90610423565b90565b34610470576104503660046102f0565b61046c61045b610431565b610463610172565b918291826101d1565b0390f35b610178565b346104a3576104853660046102f0565b61048d611279565b610495610172565b8061049f816102b7565b0390f35b610178565b346104d8576104b83660046102f0565b6104d46104c36112a2565b6104cb610172565b918291826101d1565b0390f35b610178565b90565b90565b6104f76104f26104fc926104dd565b6104e0565b610180565b90565b61050b629896806104e3565b90565b6105166104ff565b90565b34610549576105293660046102f0565b61054561053461050e565b61053c610172565b918291826101d1565b0390f35b610178565b90565b61056561056061056a9261054e565b6104e0565b610180565b90565b6105776064610551565b90565b61058261056d565b90565b346105b5576105953660046102f0565b6105b16105a061057a565b6105a8610172565b918291826101d1565b0390f35b610178565b346105ea576105ca3660046102f0565b6105e66105d5611379565b6105dd610172565b91829182610350565b0390f35b610178565b7f000000000000000000000000000000000000000000000000000000000000000090565b61062761062261062c92610250565b6104e0565b610250565b90565b61063890610613565b90565b6106449061062f565b90565b6106509061063b565b9052565b9190610667905f60208501940190610647565b565b34610699576106793660046102f0565b6106956106846105ef565b61068c610172565b91829182610654565b0390f35b610178565b90565b6106b56106b06106ba9261069e565b6104e0565b610180565b90565b6106ce670de0b6b3a76400006106a1565b90565b6106d96106bd565b90565b3461070c576106ec3660046102f0565b6107086106f76106d1565b6106ff610172565b918291826101d1565b0390f35b610178565b7f000000000000000000000000000000000000000000000000000000000000000090565b61073e9061062f565b90565b61074a90610735565b9052565b9190610761905f60208501940190610741565b565b34610793576107733660046102f0565b61078f61077e610711565b610786610172565b9182918261074e565b0390f35b610178565b91906040838203126107c057806107b46107bd925f8601610197565b93602001610197565b90565b61017c565b346107f6576107f26107e16107db366004610798565b906113ad565b6107e9610172565b918291826101d1565b0390f35b610178565b3461082a5761081461080e366004610798565b906117fd565b61081c610172565b80610826816102b7565b0390f35b610178565b90565b61084661084161084b9261082f565b6104e0565b610180565b90565b610859612710610832565b90565b61086461084e565b90565b34610897576108773660046102f0565b61089361088261085c565b61088a610172565b918291826101d1565b0390f35b610178565b906020828203126108b5576108b2915f0161027b565b90565b61017c565b346108e8576108d26108cd36600461089c565b611867565b6108da610172565b806108e4816102b7565b0390f35b610178565b6108f76064610551565b90565b6109026108ed565b90565b34610935576109153660046102f0565b6109316109206108fa565b610928610172565b918291826101d1565b0390f35b610178565b3461096a5761094a3660046102f0565b610966610955611872565b61095d610172565b918291826101d1565b0390f35b610178565b3461099d5761098761098236600461089c565b6119b0565b61098f610172565b80610999816102b7565b0390f35b610178565b5f80fd5b5f90565b5f80fd5b601f801991011690565b634e487b7160e01b5f52604160045260245ffd5b906109d6906109ae565b810190811067ffffffffffffffff8211176109f057604052565b6109b8565b60e01b90565b90505190610a0882610183565b565b90602082820312610a2357610a20915f016109fb565b90565b61017c565b610a30610172565b3d5f823e3d90fd5b90565b610a4f610a4a610a5492610a38565b6104e0565b610180565b90565b634e487b7160e01b5f52601160045260245ffd5b610a7a610a8091939293610180565b92610180565b8203918211610a8b57565b610a57565b610a9f610aa591939293610180565b92610180565b91610ab1838202610180565b928184041490151715610ac057565b610a57565b634e487b7160e01b5f52601260045260245ffd5b610ae5610aeb91610180565b91610180565b908115610af6570490565b610ac5565b610b036109a6565b50610b486020610b327f000000000000000000000000000000000000000000000000000000000000000061063b565b6318160ddd90610b40610172565b9384926109f5565b82528180610b58600482016102b7565b03915afa908115610c02575f91610bd4575b5080610b7e610b7884610180565b91610180565b10610bc657610bc391610b95610b9a928290610a6b565b6113ad565b610bbd610baf82610ba96108ed565b90610a90565b610bb761084e565b90610ad9565b90610a6b565b90565b5050610bd15f610a3b565b90565b610bf5915060203d8111610bfb575b610bed81836109cc565b810190610a0a565b5f610b6a565b503d610be3565b610a28565b610c51610c43610c5f92610c196109a6565b50610c3d610c2f82610c296108ed565b90610a90565b610c3761084e565b90610ad9565b90610a6b565b610c4b6106bd565b90610a90565b610c59611872565b90610ad9565b90565b90610c7491610c6f6119bb565b610d25565b565b60209181520190565b5f7f43616e6e6f742072657363756520636f6c6c61746572616c0000000000000000910152565b610cb36018602092610c76565b610cbc81610c7f565b0190565b610cd59060208101905f818303910152610ca6565b90565b15610cdf57565b610ce7610172565b62461bcd60e51b815280610cfd60048201610cc0565b0390fd5b610d0a90610613565b90565b610d1690610d01565b90565b610d229061062f565b90565b610d6a81610d63610d5d610d587f0000000000000000000000000000000000000000000000000000000000000000610735565b61025b565b9161025b565b1415610cd8565b610d85610d7682610d0d565b610d7e611379565b8491611a0e565b610dc4610db27f68f67de89e96b13a3ea058af5fd44cc125efceb528482d539c7b43db2faa066e92610d19565b92610dbb610172565b918291826101d1565b0390a2565b90610dd391610c62565b565b90610de89291610de3611a62565b610faa565b610df0611a9b565b565b610e01610e0791939293610180565b92610180565b8201809211610e1257565b610a57565b5f7f50726963652065786365656473206c696d697400000000000000000000000000910152565b610e4b6013602092610c76565b610e5481610e17565b0190565b610e6d9060208101905f818303910152610e3e565b90565b15610e7757565b610e7f610172565b62461bcd60e51b815280610e9560048201610e58565b0390fd5b5f910312610ea357565b61017c565b916020610ec9929493610ec260408201965f830190610343565b01906101c4565b565b610ed49061062f565b90565b5f1c90565b610ee8610eed91610ed7565b610303565b90565b610efa9054610edc565b90565b610f09610f0e91610ed7565b610408565b90565b610f1b9054610efd565b90565b5f1b90565b90610f2f5f1991610f1e565b9181191691161790565b610f4d610f48610f5292610180565b6104e0565b610180565b90565b90565b90610f6d610f68610f7492610f39565b610f55565b8254610f23565b9055565b604090610fa1610fa89496959396610f9760608401985f8501906101c4565b60208301906101c4565b01906101c4565b565b610fee6020610fd87f000000000000000000000000000000000000000000000000000000000000000061063b565b6318160ddd90610fe6610172565b9384926109f5565b82528180610ffe600482016102b7565b03915afa801561121a5761101b915f916111ec575b5083906113ad565b61103e6110308261102a6108ed565b90610a90565b61103861084e565b90610ad9565b9061106861104d828490610df2565b9361106161105b8692610180565b91610180565b1115610e70565b6110917f000000000000000000000000000000000000000000000000000000000000000061063b565b906340c10f19338693803b156111e7576110be5f80946110c96110b2610172565b988996879586946109f5565b845260048401610ea8565b03925af19081156111e2576111639261115c926111b6575b506111187f00000000000000000000000000000000000000000000000000000000000000003361111030610ecb565b908892611abf565b61114d7f00000000000000000000000000000000000000000000000000000000000000006111466001610ef0565b8691611a0e565b6111576002610f11565b610df2565b6002610f58565b3391929093926111b161119f6111997fbcc395a539bacb40cf13c16c1ee6a92724b3eb339fbc6389aa785280a292577295610d19565b95610d19565b956111a8610172565b93849384610f78565b0390a3565b6111d5905f3d81116111db575b6111cd81836109cc565b810190610e99565b5f6110e1565b503d6111c3565b610a28565b6109aa565b61120d915060203d8111611213575b61120581836109cc565b810190610a0a565b5f611013565b503d6111fb565b610a28565b9061122a9291610dd5565b565b6112346119bb565b61123c611266565b565b61125261124d61125792610a38565b6104e0565b610250565b90565b6112639061123e565b90565b6112776112725f61125a565b611b0a565b565b61128161122c565b565b90565b61129a61129561129f92611283565b6104e0565b610180565b90565b6112aa6109a6565b506112ef60206112d97f000000000000000000000000000000000000000000000000000000000000000061063b565b6318160ddd906112e7610172565b9384926109f5565b825281806112ff600482016102b7565b03915afa908115611370575f91611342575b5061132461131e5f610a3b565b91610180565b14611336576113336001611286565b90565b61133f5f610a3b565b90565b611363915060203d8111611369575b61135b81836109cc565b810190610a0a565b5f611311565b503d611351565b610a28565b5f90565b611381611375565b5061138b5f610ef0565b90565b90565b6113a56113a06113aa9261138e565b6104e0565b610180565b90565b9061144a61141861140b611450946113c36109a6565b506114056113fe6113f76113e96113db858a90610df2565b986113e46104ff565b610a90565b6113f16106bd565b90610ad9565b9680610a90565b9180610a90565b90610a6b565b61141361056d565b610a90565b611444611436600261143161142b6106bd565b91611391565b610a90565b61143e6106bd565b90610a90565b90610ad9565b90610df2565b90565b9061146591611460611a62565b611573565b61146d611a9b565b565b5f7f496e76616c696420737570706c79000000000000000000000000000000000000910152565b6114a3600e602092610c76565b6114ac8161146f565b0190565b6114c59060208101905f818303910152611496565b90565b156114cf57565b6114d7610172565b62461bcd60e51b8152806114ed600482016114b0565b0390fd5b5f7f536c69707061676520746f6f2068696768000000000000000000000000000000910152565b6115256011602092610c76565b61152e816114f1565b0190565b6115479060208101905f818303910152611518565b90565b1561155157565b611559610172565b62461bcd60e51b81528061156f60048201611532565b0390fd5b6115b760206115a17f000000000000000000000000000000000000000000000000000000000000000061063b565b6318160ddd906115af610172565b9384926109f5565b825281806115c7600482016102b7565b03915afa9081156117f85761160d91611606915f916117ca575b506115ff816115f86115f287610180565b91610180565b10156114c8565b8390610a6b565b82906113ad565b6116306116228261161c6108ed565b90610a90565b61162a61084e565b90610ad9565b9061165a61163f828490610a6b565b9461165361164d8792610180565b91610180565b101561154a565b6116837f000000000000000000000000000000000000000000000000000000000000000061063b565b90639dc29fac338593803b156117c5576116b05f80946116bb6116a4610172565b988996879586946109f5565b845260048401610ea8565b03925af19081156117c05761174b9261174492611794575b506117007f0000000000000000000000000000000000000000000000000000000000000000338891611a0e565b6117357f000000000000000000000000000000000000000000000000000000000000000061172e6001610ef0565b8691611a0e565b61173f6002610f11565b610df2565b6002610f58565b339192909261178f61177d7fe029f26dbcf8c42dd2f352c10214a7fc26773dc62482c6241334a0402ac09a8094610d19565b94611786610172565b93849384610f78565b0390a2565b6117b3905f3d81116117b9575b6117ab81836109cc565b810190610e99565b5f6116d3565b503d6117a1565b610a28565b6109aa565b6117eb915060203d81116117f1575b6117e381836109cc565b810190610a0a565b5f6115e1565b503d6117d9565b610a28565b9061180791611453565b565b61181a906118156119bb565b61185a565b565b9061182d60018060a01b0391610f1e565b9181191691161790565b90565b9061184f61184a61185692610d19565b611837565b825461181c565b9055565b61186590600161183a565b565b61187090611809565b565b61187a6109a6565b506118bf60206118a97f000000000000000000000000000000000000000000000000000000000000000061063b565b6318160ddd906118b7610172565b9384926109f5565b825281806118cf600482016102b7565b03915afa801561194657611915915f91611918575b5061190f6119016118f36104ff565b926118fc61056d565b610a90565b6119096106bd565b90610ad9565b90610df2565b90565b611939915060203d811161193f575b61193181836109cc565b810190610a0a565b5f6118e4565b503d611927565b610a28565b61195c906119576119bb565b61195e565b565b8061197961197361196e5f61125a565b61025b565b9161025b565b146119895761198790611b0a565b565b6119ac6119955f61125a565b5f918291631e4fbdf760e01b835260048301610350565b0390fd5b6119b99061194b565b565b6119c3611379565b6119dc6119d66119d1611b69565b61025b565b9161025b565b036119e357565b611a056119ee611b69565b5f91829163118cdaa760e01b835260048301610350565b0390fd5b151590565b91611a2791611a21918491600192611b7a565b15611a09565b611a2e5750565b611a3a611a5191610735565b5f918291635274afe760e01b835260048301610350565b0390fd5b611a5f6002611391565b90565b611a6a611be4565b611a8c611a75611a55565b5f611a86611a81611c60565b611c74565b01610f58565b565b611a986001611286565b90565b611abd611aa6611a8e565b5f611ab7611ab2611c60565b611c74565b01610f58565b565b9290611adc92611ad6928592919091600193611c77565b15611a09565b611ae35750565b611aef611b0691610735565b5f918291635274afe760e01b835260048301610350565b0390fd5b611b135f610ef0565b611b1d825f61183a565b90611b51611b4b7f8be0079c531659141344cd1fd0a4f28419497f9722a3daafe3b4186f6b6457e093610d19565b91610d19565b91611b5a610172565b80611b64816102b7565b0390a3565b611b71611375565b503390565b5f90565b9091939293611b87611b76565b5063a9059cbb60e01b92604051935f525f1960601c1660045260245260205f60448180855af19360015f5114851615611bc2575b5050604052565b8492941516611bdb575f903b113d151616915f80611bbb565b833d5f823e3d90fd5b611bec611cf0565b611bf257565b5f633ee5aeb560e01b815280611c0a600482016102b7565b0390fd5b5f90565b90565b90565b611c2c611c27611c3192611c12565b610f1e565b611c15565b90565b611c5d7f9b779b17422d0df92223018b32b4d1fa46e071723d6817e2486d003becc55f00611c18565b90565b611c68611c0e565b50611c71611c34565b90565b90565b91949394929092611c86611b76565b506323b872dd60e01b93604051945f525f1960601c166004525f1960601c1660245260445260205f60648180855af19360015f5114851615611cce575b50506040525f606052565b8492941516611ce7575f903b113d151616915f80611cc3565b833d5f823e3d90fd5b611cf8611b76565b50611d135f611d0d611d08611c60565b611c74565b01610f11565b611d2c611d26611d21611a55565b610180565b91610180565b149056fea2646970667358221220e735f072fe7eba4b87c199e78c77246024342fa97c0911a51ffae109cf73a7a564736f6c63430008220033","linkReferences":{}},"methodIdentifiers":{"BASIS_POINTS()":"e1f1c4a7","FEE_PERCENT()":"eaf98d23","INITIAL_PRICE()":"7c5e2795","PRECISION()":"aaf5eb68","SLOPE()":"8b7cc629","buy(uint256,uint256,address)":"59a87bc1","calculateCost(uint256,uint256)":"ce394696","collateralToken()":"b2016bd4","feeRecipient()":"46904840","getCurrentPrice()":"eb91d37e","getGoldOut(uint256)":"2944310f","getHoldersCount()":"73889f4a","getSellProceeds(uint256)":"0c8a77ee","goldToken()":"94002b57","owner()":"8da5cb5b","renounceOwnership()":"715018a6","rescueToken(address,uint256)":"33f3d628","sell(uint256,uint256)":"d79875eb","setFeeRecipient(address)":"e74b981b","totalVolume()":"5f81a57c","transferOwnership(address)":"f2fde38b"},"id":0}