{"abi":[{"type":"constructor","inputs":[{"name":"_goldToken","type":"address","internalType":"address"},{"name":"_collateralToken","type":"address","internalType":"address"},{"name":"_feeRecipient","type":"address","internalType":"address"}],"stateMutability":"nonpayable"},{"type":"function","name":"BASIS_POINTS","inputs":[],"outputs":[{"name":"","type":"uint256","internalType":"uint256"}],"stateMutability":"view"},{"type":"function","name":"FEE_PERCENT","inputs":[],"outputs":[{"name":"","type":"uint256","internalType":"uint256"}],"stateMutability":"view"},{"type":"function","name":"INITIAL_PRICE","inputs":[],"outputs":[{"name":"","type":"uint256","internalType":"uint256"}],"stateMutability":"view"},{"type":"function","name":"PRECISION","inputs":[],"outputs":[{"name":"","type":"uint256","internalType":"uint256"}],"stateMutability":"view"},{"type":"function","name":"SLOPE","inputs":[],"outputs":[{"name":"","type":"uint256","internalType":"uint256"}],"stateMutability":"view"},{"type":"function","name":"buy","inputs":[{"name":"collateralLimit","type":"uint256","internalType":"uint256"},{"name":"goldAmount","type":"uint256","internalType":"uint256"},{"name":"referrer","type":"address","internalType":"address"}],"outputs":[],"stateMutability":"nonpayable"},{"type":"function","name":"calculateCost","inputs":[{"name":"supply","type":"uint256","internalType":"uint256"},{"name":"amount","type":"uint256","internalType":"uint256"}],"outputs":[{"name":"","type":"uint256","internalType":"uint256"}],"stateMutability":"pure"},{"type":"function","name":"collateralToken","inputs":[],"outputs":[{"name":"","type":"address","internalType":"contract IERC20"}],"stateMutability":"view"},{"type":"function","name":"feeRecipient","inputs":[],"outputs":[{"name":"","type":"address","internalType":"address"}],"stateMutability":"view"},{"type":"function","name":"getCurrentPrice","inputs":[],"outputs":[{"name":"","type":"uint256","internalType":"uint256"}],"stateMutability":"view"},{"type":"function","name":"getGoldOut","inputs":[{"name":"collateralAmount","type":"uint256","internalType":"uint256"}],"outputs":[{"name":"","type":"uint256","internalType":"uint256"}],"stateMutability":"view"},{"type":"function","name":"getSellProceeds","inputs":[{"name":"goldAmount","type":"uint256","internalType":"uint256"}],"outputs":[{"name":"","type":"uint256","internalType":"uint256"}],"stateMutability":"view"},{"type":"function","name":"goldToken","inputs":[],"outputs":[{"name":"","type":"address","internalType":"contract GoldToken"}],"stateMutability":"view"},{"type":"function","name":"owner","inputs":[],"outputs":[{"name":"","type":"address","internalType":"address"}],"stateMutability":"view"},{"type":"function","name":"renounceOwnership","inputs":[],"outputs":[],"stateMutability":"nonpayable"},{"type":"function","name":"rescueToken","inputs":[{"name":"_token","type":"address","internalType":"address"},{"name":"_amount","type":"uint256","internalType":"uint256"}],"outputs":[],"stateMutability":"nonpayable"},{"type":"function","name":"sell","inputs":[{"name":"goldAmount","type":"uint256","internalType":"uint256"},{"name":"minCollateralOut","type":"uint256","internalType":"uint256"}],"outputs":[],"stateMutability":"nonpayable"},{"type":"function","name":"setFeeRecipient","inputs":[{"name":"_feeRecipient","type":"address","internalType":"address"}],"outputs":[],"stateMutability":"nonpayable"},{"type":"function","name":"totalVolume","inputs":[],"outputs":[{"name":"","type":"uint256","internalType":"uint256"}],"stateMutability":"view"},{"type":"function","name":"transferOwnership","inputs":[{"name":"newOwner","type":"address","internalType":"address"}],"outputs":[],"stateMutability":"nonpayable"},{"type":"event","name":"Bought","inputs":[{"name":"user","type":"address","indexed":true,"internalType":"address"},{"name":"collateralAmount","type":"uint256","indexed":false,"internalType":"uint256"},{"name":"goldAmount","type":"uint256","indexed":false,"internalType":"uint256"},{"name":"fee","type":"uint256","indexed":false,"internalType":"uint256"},{"name":"referrer","type":"address","indexed":true,"internalType":"address"}],"anonymous":false},{"type":"event","name":"OwnershipTransferred","inputs":[{"name":"previousOwner","type":"address","indexed":true,"internalType":"address"},{"name":"newOwner","type":"address","indexed":true,"internalType":"address"}],"anonymous":false},{"type":"event","name":"Sold","inputs":[{"name":"user","type":"address","indexed":true,"internalType":"address"},{"name":"goldAmount","type":"uint256","indexed":false,"internalType":"uint256"},{"name":"collateralAmount","type":"uint256","indexed":false,"internalType":"uint256"},{"name":"fee","type":"uint256","indexed":false,"internalType":"uint256"}],"anonymous":false},{"type":"event","name":"TokensRescued","inputs":[{"name":"token","type":"address","indexed":true,"internalType":"address"},{"name":"amount","type":"uint256","indexed":false,"internalType":"uint256"}],"anonymous":false},{"type":"error","name":"OwnableInvalidOwner","inputs":[{"name":"owner","type":"address","internalType":"address"}]},{"type":"error","name":"OwnableUnauthorizedAccount","inputs":[{"name":"account","type":"address","internalType":"address"}]},{"type":"error","name":"ReentrancyGuardReentrantCall","inputs":[]},{"type":"error","name":"SafeERC20FailedOperation","inputs":[{"name":"token","type":"address","internalType":"address"}]}],"bytecode":{"object":"0x60c06040523461008f5761001a610014610170565b9161023d565b610022610094565b611c4e6104ba82396080518181816105ac01528181610ac901528181610f6f015281816110280152818161144601528181611528015261174e015260a0518181816106ce01528181610cef015281816110a2015281816110d8015281816115a201526115ce0152611c4e90f35b61009a565b60405190565b5f80fd5b601f801991011690565b634e487b7160e01b5f52604160045260245ffd5b906100c69061009e565b810190811060018060401b038211176100de57604052565b6100a8565b906100f66100ef610094565b92836100bc565b565b5f80fd5b60018060a01b031690565b610110906100fc565b90565b61011c81610107565b0361012357565b5f80fd5b9050519061013482610113565b565b909160608284031261016b57610168610151845f8501610127565b9361015f8160208601610127565b93604001610127565b90565b6100f8565b61018e61210880380380610183816100e3565b928339810190610136565b909192565b90565b6101aa6101a56101af926100fc565b610193565b6100fc565b90565b6101bb90610196565b90565b6101c7906101b2565b90565b6101d390610196565b90565b6101df906101ca565b90565b5f1b90565b906101f860018060a01b03916101e2565b9181191691161790565b61020b90610196565b90565b61021790610202565b90565b90565b9061023261022d6102399261020e565b61021a565b82546101e7565b9055565b610269929161025761025f92610252336102ef565b6101be565b6080526101d6565b60a052600161021d565b565b90565b90565b61028561028061028a9261026b565b610193565b61026e565b90565b6102976001610271565b90565b906102a65f19916101e2565b9181191691161790565b6102c46102bf6102c99261026e565b610193565b61026e565b90565b90565b906102e46102df6102eb926102b0565b6102cc565b825461029a565b9055565b6102f890610369565b61031a61030361028d565b5f61031461030f61040d565b610421565b016102cf565b565b90565b61033361032e6103389261031c565b610193565b6100fc565b90565b6103449061031f565b90565b61035090610107565b9052565b9190610367905f60208501940190610347565b565b8061038461037e6103795f61033b565b610107565b91610107565b14610394576103929061045a565b565b6103b76103a05f61033b565b5f918291631e4fbdf760e01b835260048301610354565b0390fd5b5f90565b90565b90565b6103d96103d46103de926103bf565b6101e2565b6103c2565b90565b61040a7f9b779b17422d0df92223018b32b4d1fa46e071723d6817e2486d003becc55f006103c5565b90565b6104156103bb565b5061041e6103e1565b90565b90565b5f1c90565b60018060a01b031690565b61044061044591610424565b610429565b90565b6104529054610434565b90565b5f0190565b6104635f610448565b61046d825f61021d565b906104a161049b7f8be0079c531659141344cd1fd0a4f28419497f9722a3daafe3b4186f6b6457e09361020e565b9161020e565b916104aa610094565b806104b481610455565b0390a356fe60806040526004361015610013575b61095d565b61001d5f3561015c565b80630c8a77ee146101575780632944310f1461015257806333f3d6281461014d578063469048401461014857806359a87bc1146101435780635f81a57c1461013e578063715018a6146101395780637c5e2795146101345780638b7cc6291461012f5780638da5cb5b1461012a57806394002b5714610125578063aaf5eb6814610120578063b2016bd41461011b578063ce39469614610116578063d79875eb14610111578063e1f1c4a71461010c578063e74b981b14610107578063eaf98d2314610102578063eb91d37e146100fd5763f2fde38b0361000e5761092a565b6108f5565b6108c0565b610875565b610822565b6107b6565b610780565b61071e565b610697565b610624565b610575565b610540565b6104d4565b610465565b610430565b6103c4565b610355565b6102ac565b61020b565b6101d6565b60e01c90565b60405190565b5f80fd5b5f80fd5b90565b61017c81610170565b0361018357565b5f80fd5b9050359061019482610173565b565b906020828203126101af576101ac915f01610187565b90565b61016c565b6101bd90610170565b9052565b91906101d4905f602085019401906101b4565b565b34610206576102026101f16101ec366004610196565b610ab6565b6101f9610162565b918291826101c1565b0390f35b610168565b3461023b57610237610226610221366004610196565b610bc2565b61022e610162565b918291826101c1565b0390f35b610168565b60018060a01b031690565b61025490610240565b90565b6102608161024b565b0361026757565b5f80fd5b9050359061027882610257565b565b91906040838203126102a2578061029661029f925f860161026b565b93602001610187565b90565b61016c565b5f0190565b346102db576102c56102bf36600461027a565b90610d84565b6102cd610162565b806102d7816102a7565b0390f35b610168565b5f9103126102ea57565b61016c565b1c90565b60018060a01b031690565b61030e90600861031393026102ef565b6102f3565b90565b9061032191546102fe565b90565b61033060015f90610316565b90565b61033c9061024b565b9052565b9190610353905f60208501940190610333565b565b34610385576103653660046102e0565b610381610370610324565b610378610162565b91829182610340565b0390f35b610168565b90916060828403126103bf576103bc6103a5845f8501610187565b936103b38160208601610187565b9360400161026b565b90565b61016c565b346103f3576103dd6103d736600461038a565b916111da565b6103e5610162565b806103ef816102a7565b0390f35b610168565b90565b61040b90600861041093026102ef565b6103f8565b90565b9061041e91546103fb565b90565b61042d60025f90610413565b90565b34610460576104403660046102e0565b61045c61044b610421565b610453610162565b918291826101c1565b0390f35b610168565b34610493576104753660046102e0565b61047d611234565b610485610162565b8061048f816102a7565b0390f35b610168565b90565b90565b6104b26104ad6104b792610498565b61049b565b610170565b90565b6104c66298968061049e565b90565b6104d16104ba565b90565b34610504576104e43660046102e0565b6105006104ef6104c9565b6104f7610162565b918291826101c1565b0390f35b610168565b90565b61052061051b61052592610509565b61049b565b610170565b90565b610532606461050c565b90565b61053d610528565b90565b34610570576105503660046102e0565b61056c61055b610535565b610563610162565b918291826101c1565b0390f35b610168565b346105a5576105853660046102e0565b6105a1610590611242565b610598610162565b91829182610340565b0390f35b610168565b7f000000000000000000000000000000000000000000000000000000000000000090565b6105e26105dd6105e792610240565b61049b565b610240565b90565b6105f3906105ce565b90565b6105ff906105ea565b90565b61060b906105f6565b9052565b9190610622905f60208501940190610602565b565b34610654576106343660046102e0565b61065061063f6105aa565b610647610162565b9182918261060f565b0390f35b610168565b90565b61067061066b61067592610659565b61049b565b610170565b90565b610689670de0b6b3a764000061065c565b90565b610694610678565b90565b346106c7576106a73660046102e0565b6106c36106b261068c565b6106ba610162565b918291826101c1565b0390f35b610168565b7f000000000000000000000000000000000000000000000000000000000000000090565b6106f9906105ea565b90565b610705906106f0565b9052565b919061071c905f602085019401906106fc565b565b3461074e5761072e3660046102e0565b61074a6107396106cc565b610741610162565b91829182610709565b0390f35b610168565b919060408382031261077b578061076f610778925f8601610187565b93602001610187565b90565b61016c565b346107b1576107ad61079c610796366004610753565b90611276565b6107a4610162565b918291826101c1565b0390f35b610168565b346107e5576107cf6107c9366004610753565b906116c6565b6107d7610162565b806107e1816102a7565b0390f35b610168565b90565b6108016107fc610806926107ea565b61049b565b610170565b90565b6108146127106107ed565b90565b61081f610809565b90565b34610852576108323660046102e0565b61084e61083d610817565b610845610162565b918291826101c1565b0390f35b610168565b906020828203126108705761086d915f0161026b565b90565b61016c565b346108a35761088d610888366004610857565b611730565b610895610162565b8061089f816102a7565b0390f35b610168565b6108b2606461050c565b90565b6108bd6108a8565b90565b346108f0576108d03660046102e0565b6108ec6108db6108b5565b6108e3610162565b918291826101c1565b0390f35b610168565b34610925576109053660046102e0565b61092161091061173b565b610918610162565b918291826101c1565b0390f35b610168565b346109585761094261093d366004610857565b611879565b61094a610162565b80610954816102a7565b0390f35b610168565b5f80fd5b5f90565b5f80fd5b601f801991011690565b634e487b7160e01b5f52604160045260245ffd5b9061099190610969565b810190811067ffffffffffffffff8211176109ab57604052565b610973565b60e01b90565b905051906109c382610173565b565b906020828203126109de576109db915f016109b6565b90565b61016c565b6109eb610162565b3d5f823e3d90fd5b90565b610a0a610a05610a0f926109f3565b61049b565b610170565b90565b634e487b7160e01b5f52601160045260245ffd5b610a35610a3b91939293610170565b92610170565b8203918211610a4657565b610a12565b610a5a610a6091939293610170565b92610170565b91610a6c838202610170565b928184041490151715610a7b57565b610a12565b634e487b7160e01b5f52601260045260245ffd5b610aa0610aa691610170565b91610170565b908115610ab1570490565b610a80565b610abe610961565b50610b036020610aed7f00000000000000000000000000000000000000000000000000000000000000006105f6565b6318160ddd90610afb610162565b9384926109b0565b82528180610b13600482016102a7565b03915afa908115610bbd575f91610b8f575b5080610b39610b3384610170565b91610170565b10610b8157610b7e91610b50610b55928290610a26565b611276565b610b78610b6a82610b646108a8565b90610a4b565b610b72610809565b90610a94565b90610a26565b90565b5050610b8c5f6109f6565b90565b610bb0915060203d8111610bb6575b610ba88183610987565b8101906109c5565b5f610b25565b503d610b9e565b6109e3565b610c0c610bfe610c1a92610bd4610961565b50610bf8610bea82610be46108a8565b90610a4b565b610bf2610809565b90610a94565b90610a26565b610c06610678565b90610a4b565b610c1461173b565b90610a94565b90565b90610c2f91610c2a611884565b610ce0565b565b60209181520190565b5f7f43616e6e6f742072657363756520636f6c6c61746572616c0000000000000000910152565b610c6e6018602092610c31565b610c7781610c3a565b0190565b610c909060208101905f818303910152610c61565b90565b15610c9a57565b610ca2610162565b62461bcd60e51b815280610cb860048201610c7b565b0390fd5b610cc5906105ce565b90565b610cd190610cbc565b90565b610cdd906105ea565b90565b610d2581610d1e610d18610d137f00000000000000000000000000000000000000000000000000000000000000006106f0565b61024b565b9161024b565b1415610c93565b610d40610d3182610cc8565b610d39611242565b84916118d7565b610d7f610d6d7f68f67de89e96b13a3ea058af5fd44cc125efceb528482d539c7b43db2faa066e92610cd4565b92610d76610162565b918291826101c1565b0390a2565b90610d8e91610c1d565b565b90610da39291610d9e61192b565b610f65565b610dab611983565b565b610dbc610dc291939293610170565b92610170565b8201809211610dcd57565b610a12565b5f7f50726963652065786365656473206c696d697400000000000000000000000000910152565b610e066013602092610c31565b610e0f81610dd2565b0190565b610e289060208101905f818303910152610df9565b90565b15610e3257565b610e3a610162565b62461bcd60e51b815280610e5060048201610e13565b0390fd5b5f910312610e5e57565b61016c565b916020610e84929493610e7d60408201965f830190610333565b01906101b4565b565b610e8f906105ea565b90565b5f1c90565b610ea3610ea891610e92565b6102f3565b90565b610eb59054610e97565b90565b610ec4610ec991610e92565b6103f8565b90565b610ed69054610eb8565b90565b5f1b90565b90610eea5f1991610ed9565b9181191691161790565b610f08610f03610f0d92610170565b61049b565b610170565b90565b90565b90610f28610f23610f2f92610ef4565b610f10565b8254610ede565b9055565b604090610f5c610f639496959396610f5260608401985f8501906101b4565b60208301906101b4565b01906101b4565b565b610fa96020610f937f00000000000000000000000000000000000000000000000000000000000000006105f6565b6318160ddd90610fa1610162565b9384926109b0565b82528180610fb9600482016102a7565b03915afa80156111d557610fd6915f916111a7575b508390611276565b610ff9610feb82610fe56108a8565b90610a4b565b610ff3610809565b90610a94565b90611023611008828490610dad565b9361101c6110168692610170565b91610170565b1115610e2b565b61104c7f00000000000000000000000000000000000000000000000000000000000000006105f6565b906340c10f19338693803b156111a2576110795f809461108461106d610162565b988996879586946109b0565b845260048401610e63565b03925af190811561119d5761111e9261111792611171575b506110d37f0000000000000000000000000000000000000000000000000000000000000000336110cb30610e86565b9088926119a7565b6111087f00000000000000000000000000000000000000000000000000000000000000006111016001610eab565b86916118d7565b6111126002610ecc565b610dad565b6002610f13565b33919290939261116c61115a6111547fbcc395a539bacb40cf13c16c1ee6a92724b3eb339fbc6389aa785280a292577295610cd4565b95610cd4565b95611163610162565b93849384610f33565b0390a3565b611190905f3d8111611196575b6111888183610987565b810190610e54565b5f61109c565b503d61117e565b6109e3565b610965565b6111c8915060203d81116111ce575b6111c08183610987565b8101906109c5565b5f610fce565b503d6111b6565b6109e3565b906111e59291610d90565b565b6111ef611884565b6111f7611221565b565b61120d611208611212926109f3565b61049b565b610240565b90565b61121e906111f9565b90565b61123261122d5f611215565b6119f2565b565b61123c6111e7565b565b5f90565b61124a61123e565b506112545f610eab565b90565b90565b61126e61126961127392611257565b61049b565b610170565b90565b906113136112e16112d46113199461128c610961565b506112ce6112c76112c06112b26112a4858a90610dad565b986112ad6104ba565b610a4b565b6112ba610678565b90610a94565b9680610a4b565b9180610a4b565b90610a26565b6112dc610528565b610a4b565b61130d6112ff60026112fa6112f4610678565b9161125a565b610a4b565b611307610678565b90610a4b565b90610a94565b90610dad565b90565b9061132e9161132961192b565b61143c565b611336611983565b565b5f7f496e76616c696420737570706c79000000000000000000000000000000000000910152565b61136c600e602092610c31565b61137581611338565b0190565b61138e9060208101905f81830391015261135f565b90565b1561139857565b6113a0610162565b62461bcd60e51b8152806113b660048201611379565b0390fd5b5f7f536c69707061676520746f6f2068696768000000000000000000000000000000910152565b6113ee6011602092610c31565b6113f7816113ba565b0190565b6114109060208101905f8183039101526113e1565b90565b1561141a57565b611422610162565b62461bcd60e51b815280611438600482016113fb565b0390fd5b611480602061146a7f00000000000000000000000000000000000000000000000000000000000000006105f6565b6318160ddd90611478610162565b9384926109b0565b82528180611490600482016102a7565b03915afa9081156116c1576114d6916114cf915f91611693575b506114c8816114c16114bb87610170565b91610170565b1015611391565b8390610a26565b8290611276565b6114f96114eb826114e56108a8565b90610a4b565b6114f3610809565b90610a94565b90611523611508828490610a26565b9461151c6115168792610170565b91610170565b1015611413565b61154c7f00000000000000000000000000000000000000000000000000000000000000006105f6565b90639dc29fac338593803b1561168e576115795f809461158461156d610162565b988996879586946109b0565b845260048401610e63565b03925af1908115611689576116149261160d9261165d575b506115c97f00000000000000000000000000000000000000000000000000000000000000003388916118d7565b6115fe7f00000000000000000000000000000000000000000000000000000000000000006115f76001610eab565b86916118d7565b6116086002610ecc565b610dad565b6002610f13565b33919290926116586116467fe029f26dbcf8c42dd2f352c10214a7fc26773dc62482c6241334a0402ac09a8094610cd4565b9461164f610162565b93849384610f33565b0390a2565b61167c905f3d8111611682575b6116748183610987565b810190610e54565b5f61159c565b503d61166a565b6109e3565b610965565b6116b4915060203d81116116ba575b6116ac8183610987565b8101906109c5565b5f6114aa565b503d6116a2565b6109e3565b906116d09161131c565b565b6116e3906116de611884565b611723565b565b906116f660018060a01b0391610ed9565b9181191691161790565b90565b9061171861171361171f92610cd4565b611700565b82546116e5565b9055565b61172e906001611703565b565b611739906116d2565b565b611743610961565b5061178860206117727f00000000000000000000000000000000000000000000000000000000000000006105f6565b6318160ddd90611780610162565b9384926109b0565b82528180611798600482016102a7565b03915afa801561180f576117de915f916117e1575b506117d86117ca6117bc6104ba565b926117c5610528565b610a4b565b6117d2610678565b90610a94565b90610dad565b90565b611802915060203d8111611808575b6117fa8183610987565b8101906109c5565b5f6117ad565b503d6117f0565b6109e3565b61182590611820611884565b611827565b565b8061184261183c6118375f611215565b61024b565b9161024b565b1461185257611850906119f2565b565b61187561185e5f611215565b5f918291631e4fbdf760e01b835260048301610340565b0390fd5b61188290611814565b565b61188c611242565b6118a561189f61189a611a51565b61024b565b9161024b565b036118ac57565b6118ce6118b7611a51565b5f91829163118cdaa760e01b835260048301610340565b0390fd5b151590565b916118f0916118ea918491600192611a62565b156118d2565b6118f75750565b61190361191a916106f0565b5f918291635274afe760e01b835260048301610340565b0390fd5b611928600261125a565b90565b611933611acc565b61195561193e61191e565b5f61194f61194a611b48565b611b5c565b01610f13565b565b90565b61196e61196961197392611957565b61049b565b610170565b90565b611980600161195a565b90565b6119a561198e611976565b5f61199f61199a611b48565b611b5c565b01610f13565b565b92906119c4926119be928592919091600193611b5f565b156118d2565b6119cb5750565b6119d76119ee916106f0565b5f918291635274afe760e01b835260048301610340565b0390fd5b6119fb5f610eab565b611a05825f611703565b90611a39611a337f8be0079c531659141344cd1fd0a4f28419497f9722a3daafe3b4186f6b6457e093610cd4565b91610cd4565b91611a42610162565b80611a4c816102a7565b0390a3565b611a5961123e565b503390565b5f90565b9091939293611a6f611a5e565b5063a9059cbb60e01b92604051935f525f1960601c1660045260245260205f60448180855af19360015f5114851615611aaa575b5050604052565b8492941516611ac3575f903b113d151616915f80611aa3565b833d5f823e3d90fd5b611ad4611bd8565b611ada57565b5f633ee5aeb560e01b815280611af2600482016102a7565b0390fd5b5f90565b90565b90565b611b14611b0f611b1992611afa565b610ed9565b611afd565b90565b611b457f9b779b17422d0df92223018b32b4d1fa46e071723d6817e2486d003becc55f00611b00565b90565b611b50611af6565b50611b59611b1c565b90565b90565b91949394929092611b6e611a5e565b506323b872dd60e01b93604051945f525f1960601c166004525f1960601c1660245260445260205f60648180855af19360015f5114851615611bb6575b50506040525f606052565b8492941516611bcf575f903b113d151616915f80611bab565b833d5f823e3d90fd5b611be0611a5e565b50611bfb5f611bf5611bf0611b48565b611b5c565b01610ecc565b611c14611c0e611c0961191e565b610170565b91610170565b149056fea2646970667358221220f3943b37b69a8759b2f66dd84bb798ca0edc0b03536fb6ee83dd9649ff80a6e864736f6c63430008220033","linkReferences":{}},"methodIdentifiers":{"BASIS_POINTS()":"e1f1c4a7","FEE_PERCENT()":"eaf98d23","INITIAL_PRICE()":"7c5e2795","PRECISION()":"aaf5eb68","SLOPE()":"8b7cc629","buy(uint256,uint256,address)":"59a87bc1","calculateCost(uint256,uint256)":"ce394696","collateralToken()":"b2016bd4","feeRecipient()":"46904840","getCurrentPrice()":"eb91d37e","getGoldOut(uint256)":"2944310f","getSellProceeds(uint256)":"0c8a77ee","goldToken()":"94002b57","owner()":"8da5cb5b","renounceOwnership()":"715018a6","rescueToken(address,uint256)":"33f3d628","sell(uint256,uint256)":"d79875eb","setFeeRecipient(address)":"e74b981b","totalVolume()":"5f81a57c","transferOwnership(address)":"f2fde38b"},"id":0}