{"abi":[{"type":"constructor","inputs":[{"name":"_pyth","type":"address","internalType":"address"},{"name":"_collateralToken","type":"address","internalType":"address"},{"name":"_feeRecipient","type":"address","internalType":"address"}],"stateMutability":"nonpayable"},{"type":"function","name":"BASIS_POINTS","inputs":[],"outputs":[{"name":"","type":"uint256","internalType":"uint256"}],"stateMutability":"view"},{"type":"function","name":"FEE_PERCENT","inputs":[],"outputs":[{"name":"","type":"uint256","internalType":"uint256"}],"stateMutability":"view"},{"type":"function","name":"MAX_LEVERAGE","inputs":[],"outputs":[{"name":"","type":"uint256","internalType":"uint256"}],"stateMutability":"view"},{"type":"function","name":"PRECISION","inputs":[],"outputs":[{"name":"","type":"uint256","internalType":"uint256"}],"stateMutability":"view"},{"type":"function","name":"XAU_USD_FEED","inputs":[],"outputs":[{"name":"","type":"bytes32","internalType":"bytes32"}],"stateMutability":"view"},{"type":"function","name":"closePosition","inputs":[{"name":"index","type":"uint256","internalType":"uint256"}],"outputs":[],"stateMutability":"nonpayable"},{"type":"function","name":"collateralToken","inputs":[],"outputs":[{"name":"","type":"address","internalType":"contract IERC20"}],"stateMutability":"view"},{"type":"function","name":"feeRecipient","inputs":[],"outputs":[{"name":"","type":"address","internalType":"address"}],"stateMutability":"view"},{"type":"function","name":"getGoldPrice","inputs":[],"outputs":[{"name":"","type":"uint256","internalType":"uint256"}],"stateMutability":"view"},{"type":"function","name":"getUserPositions","inputs":[{"name":"user","type":"address","internalType":"address"}],"outputs":[{"name":"","type":"tuple[]","internalType":"struct GoldFutures.Position[]","components":[{"name":"collateral","type":"uint256","internalType":"uint256"},{"name":"size","type":"uint256","internalType":"uint256"},{"name":"entryPrice","type":"uint256","internalType":"uint256"},{"name":"isLong","type":"bool","internalType":"bool"},{"name":"active","type":"bool","internalType":"bool"}]}],"stateMutability":"view"},{"type":"function","name":"openPosition","inputs":[{"name":"collateralAmount","type":"uint256","internalType":"uint256"},{"name":"leverage","type":"uint256","internalType":"uint256"},{"name":"isLong","type":"bool","internalType":"bool"}],"outputs":[],"stateMutability":"nonpayable"},{"type":"function","name":"owner","inputs":[],"outputs":[{"name":"","type":"address","internalType":"address"}],"stateMutability":"view"},{"type":"function","name":"pyth","inputs":[],"outputs":[{"name":"","type":"address","internalType":"contract IPyth"}],"stateMutability":"view"},{"type":"function","name":"renounceOwnership","inputs":[],"outputs":[],"stateMutability":"nonpayable"},{"type":"function","name":"transferOwnership","inputs":[{"name":"newOwner","type":"address","internalType":"address"}],"outputs":[],"stateMutability":"nonpayable"},{"type":"function","name":"userPositions","inputs":[{"name":"","type":"address","internalType":"address"},{"name":"","type":"uint256","internalType":"uint256"}],"outputs":[{"name":"collateral","type":"uint256","internalType":"uint256"},{"name":"size","type":"uint256","internalType":"uint256"},{"name":"entryPrice","type":"uint256","internalType":"uint256"},{"name":"isLong","type":"bool","internalType":"bool"},{"name":"active","type":"bool","internalType":"bool"}],"stateMutability":"view"},{"type":"event","name":"OwnershipTransferred","inputs":[{"name":"previousOwner","type":"address","indexed":true,"internalType":"address"},{"name":"newOwner","type":"address","indexed":true,"internalType":"address"}],"anonymous":false},{"type":"event","name":"PositionClosed","inputs":[{"name":"user","type":"address","indexed":true,"internalType":"address"},{"name":"index","type":"uint256","indexed":false,"internalType":"uint256"},{"name":"pnl","type":"uint256","indexed":false,"internalType":"uint256"},{"name":"wasProfit","type":"bool","indexed":false,"internalType":"bool"}],"anonymous":false},{"type":"event","name":"PositionOpened","inputs":[{"name":"user","type":"address","indexed":true,"internalType":"address"},{"name":"index","type":"uint256","indexed":false,"internalType":"uint256"},{"name":"isLong","type":"bool","indexed":false,"internalType":"bool"},{"name":"collateral","type":"uint256","indexed":false,"internalType":"uint256"},{"name":"size","type":"uint256","indexed":false,"internalType":"uint256"},{"name":"entryPrice","type":"uint256","indexed":false,"internalType":"uint256"}],"anonymous":false},{"type":"error","name":"OwnableInvalidOwner","inputs":[{"name":"owner","type":"address","internalType":"address"}]},{"type":"error","name":"OwnableUnauthorizedAccount","inputs":[{"name":"account","type":"address","internalType":"address"}]},{"type":"error","name":"ReentrancyGuardReentrantCall","inputs":[]}],"bytecode":{"object":"0x60c06040523461005e5761001a61001461013f565b9161020c565b610022610063565b6122476104898239608051818181610a9f0152611de9015260a05181818161082201528181611168015281816111e9015261198f015261224790f35b610069565b60405190565b5f80fd5b601f801991011690565b634e487b7160e01b5f52604160045260245ffd5b906100959061006d565b810190811060018060401b038211176100ad57604052565b610077565b906100c56100be610063565b928361008b565b565b5f80fd5b60018060a01b031690565b6100df906100cb565b90565b6100eb816100d6565b036100f257565b5f80fd5b90505190610103826100e2565b565b909160608284031261013a57610137610120845f85016100f6565b9361012e81602086016100f6565b936040016100f6565b90565b6100c7565b61015d6126d080380380610152816100b2565b928339810190610105565b909192565b90565b61017961017461017e926100cb565b610162565b6100cb565b90565b61018a90610165565b90565b61019690610181565b90565b6101a290610165565b90565b6101ae90610199565b90565b5f1b90565b906101c760018060a01b03916101b1565b9181191691161790565b6101da90610165565b90565b6101e6906101d1565b90565b90565b906102016101fc610208926101dd565b6101e9565b82546101b6565b9055565b610238929161022661022e92610221336102be565b61018d565b6080526101a5565b60a05260016101ec565b565b90565b90565b61025461024f6102599261023a565b610162565b61023d565b90565b6102666001610240565b90565b906102755f19916101b1565b9181191691161790565b61029361028e6102989261023d565b610162565b61023d565b90565b90565b906102b36102ae6102ba9261027f565b61029b565b8254610269565b9055565b6102c790610338565b6102e96102d261025c565b5f6102e36102de6103dc565b6103f0565b0161029e565b565b90565b6103026102fd610307926102eb565b610162565b6100cb565b90565b610313906102ee565b90565b61031f906100d6565b9052565b9190610336905f60208501940190610316565b565b8061035361034d6103485f61030a565b6100d6565b916100d6565b146103635761036190610429565b565b61038661036f5f61030a565b5f918291631e4fbdf760e01b835260048301610323565b0390fd5b5f90565b90565b90565b6103a86103a36103ad9261038e565b6101b1565b610391565b90565b6103d97f9b779b17422d0df92223018b32b4d1fa46e071723d6817e2486d003becc55f00610394565b90565b6103e461038a565b506103ed6103b0565b90565b90565b5f1c90565b60018060a01b031690565b61040f610414916103f3565b6103f8565b90565b6104219054610403565b90565b5f0190565b6104325f610417565b61043c825f6101ec565b9061047061046a7f8be0079c531659141344cd1fd0a4f28419497f9722a3daafe3b4186f6b6457e0936101dd565b916101dd565b91610479610063565b8061048381610424565b0390a356fe60806040526004361015610013575b610b24565b61001d5f3561011c565b80631558c966146101175780632a6bc2dd14610112578063469048401461010d5780635e1b4d9914610108578063715018a6146101035780638da5cb5b146100fe5780639b45ec97146100f9578063a126d601146100f4578063aaf5eb68146100ef578063b2016bd4146100ea578063da6bae10146100e5578063e1f1c4a7146100e0578063eaf98d23146100db578063ec5639fe146100d6578063f2fde38b146100d15763f98d06f00361000e57610aef565b610a6a565b610a35565b610980565b610914565b6108a7565b610872565b6107eb565b61077a565b610727565b6106a6565b610673565b610639565b6103f9565b61034f565b6101bd565b60e01c90565b60405190565b5f80fd5b5f80fd5b90565b61013c81610130565b0361014357565b5f80fd5b9050359061015482610133565b565b151590565b61016481610156565b0361016b57565b5f80fd5b9050359061017c8261015b565b565b90916060828403126101b3576101b0610199845f8501610147565b936101a78160208601610147565b9360400161016f565b90565b61012c565b5f0190565b346101ec576101d66101d036600461017e565b916113f5565b6101de610122565b806101e8816101b8565b0390f35b610128565b60018060a01b031690565b610205906101f1565b90565b610211816101fc565b0361021857565b5f80fd5b9050359061022982610208565b565b9060208282031261024457610241915f0161021c565b90565b61012c565b5190565b60209181520190565b60200190565b61026590610130565b9052565b61027290610156565b9052565b906080806102ce9361028e5f8201515f86019061025c565b6102a06020820151602086019061025c565b6102b26040820151604086019061025c565b6102c460608201516060860190610269565b0151910190610269565b565b906102dd8160a093610276565b0190565b60200190565b906103046102fe6102f784610249565b809361024d565b92610256565b905f5b8181106103145750505090565b90919261032d61032760019286516102d0565b946102e1565b9101919091610307565b61034c9160208201915f8184039101526102e7565b90565b3461037f5761037b61036a61036536600461022b565b61152f565b610372610122565b91829182610337565b0390f35b610128565b5f91031261038e57565b61012c565b1c90565b60018060a01b031690565b6103b29060086103b79302610393565b610397565b90565b906103c591546103a2565b90565b6103d460015f906103ba565b90565b6103e0906101fc565b9052565b91906103f7905f602085019401906103d7565b565b3461042957610409366004610384565b6104256104146103c8565b61041c610122565b918291826103e4565b0390f35b610128565b9190604083820312610456578061044a610453925f860161021c565b93602001610147565b90565b61012c565b90565b61047261046d610477926101f1565b61045b565b6101f1565b90565b6104839061045e565b90565b61048f9061047a565b90565b9061049c90610486565b5f5260205260405f2090565b634e487b7160e01b5f52603260045260245ffd5b5490565b5f5260205f2090565b6104d2816104bc565b8210156104ec576104e46004916104c0565b910201905f90565b6104a8565b5f1c90565b90565b61050561050a916104f1565b6104f6565b90565b61051790546104f9565b90565b60ff1690565b61052c610531916104f1565b61051a565b90565b61053e9054610520565b90565b60081c90565b61055361055891610541565b61051a565b90565b6105659054610547565b90565b610573906002610492565b9061057d826104bc565b8110156105ce5761058d916104c9565b506105995f820161050d565b916105a66001830161050d565b916105b36002820161050d565b916105cb60036105c4818501610534565b930161055b565b90565b5f80fd5b6105db90610130565b9052565b6105e890610156565b9052565b90959492610637946106266106309261061c60809661061260a088019c5f8901906105d2565b60208701906105d2565b60408501906105d2565b60608301906105df565b01906105df565b565b3461066e5761066a61065561064f36600461042e565b90610568565b91610661959395610122565b958695866105ec565b0390f35b610128565b346106a157610683366004610384565b61068b61159e565b610693610122565b8061069d816101b8565b0390f35b610128565b346106d6576106b6366004610384565b6106d26106c16115ac565b6106c9610122565b918291826103e4565b0390f35b610128565b90565b6106f26106ed6106f7926106db565b61045b565b610130565b90565b61070460326106de565b90565b61070f6106fa565b90565b9190610725905f602085019401906105d2565b565b3461075757610737366004610384565b610753610742610707565b61074a610122565b91829182610712565b0390f35b610128565b9060208282031261077557610772915f01610147565b90565b61012c565b346107a85761079261078d36600461075c565b611b7e565b61079a610122565b806107a4816101b8565b0390f35b610128565b90565b6107c46107bf6107c9926107ad565b61045b565b610130565b90565b6107dd670de0b6b3a76400006107b0565b90565b6107e86107cc565b90565b3461081b576107fb366004610384565b6108176108066107e0565b61080e610122565b91829182610712565b0390f35b610128565b7f000000000000000000000000000000000000000000000000000000000000000090565b61084d9061047a565b90565b61085990610844565b9052565b9190610870905f60208501940190610850565b565b346108a257610882366004610384565b61089e61088d610820565b610895610122565b9182918261085d565b0390f35b610128565b346108d7576108b7366004610384565b6108d36108c2611ddb565b6108ca610122565b91829182610712565b0390f35b610128565b90565b6108f36108ee6108f8926108dc565b61045b565b610130565b90565b6109066127106108df565b90565b6109116108fb565b90565b3461094457610924366004610384565b61094061092f610909565b610937610122565b91829182610712565b0390f35b610128565b90565b61096061095b61096592610949565b61045b565b610130565b90565b610972600a61094c565b90565b61097d610968565b90565b346109b057610990366004610384565b6109ac61099b610975565b6109a3610122565b91829182610712565b0390f35b610128565b90565b90565b5f1b90565b6109d46109cf6109d9926109b5565b6109bb565b6109b8565b90565b610a057f7691ae354ca730a3f5a7e6b72a6b7d5986877960662d558779668581896893686109c0565b90565b610a106109dc565b90565b610a1c906109b8565b9052565b9190610a33905f60208501940190610a13565b565b34610a6557610a45366004610384565b610a61610a50610a08565b610a58610122565b91829182610a20565b0390f35b610128565b34610a9857610a82610a7d36600461022b565b611fb5565b610a8a610122565b80610a94816101b8565b0390f35b610128565b7f000000000000000000000000000000000000000000000000000000000000000090565b610aca9061047a565b90565b610ad690610ac1565b9052565b9190610aed905f60208501940190610acd565b565b34610b1f57610aff366004610384565b610b1b610b0a610a9d565b610b12610122565b91829182610ada565b0390f35b610128565b5f80fd5b90610b3b9291610b36611fec565b61110f565b610b43612025565b565b90565b610b5c610b57610b6192610b45565b61045b565b610130565b90565b60209181520190565b5f7f496e76616c6964206c6576657261676500000000000000000000000000000000910152565b610ba16010602092610b64565b610baa81610b6d565b0190565b610bc39060208101905f818303910152610b94565b90565b15610bcd57565b610bd5610122565b62461bcd60e51b815280610beb60048201610bae565b0390fd5b634e487b7160e01b5f52601160045260245ffd5b610c12610c1891939293610130565b92610130565b91610c24838202610130565b928184041490151715610c3357565b610bef565b634e487b7160e01b5f52601260045260245ffd5b610c58610c5e91610130565b91610130565b908115610c69570490565b610c38565b610c7d610c8391939293610130565b92610130565b8203918211610c8e57565b610bef565b610c9c9061047a565b90565b601f801991011690565b634e487b7160e01b5f52604160045260245ffd5b90610cc790610c9f565b810190811067ffffffffffffffff821117610ce157604052565b610ca9565b60e01b90565b90505190610cf98261015b565b565b90602082820312610d1457610d11915f01610cec565b90565b61012c565b604090610d42610d499496959396610d3860608401985f8501906103d7565b60208301906103d7565b01906105d2565b565b610d53610122565b3d5f823e3d90fd5b5f7f436f6c6c61746572616c206661696c6564000000000000000000000000000000910152565b610d8f6011602092610b64565b610d9881610d5b565b0190565b610db19060208101905f818303910152610d82565b90565b15610dbb57565b610dc3610122565b62461bcd60e51b815280610dd960048201610d9c565b0390fd5b610de9610dee916104f1565b610397565b90565b610dfb9054610ddd565b90565b5f7f466565206661696c656400000000000000000000000000000000000000000000910152565b610e32600a602092610b64565b610e3b81610dfe565b0190565b610e549060208101905f818303910152610e25565b90565b15610e5e57565b610e66610122565b62461bcd60e51b815280610e7c60048201610e3f565b0390fd5b90565b90610e96610e8f610122565b9283610cbd565b565b610ea260a0610e83565b90565b90610eaf90610130565b9052565b90610ebd90610156565b9052565b5f5260205f2090565b5490565b610ed781610eca565b821015610ef157610ee9600491610ec1565b910201905f90565b6104a8565b634e487b7160e01b5f525f60045260245ffd5b610f139051610130565b90565b90610f225f19916109bb565b9181191691161790565b610f40610f3b610f4592610130565b61045b565b610130565b90565b90565b90610f60610f5b610f6792610f2c565b610f48565b8254610f16565b9055565b610f759051610156565b90565b90610f8460ff916109bb565b9181191691161790565b610f9790610156565b90565b90565b90610fb2610fad610fb992610f8e565b610f9a565b8254610f78565b9055565b60081b90565b90610fd061ff0091610fbd565b9181191691161790565b90610fef610fea610ff692610f8e565b610f9a565b8254610fc3565b9055565b9061106f608060036110759461101d5f82016110175f8801610f09565b90610f4b565b6110366001820161103060208801610f09565b90610f4b565b61104f6002820161104960408801610f09565b90610f4b565b61106782820161106160608801610f6b565b90610f9d565b019201610f6b565b90610fda565b565b91906110885761108691610ffa565b565b610ef6565b90815491680100000000000000008310156110bd57826110b59160016110bb95018155610ece565b90611077565b565b610ca9565b9095949261110d946110fc611106926110f26080966110e860a088019c5f8901906105d2565b60208701906105df565b60408501906105d2565b60608301906105d2565b01906105d2565b565b8161112361111d6001610b48565b91610130565b1015806113ce575b61113490610bc6565b61116261115a61114c83611146610968565b90610c03565b6111546108fb565b90610c4c565b918290610c6e565b9061118c7f0000000000000000000000000000000000000000000000000000000000000000610844565b60206323b872dd9133906111bc5f6111a330610c93565b956111c7896111b0610122565b98899788968795610ce6565b855260048501610d19565b03925af180156113c9576111e2915f9161139b575b50610db4565b602061120d7f0000000000000000000000000000000000000000000000000000000000000000610844565b6323b872dd9061123b5f33936112466112266001610df1565b9761122f610122565b98899788968795610ce6565b855260048501610d19565b03925af1801561139657611261915f91611368575b50610e57565b61128e611287611279611272611ddb565b9484610c03565b6112816107cc565b90610c03565b8390610c4c565b926112f86112a66112a160023390610492565b610e80565b83906112f3876112ea886112e188916112d86001956112cf6112c6610e98565b9a5f8c01610ea5565b60208a01610ea5565b60408801610ea5565b60608601610eb3565b60808401610eb3565b61108d565b611363339361132461131461130f60023390610492565b6104bc565b61131e6001610b48565b90610c6e565b9293956113517f5cf8fa4a8e333990018876ad3a82065e68b3859d46c3198b692b77fc3043808b96610486565b9661135a610122565b958695866110c2565b0390a2565b611389915060203d811161138f575b6113818183610cbd565b810190610cfb565b5f61125b565b503d611377565b610d4b565b6113bc915060203d81116113c2575b6113b48183610cbd565b810190610cfb565b5f6111dc565b503d6113aa565b610d4b565b50611134826113ec6113e66113e16106fa565b610130565b91610130565b1115905061112b565b906114009291610b28565b565b606090565b67ffffffffffffffff811161141f5760208091020190565b610ca9565b9061143661143183611407565b610e83565b918252565b61144560a0610e83565b90565b906114c66114bd600361145961143b565b946114706114685f830161050d565b5f8801610ea5565b61148861147f6001830161050d565b60208801610ea5565b6114a06114976002830161050d565b60408801610ea5565b6114b76114ae838301610534565b60608801610eb3565b0161055b565b60808401610eb3565b565b6114d190611448565b90565b906114de826104bc565b6114e781611424565b926114f560208501916104c0565b5f915b8383106115055750505050565b60046020600192611515856114c8565b8152019201920191906114f8565b61152c906114d4565b90565b61154661154b9161153e611402565b506002610492565b611523565b90565b611556612049565b61155e61158b565b565b90565b61157761157261157c92611560565b61045b565b6101f1565b90565b61158890611563565b90565b61159c6115975f61157f565b6120d5565b565b6115a661154e565b565b5f90565b6115b46115a8565b506115be5f610df1565b90565b6115d2906115cd611fec565b611803565b6115da612025565b565b5f7f496e76616c696420696e64657800000000000000000000000000000000000000910152565b611610600d602092610b64565b611619816115dc565b0190565b6116329060208101905f818303910152611603565b90565b1561163c57565b611644610122565b62461bcd60e51b81528061165a6004820161161d565b0390fd5b90565b5f7f416c726561647920636c6f736564000000000000000000000000000000000000910152565b611695600e602092610b64565b61169e81611661565b0190565b6116b79060208101905f818303910152611688565b90565b156116c157565b6116c9610122565b62461bcd60e51b8152806116df600482016116a2565b0390fd5b5f90565b5f90565b6116ff6116fa61170492611560565b61045b565b610130565b90565b61171661171c91939293610130565b92610130565b820180921161172757565b610bef565b91602061174d92949361174660408201965f8301906103d7565b01906105d2565b565b5f7f5061796f7574206661696c656400000000000000000000000000000000000000910152565b611783600d602092610b64565b61178c8161174f565b0190565b6117a59060208101905f818303910152611776565b90565b156117af57565b6117b7610122565b62461bcd60e51b8152806117cd60048201611790565b0390fd5b6040906117fa61180194969593966117f060608401985f8501906105d2565b60208301906105d2565b01906105df565b565b6118328161182c61182661182161181c60023390610492565b6104bc565b610130565b91610130565b10611635565b61185161184b61184460023390610492565b83906104c9565b5061165e565b906118666118616003840161055b565b6116ba565b61186e611ddb565b6118766116e3565b5061187f6116e7565b5061188c60038401610534565b5f14611ace57806118b06118aa6118a56002870161050d565b610130565b91610130565b115f14611a8a576118e66118f4916118e06118cd6001870161050d565b916118da6002880161050d565b90610c6e565b90610c03565b6118ee6107cc565b90610c4c565b916001905b5b815f14611a37576119256119196119125f840161050d565b8690611707565b5b9160035f9101610fda565b806119386119325f6116eb565b91610130565b11611988575b5033919290926119836119717f5c2d5bd9076d34aec2218d511382bf597bac104271e431cf9473d38180a5a7d294610486565b9461197a610122565b938493846117d1565b0390a2565b60206119b37f0000000000000000000000000000000000000000000000000000000000000000610844565b9163a9059cbb926119d85f3393956119e36119cc610122565b97889687958694610ce6565b84526004840161172c565b03925af18015611a32576119fe915f91611a04575b506117a8565b5f61193e565b611a25915060203d8111611a2b575b611a1d8183610cbd565b810190610cfb565b5f6119f8565b503d611a13565b610d4b565b611a425f820161050d565b611a54611a4e86610130565b91610130565b115f14611a7957611925611a73611a6c5f840161050d565b8690610c6e565b5b61191a565b611925611a855f6116eb565b611a74565b611ab8611ac691611ab2611aa06001870161050d565b91611aad6002880161050d565b610c6e565b90610c03565b611ac06107cc565b90610c4c565b915f906118f9565b80611aec611ae6611ae16002870161050d565b610130565b91610130565b105f14611b3957611b21611b2f91611b1b611b096001870161050d565b91611b166002880161050d565b610c6e565b90610c03565b611b296107cc565b90610c4c565b916001905b6118fa565b611b68611b7691611b62611b4f6001870161050d565b91611b5c6002880161050d565b90610c6e565b90610c03565b611b706107cc565b90610c4c565b915f90611b34565b611b87906115c1565b565b5f80fd5b60070b90565b611b9c81611b8d565b03611ba357565b5f80fd5b90505190611bb482611b93565b565b67ffffffffffffffff1690565b611bcc81611bb6565b03611bd357565b5f80fd5b90505190611be482611bc3565b565b60030b90565b611bf581611be6565b03611bfc57565b5f80fd5b90505190611c0d82611bec565b565b90505190611c1c82610133565b565b9190608083820312611c7c57611c7590611c386080610e83565b93611c45825f8301611ba7565b5f860152611c568260208301611bd7565b6020860152611c688260408301611c00565b6040860152606001611c0f565b6060830152565b611b89565b90608082820312611c9a57611c97915f01611c1e565b90565b61012c565b90565b611cb6611cb1611cbb92611c9f565b61045b565b610130565b90565b611cc790611ca2565b9052565b916020611cec929493611ce560408201965f830190610a13565b0190611cbe565b565b611cf89051611b8d565b90565b611d0f611d0a611d1492611b8d565b61045b565b611bb6565b90565b611d2b611d26611d3092611bb6565b61045b565b610130565b90565b611d3d9051611be6565b90565b611d54611d4f611d5992611560565b61045b565b611be6565b90565b63ffffffff1690565b611d79611d74611d7e92611be6565b61045b565b611d5c565b90565b611d8a90611d5c565b604d8111611d9857600a0a90565b610bef565b90565b611db4611daf611db992611d9d565b61045b565b610130565b90565b611dc590611be6565b637fffffff198114611dd6575f0390565b610bef565b611de36116e3565b50611e0d7f0000000000000000000000000000000000000000000000000000000000000000610ac1565b608063a4ae35e091611e1d6109dc565b90611e3c610e1094611e47611e30610122565b96879586948594610ce6565b845260048401611ccb565b03915afa908115611f4b575f91611f1d575b50611e75611e70611e6b5f8401611cee565b611cfb565b611d17565b611e8160408301611d33565b611e93611e8d5f611d40565b91611be6565b125f14611edf57611ed7611ec4611ebf611eba611eb56040611edc9701611d33565b611dbc565b611d65565b611d81565b91611ed1620f4240611da0565b90610c03565b610c4c565b90565b611f0890611f02611efd611ef86040611f1a9601611d33565b611d65565b611d81565b90610c03565b611f14620f4240611da0565b90610c03565b90565b611f3e915060803d8111611f44575b611f368183610cbd565b810190611c81565b5f611e59565b503d611f2c565b610d4b565b611f6190611f5c612049565b611f63565b565b80611f7e611f78611f735f61157f565b6101fc565b916101fc565b14611f8e57611f8c906120d5565b565b611fb1611f9a5f61157f565b5f918291631e4fbdf760e01b8352600483016103e4565b0390fd5b611fbe90611f50565b565b90565b611fd7611fd2611fdc92611fc0565b61045b565b610130565b90565b611fe96002611fc3565b90565b611ff4612134565b612016611fff611fdf565b5f61201061200b6121ad565b6121c1565b01610f4b565b565b6120226001610b48565b90565b612047612030612018565b5f61204161203c6121ad565b6121c1565b01610f4b565b565b6120516115ac565b61206a61206461205f6121c4565b6101fc565b916101fc565b0361207157565b61209361207c6121c4565b5f91829163118cdaa760e01b8352600483016103e4565b0390fd5b906120a860018060a01b03916109bb565b9181191691161790565b90565b906120ca6120c56120d192610486565b6120b2565b8254612097565b9055565b6120de5f610df1565b6120e8825f6120b5565b9061211c6121167f8be0079c531659141344cd1fd0a4f28419497f9722a3daafe3b4186f6b6457e093610486565b91610486565b91612125610122565b8061212f816101b8565b0390a3565b61213c6121d1565b61214257565b5f633ee5aeb560e01b81528061215a600482016101b8565b0390fd5b5f90565b90565b61217961217461217e92612162565b6109bb565b6109b8565b90565b6121aa7f9b779b17422d0df92223018b32b4d1fa46e071723d6817e2486d003becc55f00612165565b90565b6121b561215e565b506121be612181565b90565b90565b6121cc6115a8565b503390565b6121d96116e7565b506121f45f6121ee6121e96121ad565b6121c1565b0161050d565b61220d612207612202611fdf565b610130565b91610130565b149056fea2646970667358221220d0c34cbff0e43f46d930111edaeb3524a3cd5b636041af1273395d25a42b0aee64736f6c63430008220033","linkReferences":{}},"methodIdentifiers":{"BASIS_POINTS()":"e1f1c4a7","FEE_PERCENT()":"eaf98d23","MAX_LEVERAGE()":"9b45ec97","PRECISION()":"aaf5eb68","XAU_USD_FEED()":"ec5639fe","closePosition(uint256)":"a126d601","collateralToken()":"b2016bd4","feeRecipient()":"46904840","getGoldPrice()":"da6bae10","getUserPositions(address)":"2a6bc2dd","openPosition(uint256,uint256,bool)":"1558c966","owner()":"8da5cb5b","pyth()":"f98d06f0","renounceOwnership()":"715018a6","transferOwnership(address)":"f2fde38b","userPositions(address,uint256)":"5e1b4d99"},"id":1}