{"abi":[{"type":"constructor","inputs":[{"name":"_pyth","type":"address","internalType":"address"},{"name":"_collateralToken","type":"address","internalType":"address"},{"name":"_feeRecipient","type":"address","internalType":"address"}],"stateMutability":"nonpayable"},{"type":"function","name":"BASIS_POINTS","inputs":[],"outputs":[{"name":"","type":"uint256","internalType":"uint256"}],"stateMutability":"view"},{"type":"function","name":"FEE_PERCENT","inputs":[],"outputs":[{"name":"","type":"uint256","internalType":"uint256"}],"stateMutability":"view"},{"type":"function","name":"MAX_LEVERAGE","inputs":[],"outputs":[{"name":"","type":"uint256","internalType":"uint256"}],"stateMutability":"view"},{"type":"function","name":"PRECISION","inputs":[],"outputs":[{"name":"","type":"uint256","internalType":"uint256"}],"stateMutability":"view"},{"type":"function","name":"XAU_USD_FEED","inputs":[],"outputs":[{"name":"","type":"bytes32","internalType":"bytes32"}],"stateMutability":"view"},{"type":"function","name":"closePosition","inputs":[{"name":"index","type":"uint256","internalType":"uint256"}],"outputs":[],"stateMutability":"nonpayable"},{"type":"function","name":"collateralToken","inputs":[],"outputs":[{"name":"","type":"address","internalType":"contract IERC20"}],"stateMutability":"view"},{"type":"function","name":"feeRecipient","inputs":[],"outputs":[{"name":"","type":"address","internalType":"address"}],"stateMutability":"view"},{"type":"function","name":"getGoldPrice","inputs":[],"outputs":[{"name":"","type":"uint256","internalType":"uint256"}],"stateMutability":"view"},{"type":"function","name":"getUserPositions","inputs":[{"name":"user","type":"address","internalType":"address"}],"outputs":[{"name":"","type":"tuple[]","internalType":"struct GoldFutures.Position[]","components":[{"name":"collateral","type":"uint256","internalType":"uint256"},{"name":"size","type":"uint256","internalType":"uint256"},{"name":"entryPrice","type":"uint256","internalType":"uint256"},{"name":"isLong","type":"bool","internalType":"bool"},{"name":"active","type":"bool","internalType":"bool"}]}],"stateMutability":"view"},{"type":"function","name":"openPosition","inputs":[{"name":"collateralAmount","type":"uint256","internalType":"uint256"},{"name":"leverage","type":"uint256","internalType":"uint256"},{"name":"isLong","type":"bool","internalType":"bool"}],"outputs":[],"stateMutability":"nonpayable"},{"type":"function","name":"owner","inputs":[],"outputs":[{"name":"","type":"address","internalType":"address"}],"stateMutability":"view"},{"type":"function","name":"pyth","inputs":[],"outputs":[{"name":"","type":"address","internalType":"contract IPyth"}],"stateMutability":"view"},{"type":"function","name":"renounceOwnership","inputs":[],"outputs":[],"stateMutability":"nonpayable"},{"type":"function","name":"transferOwnership","inputs":[{"name":"newOwner","type":"address","internalType":"address"}],"outputs":[],"stateMutability":"nonpayable"},{"type":"function","name":"userPositions","inputs":[{"name":"","type":"address","internalType":"address"},{"name":"","type":"uint256","internalType":"uint256"}],"outputs":[{"name":"collateral","type":"uint256","internalType":"uint256"},{"name":"size","type":"uint256","internalType":"uint256"},{"name":"entryPrice","type":"uint256","internalType":"uint256"},{"name":"isLong","type":"bool","internalType":"bool"},{"name":"active","type":"bool","internalType":"bool"}],"stateMutability":"view"},{"type":"event","name":"OwnershipTransferred","inputs":[{"name":"previousOwner","type":"address","indexed":true,"internalType":"address"},{"name":"newOwner","type":"address","indexed":true,"internalType":"address"}],"anonymous":false},{"type":"event","name":"PositionClosed","inputs":[{"name":"user","type":"address","indexed":true,"internalType":"address"},{"name":"index","type":"uint256","indexed":false,"internalType":"uint256"},{"name":"pnl","type":"uint256","indexed":false,"internalType":"uint256"},{"name":"wasProfit","type":"bool","indexed":false,"internalType":"bool"}],"anonymous":false},{"type":"event","name":"PositionOpened","inputs":[{"name":"user","type":"address","indexed":true,"internalType":"address"},{"name":"index","type":"uint256","indexed":false,"internalType":"uint256"},{"name":"isLong","type":"bool","indexed":false,"internalType":"bool"},{"name":"collateral","type":"uint256","indexed":false,"internalType":"uint256"},{"name":"size","type":"uint256","indexed":false,"internalType":"uint256"},{"name":"entryPrice","type":"uint256","indexed":false,"internalType":"uint256"}],"anonymous":false},{"type":"error","name":"OwnableInvalidOwner","inputs":[{"name":"owner","type":"address","internalType":"address"}]},{"type":"error","name":"OwnableUnauthorizedAccount","inputs":[{"name":"account","type":"address","internalType":"address"}]},{"type":"error","name":"ReentrancyGuardReentrantCall","inputs":[]}],"bytecode":{"object":"0x60c03461014257601f610ff938819003918201601f19168301916001600160401b0383118484101761014657808492606094604052833981010312610142576100478161015a565b9061006060406100596020840161015a565b920161015a565b90331561012f575f8054336001600160a01b0319821681178355604051959290916001600160a01b0316907f8be0079c531659141344cd1fd0a4f28419497f9722a3daafe3b4186f6b6457e09080a360017f9b779b17422d0df92223018b32b4d1fa46e071723d6817e2486d003becc55f008190556001600160a01b0391821660805291811660a05281546001600160a01b0319169216919091179055610e8a908161016f823960805181818160de0152610c74015260a05181818161023e015281816103bd015261086f0152f35b631e4fbdf760e01b5f525f60045260245ffd5b5f80fd5b634e487b7160e01b5f52604160045260245ffd5b51906001600160a01b03821682036101425756fe60806040526004361015610011575f80fd5b5f3560e01c80631558c966146107e45780632a6bc2dd1461069e57806346904840146106765780635e1b4d99146105ef578063715018a6146105985780638da5cb5b146105715780639b45ec9714610556578063a126d6011461028f578063aaf5eb681461026d578063b2016bd414610229578063da6bae1014610207578063e1f1c4a7146101eb578063eaf98d23146101d0578063ec5639fe14610196578063f2fde38b146101115763f98d06f0146100c9575f80fd5b3461010d575f36600319011261010d576040517f00000000000000000000000000000000000000000000000000000000000000006001600160a01b03168152602090f35b5f80fd5b3461010d57602036600319011261010d5761012a610b46565b610132610e0e565b6001600160a01b03168015610183575f80546001600160a01b03198116831782556001600160a01b0316907f8be0079c531659141344cd1fd0a4f28419497f9722a3daafe3b4186f6b6457e09080a3005b631e4fbdf760e01b5f525f60045260245ffd5b3461010d575f36600319011261010d5760206040517f7691ae354ca730a3f5a7e6b72a6b7d5986877960662d558779668581896893688152f35b3461010d575f36600319011261010d576020604051600a8152f35b3461010d575f36600319011261010d5760206040516127108152f35b3461010d575f36600319011261010d576020610221610c31565b604051908152f35b3461010d575f36600319011261010d576040517f00000000000000000000000000000000000000000000000000000000000000006001600160a01b03168152602090f35b3461010d575f36600319011261010d576020604051670de0b6b3a76400008152f35b3461010d57602036600319011261010d576004356102ab610dd6565b335f52600260205260405f205481101561052157335f5260026020526102d48160405f20610b5c565b5060038101805460ff8160081c16156104eb57670de0b6b3a76400006102f8610c31565b60ff8316156104c0576002850154808211156104a5579061032161032792600188015492610bba565b90610b89565b04916001935b8415610484575483810180911161047057915b61ff001916905580610399575b506040519283526020830152151560408201527f5c2d5bd9076d34aec2218d511382bf597bac104271e431cf9473d38180a5a7d260603392a260015f516020610e355f395f51905f5255005b60405163a9059cbb60e01b815233600482015260248101919091526020816044815f7f00000000000000000000000000000000000000000000000000000000000000006001600160a01b03165af1908115610465575f91610436575b5015610401578361034d565b60405162461bcd60e51b815260206004820152600d60248201526c14185e5bdd5d0819985a5b1959609a1b6044820152606490fd5b610458915060203d60201161045e575b6104508183610be3565b810190610c05565b846103f5565b503d610446565b6040513d5f823e3d90fd5b634e487b7160e01b5f52601160045260245ffd5b54838082111561049d5761049791610bba565b91610340565b50505f610497565b6103216104b792600188015492610bba565b04915f9361032d565b600285015490818110156104a557906103216104e192600188015492610bba565b049160019361032d565b60405162461bcd60e51b815260206004820152600e60248201526d105b1c9958591e4818db1bdcd95960921b6044820152606490fd5b60405162461bcd60e51b815260206004820152600d60248201526c092dcecc2d8d2c840d2dcc8caf609b1b6044820152606490fd5b3461010d575f36600319011261010d57602060405160328152f35b3461010d575f36600319011261010d575f546040516001600160a01b039091168152602090f35b3461010d575f36600319011261010d576105b0610e0e565b5f80546001600160a01b0319811682556001600160a01b03167f8be0079c531659141344cd1fd0a4f28419497f9722a3daafe3b4186f6b6457e08280a3005b3461010d57604036600319011261010d57610608610b46565b6001600160a01b03165f9081526002602052604090208054602435919082101561010d5760a09161063891610b5c565b5060ff8154916001810154906003600282015491015491604051948552602085015260408401528181161515606084015260081c1615156080820152f35b3461010d575f36600319011261010d576001546040516001600160a01b039091168152602090f35b3461010d57602036600319011261010d576001600160a01b036106bf610b46565b165f52600260205260405f2080549067ffffffffffffffff82116107d057604051916106f160208260051b0184610be3565b8083526020830180925f5260205f205f915b83831061077d578486604051918291602083019060208452518091526040830191905f5b818110610735575050500390f35b91935091602060a06001926080875180518352848101518584015260408101516040840152606081015115156060840152015115156080820152019401910191849392610727565b6004602060019260405161079081610bc7565b8554815284860154838201526002860154604082015260ff60038701548181161515606084015260081c1615156080820152815201920192019190610703565b634e487b7160e01b5f52604160045260245ffd5b3461010d57606036600319011261010d576004356024356044359182151580930361010d57610811610dd6565b600182101580610b3b575b15610b0357600a8102818104600a14821517156104705761271061084291048092610bba565b6040516323b872dd60e01b8152336004820152306024820152604481018290529091906001600160a01b037f000000000000000000000000000000000000000000000000000000000000000016906020816064815f865af1908115610465575f91610ae4575b5015610aab576001546040516323b872dd60e01b81523360048201526001600160a01b0390911660248201526044810192909252602090829060649082905f905af1908115610465575f91610a8c575b5015610a5a57610910610909610c31565b9282610b89565b670de0b6b3a7640000810290808204670de0b6b3a76400001490151715610470578261093b91610b9c565b90335f52600260205260405f206040519061095582610bc7565b8282526020820191848352604081019286845260608201938885526080830193600185528054680100000000000000008110156107d05761099b91600182018155610b5c565b929092610a4757600393518355516001830155516002820155019151151560ff8019845416911617825551151561ff0082549160081b169061ff001916179055335f52600260205260405f2054935f1985019485116104705760405194855260208501526040840152606083015260808201527f5cf8fa4a8e333990018876ad3a82065e68b3859d46c3198b692b77fc3043808b60a03392a260015f516020610e355f395f51905f5255005b634e487b7160e01b5f525f60045260245ffd5b60405162461bcd60e51b815260206004820152600a6024820152691199594819985a5b195960b21b6044820152606490fd5b610aa5915060203d60201161045e576104508183610be3565b846108f8565b60405162461bcd60e51b815260206004820152601160248201527010dbdb1b185d195c985b0819985a5b1959607a1b6044820152606490fd5b610afd915060203d60201161045e576104508183610be3565b866108a8565b60405162461bcd60e51b815260206004820152601060248201526f496e76616c6964206c6576657261676560801b6044820152606490fd5b50603282111561081c565b600435906001600160a01b038216820361010d57565b8054821015610b75575f5260205f209060021b01905f90565b634e487b7160e01b5f52603260045260245ffd5b8181029291811591840414171561047057565b8115610ba6570490565b634e487b7160e01b5f52601260045260245ffd5b9190820391821161047057565b60a0810190811067ffffffffffffffff8211176107d057604052565b90601f8019910116810190811067ffffffffffffffff8211176107d057604052565b9081602091031261010d5751801515810361010d5790565b63ffffffff16604d811161047057600a0a90565b60405163052571af60e51b81527f7691ae354ca730a3f5a7e6b72a6b7d5986877960662d558779668581896893686004820152610e1060248201526080816044817f00000000000000000000000000000000000000000000000000000000000000006001600160a01b03165afa908115610465575f91610d3f575b50604067ffffffffffffffff825116910180515f8160030b125f14610d1057505160030b637fffffff19811461047057610ced905f0363ffffffff16610c1d565b620f4240820291808304620f4240149015171561047057610d0d91610b9c565b90565b610d259291506103219063ffffffff16610c1d565b620f4240810290808204620f424014901517156104705790565b90506080813d608011610dce575b81610d5a60809383610be3565b8101031261010d57604051906080820182811067ffffffffffffffff8211176107d05760405280518060070b810361010d578252602081015167ffffffffffffffff8116810361010d5760208301526040810151908160030b820361010d576060916040840152015160608201525f610cac565b3d9150610d4d565b60025f516020610e355f395f51905f525414610dff5760025f516020610e355f395f51905f5255565b633ee5aeb560e01b5f5260045ffd5b5f546001600160a01b03163303610e2157565b63118cdaa760e01b5f523360045260245ffdfe9b779b17422d0df92223018b32b4d1fa46e071723d6817e2486d003becc55f00a264697066735822122056a0460e1b1d8151d5c19b331f21c4e06eba3599747c70f2883acb271b38c67a64736f6c63430008220033","linkReferences":{}},"methodIdentifiers":{"BASIS_POINTS()":"e1f1c4a7","FEE_PERCENT()":"eaf98d23","MAX_LEVERAGE()":"9b45ec97","PRECISION()":"aaf5eb68","XAU_USD_FEED()":"ec5639fe","closePosition(uint256)":"a126d601","collateralToken()":"b2016bd4","feeRecipient()":"46904840","getGoldPrice()":"da6bae10","getUserPositions(address)":"2a6bc2dd","openPosition(uint256,uint256,bool)":"1558c966","owner()":"8da5cb5b","pyth()":"f98d06f0","renounceOwnership()":"715018a6","transferOwnership(address)":"f2fde38b","userPositions(address,uint256)":"5e1b4d99"},"id":2}