{"abi":[{"type":"constructor","inputs":[{"name":"_collateral","type":"address","internalType":"address"},{"name":"_fee","type":"address","internalType":"address"}],"stateMutability":"nonpayable"},{"type":"receive","stateMutability":"payable"},{"type":"function","name":"announceMigration","inputs":[{"name":"bridge","type":"address","internalType":"address"}],"outputs":[],"stateMutability":"nonpayable"},{"type":"function","name":"cancelMigration","inputs":[],"outputs":[],"stateMutability":"nonpayable"},{"type":"function","name":"collateralToken","inputs":[],"outputs":[{"name":"","type":"address","internalType":"address"}],"stateMutability":"view"},{"type":"function","name":"feeRecipient","inputs":[],"outputs":[{"name":"","type":"address","internalType":"address"}],"stateMutability":"view"},{"type":"function","name":"getAll","inputs":[],"outputs":[{"name":"","type":"tuple[]","internalType":"struct TokenFactory.TokenInfo[]","components":[{"name":"token","type":"address","internalType":"address"},{"name":"curve","type":"address","internalType":"address"},{"name":"creator","type":"address","internalType":"address"},{"name":"createdAt","type":"uint256","internalType":"uint256"}]}],"stateMutability":"view"},{"type":"function","name":"getToken","inputs":[{"name":"i","type":"uint256","internalType":"uint256"}],"outputs":[{"name":"","type":"tuple","internalType":"struct TokenFactory.TokenInfo","components":[{"name":"token","type":"address","internalType":"address"},{"name":"curve","type":"address","internalType":"address"},{"name":"creator","type":"address","internalType":"address"},{"name":"createdAt","type":"uint256","internalType":"uint256"}]}],"stateMutability":"view"},{"type":"function","name":"l1ChainBridge","inputs":[],"outputs":[{"name":"","type":"address","internalType":"address"}],"stateMutability":"view"},{"type":"function","name":"launchFeeNative","inputs":[],"outputs":[{"name":"","type":"uint256","internalType":"uint256"}],"stateMutability":"view"},{"type":"function","name":"launchToken","inputs":[{"name":"name","type":"string","internalType":"string"},{"name":"symbol","type":"string","internalType":"string"},{"name":"description","type":"string","internalType":"string"},{"name":"imageUrl","type":"string","internalType":"string"}],"outputs":[{"name":"tokenAddr","type":"address","internalType":"address"},{"name":"curveAddr","type":"address","internalType":"address"}],"stateMutability":"payable"},{"type":"function","name":"migrationAt","inputs":[],"outputs":[{"name":"","type":"uint256","internalType":"uint256"}],"stateMutability":"view"},{"type":"function","name":"migrationPending","inputs":[],"outputs":[{"name":"","type":"bool","internalType":"bool"}],"stateMutability":"view"},{"type":"function","name":"owner","inputs":[],"outputs":[{"name":"","type":"address","internalType":"address"}],"stateMutability":"view"},{"type":"function","name":"renounceOwnership","inputs":[],"outputs":[],"stateMutability":"nonpayable"},{"type":"function","name":"setFeeRecipient","inputs":[{"name":"f","type":"address","internalType":"address"}],"outputs":[],"stateMutability":"nonpayable"},{"type":"function","name":"setLaunchFee","inputs":[{"name":"fee","type":"uint256","internalType":"uint256"}],"outputs":[],"stateMutability":"nonpayable"},{"type":"function","name":"tokenToCurve","inputs":[{"name":"","type":"address","internalType":"address"}],"outputs":[{"name":"","type":"address","internalType":"address"}],"stateMutability":"view"},{"type":"function","name":"tokens","inputs":[{"name":"","type":"uint256","internalType":"uint256"}],"outputs":[{"name":"token","type":"address","internalType":"address"},{"name":"curve","type":"address","internalType":"address"},{"name":"creator","type":"address","internalType":"address"},{"name":"createdAt","type":"uint256","internalType":"uint256"}],"stateMutability":"view"},{"type":"function","name":"totalLaunched","inputs":[],"outputs":[{"name":"","type":"uint256","internalType":"uint256"}],"stateMutability":"view"},{"type":"function","name":"transferOwnership","inputs":[{"name":"newOwner","type":"address","internalType":"address"}],"outputs":[],"stateMutability":"nonpayable"},{"type":"event","name":"MigrationAnnounced","inputs":[{"name":"bridge","type":"address","indexed":false,"internalType":"address"},{"name":"at","type":"uint256","indexed":false,"internalType":"uint256"}],"anonymous":false},{"type":"event","name":"OwnershipTransferred","inputs":[{"name":"previousOwner","type":"address","indexed":true,"internalType":"address"},{"name":"newOwner","type":"address","indexed":true,"internalType":"address"}],"anonymous":false},{"type":"event","name":"TokenLaunched","inputs":[{"name":"creator","type":"address","indexed":true,"internalType":"address"},{"name":"token","type":"address","indexed":false,"internalType":"address"},{"name":"curve","type":"address","indexed":false,"internalType":"address"},{"name":"name","type":"string","indexed":false,"internalType":"string"},{"name":"symbol","type":"string","indexed":false,"internalType":"string"}],"anonymous":false},{"type":"error","name":"OwnableInvalidOwner","inputs":[{"name":"owner","type":"address","internalType":"address"}]},{"type":"error","name":"OwnableUnauthorizedAccount","inputs":[{"name":"account","type":"address","internalType":"address"}]},{"type":"error","name":"ReentrancyGuardReentrantCall","inputs":[]}],"bytecode":{"object":"0x6080604052346100305761001a610014610104565b906101fb565b610022610035565b615afa6104618239615afa90f35b61003b565b60405190565b5f80fd5b601f801991011690565b634e487b7160e01b5f52604160045260245ffd5b906100679061003f565b810190811060018060401b0382111761007f57604052565b610049565b90610097610090610035565b928361005d565b565b5f80fd5b60018060a01b031690565b6100b19061009d565b90565b6100bd816100a8565b036100c457565b5f80fd5b905051906100d5826100b4565b565b91906040838203126100ff57806100f36100fc925f86016100c8565b936020016100c8565b90565b610099565b610122615f5b8038038061011781610084565b9283398101906100d7565b9091565b5f1b90565b906101375f1991610126565b9181191691161790565b90565b90565b90565b61015e61015961016392610141565b610147565b610144565b90565b90565b9061017e6101796101859261014a565b610166565b825461012b565b9055565b9061019a60018060a01b0391610126565b9181191691161790565b6101b86101b36101bd9261009d565b610147565b61009d565b90565b6101c9906101a4565b90565b6101d5906101c0565b90565b90565b906101f06101eb6101f7926101cc565b6101d8565b8254610189565b9055565b9061022561022c9261020c33610296565b61021e662386f26fc100006003610169565b60016101db565b60026101db565b565b90565b61024561024061024a9261022e565b610147565b610144565b90565b6102576001610231565b90565b61026e61026961027392610144565b610147565b610144565b90565b9061028b6102866102929261025a565b610166565b825461012b565b9055565b61029f90610310565b6102c16102aa61024d565b5f6102bb6102b66103b4565b6103c8565b01610276565b565b90565b6102da6102d56102df926102c3565b610147565b61009d565b90565b6102eb906102c6565b90565b6102f7906100a8565b9052565b919061030e905f602085019401906102ee565b565b8061032b6103256103205f6102e2565b6100a8565b916100a8565b1461033b5761033990610401565b565b61035e6103475f6102e2565b5f918291631e4fbdf760e01b8352600483016102fb565b0390fd5b5f90565b90565b90565b61038061037b61038592610366565b610126565b610369565b90565b6103b17f9b779b17422d0df92223018b32b4d1fa46e071723d6817e2486d003becc55f0061036c565b90565b6103bc610362565b506103c5610388565b90565b90565b5f1c90565b60018060a01b031690565b6103e76103ec916103cb565b6103d0565b90565b6103f990546103db565b90565b5f0190565b61040a5f6103ef565b610414825f6101db565b906104486104427f8be0079c531659141344cd1fd0a4f28419497f9722a3daafe3b4186f6b6457e0936101cc565b916101cc565b91610451610035565b8061045b816103fc565b0390a356fe60806040526004361015610015575b36610b5557005b61001f5f3561014e565b80630c74fbac1461014957806310639ea014610144578063141b52c91461013f578063433293721461013a57806346904840146101355780634c035870146101305780634f64b2be1461012b5780635313be2c1461012657806353ed5143146101215780635b00a2651461011c5780635fc6762c14610117578063715018a61461011257806388b17a9a1461010d5780638da5cb5b14610108578063b2016bd414610103578063b7b25887146100fe578063e4b50cb8146100f9578063e74b981b146100f45763f2fde38b0361000e57610b22565b610aef565b610aba565b610a28565b6109e4565b6109a0565b61096b565b610928565b6108f2565b6107a0565b61075c565b610635565b6105fc565b610462565b6103d0565b61038c565b6102f7565b6102c4565b61027b565b60e01c90565b60405190565b5f80fd5b5f80fd5b5f80fd5b60018060a01b031690565b61017a90610166565b90565b61018681610171565b0361018d57565b5f80fd5b9050359061019e8261017d565b565b906020828203126101b9576101b6915f01610191565b90565b61015e565b90565b6101d56101d06101da92610166565b6101be565b610166565b90565b6101e6906101c1565b90565b6101f2906101dd565b90565b906101ff906101e9565b5f5260205260405f2090565b1c90565b60018060a01b031690565b61022a90600861022f930261020b565b61020f565b90565b9061023d915461021a565b90565b610256906102516008915f926101f5565b610232565b90565b61026290610171565b9052565b9190610279905f60208501940190610259565b565b346102ab576102a76102966102913660046101a0565b610240565b61029e610154565b91829182610266565b0390f35b61015a565b5f9103126102ba57565b61015e565b5f0190565b346102f2576102d43660046102b0565b6102dc610cca565b6102e4610154565b806102ee816102bf565b0390f35b61015a565b346103255761030f61030a3660046101a0565b610dde565b610317610154565b80610321816102bf565b0390f35b61015a565b60ff1690565b610340906008610345930261020b565b61032a565b90565b906103539154610330565b90565b61036260055f90610348565b90565b151590565b61037390610365565b9052565b919061038a905f6020850194019061036a565b565b346103bc5761039c3660046102b0565b6103b86103a7610356565b6103af610154565b91829182610377565b0390f35b61015a565b6103cd60025f90610232565b90565b34610400576103e03660046102b0565b6103fc6103eb6103c1565b6103f3610154565b91829182610266565b0390f35b61015a565b90565b61041890600861041d930261020b565b610405565b90565b9061042b9154610408565b90565b61043a60045f90610420565b90565b90565b6104499061043d565b9052565b9190610460905f60208501940190610440565b565b34610492576104723660046102b0565b61048e61047d61042e565b610485610154565b9182918261044d565b0390f35b61015a565b6104a08161043d565b036104a757565b5f80fd5b905035906104b882610497565b565b906020828203126104d3576104d0915f016104ab565b90565b61015e565b634e487b7160e01b5f52603260045260245ffd5b5490565b5f5260205f2090565b610502816104ec565b82101561051c576105146004916104f0565b910201905f90565b6104d8565b5f1c90565b61053261053791610521565b61020f565b90565b6105449054610526565b90565b61055361055891610521565b610405565b90565b6105659054610547565b90565b600790610574826104ec565b8110156105ba57610584916104f9565b50906105915f830161053a565b9161059e6001820161053a565b916105b760036105b06002850161053a565b930161055b565b90565b5f80fd5b6105f36105fa946105e96060949897956105df608086019a5f870190610259565b6020850190610259565b6040830190610259565b0190610440565b565b346106305761062c6106176106123660046104ba565b610568565b90610623949294610154565b948594856105be565b0390f35b61015a565b346106635761064d6106483660046104ba565b610e09565b610655610154565b8061065f816102bf565b0390f35b61015a565b5190565b60209181520190565b60200190565b61068490610171565b9052565b6106919061043d565b9052565b906060806106db936106ad5f8201515f86019061067b565b6106bf6020820151602086019061067b565b6106d16040820151604086019061067b565b0151910190610688565b565b906106ea81608093610695565b0190565b60200190565b9061071161070b61070484610668565b809361066c565b92610675565b905f5b8181106107215750505090565b90919261073a61073460019286516106dd565b946106ee565b9101919091610714565b6107599160208201915f8184039101526106f4565b90565b3461078c5761076c3660046102b0565b610788610777610fa2565b61077f610154565b91829182610744565b0390f35b61015a565b61079d60035f90610420565b90565b346107d0576107b03660046102b0565b6107cc6107bb610791565b6107c3610154565b9182918261044d565b0390f35b61015a565b5f80fd5b5f80fd5b5f80fd5b909182601f8301121561081b5781359167ffffffffffffffff831161081657602001926001830284011161081157565b6107dd565b6107d9565b6107d5565b90916080828403126108ca575f82013567ffffffffffffffff81116108c5578361084b9184016107e1565b929093602082013567ffffffffffffffff81116108c0578161086e9184016107e1565b929093604082013567ffffffffffffffff81116108bb57836108919184016107e1565b929093606082013567ffffffffffffffff81116108b6576108b292016107e1565b9091565b610162565b610162565b610162565b610162565b61015e565b9160206108f09294936108e960408201965f830190610259565b0190610259565b565b61090f610900366004610820565b96959095949194939293611937565b9061092461091b610154565b928392836108cf565b0390f35b34610956576109383660046102b0565b610940611981565b610948610154565b80610952816102bf565b0390f35b61015a565b6109686005600190610232565b90565b3461099b5761097b3660046102b0565b61099761098661095b565b61098e610154565b91829182610266565b0390f35b61015a565b346109d0576109b03660046102b0565b6109cc6109bb61198b565b6109c3610154565b91829182610266565b0390f35b61015a565b6109e160015f90610232565b90565b34610a14576109f43660046102b0565b610a106109ff6109d5565b610a07610154565b91829182610266565b0390f35b61015a565b610a2560065f90610420565b90565b34610a5857610a383660046102b0565b610a54610a43610a19565b610a4b610154565b9182918261044d565b0390f35b61015a565b90606080610aa393610a755f8201515f86019061067b565b610a876020820151602086019061067b565b610a996040820151604086019061067b565b0151910190610688565b565b9190610ab8905f60808501940190610a5d565b565b34610aea57610ae6610ad5610ad03660046104ba565b6119f1565b610add610154565b91829182610aa5565b0390f35b61015a565b34610b1d57610b07610b023660046101a0565b611a31565b610b0f610154565b80610b19816102bf565b0390f35b61015a565b34610b5057610b3a610b353660046101a0565b611aa1565b610b42610154565b80610b4c816102bf565b0390f35b61015a565b5f80fd5b610b61611aac565b610b69610c97565b565b5f1b90565b90610b7c60ff91610b6b565b9181191691161790565b610b8f90610365565b90565b90565b90610baa610ba5610bb192610b86565b610b92565b8254610b70565b9055565b90565b610bcc610bc7610bd192610bb5565b6101be565b610166565b90565b610bdd90610bb8565b90565b60081b90565b90610bf9610100600160a81b0391610be0565b9181191691161790565b90565b90610c1b610c16610c22926101e9565b610c03565b8254610be6565b9055565b610c3a610c35610c3f92610bb5565b6101be565b61043d565b90565b90610c4e5f1991610b6b565b9181191691161790565b610c6c610c67610c719261043d565b6101be565b61043d565b90565b90565b90610c8c610c87610c9392610c58565b610c74565b8254610c42565b9055565b610ca25f6005610b95565b610cb5610cae5f610bd4565b6005610c06565b610cc8610cc15f610c26565b6006610c77565b565b610cd2610b59565b565b610ce590610ce0611aac565b610d62565b565b90565b610cfe610cf9610d0392610ce7565b6101be565b61043d565b90565b634e487b7160e01b5f52601160045260245ffd5b610d29610d2f9193929361043d565b9261043d565b8201809211610d3a57565b610d06565b916020610d60929493610d5960408201965f830190610259565b0190610440565b565b610d6e60016005610b95565b610d79816005610c06565b610d99610d9242610d8c62093a80610cea565b90610d1a565b6006610c77565b610da3600661055b565b7f1889f50b797805f624c88af34f2aed22126e927573dc6ef0e005a4aa5156928291610dd9610dd0610154565b92839283610d3f565b0390a1565b610de790610cd4565b565b610dfa90610df5611aac565b610dfc565b565b610e07906003610c77565b565b610e1290610de9565b565b606090565b601f801991011690565b634e487b7160e01b5f52604160045260245ffd5b90610e4190610e19565b810190811067ffffffffffffffff821117610e5b57604052565b610e23565b90610e73610e6c610154565b9283610e37565b565b67ffffffffffffffff8111610e8d5760208091020190565b610e23565b90610ea4610e9f83610e75565b610e60565b918252565b90610eb390610171565b9052565b90610ec19061043d565b9052565b610ecf6080610e60565b90565b90610f39610f306003610ee3610ec5565b94610efa610ef25f830161053a565b5f8801610ea9565b610f12610f096001830161053a565b60208801610ea9565b610f2a610f216002830161053a565b60408801610ea9565b0161055b565b60608401610eb7565b565b610f4490610ed2565b90565b90610f51826104ec565b610f5a81610e92565b92610f6860208501916104f0565b5f915b838310610f785750505050565b60046020600192610f8885610f3b565b815201920192019190610f6b565b610f9f90610f47565b90565b610faa610e14565b50610fb56007610f96565b90565b5f90565b90610fd6999897969594939291610fd1611b26565b611582565b9091610fe0611b5f565b565b60209181520190565b5f7f496e73756666696369656e74206c61756e636820666565000000000000000000910152565b61101f6017602092610fe2565b61102881610feb565b0190565b6110419060208101905f818303910152611012565b90565b1561104b57565b611053610154565b62461bcd60e51b8152806110696004820161102c565b0390fd5b61107961107e91610521565b61032a565b90565b61108b905461106d565b90565b5f7f4d6967726174696f6e20696e2070726f67726573730000000000000000000000910152565b6110c26015602092610fe2565b6110cb8161108e565b0190565b6110e49060208101905f8183039101526110b5565b90565b156110ee57565b6110f6610154565b62461bcd60e51b81528061110c600482016110cf565b0390fd5b91565b5090565b5f7f5265717569726564000000000000000000000000000000000000000000000000910152565b61114b6008602092610fe2565b61115481611117565b0190565b61116d9060208101905f81830391015261113e565b90565b1561117757565b61117f610154565b62461bcd60e51b81528061119560048201611158565b0390fd5b90825f939282370152565b91906111be816111b7816111c395610fe2565b8095611199565b610e19565b0190565b99989693956112038b6080986112279b966111f561121f9a966112119860a08601918683035f8801526111a4565b9260208185039101526111a4565b918b830360408d01526111a4565b9188830360608a01526111a4565b940190610259565b565b611231610154565b3d5f823e3d90fd5b611242906101dd565b90565b61124e906101dd565b90565b61128661128d9461127c606094989795611272608086019a5f870190610259565b6020850190610259565b6040830190610259565b0190610259565b565b611298906101dd565b90565b5f80fd5b60e01b90565b5f9103126112af57565b61015e565b90565b6112c16080610e60565b90565b5f5260205f2090565b5490565b6112da816112cd565b8210156112f4576112ec6004916112c4565b910201905f90565b6104d8565b634e487b7160e01b5f525f60045260245ffd5b6113169051610171565b90565b9061132a60018060a01b0391610b6b565b9181191691161790565b90611349611344611350926101e9565b610c03565b8254611319565b9055565b61135e905161043d565b90565b906113be606060036113c4946113845f820161137e5f880161130c565b90611334565b61139d600182016113976020880161130c565b90611334565b6113b6600282016113b06040880161130c565b90611334565b019201611354565b90610c77565b565b91906113d7576113d591611361565b565b6112f9565b908154916801000000000000000083101561140c578261140491600161140a950181556112d1565b906113c6565b565b610e23565b90565b61142861142361142d92611411565b6101be565b61043d565b90565b905090565b6114405f8092611430565b0190565b61144d90611435565b90565b67ffffffffffffffff811161146e5761146a602091610e19565b0190565b610e23565b9061148561148083611450565b610e60565b918252565b606090565b3d5f146114aa5761149f3d611473565b903d5f602084013e5b565b6114b261148a565b906114a8565b5f7f4665652073656e64206661696c65640000000000000000000000000000000000910152565b6114ec600f602092610fe2565b6114f5816114b8565b0190565b61150e9060208101905f8183039101526114df565b90565b1561151857565b611520610154565b62461bcd60e51b815280611536600482016114f9565b0390fd5b94929361157f96946115646115719461155a60808a01955f8b0190610259565b6020890190610259565b86830360408801526111a4565b9260608185039101526111a4565b90565b9997949892969395919950506115b4346115ad6115a76115a2600361055b565b61043d565b9161043d565b1015611044565b6115cf6115ca6115c46005611081565b15610365565b6110e7565b6115e36115dd8a8890611110565b90611113565b6115f56115ef5f610c26565b9161043d565b1180611905575b61160590611170565b8892869286958a9392909192339461161b610154565b98611be68a01978a891067ffffffffffffffff8a1117611900578a9961164899611be6611cc78d396111c7565b03905ff080156118fb579461165c86611239565b611666600161053a565b90611671600261053a565b9161167b30611245565b611683610154565b9361221885019285841067ffffffffffffffff8511176118f65785946116b0946122186138ad8839611251565b03905ff080156118f157956116c481611239565b6348dc9d2b6116d28961128f565b823b156118ec57611702926116f75f80946116eb610154565b9687958694859361129f565b835260048301610266565b03925af180156118e7576118bb575b5061171b81611239565b9063f2fde38b33833b156118b657611752936117475f809461173b610154565b9788958694859361129f565b835260048301610266565b03925af19081156118b1576117769261177092611885575b50611239565b9661128f565b946117c761178460076112b4565b88906117c2896117b9336117b042936117a761179e6112b7565b985f8a01610ea9565b60208801610ea9565b60408601610ea9565b60608401610eb7565b6113dc565b6117dc866117d760088a906101f5565b611334565b6118026117fb6117ec6001611414565b6117f6600461055b565b610d1a565b6004610c77565b6118375f80611811600261053a565b3461181a610154565b908161182581611444565b03925af161183161148f565b50611511565b6118803393889288949691909161186e7f9277cc3ef9629b593ee8ef4bdb436b3c8e36a61c7ea5aac59bb06d816a535d13976101e9565b97611877610154565b9687968761153a565b0390a2565b6118a4905f3d81116118aa575b61189c8183610e37565b8101906112a5565b5f61176a565b503d611892565b611229565b61129b565b6118da905f3d81116118e0575b6118d28183610e37565b8101906112a5565b5f611711565b503d6118c8565b611229565b61129b565b611229565b610e23565b611229565b610e23565b5061160561191d611917878b90611110565b90611113565b61192f6119295f610c26565b9161043d565b1190506115fc565b906119589796959493929161194a610fb8565b611952610fb8565b90610fbc565b9091565b611964611aac565b61196c61196e565b565b61197f61197a5f610bd4565b611b83565b565b61198961195c565b565b611993610fb8565b5061199d5f61053a565b90565b5f90565b5f90565b6119b0610ec5565b906020808080856119bf6119a0565b8152016119ca6119a0565b8152016119d56119a0565b8152016119e06119a4565b81525050565b6119ee6119a8565b90565b611a08611a0e91611a006119e6565b5060076104f9565b50610f3b565b90565b611a2290611a1d611aac565b611a24565b565b611a2f906002611334565b565b611a3a90611a11565b565b611a4d90611a48611aac565b611a4f565b565b80611a6a611a64611a5f5f610bd4565b610171565b91610171565b14611a7a57611a7890611b83565b565b611a9d611a865f610bd4565b5f918291631e4fbdf760e01b835260048301610266565b0390fd5b611aaa90611a3c565b565b611ab461198b565b611acd611ac7611ac2611be2565b610171565b91610171565b03611ad457565b611af6611adf611be2565b5f91829163118cdaa760e01b835260048301610266565b0390fd5b90565b611b11611b0c611b1692611afa565b6101be565b61043d565b90565b611b236002611afd565b90565b611b2e611bef565b611b50611b39611b19565b5f611b4a611b45611c6b565b611c7f565b01610c77565b565b611b5c6001611414565b90565b611b81611b6a611b52565b5f611b7b611b76611c6b565b611c7f565b01610c77565b565b611b8c5f61053a565b611b96825f611334565b90611bca611bc47f8be0079c531659141344cd1fd0a4f28419497f9722a3daafe3b4186f6b6457e0936101e9565b916101e9565b91611bd3610154565b80611bdd816102bf565b0390a3565b611bea610fb8565b503390565b611bf7611c86565b611bfd57565b5f633ee5aeb560e01b815280611c15600482016102bf565b0390fd5b5f90565b90565b90565b611c37611c32611c3c92611c1d565b610b6b565b611c20565b90565b611c687f9b779b17422d0df92223018b32b4d1fa46e071723d6817e2486d003becc55f00611c23565b90565b611c73611c19565b50611c7c611c3f565b90565b90565b5f90565b611c8e611c82565b50611ca95f611ca3611c9e611c6b565b611c7f565b0161055b565b611cc2611cbc611cb7611b19565b61043d565b9161043d565b149056fe6080604052346100335761001d61001461021a565b939290926104dd565b610025610038565b61150e6106d8823961150e90f35b61003e565b60405190565b5f80fd5b601f801991011690565b634e487b7160e01b5f52604160045260245ffd5b9061006a90610042565b810190811060018060401b0382111761008257604052565b61004c565b9061009a610093610038565b9283610060565b565b5f80fd5b5f80fd5b5f80fd5b5f80fd5b60018060401b0381116100c8576100c4602091610042565b0190565b61004c565b90825f9392825e0152565b909291926100ed6100e8826100ac565b610087565b9381855260208501908284011161010957610107926100cd565b565b6100a8565b9080601f8301121561012c57816020610129935191016100d8565b90565b6100a4565b60018060a01b031690565b61014590610131565b90565b6101518161013c565b0361015857565b5f80fd5b9050519061016982610148565b565b919060a083820312610215575f83015160018060401b038111610210578161019491850161010e565b92602081015160018060401b03811161020b57826101b391830161010e565b92604082015160018060401b03811161020657836101d291840161010e565b9260608301519060018060401b038211610201576101f5816101fe93860161010e565b9360800161015c565b90565b6100a0565b6100a0565b6100a0565b6100a0565b61009c565b610238611be68038038061022d81610087565b92833981019061016b565b9091929394565b5190565b634e487b7160e01b5f52602260045260245ffd5b9060016002830492168015610277575b602083101461027257565b610243565b91607f1691610267565b5f5260205f2090565b601f602091010490565b1b90565b919060086102b39102916102ad5f1984610294565b92610294565b9181191691161790565b90565b90565b6102d76102d26102dc926102bd565b6102c0565b6102bd565b90565b90565b91906102f86102f3610300936102c3565b6102df565b908354610298565b9055565b5f90565b61031a91610314610304565b916102e2565b565b5f5b82811061032a57505050565b806103395f6001938501610308565b0161031e565b9190601f811161034f575b505050565b81811161035c575b61034a565b61037161036b61038f94610281565b9161028a565b91602061037d8261028a565b9110610397575b80910191039061031c565b5f8080610357565b505f610384565b1c90565b906103b2905f199060080261039e565b191690565b816103c1916103a2565b906002021790565b906103d38161023f565b9060018060401b038211610491576103f5826103ef8554610257565b8561033f565b602090601f831160011461042957918091610418935f9261041d575b50506103b7565b90555b565b90915001515f80610411565b601f1983169161043885610281565b925f5b8181106104795750916002939185600196941061045f575b5050500201905561041b565b61046f910151601f8416906103a2565b90555f8080610453565b9193602060018192878701518155019501920161043b565b61004c565b906104a0916103c9565b565b5f1b90565b906104b35f19916104a2565b9181191691161790565b906104d26104cd6104d9926102c3565b6102df565b82546104a7565b9055565b6104f2906104f993926105009691909161055a565b6007610496565b6008610496565b61050b4260096104bd565b565b90565b61052461051f6105299261050d565b6102c0565b610131565b90565b61053590610510565b90565b6105419061013c565b9052565b9190610558905f60208501940190610538565b565b91610564916105b6565b8061057f6105796105745f61052c565b61013c565b9161013c565b1461058f5761058d90610676565b565b6105b261059b5f61052c565b5f918291631e4fbdf760e01b835260048301610545565b0390fd5b906105c56105cc926003610496565b6004610496565b565b5f1c90565b60018060a01b031690565b6105ea6105ef916105ce565b6105d3565b90565b6105fc90546105de565b90565b9061061060018060a01b03916104a2565b9181191691161790565b61062e61062961063392610131565b6102c0565b610131565b90565b61063f9061061a565b90565b61064b90610636565b90565b90565b9061066661066161066d92610642565b61064e565b82546105ff565b9055565b5f0190565b61068060056105f2565b61068b826005610651565b906106bf6106b97f8be0079c531659141344cd1fd0a4f28419497f9722a3daafe3b4186f6b6457e093610642565b91610642565b916106c8610038565b806106d281610671565b0390a356fe60806040526004361015610013575b61097c565b61001d5f3561014c565b806306fdde0314610147578063095ea7b31461014257806318160ddd1461013d57806323b872dd14610138578063313ce5671461013357806340c10f191461012e57806348dc9d2b1461012957806370a0823114610124578063715018a61461011f5780637165485d1461011a5780637284e416146101155780638da5cb5b1461011057806395d89b411461010b5780639dc29fac14610106578063a9059cbb14610101578063aba83150146100fc578063cf09e0d0146100f7578063dd62ed3e146100f25763f2fde38b0361000e57610949565b610913565b6108b1565b610844565b6107ff565b6107cb565b610796565b610761565b61072c565b610575565b6104dc565b6104a7565b610474565b610422565b6103e8565b61038a565b61031b565b6102c3565b6101da565b60e01c90565b60405190565b5f80fd5b5f80fd5b5f91031261016a57565b61015c565b5190565b60209181520190565b90825f9392825e0152565b601f801991011690565b6101b06101b96020936101be936101a78161016f565b93848093610173565b9586910161017c565b610187565b0190565b6101d79160208201915f818403910152610191565b90565b3461020a576101ea366004610160565b6102066101f5610991565b6101fd610152565b918291826101c2565b0390f35b610158565b60018060a01b031690565b6102239061020f565b90565b61022f8161021a565b0361023657565b5f80fd5b9050359061024782610226565b565b90565b61025581610249565b0361025c57565b5f80fd5b9050359061026d8261024c565b565b9190604083820312610297578061028b610294925f860161023a565b93602001610260565b90565b61015c565b151590565b6102aa9061029c565b9052565b91906102c1905f602085019401906102a1565b565b346102f4576102f06102df6102d936600461026f565b906109ab565b6102e7610152565b918291826102ae565b0390f35b610158565b61030290610249565b9052565b9190610319905f602085019401906102f9565b565b3461034b5761032b366004610160565b6103476103366109f7565b61033e610152565b91829182610306565b0390f35b610158565b90916060828403126103855761038261036b845f850161023a565b93610379816020860161023a565b93604001610260565b90565b61015c565b346103bb576103b76103a66103a0366004610350565b91610a0d565b6103ae610152565b918291826102ae565b0390f35b610158565b60ff1690565b6103cf906103c0565b9052565b91906103e6905f602085019401906103c6565b565b34610418576103f8366004610160565b610414610403610a62565b61040b610152565b918291826103d3565b0390f35b610158565b5f0190565b346104515761043b61043536600461026f565b90610b58565b610443610152565b8061044d8161041d565b0390f35b610158565b9060208282031261046f5761046c915f0161023a565b90565b61015c565b346104a25761048c610487366004610456565b610d15565b610494610152565b8061049e8161041d565b0390f35b610158565b346104d7576104d36104c26104bd366004610456565b610d36565b6104ca610152565b91829182610306565b0390f35b610158565b3461050a576104ec366004610160565b6104f4610d79565b6104fc610152565b806105068161041d565b0390f35b610158565b1c90565b60018060a01b031690565b61052e906008610533930261050f565b610513565b90565b90610541915461051e565b90565b61055060065f90610536565b90565b61055c9061021a565b9052565b9190610573905f60208501940190610553565b565b346105a557610585366004610160565b6105a1610590610544565b610598610152565b91829182610560565b0390f35b610158565b634e487b7160e01b5f525f60045260245ffd5b634e487b7160e01b5f52602260045260245ffd5b90600160028304921680156105f1575b60208310146105ec57565b6105bd565b91607f16916105e1565b60209181520190565b5f5260205f2090565b905f9291805490610627610620836105d1565b80946105fb565b916001811690815f1461067e5750600114610642575b505050565b61064f9192939450610604565b915f925b81841061066657505001905f808061063d565b60018160209295939554848601520191019290610653565b92949550505060ff19168252151560200201905f808061063d565b906106a39161060d565b90565b634e487b7160e01b5f52604160045260245ffd5b906106c490610187565b810190811067ffffffffffffffff8211176106de57604052565b6106a6565b906107036106fc926106f3610152565b93848092610699565b03836106ba565b565b905f1061071857610715906106e3565b90565b6105aa565b61072960075f90610705565b90565b3461075c5761073c366004610160565b61075861074761071d565b61074f610152565b918291826101c2565b0390f35b610158565b3461079157610771366004610160565b61078d61077c610d87565b610784610152565b91829182610560565b0390f35b610158565b346107c6576107a6366004610160565b6107c26107b1610d9d565b6107b9610152565b918291826101c2565b0390f35b610158565b346107fa576107e46107de36600461026f565b90610df0565b6107ec610152565b806107f68161041d565b0390f35b610158565b346108305761082c61081b61081536600461026f565b90610dfc565b610823610152565b918291826102ae565b0390f35b610158565b61084160085f90610705565b90565b3461087457610854366004610160565b61087061085f610835565b610867610152565b918291826101c2565b0390f35b610158565b90565b61088c906008610891930261050f565b610879565b90565b9061089f915461087c565b90565b6108ae60095f90610894565b90565b346108e1576108c1366004610160565b6108dd6108cc6108a2565b6108d4610152565b91829182610306565b0390f35b610158565b919060408382031261090e578061090261090b925f860161023a565b9360200161023a565b90565b61015c565b346109445761094061092f6109293660046108e6565b90610e34565b610937610152565b91829182610306565b0390f35b610158565b346109775761096161095c366004610456565b610ec1565b610969610152565b806109738161041d565b0390f35b610158565b5f80fd5b606090565b61098e906106e3565b90565b610999610980565b506109a46003610985565b90565b5f90565b6109c8916109b76109a7565b506109c0610ecc565b919091610ed9565b600190565b5f90565b5f1c90565b6109e26109e7916109d1565b610879565b90565b6109f490546109d6565b90565b6109ff6109cd565b50610a0a60026109ea565b90565b91610a3792610a1a6109a7565b50610a2f610a26610ecc565b82908491610f29565b919091610fb5565b600190565b5f90565b90565b90565b610a5a610a55610a5f92610a40565b610a43565b6103c0565b90565b610a6a610a3c565b50610a756012610a46565b90565b610a84610a89916109d1565b610513565b90565b610a969054610a78565b90565b5f7f4f6e6c7920706169726564206375727665000000000000000000000000000000910152565b610acd6011602092610173565b610ad681610a99565b0190565b610aef9060208101905f818303910152610ac0565b90565b15610af957565b610b01610152565b62461bcd60e51b815280610b1760048201610ada565b0390fd5b90610b4a91610b4533610b3f610b39610b346006610a8c565b61021a565b9161021a565b14610af2565b610b4c565b565b90610b5691611052565b565b90610b6291610b1b565b565b610b7590610b706110b0565b610c9b565b565b90565b610b8e610b89610b9392610b77565b610a43565b61020f565b90565b610b9f90610b7a565b90565b5f7f437572766520616c726561647920736574000000000000000000000000000000910152565b610bd66011602092610173565b610bdf81610ba2565b0190565b610bf89060208101905f818303910152610bc9565b90565b15610c0257565b610c0a610152565b62461bcd60e51b815280610c2060048201610be3565b0390fd5b5f1b90565b90610c3a60018060a01b0391610c24565b9181191691161790565b610c58610c53610c5d9261020f565b610a43565b61020f565b90565b610c6990610c44565b90565b610c7590610c60565b90565b90565b90610c90610c8b610c9792610c6c565b610c78565b8254610c29565b9055565b610cc8610ca86006610a8c565b610cc2610cbc610cb75f610b96565b61021a565b9161021a565b14610bfb565b610cd3816006610c7b565b610cfd7f6636b4acff97ba0537e64d4b936a4e28ed2cd8957674f5b583f8e5c2547ab64291610c6c565b90610d06610152565b80610d108161041d565b0390a2565b610d1e90610b64565b565b90610d2a90610c6c565b5f5260205260405f2090565b610d4c610d5191610d456109cd565b505f610d20565b6109ea565b90565b610d5c6110b0565b610d64610d66565b565b610d77610d725f610b96565b6110fe565b565b610d81610d54565b565b5f90565b610d8f610d83565b50610d9a6005610a8c565b90565b610da5610980565b50610db06004610985565b90565b90610de291610ddd33610dd7610dd1610dcc6006610a8c565b61021a565b9161021a565b14610af2565b610de4565b565b90610dee9161115f565b565b90610dfa91610db3565b565b610e1991610e086109a7565b50610e11610ecc565b919091610fb5565b600190565b90610e2890610c6c565b5f5260205260405f2090565b610e5991610e4f610e5492610e476109cd565b506001610e1e565b610d20565b6109ea565b90565b610e6d90610e686110b0565b610e6f565b565b80610e8a610e84610e7f5f610b96565b61021a565b9161021a565b14610e9a57610e98906110fe565b565b610ebd610ea65f610b96565b5f918291631e4fbdf760e01b835260048301610560565b0390fd5b610eca90610e5c565b565b610ed4610d83565b503390565b91610ee79291600192611213565b565b604090610f12610f199496959396610f0860608401985f850190610553565b60208301906102f9565b01906102f9565b565b90610f269103610249565b90565b929192610f37818390610e34565b9081610f4c610f465f19610249565b91610249565b10610f59575b5050509050565b81610f6c610f6687610249565b91610249565b10610f9257610f899394610f81919392610f1b565b905f92611213565b805f8080610f52565b50610fb1849291925f938493637dc7a0d960e11b855260048501610ee9565b0390fd5b9182610fd1610fcb610fc65f610b96565b61021a565b9161021a565b1461102b5781610ff1610feb610fe65f610b96565b61021a565b9161021a565b146110045761100292919091611369565b565b6110276110105f610b96565b5f91829163ec442f0560e01b835260048301610560565b0390fd5b61104e6110375f610b96565b5f918291634b637e8f60e11b835260048301610560565b0390fd5b8061106d6110676110625f610b96565b61021a565b9161021a565b14611089576110879161107f5f610b96565b919091611369565b565b6110ac6110955f610b96565b5f91829163ec442f0560e01b835260048301610560565b0390fd5b6110b8610d87565b6110d16110cb6110c6610ecc565b61021a565b9161021a565b036110d857565b6110fa6110e3610ecc565b5f91829163118cdaa760e01b835260048301610560565b0390fd5b6111086005610a8c565b611113826005610c7b565b906111476111417f8be0079c531659141344cd1fd0a4f28419497f9722a3daafe3b4186f6b6457e093610c6c565b91610c6c565b91611150610152565b8061115a8161041d565b0390a3565b908161117b6111756111705f610b96565b61021a565b9161021a565b1461119757611195919061118e5f610b96565b9091611369565b565b6111ba6111a35f610b96565b5f918291634b637e8f60e11b835260048301610560565b0390fd5b906111ca5f1991610c24565b9181191691161790565b6111e86111e36111ed92610249565b610a43565b610249565b90565b90565b9061120861120361120f926111d4565b6111f0565b82546111be565b9055565b90928161123061122a6112255f610b96565b61021a565b9161021a565b146112fb578361125061124a6112455f610b96565b61021a565b9161021a565b146112d4576112748361126f61126860018690610e1e565b8790610d20565b6111f3565b61127e575b505050565b9190916112c96112b76112b17f8c5be1e5ebec7d5bd14f71427d1e84f3dd0314c0f7b2291e5b200ac8c7c3b92593610c6c565b93610c6c565b936112c0610152565b91829182610306565b0390a35f8080611279565b6112f76112e05f610b96565b5f918291634a1406b160e11b835260048301610560565b0390fd5b61131e6113075f610b96565b5f91829163e602df0560e01b835260048301610560565b0390fd5b634e487b7160e01b5f52601160045260245ffd5b61134561134b91939293610249565b92610249565b820180921161135657565b611322565b906113669101610249565b90565b9190918061138761138161137c5f610b96565b61021a565b9161021a565b145f14611468576113ab6113a48361139f60026109ea565b611336565b60026111f3565b5b826113c76113c16113bc5f610b96565b61021a565b9161021a565b145f1461143c576113eb6113e4836113df60026109ea565b610f1b565b60026111f3565b5b91909161143761142561141f7fddf252ad1be2c89b69c2b068fc378daa952ba7f163c4a11628f55a4df523b3ef93610c6c565b93610c6c565b9361142e610152565b91829182610306565b0390a3565b6114638261145d61144e5f8790610d20565b91611458836109ea565b61135b565b906111f3565b6113ec565b61147b6114765f8390610d20565b6109ea565b8061148e61148885610249565b91610249565b106114b6576114a16114b1918490610f1b565b6114ac5f8490610d20565b6111f3565b6113ac565b906114d49091925f93849363391434e360e21b855260048501610ee9565b0390fdfea2646970667358221220a062fc8a18bd79ff8f6f296f3926e6c71a03fb7b76574e7b560686acea17fba564736f6c6343000822003360c0604052346100845761001d610014610171565b9291909161023f565b610025610089565b611e9061038882396080518181816109a1015281816116680152818161198c0152611c34015260a0518181816107b901528181610e9d01528181610f0d0152818161156a015281816115e9015281816119fc0152611a720152611e9090f35b61008f565b60405190565b5f80fd5b601f801991011690565b634e487b7160e01b5f52604160045260245ffd5b906100bb90610093565b810190811060018060401b038211176100d357604052565b61009d565b906100eb6100e4610089565b92836100b1565b565b5f80fd5b60018060a01b031690565b610105906100f1565b90565b610111816100fc565b0361011857565b5f80fd5b9050519061012982610108565b565b60808183031261016c57610141825f830161011c565b92610169610152846020850161011c565b93610160816040860161011c565b9360600161011c565b90565b6100ed565b61018f61221880380380610184816100d8565b92833981019061012b565b90919293565b90565b6101ac6101a76101b1926100f1565b610195565b6100f1565b90565b6101bd90610198565b90565b6101c9906101b4565b90565b6101d590610198565b90565b6101e1906101cc565b90565b5f1b90565b906101fa60018060a01b03916101e4565b9181191691161790565b61020d90610198565b90565b61021990610204565b90565b90565b9061023461022f61023b92610210565b61021c565b82546101e9565b9055565b9161026461026d9261025c61027496956102576102fa565b6101c0565b6080526101d8565b60a0525f61021f565b600161021f565b565b90565b90565b61029061028b61029592610276565b610195565b610279565b90565b6102a2600161027c565b90565b906102b15f19916101e4565b9181191691161790565b6102cf6102ca6102d492610279565b610195565b610279565b90565b90565b906102ef6102ea6102f6926102bb565b6102d7565b82546102a5565b9055565b61031c610305610298565b5f610316610311610370565b610384565b016102da565b565b5f90565b90565b90565b61033c61033761034192610322565b6101e4565b610325565b90565b61036d7f9b779b17422d0df92223018b32b4d1fa46e071723d6817e2486d003becc55f00610328565b90565b61037861031e565b50610381610344565b90565b9056fe60806040526004361015610013575b610a26565b61001d5f3561016c565b80630c8a77ee14610167578063281a320f14610162578063396907921461015d57806346904840146101585780635f81a57c146101535780636d25d8021461014e5780637c5e279514610149578063aaf5eb6814610144578063bccc912e1461013f578063bd55022a1461013a578063bf333f2c14610135578063c1a844f014610130578063c45a01551461012b578063c5c4744c14610126578063d6febde814610121578063d79875eb1461011c578063d8dfeb4514610117578063e1f1c4a714610112578063e7c2b7721461010d578063eb91d37e146101085763fc0c546a0361000e576109f1565b61096a565b610935565b61089e565b610831565b610783565b61074f565b6106ed565b6106a9565b610665565b6105f5565b610589565b610545565b610510565b61049d565b610430565b6103c1565b610354565b6102ad565b61021b565b6101e6565b60e01c90565b60405190565b5f80fd5b5f80fd5b90565b61018c81610180565b0361019357565b5f80fd5b905035906101a482610183565b565b906020828203126101bf576101bc915f01610197565b90565b61017c565b6101cd90610180565b9052565b91906101e4905f602085019401906101c4565b565b34610216576102126102016101fc3660046101a6565b610ad2565b610209610172565b918291826101d1565b0390f35b610178565b3461024b576102476102366102313660046101a6565b610b2d565b61023e610172565b918291826101d1565b0390f35b610178565b60018060a01b031690565b61026490610250565b90565b6102708161025b565b0361027757565b5f80fd5b9050359061028882610267565b565b906020828203126102a3576102a0915f0161027b565b90565b61017c565b5f0190565b346102db576102c56102c036600461028a565b610e5c565b6102cd610172565b806102d7816102a8565b0390f35b610178565b5f9103126102ea57565b61017c565b1c90565b60018060a01b031690565b61030e90600861031393026102ef565b6102f3565b90565b9061032191546102fe565b90565b61032f5f5f90610316565b90565b61033b9061025b565b9052565b9190610352905f60208501940190610332565b565b34610384576103643660046102e0565b61038061036f610324565b610377610172565b9182918261033f565b0390f35b610178565b90565b61039c9060086103a193026102ef565b610389565b90565b906103af915461038c565b90565b6103be60045f906103a4565b90565b346103f1576103d13660046102e0565b6103ed6103dc6103b2565b6103e4610172565b918291826101d1565b0390f35b610178565b90565b90565b61041061040b610415926103f6565b6103f9565b610180565b90565b610422600a6103fc565b90565b61042d610418565b90565b34610460576104403660046102e0565b61045c61044b610425565b610453610172565b918291826101d1565b0390f35b610178565b90565b61047c61047761048192610465565b6103f9565b610180565b90565b61048f6103e8610468565b90565b61049a610484565b90565b346104cd576104ad3660046102e0565b6104c96104b8610492565b6104c0610172565b918291826101d1565b0390f35b610178565b90565b6104e96104e46104ee926104d2565b6103f9565b610180565b90565b610502670de0b6b3a76400006104d5565b90565b61050d6104f1565b90565b34610540576105203660046102e0565b61053c61052b610505565b610533610172565b918291826101d1565b0390f35b610178565b34610575576105553660046102e0565b610571610560611021565b610568610172565b918291826101d1565b0390f35b610178565b61058660055f906103a4565b90565b346105b9576105993660046102e0565b6105b56105a461057a565b6105ac610172565b918291826101d1565b0390f35b610178565b90565b6105d56105d06105da926105be565b6103f9565b610180565b90565b6105e7601e6105c1565b90565b6105f26105dd565b90565b34610625576106053660046102e0565b6106216106106105ea565b610618610172565b918291826101d1565b0390f35b610178565b90565b61064161063c6106469261062a565b6103f9565b610180565b90565b6106576402540be40061062d565b90565b610662610649565b90565b34610695576106753660046102e0565b61069161068061065a565b610688610172565b918291826101d1565b0390f35b610178565b6106a660015f90610316565b90565b346106d9576106b93660046102e0565b6106d56106c461069a565b6106cc610172565b9182918261033f565b0390f35b610178565b6106ea60025f906103a4565b90565b3461071d576106fd3660046102e0565b6107196107086106de565b610710610172565b918291826101d1565b0390f35b610178565b919060408382031261074a578061073e610747925f8601610197565b93602001610197565b90565b61017c565b3461077e57610768610762366004610722565b906118b9565b610770610172565b8061077a816102a8565b0390f35b610178565b346107b25761079c610796366004610722565b90611c15565b6107a4610172565b806107ae816102a8565b0390f35b610178565b7f000000000000000000000000000000000000000000000000000000000000000090565b6107ef6107ea6107f492610250565b6103f9565b610250565b90565b610800906107db565b90565b61080c906107f7565b90565b61081890610803565b9052565b919061082f905f6020850194019061080f565b565b34610861576108413660046102e0565b61085d61084c6107b7565b610854610172565b9182918261081c565b0390f35b610178565b90565b61087d61087861088292610866565b6103f9565b610180565b90565b610890612710610869565b90565b61089b610885565b90565b346108ce576108ae3660046102e0565b6108ca6108b9610893565b6108c1610172565b918291826101d1565b0390f35b610178565b60ff1690565b6108e99060086108ee93026102ef565b6108d3565b90565b906108fc91546108d9565b90565b61090b60035f906108f1565b90565b151590565b61091c9061090e565b9052565b9190610933905f60208501940190610913565b565b34610965576109453660046102e0565b6109616109506108ff565b610958610172565b91829182610920565b0390f35b610178565b3461099a5761097a3660046102e0565b610996610985611c21565b61098d610172565b918291826101d1565b0390f35b610178565b7f000000000000000000000000000000000000000000000000000000000000000090565b6109cc906107f7565b90565b6109d8906109c3565b9052565b91906109ef905f602085019401906109cf565b565b34610a2157610a013660046102e0565b610a1d610a0c61099f565b610a14610172565b918291826109dc565b0390f35b610178565b5f80fd5b5f90565b634e487b7160e01b5f52601160045260245ffd5b610a51610a5791939293610180565b92610180565b91610a63838202610180565b928184041490151715610a7257565b610a2e565b634e487b7160e01b5f52601260045260245ffd5b610a97610a9d91610180565b91610180565b908115610aa8570490565b610a77565b610abc610ac291939293610180565b92610180565b8203918211610acd57565b610a2e565b610b01610af3610b2a92610ae4610a2a565b50610aed611c21565b90610a42565b610afb6104f1565b90610a8b565b610b24610b1682610b106105dd565b90610a42565b610b1e610885565b90610a8b565b90610aad565b90565b610b66610b8591610b3c610a2a565b50610b60610b5282610b4c6105dd565b90610a42565b610b5a610885565b90610a8b565b90610aad565b610b80610b71611c21565b91610b7a6104f1565b90610a42565b610a8b565b90565b5f1c90565b610b99610b9e91610b88565b6102f3565b90565b610bab9054610b8d565b90565b60209181520190565b5f7f4f6e6c7920666163746f72790000000000000000000000000000000000000000910152565b610beb600c602092610bae565b610bf481610bb7565b0190565b610c0d9060208101905f818303910152610bde565b90565b15610c1757565b610c1f610172565b62461bcd60e51b815280610c3560048201610bf8565b0390fd5b610c45610c4a91610b88565b6108d3565b90565b610c579054610c39565b90565b5f7f4e6f742067726164756174656420796574000000000000000000000000000000910152565b610c8e6011602092610bae565b610c9781610c5a565b0190565b610cb09060208101905f818303910152610c81565b90565b15610cba57565b610cc2610172565b62461bcd60e51b815280610cd860048201610c9b565b0390fd5b610ce5906107f7565b90565b5f80fd5b601f801991011690565b634e487b7160e01b5f52604160045260245ffd5b90610d1490610cec565b810190811067ffffffffffffffff821117610d2e57604052565b610cf6565b60e01b90565b90505190610d4682610183565b565b90602082820312610d6157610d5e915f01610d39565b90565b61017c565b610d6e610172565b3d5f823e3d90fd5b610d7f8161090e565b03610d8657565b5f80fd5b90505190610d9782610d76565b565b90602082820312610db257610daf915f01610d8a565b90565b61017c565b916020610dd8929493610dd160408201965f830190610332565b01906101c4565b565b5f7f5769746864726177206661696c65640000000000000000000000000000000000910152565b610e0e600f602092610bae565b610e1781610dda565b0190565b610e309060208101905f818303910152610e01565b90565b15610e3a57565b610e42610172565b62461bcd60e51b815280610e5860048201610e1b565b0390fd5b610e8133610e7b610e75610e706001610ba1565b61025b565b9161025b565b14610c10565b610e93610e8e6003610c4d565b610cb3565b610ef36020610ec17f0000000000000000000000000000000000000000000000000000000000000000610803565b6370a0823190610ee8610ed330610cdc565b92610edc610172565b95869485938493610d33565b83526004830161033f565b03915afa8015610fdc576020915f91610faf575b50610f317f0000000000000000000000000000000000000000000000000000000000000000610803565b610f545f63a9059cbb959395610f5f610f48610172565b97889687958694610d33565b845260048401610db7565b03925af18015610faa57610f7a915f91610f7c575b50610e33565b565b610f9d915060203d8111610fa3575b610f958183610d0a565b810190610d99565b5f610f74565b503d610f8b565b610d66565b610fcf9150823d8111610fd5575b610fc78183610d0a565b810190610d48565b5f610f07565b503d610fbd565b610d66565b90565b610ff8610ff3610ffd92610fe1565b6103f9565b610180565b90565b61100c61101191610b88565b610389565b90565b61101e9054611000565b90565b611029610a2a565b506110346003610c4d565b611069576110666110586110486002611014565b6110526064610fe4565b90610a42565b611060610649565b90610a8b565b90565b6110736064610fe4565b90565b9061108891611083611d26565b6114c0565b611090611d5f565b565b5f7f546f6b656e20677261647561746564202d207472616465206f6e204445580000910152565b6110c6601e602092610bae565b6110cf81611092565b0190565b6110e89060208101905f8183039101526110b9565b90565b156110f257565b6110fa610172565b62461bcd60e51b815280611110600482016110d3565b0390fd5b90565b61112b61112661113092611114565b6103f9565b610180565b90565b5f7f416d6f756e74206d757374206265203e20300000000000000000000000000000910152565b6111676012602092610bae565b61117081611133565b0190565b6111899060208101905f81830391015261115a565b90565b1561119357565b61119b610172565b62461bcd60e51b8152806111b160048201611174565b0390fd5b5f7f536c69707061676520746f6f2068696768000000000000000000000000000000910152565b6111e96011602092610bae565b6111f2816111b5565b0190565b61120b9060208101905f8183039101526111dc565b90565b1561121557565b61121d610172565b62461bcd60e51b815280611233600482016111f6565b0390fd5b604090611260611267949695939661125660608401985f850190610332565b6020830190610332565b01906101c4565b565b5f7f5472616e73666572206661696c65640000000000000000000000000000000000910152565b61129d600f602092610bae565b6112a681611269565b0190565b6112bf9060208101905f818303910152611290565b90565b156112c957565b6112d1610172565b62461bcd60e51b8152806112e7600482016112aa565b0390fd5b5f7f466565206661696c656400000000000000000000000000000000000000000000910152565b61131f600a602092610bae565b611328816112eb565b0190565b6113419060208101905f818303910152611312565b90565b1561134b57565b611353610172565b62461bcd60e51b8152806113696004820161132c565b0390fd5b5f91031261137757565b61017c565b61138b61139191939293610180565b92610180565b820180921161139c57565b610a2e565b5f1b90565b906113b25f19916113a1565b9181191691161790565b6113d06113cb6113d592610180565b6103f9565b610180565b90565b90565b906113f06113eb6113f7926113bc565b6113d8565b82546113a6565b9055565b90565b61141261140d611417926113fb565b6103f9565b610180565b90565b611423906107f7565b90565b60409061144f611456949695939661144560608401985f8501906101c4565b60208301906101c4565b01906101c4565b565b9061146460ff916113a1565b9181191691161790565b6114779061090e565b90565b90565b9061149261148d6114999261146e565b61147a565b8254611458565b9055565b9160206114be9294936114b760408201965f8301906101c4565b01906101c4565b565b6114db6114d66114d06003610c4d565b1561090e565b6110eb565b6114f7816114f16114eb5f611117565b91610180565b1161118c565b61151a61150c826115066105dd565b90610a42565b611514610885565b90610a8b565b611525828290610aad565b61156561154a611533611c21565b6115458461153f6104f1565b90610a42565b610a8b565b9461155e6115588792610180565b91610180565b101561120e565b61158e7f0000000000000000000000000000000000000000000000000000000000000000610803565b60206323b872dd9133906115be5f6115a530610cdc565b956115c9886115b2610172565b98899788968795610d33565b855260048501611237565b03925af180156118b4576115e4915f91611886575b506112c2565b61160d7f0000000000000000000000000000000000000000000000000000000000000000610803565b60206323b872dd91339061163d5f61162481610ba1565b9561164889611631610172565b98899788968795610d33565b855260048501611237565b03925af1801561188157611663915f91611853575b50611344565b61168c7f00000000000000000000000000000000000000000000000000000000000000006109c3565b906340c10f19338693803b1561184e576116b95f80946116c46116ad610172565b98899687958694610d33565b845260048401610db7565b03925af1908115611849576116f3926116ec9261181d575b506116e76002611014565b61137c565b60026113db565b611710611709836117046004611014565b61137c565b60046113db565b61173661172f61172060016113fe565b61172a6005611014565b61137c565b60056113db565b339192909261177a6117687fedba86fd2b22962d534e70ad9b0ff8730de46f636146f2bab6a72cbb1ebbcc539461141a565b94611771610172565b93849384611426565b0390a26117876002611014565b6117a061179a611795610649565b610180565b91610180565b101580611804575b6117af575b565b6117bb6001600361147d565b6117c56002611014565b427facfdce92da76539f5af2efc3aa76d42a7a92af4d723a23d144f58fdf1472921e916117fc6117f3610172565b9283928361149d565b0390a16117ad565b506118186118126003610c4d565b1561090e565b6117a8565b61183c905f3d8111611842575b6118348183610d0a565b81019061136d565b5f6116dc565b503d61182a565b610d66565b610ce8565b611874915060203d811161187a575b61186c8183610d0a565b810190610d99565b5f61165d565b503d611862565b610d66565b6118a7915060203d81116118ad575b61189f8183610d0a565b810190610d99565b5f6115de565b503d611895565b610d66565b906118c391611076565b565b906118d7916118d2611d26565b6118e1565b6118df611d5f565b565b6118fc6118f76118f16003610c4d565b1561090e565b6110eb565b6119188161191261190c5f611117565b91610180565b1161118c565b61193a61192c611926611c21565b83610a42565b6119346104f1565b90610a8b565b61195d61194f826119496105dd565b90610a42565b611957610885565b90610a8b565b9061198761196c828490610aad565b9461198061197a8792610180565b91610180565b101561120e565b6119b07f00000000000000000000000000000000000000000000000000000000000000006109c3565b639dc29fac338592803b15611c10576119dc5f80946119e76119d0610172565b97889687958694610d33565b845260048401610db7565b03925af18015611c0b57611bdf575b50611a207f0000000000000000000000000000000000000000000000000000000000000000610803565b602063a9059cbb913390611a475f8995611a52611a3b610172565b97889687958694610d33565b845260048401610db7565b03925af18015611bda57611a6d915f91611bac575b506112c2565b611a967f0000000000000000000000000000000000000000000000000000000000000000610803565b90602063a9059cbb92611aa85f610ba1565b90611ac65f8796611ad1611aba610172565b98899687958694610d33565b845260048401610db7565b03925af1908115611ba757611af4611b0392611b0a945f91611b79575b50611344565b611afe6004611014565b61137c565b60046113db565b611b30611b29611b1a60016113fe565b611b246005611014565b61137c565b60056113db565b3391929092611b74611b627fe029f26dbcf8c42dd2f352c10214a7fc26773dc62482c6241334a0402ac09a809461141a565b94611b6b610172565b93849384611426565b0390a2565b611b9a915060203d8111611ba0575b611b928183610d0a565b810190610d99565b5f611aee565b503d611b88565b610d66565b611bcd915060203d8111611bd3575b611bc58183610d0a565b810190610d99565b5f611a67565b503d611bbb565b610d66565b611bfe905f3d8111611c04575b611bf68183610d0a565b81019061136d565b5f6119f6565b503d611bec565b610d66565b610ce8565b90611c1f916118c5565b565b611c29610a2a565b50611c6e6020611c587f00000000000000000000000000000000000000000000000000000000000000006109c3565b6318160ddd90611c66610172565b938492610d33565b82528180611c7e600482016102a8565b03915afa8015611cf557611cc4915f91611cc7575b50611cbe611cb0611ca2610484565b92611cab610418565b610a42565b611cb86104f1565b90610a8b565b9061137c565b90565b611ce8915060203d8111611cee575b611ce08183610d0a565b810190610d48565b5f611c93565b503d611cd6565b610d66565b90565b611d11611d0c611d1692611cfa565b6103f9565b610180565b90565b611d236002611cfd565b90565b611d2e611d83565b611d50611d39611d19565b5f611d4a611d45611dff565b611e13565b016113db565b565b611d5c60016113fe565b90565b611d81611d6a611d52565b5f611d7b611d76611dff565b611e13565b016113db565b565b611d8b611e1a565b611d9157565b5f633ee5aeb560e01b815280611da9600482016102a8565b0390fd5b5f90565b90565b90565b611dcb611dc6611dd092611db1565b6113a1565b611db4565b90565b611dfc7f9b779b17422d0df92223018b32b4d1fa46e071723d6817e2486d003becc55f00611db7565b90565b611e07611dad565b50611e10611dd3565b90565b90565b5f90565b611e22611e16565b50611e3d5f611e37611e32611dff565b611e13565b01611014565b611e56611e50611e4b611d19565b610180565b91610180565b149056fea26469706673582212201bd7aa856b203b0e06085a2446dbbc9447e74d17b7173e536102051f9aaf05b564736f6c63430008220033a264697066735822122097b32e71970b621b6b1f1df7a832a14186ddbebbc536a4da446d243fe58a8be164736f6c63430008220033","linkReferences":{}},"methodIdentifiers":{"announceMigration(address)":"141b52c9","cancelMigration()":"10639ea0","collateralToken()":"b2016bd4","feeRecipient()":"46904840","getAll()":"53ed5143","getToken(uint256)":"e4b50cb8","l1ChainBridge()":"88b17a9a","launchFeeNative()":"5b00a265","launchToken(string,string,string,string)":"5fc6762c","migrationAt()":"b7b25887","migrationPending()":"43329372","owner()":"8da5cb5b","renounceOwnership()":"715018a6","setFeeRecipient(address)":"e74b981b","setLaunchFee(uint256)":"5313be2c","tokenToCurve(address)":"0c74fbac","tokens(uint256)":"4f64b2be","totalLaunched()":"4c035870","transferOwnership(address)":"f2fde38b"},"id":7}